:020000040800F2
:1000000000500020AD12000881120008851200087F
:10001000891200088D1200089112000800000000EB
:100020000000000000000000000000009512000821
:1000300099120008000000009D120008A11200089B
:10004000F5120008F5120008F5120008F512000874
:10005000F5120008F5120008F5120008F512000864
:10006000F5120008F5120008F5120008F512000854
:10007000F5120008F5120008F5120008F512000844
:10008000F5120008F5120008F5120008F512000834
:10009000F5120008F5120008F5120008F512000824
:1000A000F5120008F5120008F5120008F512000814
:1000B000F5120008F5120008F5120008F512000804
:1000C000F5120008F5120008F5120008F5120008F4
:1000D000F5120008F5120008F5120008F5120008E4
:1000E000F5120008F5120008F512000800000000E3
:1000F0000000000000000000000000000000000000
:0C01000000000000000000005FF808F1A3
:10010C00044B05481B1A062B02D9044B03B11847A4
:10011C00704700BF07000020040000200000000012
:10012C0005490648091A891001EBD171491002D012
:10013C00034B03B118477047040000200400002053
:10014C000000000010B5064C237843B9FFF7D8FF28
:10015C00044B13B10448AFF300800123237010BD8E
:10016C0004000020000000005413000808B5084BE0
:10017C001BB108480849AFF300800848036813B95D
:10018C00BDE80840CCE7064B002BF9D09847F7E7C1
:10019C000000000054130008080000200400002098
:1001AC000000000010B586B0124B9A6942F0200294
:1001BC009A619A6902F020020092009A9A6942F0C0
:1001CC0004029A619B6903F004030193019B0A4C9E
:1001DC0020460421002200F06BFC0423029301232F
:1001EC00039303230593204602A900F06FFB06B08E
:1001FC0010BD00BF001002400008014030B583B0B4
:10020C0004460D46084601F097F882B2204629466E
:10021C004FF6FF7300F0DAF902A940F60D2321F82E
:10022C00043D204602224FF6FF7300F0CFF903B0D5
:10023C0030BD00BFFEE700BF08B50B480B4B036099
:10024C004FF41653436000238360C36003610C2298
:10025C0042618361C36100F087F918B10448BD2184
:10026C00FFF7E8FF08BD00BF200000200038014068
:10027C008013000800B591B0012106914FF4803233
:10028C000792002308930A9102210D910E920F936D
:10029C0006A800F0CFFC18B113489221FFF7CAFF53
:1002AC000F230193022302930021039104910591E2
:1002BC0001A800F0F7FE18B10B48A021FFF7BAFF18
:1002CC0000F0B2FF094BA3FB0030800900F070FC7A
:1002DC00042000F083FC4FF0FF3000210A4600F0B0
:1002EC0035FC11B05DF804FB80130008D34D62108F
:1002FC0010B582B000F0F8FBFFF7BCFFFFF752FF20
:10030C00FFF79AFF0C480D49FFF778FF0C480421C2
:10031C00012200F0CDFB084C204601A901224FF62A
:10032C00FF7300F0C3F9204601A901224FF6FF73B9
:10033C0000F04CF9EFE700BF200000208C13000800
:10034C00000801402DE9F843814601680B6923F44C
:10035C004052C36813430B618168036919434369B5
:10036C0019430068C26822F4B05323F00C030B430A
:10037C00C360D9F800104B6923F44072D9F81830D7
:10038C0013434B61D9F800505B4B9D4259D100F09F
:10039C0061FF00EB800000EB8000D9F80440A40062
:1003AC00B0FBF4F4554EA6FB04346409240100F0B0
:1003BC0051FF00EB800000EB8000D9F804309B006B
:1003CC00B0FBF3F700F046FF00EB800000EB800081
:1003DC00D9F804309B00B0FBF3F3A6FB03235B09B5
:1003EC004FF0640808FB13731B013233A6FB032385
:1003FC005B0903F0F0031C4400F02CFF00EB8000C1
:10040C0000EB8000D9F804309B00B0FBF3F700F050
:10041C0021FF00EB800000EB8000D9F804309B003A
:10042C00B0FBF3F3A6FB03235B0908FB13731B015F
:10043C003233A6FB0323C3F343131C44AC60BDE867
:10044C00F88300F0F7FE00EB800000EB8000D9F899
:10045C000440A400B0FBF4F4284EA6FB0434640959
:10046C00240100F0E7FE00EB800000EB8000D9F8DF
:10047C0004309B00B0FBF3F700F0DCFE00EB8000D7
:10048C0000EB8000D9F804309B00B0FBF3F3A6FB23
:10049C0003235B094FF0640808FB13731B01323311
:1004AC00A6FB03235B0903F0F0031C4400F0C2FE1F
:1004BC0000EB800000EB8000D9F804309B00B0FB0F
:1004CC00F3F700F0B7FE00EB800000EB8000D9F8EA
:1004DC0004309B00B0FBF3F3A6FB03235B0908FB82
:1004EC0013731B013233A6FB0323C3F343131C44C6
:1004FC00AC60BDE8F88300BF003801401F85EB51AC
:10050C002DE9F04106460C4617469846069D1EE01E
:10051C00B5F1FF3F1BD02DB100F000FBC8EB000084
:10052C00A84214D93268D36823F4D073D3603268EC
:10053C00536923F001035361202386F8393086F880
:10054C003A30002386F838300320BDE8F081336858
:10055C001B682340A34214BF00230123BB42D7D006
:10056C000020BDE8F08100BF68B310B5044690F8D8
:10057C00393013F0FF0F04D1002380F8383000F02D
:10058C0051F9242384F839302268D36823F40053BA
:10059C00D3602046FFF7D6FE2268136923F49043FC
:1005AC0013612268536923F02A0353612268D368CC
:1005BC0043F40053D3600020E063202384F83930E7
:1005CC0084F83A3010BD0120704700BF2DE9F0418E
:1005DC0082B004461E4690F83930DBB2202B54D141
:1005EC000D469046002952D0002A52D090F838304F
:1005FC00012B50D0012380F838300023C363212312
:10060C0080F8393000F08AFA0746A4F82480A4F860
:10061C00268026E0E38C013B9BB2E384A368B3F510
:10062C00805F12D100962046802100223B46FFF7C6
:10063C0067FF90BB22682B88C3F3080353602369C0
:10064C000BB902350DE001350BE0009620468021F8
:10065C0000223B46FFF754FF08BB23682A785A60F8
:10066C000135E38C9BB2002BD4D10096204640215F
:10067C0000223B46FFF744FF034690B9202284F842
:10068C003920002284F838200CE002230AE00123F0
:10069C0008E0012306E0022304E0032302E0032325
:1006AC0000E00323184602B0BDE8F0812DE9F041CB
:1006BC0082B004461E4690F83A30DBB2202B59D15A
:1006CC000D469046002957D0002A57D090F8383064
:1006DC00012B55D0012380F838300023C36322232B
:1006EC0080F83A3000F01AFA0746A4F82C80A4F8E7
:1006FC002E8034E0E38D013B9BB2E385A368B3F518
:10070C00805F17D100962046202100223B46FFF740
:10071C00F7FE002836D1236933B923685B68C3F32D
:10072C00080325F8023B1AE023685B68DBB225F866
:10073C00013B14E000962046202100223B46FFF7A7
:10074C00DFFE08BB236923B923685B682B70013576
:10075C0005E023685B6803F07F032B700135E38DA4
:10076C009BB2002BC6D1202384F83A30002084F8A9
:10077C0038000AE0022008E0012006E0012004E035
:10078C00022002E0032000E0032002B0BDE8F0816B
:10079C0000B583B0214B9A6942F001029A619B69C2
:1007AC0003F001030193019B032000F0BDF96FF0EE
:1007BC000B0000210A4600F0C9F96FF00A00002175
:1007CC000A4600F0C3F96FF0090000210A4600F058
:1007DC00BDF96FF0040000210A4600F0B7F96FF084
:1007EC00030000210A4600F0B1F96FF0010000216E
:1007FC000A4600F0ABF94FF0FF3000210A4600F03A
:10080C00A5F9074B5A6822F0E0625A605A6842F028
:10081C0080625A6003B05DF804FB00BF0010024018
:10082C00000001400268144B9A4224D110B586B0E6
:10083C0003F558439A6942F480429A619B6903F428
:10084C0080430193019B4FF40073029302230393A3
:10085C0003230593094C204602A900F037F84FF406
:10086C0080630293002303930493204602A900F0B3
:10087C002DF806B010BD704700380140000801404B
:10088C000F4B1A6842F001021A6059680D4A0A406F
:10089C005A601A6822F0847222F480321A601A6844
:1008AC0022F480221A605A6822F4FE025A604FF435
:1008BC001F029A604FF00062034B9A60704700BFB2
:1008CC00001002400000FFF800ED00E0F0B583B02E
:1008DC0000273C46DAE00122A2400B681340934209
:1008EC0040F0D3804D68122D2DD00BD8022D27D07F
:1008FC0003D85DB3012D1ED035E0032D30D0112D62
:10090C001BD030E0644EB54220D008D8A6F5801636
:10091C00B5421BD006F58036B54224D116E05F4EA9
:10092C00B54213D006F58036B5420FD0A6F5801629
:10093C00B54218D10AE0CF6815E0CF68043712E051
:10094C00CF6808370FE0CF680C370CE08D684DB1DD
:10095C00012D02D10261082705E04261082702E05F
:10096C00002700E00427FF2B01D8844601E000F1AA
:10097C00040CFF2B02D84FEA840E03E0A4F1080EFE
:10098C004FEA8E0EDCF800600F2202FA0EF226EA15
:10099C00020507FA0EF22A43CCF800204A6812F03E
:1009AC00805F72D03E4A956945F001059561926968
:1009BC0002F001020192019A4FEA940E0EF1020527
:1009CC00384A52F8256004F0030C4FEA8C0C0F22C5
:1009DC0002FA0CF226EA0205334A904213D002F5D1
:1009EC00806290420DD002F58062904207D002F5F1
:1009FC008062904201D1032206E0042204E002222C
:100A0C0002E0012200E0002202FA0CF22A430EF16D
:100A1C00020E244D45F82E204A6812F4803F05D072
:100A2C0005F580652A681A432A6004E01F4D2A6880
:100A3C0022EA03022A604A6812F4003F04D01B4DDC
:100A4C006A681A436A6004E0184D6A6822EA030275
:100A5C006A604A6812F4801F04D0144DAA681A43C5
:100A6C00AA6004E0114DAA6822EA0302AA604A684F
:100A7C0012F4001F04D00D4DEA681343EB6004E040
:100A8C000A4DEA6822EA0303EB6001340F2C7FF66F
:100A9C0022AF03B0F0BD00BF0000211000003110E8
:100AAC000010024000000140000801400004014019
:100ABC000AB10161704709040161704710B5044621
:100ACC00074B1B680748A0FB0330800900F070F847
:100ADC004FF0FF302146002200F038F8002010BD06
:100AEC0000000020D34D621008B5074A136843F08C
:100AFC0010031360032000F017F80020FFF7DEFF4F
:100B0C00FFF746FE002008BD00200240024A136891
:100B1C0001331360704700BF60000020014B186860
:100B2C00704700BF6000002000F00700064AD36841
:100B3C0023F4E0631B041B0C43EA002040F0BF606D
:100B4C0040F40030D060704700ED00E030B4164B3C
:100B5C00DC68C4F30224C4F10705042D28BF042566
:100B6C00231D062B01D9033C00E00024012303FACA
:100B7C0005F5013D2940A140A340013B1A400A4321
:100B8C00002806DA00F00F001201D2B2074B1A54FB
:100B9C0007E01201D2B200F1604000F5614080F82C
:100BAC00002330BC704700BF00ED00E014ED00E006
:100BBC000138B0F1807F0AD2064B5860F021064A0A
:100BCC0082F823100020986007221A6070470120D9
:100BDC00704700BF10E000E000ED00E0042805D1F4
:100BEC00054A136843F0040313607047024A136804
:100BFC0023F004031360704710E000E0704700BF5F
:100C0C0008B5FFF7FBFF08BD82B0084B1B68084A0C
:100C1C00A2FB03235B0A00FB03F0019000BF019BC6
:100C2C005A1E0192002BF9D102B07047000000202F
:100C3C00D34D621070B582B00446036813F0010FF7
:100C4C006BD0A84B5B6803F00C03042B0AD0A54BAC
:100C5C005B6803F00C03082B0DD1A24B5B6813F4FB
:100C6C00803F08D09F4B1B6813F4003F55D063683E
:100C7C00002B52D1B8E16368B3F5803F05D1994A96
:100C8C00136843F48033136026E063B903F18043A7
:100C9C0003F504331A6822F480321A601A6822F4BD
:100CAC0080221A6018E0B3F5A02F0CD103F1804319
:100CBC00A3F53C331A6842F480221A601A6842F495
:100CCC0080321A6008E0874B1A6822F480321A606E
:100CDC001A6822F480221A6063687BB1FFF71EFF4A
:100CEC00054605E0FFF71AFF401B642800F27E81E1
:100CFC007C4B1B6813F4003FF4D00EE0FFF70EFFA3
:100D0C00054605E0FFF70AFF401B642800F27081DE
:100D1C00744B1B6813F4003FF4D1236813F0020FDB
:100D2C0050D0704B5B6813F00C0F0AD06D4B5B68A6
:100D3C0003F00C03082B16D16A4B5B6813F4803F4D
:100D4C0011D1684B1B6813F0020F03D02369012BE0
:100D5C0040F05081634A136823F0F803616943EA59
:100D6C00C10313602EE02369D3B101225E4B1A60DC
:100D7C00FFF7D4FE054605E0FFF7D0FE401B022826
:100D8C0000F23A81574B1B6813F0020FF4D0554A0E
:100D9C00136823F0F803616943EAC103136011E09F
:100DAC000022514B1A60FFF7B9FE054605E0FFF72C
:100DBC00B5FE401B022800F221814A4B1B6813F040
:100DCC00020FF4D1236813F0080F29D0A369ABB13B
:100DDC000122464B1A60FFF7A1FE054605E0FFF71E
:100DEC009DFE401B022800F20B813E4B5B6A13F008
:100DFC00020FF4D00120FFF707FF11E000223B4B5C
:100E0C001A60FFF78BFE054605E0FFF787FE401BD7
:100E1C00022800F2F780334B5B6A13F0020FF4D117
:100E2C00236813F0040F00F089802E4BDB6913F05C
:100E3C00805F0BD12B4BDA6942F08052DA61DB69AF
:100E4C0003F080530193019B012500E00025284B02
:100E5C001B6813F4807F13D1254A136843F4807305
:100E6C001360FFF75BFE064605E0FFF757FE801B9D
:100E7C00642800F2C9801E4B1B6813F4807FF4D0E9
:100E8C00E368012B05D1174A136A43F0010313627F
:100E9C0022E063B903F1804303F504331A6A22F0AC
:100EAC0001021A621A6A22F004021A6214E0052B7B
:100EBC0009D10C4B1A6A42F004021A621A6A42F007
:100ECC0001021A6208E0074B1A6A22F001021A6248
:100EDC001A6A22F004021A62E368CBB1FFF71EFE15
:100EEC0006460FE0001002400000424280044242DD
:100EFC0000700040FFF712FE801B41F288339842CD
:100F0C0000F28480494B1B6A13F0020FF2D00FE001
:100F1C00FFF704FE064606E0FFF700FE801B41F2D9
:100F2C008833984274D8414B1B6A13F0020FF3D1EB
:100F3C0025B13E4AD36923F08053D361E369002B7A
:100F4C0068D03A4A526802F00C02082A64D0022B8C
:100F5C0037D10022364B1A60FFF7E0FD054604E05E
:100F6C00FFF7DCFD401B022858D8304B1B6813F0F0
:100F7C00007FF5D1236AB3F5803F06D12B494B682E
:100F8C0023F40032A36813434B602848436823F4CE
:100F9C007411236A626A13430B4343600122244B8E
:100FAC001A60FFF7BBFD044604E0FFF7B7FD001B1A
:100FBC00022835D81D4B1B6813F0007FF5D000209C
:100FCC0031E000221A4B1A60FFF7A8FD044604E03A
:100FDC00FFF7A4FD001B022824D8144B1B6813F048
:100FEC00007FF5D100201EE001201CE003201AE058
:100FFC00032018E0012016E0032014E0032012E087
:10100C00032010E003200EE003200CE003200AE094
:10101C00032008E0002006E0012004E0032002E0A9
:10102C00032000E0032002B070BD00BF001002409E
:10103C006000424230B486B0164D02AC2868696834
:10104C00AA68EB680FC42B8AADF80430124B5A68AF
:10105C0002F00C03082B19D1C2F3834306A90B44ED
:10106C0013F8103C12F4803F0CD00B4A5268C2F3B8
:10107C0040420A4412F8140C084AB2FBF0F003FB8D
:10108C0000F004E0064800FB03F000E0034806B063
:10109C0030BC70476C1300080010024000127A003C
:1010AC0000093D0070B55C4B1B6803F007038B42D5
:1010BC000BD2594A136823F007030B4313601368D0
:1010CC0003F007038B4240F09780036813F0020F84
:1010DC0006D0524C636823F0F002836813436360BC
:1010EC000D460446036813F0010F4DD04268012AE7
:1010FC0005D14A4B1B6813F4003F0DD17EE0022A48
:10110C0005D1464B1B6813F0007F05D178E0434BAB
:10111C001B6813F0020F75D040494B6823F0030392
:10112C0013434B60FFF7FAFC06466368012B0ED1A4
:10113C0006E0FFF7F3FC801B41F28833984263D83A
:10114C00364B5B6803F00C03042BF2D11CE0022B32
:10115C0015D106E0FFF7E2FC801B41F28833984280
:10116C0054D82E4B5B6803F00C03082BF2D10BE028
:10117C00FFF7D4FC801B41F28833984248D8274BA8
:10118C005B6813F00C0FF3D1234B1B6803F00703C0
:10119C00AB420AD9204A136823F007032B43136090
:1011AC00136803F00703AB4234D1236813F0040F28
:1011BC0006D01A494B6823F4E062E36813434B6092
:1011CC00236813F0080F07D0144A536823F46053B4
:1011DC00216943EAC1035360FFF72CFF0F4B5B6897
:1011EC00C3F303130E4AD35CD8400E4B1860002097
:1011FC00FFF764FC002070BD012070BD012070BDA4
:10120C00012070BD012070BD032070BD032070BD96
:10121C00032070BD012070BD002002400010024070
:10122C009C13000800000020014B1868704700BF99
:10123C000000002008B5FFF7F7FF044B5B68C3F311
:10124C000223034AD35CD84008BD00BF0010024003
:10125C00AC13000808B5FFF7E7FF044B5B68C3F35A
:10126C00C223034AD35CD84008BD00BF0010024023
:10127C00AC130008704700BFFEE700BFFEE700BFDD
:10128C00FEE700BFFEE700BF704700BF704700BF1E
:10129C00704700BF08B5FFF739FCFFF7B1FC08BD7C
:1012AC00002103E00B4B5B58435004310A480B4BB5
:1012BC0042189A42F6D30A4A02E0002342F8043B51
:1012CC00084B9A42F9D3FFF7DBFA00F00FF8FFF75F
:1012DC000FF87047BC130008000000200400002029
:1012EC000400002064000020FEE700000E4B70B5E7
:1012FC001E460E4C0025E41AA410A54204D056F844
:10130C00253098470135F8E700F01EF8084B094CDA
:10131C001E46E41AA4100025A54204D056F8253028
:10132C0098470135F8E770BDB4130008B4130008F2
:10133C00B4130008B8130008034613F8012B002A55
:10134C00FBD1181A01387047F8B500BFF8BC08BCBF
:10135C009E467047F8B500BFF8BC08BC9E46704767
:10136C0002030405060708090A0B0C0D0E0F1010DA
:10137C00010200005372632F6D61696E2E630000D1
:10138C0048656C6C6F20576F726C64210000000014
:10139C000000000000000000010203040607080919
:0813AC0000000000010203042F
:0413B40079010008B3
:0413B80051010008D7
:0413BC0000A24A043D
:04000005080012AD30
:00000001FF
