:020000040800F2
:1000000000500020891C00084D1B0008591B0008E7
:100010005F1B0008651B00086B1B00080000000048
:10002000000000000000000000000000711B00083C
:100030007D1B000800000000891B0008951B0008BC
:10004000CD1C0008CD1C0008CD1C0008CD1C0008EC
:10005000CD1C0008CD1C0008CD1C0008CD1C0008DC
:10006000CD1C0008CD1C0008CD1C0008CD1C0008CC
:10007000CD1C0008CD1C0008CD1C0008CD1C0008BC
:10008000CD1C0008CD1C0008CD1C0008CD1C0008AC
:10009000CD1C0008CD1C0008CD1C0008CD1C00089C
:1000A000CD1C0008CD1C0008CD1C0008CD1C00088C
:1000B000CD1C0008CD1C0008CD1C0008CD1C00087C
:1000C000CD1C0008CD1C0008CD1C0008CD1C00086C
:1000D000CD1C000893190008CD1C0008CD1C000899
:1000E000CD1C0008CD1C0008CD1C0008000000003D
:1000F0000000000000000000000000000000000000
:0C01000000000000000000005FF808F1A3
:10010C0010B5054C237833B9044B13B10448AFF345
:10011C0000800123237010BD440400200000000067
:10012C000C01000808B5034B1BB103490348AFF39E
:10013C00008008BD00000000480400200C010008ED
:10014C0080B483B000AF7860054A7B6843F0BF632E
:10015C0043F40033D36000BF0C37BD4680BC7047FE
:10016C0000ED00E080B487B000AF786000237B61C5
:10017C0000233B610F23FB607B68DB78002B3AD0BC
:10018C00274BDB68DB431B0A03F007037B617B69AE
:10019C00C3F104033B61FA687B6922FA03F3FB6049
:1001AC007B685B781A463B6902FA03F37B617B68D8
:1001BC009B781A46FB6813407A6913437B617B6911
:1001CC001B017B61174A7B681B787969C9B21344A0
:1001DC000A4683F800237B681B7803F01F03114940
:1001EC007A6812785209D2B21046012202FA03F34D
:1001FC0041F820300FE07B681B7803F01F0309499E
:10020C007A6812785209D2B2104601229A4000F153
:10021C00200341F8232000BF1C37BD4680BC70472B
:10022C0000ED00E000E100E080B483B000AF786046
:10023C0039603B6823F0604323F07F0304497A68FC
:10024C0013438B6000BF0C37BD4680BC704700BFAA
:10025C0000ED00E080B483B000AF03460A46FB71AA
:10026C001346BB71BB79002B06D0094B1A69FB797D
:10027C00074913430B6106E0054B1A69FB79DB4315
:10028C00034913400B6100BF0C37BD4680BC70475F
:10029C0000ED00E080B483B000AF78607B68042B85
:1002AC0006D1094B1B68084A43F00403136005E0B0
:1002BC00054B1B68044A23F00403136000BF0C3782
:1002CC00BD4680BC704700BF10E000E080B582B036
:1002DC0000AF78607B682F4A934208D1012104203B
:1002EC0000F0EAFD0021042000F0E6FD4EE07B6802
:1002FC00294A934208D10121082000F0DDFD00219C
:10030C00082000F0D9FD41E07B68244A934208D1D3
:10031C000121102000F0D0FD0021102000F0CCFDB8
:10032C0034E07B681E4A934208D10121202000F062
:10033C00C3FD0021202000F0BFFD27E07B68194A97
:10034C00934208D10121402000F0B6FD002140204D
:10035C0000F0B2FD1AE07B68134A934208D10121E8
:10036C00802000F0A9FD0021802000F0A5FD0DE00B
:10037C007B680E4A934209D101214FF4807000F042
:10038C009BFD00214FF4807000F096FD00BF0837F4
:10039C00BD4680BD00080140000C0140001001402A
:1003AC000014014000180140001C014000200140D5
:1003BC0080B500AF0121012000F07EFD002101205D
:1003CC0000F07AFD00BF80BD80B489B000AF7860CA
:1003DC0039600023FB6100233B610023BB610023D8
:1003EC00FB6000237B610023BB603B68DB7803F080
:1003FC000F03FB613B68DB7803F01003002B05D087
:10040C003B689B781A46FB691343FB613B681B886E
:10041C00DBB2002B44D07B681B687B610023BB6183
:10042C0038E00122BB6902FA03F3FB603B681B88CE
:10043C001A46FB6813403B613A69FB689A4226D125
:10044C00BB699B00FB600F22FB6802FA03F3BB60E5
:10045C00BB68DB437A6913407B61FA69FB6802FA7B
:10046C0003F37A6913437B613B68DB78282B05D156
:10047C000122BB699A407B685A6108E03B68DB78D3
:10048C00482B04D10122BB699A407B681A61BB6975
:10049C000133BB61BB69072BC3D97B687A691A60CE
:1004AC003B681B88FF2B46D97B685B687B6100230C
:1004BC00BB613AE0BB690833012202FA03F3FB602B
:1004CC003B681B881A46FB6813403B613A69FB6822
:1004DC009A4227D1BB699B00FB600F22FB6802FA92
:1004EC0003F3BB60BB68DB437A6913407B61FA6939
:1004FC00FB6802FA03F37A6913437B613B68DB7890
:10050C00282B05D1BB69083301229A407B685A61BC
:10051C003B68DB78482B05D1BB69083301229A4034
:10052C007B681A61BB690133BB61BB69072BC1D9FD
:10053C007B687A695A6000BF2437BD4680BC70471F
:10054C0080B483B000AF78607B684FF6FF721A807E
:10055C007B6802229A707B680422DA7000BF0C3729
:10056C00BD4680BC704780B485B000AF78600B4648
:10057C007B800023FB737B689A687B881340002B7D
:10058C0002D00123FB7301E00023FB73FB7B1846B5
:10059C001437BD4680BC704780B483B000AF786020
:1005AC007B689B689BB218460C37BD4680BC704775
:1005BC0080B485B000AF78600B467B800023FB7362
:1005CC007B68DA687B881340002B02D00123FB7315
:1005DC0001E00023FB73FB7B18461437BD4680BC3F
:1005EC00704780B483B000AF78607B68DB689BB2E7
:1005FC0018460C37BD4680BC704780B483B000AF42
:10060C0078600B467B807A887B681A6100BF0C3758
:10061C00BD4680BC704780B483B000AF78600B4699
:10062C007B807A887B685A6100BF0C37BD4680BCE2
:10063C00704780B483B000AF78600B467B80134664
:10064C007B707B78002B03D07A887B681A6102E080
:10065C007A887B685A6100BF0C37BD4680BC7047F6
:10066C0080B483B000AF78600B467B807A887B685F
:10067C00DA6000BF0C37BD4680BC704780B485B0D3
:10068C0000AF78600B467B804FF48033FB607B8837
:10069C00FA681343FB607B68FA689A617A887B6816
:1006AC009A617B68FA689A617B689B69FB607B68DE
:1006BC009B69FB6000BF1437BD4680BC704780B49B
:1006CC0085B000AF03460A46FB711346BB7100238D
:1006DC00FB600C4B1B68FB60FA684FF68073134091
:1006EC00FB60FB791B01FA681343FB60BB79FA686A
:1006FC001343FB60034AFB68136000BF1437BD460D
:10070C0080BC70470000014080B483B000AF03464A
:10071C00FB71044AFB79136000BF0C37BD4680BCEB
:10072C00704700BF1C00204280B487B000AF7860D7
:10073C000B46FB7000233B610023FB6000237B61B5
:10074C000023BB607B68002B03DA2E4BDB697B61DB
:10075C0002E02C4B5B687B617B681B0C03F00F0386
:10076C00BB607B689BB23B617B6803F44013B3F5C1
:10077C00401F0AD17B6923F070637B61214B5B685E
:10078C00204A23F07063536021E07B6803F48013EC
:10079C00002B0ED00322BB6802FA03F3FB60FB684C
:1007AC00DB437A6913407B617B6943F070637B6147
:1007BC000DE07B685B0D1B013A6902FA03F3DB4326
:1007CC007A6913407B617B6943F070637B61FB78D2
:1007DC00002B08D07B685B0D1B013A6902FA03F30E
:1007EC007A6913437B617B68002B03DA054A7B69CA
:1007FC00D36102E0034A7B69536000BF1C37BD46DE
:10080C0080BC70470000014080B485B000AF034647
:10081C000A46FB711346BB710023FB60BB7903F0E6
:10082C0003039B000F2202FA03F3FB60154ABB790A
:10083C009B08DBB2023352F82320FB68DB431148E0
:10084C00B9798908C9B21A408B1C40F823200D4A8B
:10085C00BB799B08DBB2023352F82320F979BB79C0
:10086C0003F003039B0001FA03F30648B9798908E6
:10087C00C9B21A438B1C40F8232000BF1437BD4665
:10088C0080BC70470000014080B483B000AF78603A
:10089C00034A7B68136000BF0C37BD4680BC7047B1
:1008AC00DC00204280B400AF134B1B68124A43F0AB
:1008BC0001031360104B5A680F49104B13404B60E7
:1008CC000D4B1B680C4A23F0847323F480331360A4
:1008DC00094B1B68084A23F480231360064B5B68A2
:1008EC00054A23F4FE035360034B4FF41F029A6036
:1008FC0000BFBD4680BC7047001002400000FFF8EE
:10090C0080B483B000AF7860134B1B68124A23F499
:10091C0080331360104B1B680F4A23F48023136041
:10092C007B68B3F5803F03D0B3F5802F07D00DE083
:10093C00094B1B68084A43F48033136006E0064BEE
:10094C001B68054A43F4A023136000BF00BF0C379B
:10095C00BD4680BC704700BF0010024080B582B01D
:10096C0000AF00233B600023FB710023BB713120DF
:10097C0000F00EFB0346BB713B6801333B603B68E8
:10098C00B3F5A06F02D0BB79002BF0D0312000F072
:10099C00FFFA0346002B02D00123FB7101E0002378
:1009AC00FB71FB7918460837BD4680BD80B485B015
:1009BC0000AF0346FB710023FB600A4B1B68FB6016
:1009CC00FB6823F0F803FB60FB79DB00FA68134348
:1009DC00FB60044AFB68136000BF1437BD4680BC43
:1009EC00704700BF0010024080B483B000AF0346D4
:1009FC00FB71044AFB79136000BF0C37BD4680BC09
:100A0C00704700BF0000424280B485B000AF7860F0
:100A1C0039600023FB600A4B5B68FB60FB6823F4C6
:100A2C007C13FB607A683B681343FA681343FB60E2
:100A3C00034AFB68536000BF1437BD4680BC704747
:100A4C000010024080B483B000AF0346FB71044A2F
:100A5C00FB79136000BF0C37BD4680BC704700BFEC
:100A6C006000424280B485B000AF78600023FB6028
:100A7C00094B5B68FB60FB6823F00303FB60FA68BF
:100A8C007B681343FB60044AFB68536000BF143758
:100A9C00BD4680BC704700BF0010024080B400AF60
:100AAC00044B5B68DBB203F00C03DBB21846BD46AB
:100ABC0080BC70470010024080B485B000AF7860F5
:100ACC000023FB60094B5B68FB60FB6823F0F003C1
:100ADC00FB60FA687B681343FB60044AFB68536055
:100AEC0000BF1437BD4680BC704700BF00100240E9
:100AFC0080B485B000AF78600023FB60094B5B6865
:100B0C00FB60FB6823F4E063FB60FA687B681343CB
:100B1C00FB60044AFB68536000BF1437BD4680BCC1
:100B2C00704700BF0010024080B485B000AF786001
:100B3C000023FB60094B5B68FB60FB6823F460538C
:100B4C00FB607B68DB00FA681343FB60034AFB68BD
:100B5C00536000BF1437BD4680BC70470010024084
:100B6C0080B483B000AF03460A46FB711346BB71D9
:100B7C00BB79002B08D00C4B1B78DAB20A49FB79F5
:100B8C001343DBB20B7009E0074B1B78DAB2FB792D
:100B9C00DB43DBB204491340DBB20B7000BF0C37F4
:100BAC00BD4680BC704700BF0910024080B483B0C2
:100BBC0000AF7860034A7B68136000BF0C37BD46FA
:100BCC0080BC7047D800424280B485B000AF7860DA
:100BDC000023FB60094B5B68FB60FB6823F440431C
:100BEC00FB60FA687B681343FB60044AFB68536044
:100BFC0000BF1437BD4680BC704700BF00100240D8
:100C0C0080B483B000AF0346FB710C4B00221A700A
:100C1C000A4B00221A70FB79012B02D0042B04D052
:100C2C0007E0064B01221A7003E0044B05221A70F0
:100C3C0000BF00BF0C37BD4680BC7047201002407F
:100C4C0080B483B000AF0346FB71044AFB79136098
:100C5C0000BF0C37BD4680BC704700BF80044242C9
:100C6C0080B483B000AF7860054B1A6A04497B6886
:100C7C0013430B6200BF0C37BD4680BC704700BFEE
:100C8C000010024080B483B000AF0346FB71044AED
:100C9C00FB79136000BF0C37BD4680BC704700BFAA
:100CAC003C04424280B487B000AF786000237B6183
:100CBC0000233B610023FB600023BB604C4B5B6853
:100CCC0003F00C037B617B69042B07D0082B09D044
:100CDC00002B33D17B68474A1A6033E07B68454A66
:100CEC001A602FE0424B5B6803F470133B61404B7E
:100CFC005B6803F48033FB603B699B0C02333B6104
:100D0C00FB68002B06D13B693B4A02FB03F27B6874
:100D1C001A6017E0364B5B6803F40033002B06D0E7
:100D2C003B69354A02FB03F27B681A600AE03B69B7
:100D3C00304A02FB03F27B681A6003E07B682D4AA1
:100D4C001A6000BF2A4B5B6803F0F0037B617B6980
:100D5C001B097B61294A7B6913441B78DBB2BB609E
:100D6C007B681A68BB68DA407B685A60204B5B680A
:100D7C0003F4E0637B617B691B0A7B611F4A7B691F
:100D8C0013441B78DBB2BB607B685A68BB68DA40E3
:100D9C007B689A60164B5B6803F460537B617B69DC
:100DAC00DB0A7B61154A7B6913441B78DBB2BB60A1
:100DBC007B685A68BB68DA407B68DA600C4B5B680E
:100DCC0003F440437B617B699B0B7B610C4A7B6921
:100DDC0013441B78DBB2BB607B68DA68BB68B2FB80
:100DEC00F3F27B681A6100BF1C37BD4680BC7047AC
:100DFC000010024000127A0000093D0000000020A3
:100E0C001000002080B483B000AF78600B46FB70FC
:100E1C00FB78002B06D0094B5A6908497B681343B1
:100E2C004B6106E0054B5A697B68DB430349134071
:100E3C004B6100BF0C37BD4680BC704700100240B0
:100E4C0080B483B000AF78600B46FB70FB78002B4E
:100E5C0006D0094B9A6908497B6813438B6106E0FD
:100E6C00054B9A697B68DB43034913408B6100BFD8
:100E7C000C37BD4680BC70470010024080B483B074
:100E8C0000AF78600B46FB70FB78002B06D0094B4B
:100E9C00DA6908497B681343CB6106E0054BDA69D4
:100EAC007B68DB4303491340CB6100BF0C37BD4665
:100EBC0080BC70470010024080B483B000AF7860F3
:100ECC000B46FB70FB78002B06D0094BDA680849FF
:100EDC007B681343CB6006E0054BDA687B68DB4329
:100EEC0003491340CB6000BF0C37BD4680BC704734
:100EFC000010024080B483B000AF78600B46FB70EA
:100F0C00FB78002B06D0094B1A6908497B68134300
:100F1C000B6106E0054B1A697B68DB430349134000
:100F2C000B6100BF0C37BD4680BC704700100240FF
:100F3C0080B483B000AF0346FB71044AFB791360A5
:100F4C0000BF0C37BD4680BC704700BF4004424216
:100F5C0080B483B000AF0346FB71044AFB79136085
:100F6C0000BF0C37BD4680BC704700BF4C004242EE
:100F7C0080B483B000AF0346FB71044AFB79137055
:100F8C0000BF0C37BD4680BC704700BF0710024045
:100F9C0080B487B000AF0346FB710023FB600023D5
:100FAC007B610023FB74FB795B09DBB2FB60FB68A4
:100FBC00012B03D1124B1B687B6109E0FB68022BF0
:100FCC0003D10F4B1B6A7B6102E00D4B5B6A7B61AB
:100FDC00FB7903F01F03FB607A69FB6822FA03F3C9
:100FEC0003F00103002B02D00123FB7401E000236A
:100FFC00FB74FB7C18461C37BD4680BC704700BF99
:10100C000010024080B400AF044B5B6A034A43F00B
:10101C008073536200BFBD4680BC70470010024015
:10102C0080B485B000AF0346FB710023FB73084B03
:10103C009A68FB791340002B02D00123FB7301E06B
:10104C000023FB73FB7B18461437BD4680BC7047EE
:10105C000010024080B483B000AF0346FB71044A19
:10106C00FB79137000BF0C37BD4680BC704700BFC6
:10107C000A10024080B582B000AF78607B68264AC7
:10108C0093420AD101214FF48040FFF715FF002154
:10109C004FF48040FFF710FF3AE07B681F4A934201
:1010AC000AD101214FF40030FFF724FF00214FF447
:1010BC000030FFF71FFF2BE07B68194A93420AD1DF
:1010CC0001214FF48020FFF715FF00214FF4802001
:1010DC00FFF710FF1CE07B68124A93420AD10121F2
:1010EC004FF40020FFF706FF00214FF40020FFF71C
:1010FC0001FF0DE07B680C4A934209D101214FF4AA
:10110C008010FFF7F7FE00214FF48010FFF7F2FE7E
:10111C0000BF0837BD4680BD003801400044004088
:10112C0000480040004C00400050004080B58CB09E
:10113C0000AF786039600023FB620023BB620023A0
:10114C007B6200233B620023FB617B68FB617B6855
:10115C001B8A9BB2FB62FA6A4CF6FF731340FB626C
:10116C003B68DB881A46FB6A1343FB62FB6A9AB244
:10117C007B681A827B689B899BB2FB62FA6A4EF68B
:10118C00F3131340FB623B689A883B681B8913433B
:10119C009AB23B685B8913439BB21A46FB6A1343B2
:1011AC00FB62FB6A9AB27B689A817B689B8A9BB2D2
:1011BC00FB62FA6A4FF6FF431340FB623B689B8964
:1011CC001A46FB6A1343FB62FB6A9AB27B689A82EB
:1011DC0007F108031846FFF765FDFB692E4A934299
:1011EC0002D17B69BB6201E03B69BB627B689B8976
:1011FC009BB21BB2002B0CDABA6A13469B00134449
:10120C009A001A443B681B685B00B2FBF3F37B62E9
:10121C000BE0BA6A13469B0013449A001A443B68CD
:10122C001B689B00B2FBF3F37B627B6A1B4AA2FB3D
:10123C0003235B091B01FB62FB6A1B09642202FB93
:10124C0003F37A6AD31A3B627B689B899BB21BB20D
:10125C00002B0CDA3B6ADB003233104AA2FB03236F
:10126C005B0903F00703FA6A1343FB620BE03B6A6A
:10127C001B013233094AA2FB03235B0903F00F0362
:10128C00FA6A1343FB62FB6A9AB27B681A8100BF4D
:10129C003037BD4680BD00BF003801401F85EB5183
:1012AC0080B483B000AF78607B684FF416521A603C
:1012BC007B6800229A807B680022DA807B6800229F
:1012CC001A817B680C225A817B6800229A8100BFAC
:1012DC000C37BD4680BC704780B485B000AF7860D9
:1012EC0039600023FB607B681B8A9BB2FB60FA6849
:1012FC004FF2FF031340FB603B681A883B685B8826
:10130C0013439AB23B689B8813439AB23B68DB88C1
:10131C0013439BB21A46FB681343FB60FB689AB2FB
:10132C007B681A8200BF1437BD4680BC704780B4FE
:10133C0083B000AF78607B6800221A807B68002243
:10134C005A807B6800229A807B680022DA8000BF7A
:10135C000C37BD4680BC704780B483B000AF78605A
:10136C000B46FB70FB78002B08D07B689B899BB2EB
:10137C0043F400539AB27B689A8107E07B689B899F
:10138C009BB223F400539AB27B689A8100BF0C374E
:10139C00BD4680BC704780B487B000AF78600B4608
:1013AC007B8013467B7000233B610023FB60002392
:1013BC00BB6000237B617B687B617B88DBB25B0954
:1013CC00DBB23B617B8803F01F03FB600122FB68EF
:1013DC0002FA03F3BB603B69012B03D17B690C332D
:1013EC007B6109E03B69022B03D17B6910337B6184
:1013FC0002E07B6914337B617B78002B06D07B6920
:10140C0019687B69BA680A431A6006E07B69196837
:10141C00BB68DA437B690A401A6000BF1C37BD46C3
:10142C0080BC704780B483B000AF78600B467B8083
:10143C0013467B707B78002B08D07B689B8A9AB212
:10144C007B8813439AB27B689A8209E07B689B8AFB
:10145C009AB27B88DB439BB213409AB27B689A8228
:10146C0000BF0C37BD4680BC704780B483B000AF62
:10147C0078600B46FB707B681B8A9BB223F00F03D2
:10148C009AB27B681A827B681B8A9AB2FB789BB2F1
:10149C0013439AB27B681A8200BF0C37BD4680BCDE
:1014AC00704780B483B000AF78600B467B807B685C
:1014BC009B899BB223F400639AB27B689A817B6808
:1014CC009B899AB27B8813439AB27B689A8100BF3E
:1014DC000C37BD4680BC704780B483B000AF7860D9
:1014EC000B46FB70FB78002B08D07B689B899BB26A
:1014FC0043F002039AB27B689A8107E07B689B8970
:10150C009BB223F002039AB27B689A8100BF0C371E
:10151C00BD4680BC704780B483B000AF78600B468A
:10152C007B807B681B8A9BB223F020039AB27B687A
:10153C001A827B681B8A9AB27B8813439AB27B68A7
:10154C001A8200BF0C37BD4680BC704780B483B094
:10155C0000AF78600B46FB70FB78002B08D07B68E3
:10156C001B8A9BB243F480439AB27B681A8207E0D1
:10157C007B681B8A9BB223F480439AB27B681A82E5
:10158C0000BF0C37BD4680BC704780B483B000AF41
:10159C0078600B467B807B88C3F308039AB27B6828
:1015AC009A8000BF0C37BD4680BC704780B483B0B6
:1015BC0000AF78607B689B889BB2C3F308039BB237
:1015CC0018460C37BD4680BC704780B483B000AF62
:1015DC0078607B689B899BB243F001039AB27B686D
:1015EC009A8100BF0C37BD4680BC704780B483B075
:1015FC0000AF78600B46FB707B681B8B9BB2DBB239
:10160C009AB27B681A837B681B8B9AB2FB789BB26D
:10161C001B029BB213439AB27B681A8300BF0C3730
:10162C00BD4680BC704780B483B000AF78600B4679
:10163C00FB707B681B8B9BB223F0FF039AB27B6819
:10164C001A837B681B8B9AB2FB789BB213439AB2BA
:10165C007B681A8300BF0C37BD4680BC704780B4D2
:10166C0083B000AF78600B46FB70FB78002B08D082
:10167C007B689B8A9BB243F020039AB27B689A8268
:10168C0007E07B689B8A9BB223F020039AB27B68AD
:10169C009A8200BF0C37BD4680BC704780B483B0C3
:1016AC0000AF78600B46FB70FB78002B08D07B6892
:1016BC009B8A9BB243F010039AB27B689A8207E034
:1016CC007B689B8A9BB223F010039AB27B689A8248
:1016DC0000BF0C37BD4680BC704780B483B000AFF0
:1016EC0078600B46FB70FB78002B08D07B689B8ADC
:1016FC009BB243F008039AB27B689A8207E07B683E
:10170C009B8A9BB223F008039AB27B689A8200BF33
:10171C000C37BD4680BC704780B483B000AF786096
:10172C000B46FB70FB78002B0AD07B689B899BB225
:10173C006FEA43436FEA53439AB27B689A8107E09E
:10174C007B689B899BB2C3F30E039AB27B689A8128
:10175C0000BF0C37BD4680BC704780B483B000AF6F
:10176C0078600B46FB70FB78002B08D07B689B8A5B
:10177C009BB243F400639AB27B689A8207E07B6861
:10178C009B8A9BB223F400639AB27B689A8200BF57
:10179C000C37BD4680BC704780B483B000AF786016
:1017AC000B467B807B689B8A9BB223F004039AB226
:1017BC007B689A827B689B8A9AB27B8813439AB225
:1017CC007B689A8200BF0C37BD4680BC704780B4E2
:1017DC0083B000AF78600B46FB70FB78002B08D011
:1017EC007B689B8A9BB243F002039AB27B689A8215
:1017FC0007E07B689B8A9BB223F002039AB27B685A
:10180C009A8200BF0C37BD4680BC704780B485B04F
:10181C0000AF78600B467B800023FB737B681B88D2
:10182C009AB27B8813409BB2002B02D00123FB732E
:10183C0001E00023FB73FB7B18461437BD4680BCCC
:10184C00704780B483B000AF78600B467B807B8898
:10185C00DB439AB27B681A8000BF0C37BD4680BC54
:10186C00704780B487B000AF78600B467B80002354
:10187C00FB6000237B610023BB600023FB747B882F
:10188C00DBB25B09DBB2BB607B8803F01F037B61BF
:10189C0001227B6902FA03F37B61BB68012B07D140
:1018AC007B689B899BB21A467B6913407B6111E074
:1018BC00BB68022B07D17B681B8A9BB21A467B69DB
:1018CC0013407B6106E07B689B8A9BB21A467B695E
:1018DC0013407B617B881B0A9BB2FB600122FB6877
:1018EC0002FA03F3FB607B681B889BB21A46FB6809
:1018FC001340FB607B69002B05D0FB68002B02D0EA
:10190C000123FB7401E00023FB74FB7C18461C379D
:10191C00BD4680BC704780B485B000AF78600B4684
:10192C007B800023FB810023BB817B881B0AFB810E
:10193C00FB89012202FA03F3BB81BB89DB439AB218
:10194C007B681A8000BF1437BD4680BC704700BF4F
:10195C0080B485B000AF0346FB800023FB8108E018
:10196C0042F6E063FB8100BFFB895A1EFA81002B13
:10197C00FAD1FB885A1EFA80002BF1D100BF143724
:10198C00BD4680BC704780B582B000AF01213548A0
:10199C00FFF73CFF0346002B06D03248FFF706FE4C
:1019AC0001213048FFF74DFF08212E48FFF72EFF8D
:1019BC000346002B06D02B48FFF7F8FD08212948D9
:1019CC00FFF73FFF02212748FFF720FF0346002BBC
:1019DC0006D02448FFF7EAFD02212248FFF731FF29
:1019EC0040F225511F48FFF73CFF0346012B34D131
:1019FC0020211C48FFF725FF40F225511948FFF71D
:101A0C008AFF1848FFF7D2FD0346FB7108211648E0
:101A1C00FEF7CEFD0346C3F10103DBB21A460821E3
:101A2C001148FEF706FE012240F227710D48FFF720
:101A3C00B2FCFB799BB219460A48FFF7A6FD00BF22
:101A4C0080210848FFF7E2FE0346002BF8D0002265
:101A5C0040F227710348FFF79EFC00BF0837BD46D4
:101A6C0080BD00BF003801400008014080B582B045
:101A7C0000AF0346FB71FB799BB219460748FFF791
:101A8C0084FD00BF40210548FFF7C0FE0346002B34
:101A9C00F8D000BF0837BD4680BD00BF00380140FC
:101AAC0080B582B000AF786012E07B681B780A2B9F
:101ABC0006D10D20FFF7DAFF0A20FFF7D7FF04E06D
:101ACC007B681B781846FFF7D1FF7B6801337B607E
:101ADC007B681B78002BE8D100BF0837BD4680BD62
:101AEC0080B582B000AF00F055F800F05CF800F063
:101AFC0083F800F0ABF81048FFF7D2FF00237B60AF
:101B0C007B68002B0BD1012204210C48FEF791FDC0
:101B1C004FF47A70FFF71CFF01237B60F0E7002283
:101B2C0004210648FEF785FD4FF47A70FFF710FF8D
:101B3C0000237B60E4E700BF341E0008000801406E
:101B4C0080B400AF00BFBD4680BC704780B400AF0E
:101B5C00FEE780B400AFFEE780B400AFFEE780B4D0
:101B6C0000AFFEE780B400AF00BFBD4680BC70473D
:101B7C0080B400AF00BFBD4680BC704780B400AFDE
:101B8C0000BFBD4680BC704780B400AF00BFBD46EF
:101B9C0080BC704780B500AF012144F20500FFF70F
:101BAC004FF900BF80BD80B582B000AF0323BB717D
:101BBC004FF40073BB801823FB713B1D19460D4875
:101BCC00FEF702FC4FF48063BB800423FB713B1DCA
:101BDC0019460848FEF7F8FB0C23BB801023FB7159
:101BEC003B1D19460348FEF7EFFB00BF0837BD4607
:101BFC0080BD00BF0008014080B584B000AF4FF439
:101C0C0016533B600023BB800023FB8000233B81E9
:101C1C000023BB810C237B813B4619460A48FFF706
:101C2C0085FA012240F225510748FFF7B4FB012148
:101C3C000548FFF791FB40210348FFF702FE00BF68
:101C4C001037BD4680BD00BF0038014080B582B062
:101C5C0000AF4FF4C060FEF773FA25233B710023ED
:101C6C007B710123BB710123FB713B1D1846FEF7F1
:101C7C0079FA00BF0837BD4680BD00BF002103E0E4
:101C8C000A4B5B584350043109480A4B42189A429C
:101C9C00F6D3094A02E0002342F8043B074B9A4270
:101CAC00F9D300F00FF8FFF71BFF70476C1E00080C
:101CBC000000002044040020440400208404002080
:101CCC00FEE7000070B50D4E0D4D761BB61006D01C
:101CDC000024013455F8043B9847A642F9D1094E2B
:101CEC00094D00F0ABF8761BB61006D00024013479
:101CFC0055F8043B9847A642F9D170BD601E000808
:101D0C00601E0008681E0008601E0008024B13B11C
:101D1C00024800F005B8704700000000391D0008AB
:101D2C00002301461A46184600F01EB838B50A4C76
:101D3C000A4D641BA4100AD004F18043013B05EB4F
:101D4C008305013C55F804399847002CF9D1BDE8BE
:101D5C00384000F079B800BF6C1E0008681E0008FF
:101D6C00704700BF704700BF2DE9F8432B4D064666
:101D7C00286898460F469146FFF7F2FF284B1C68DF
:101D8C00D4F84831002B3DD05A681F2A0DDC02F1E3
:101D9C00010C16BB0232C3F804C0286843F8227049
:101DAC00FFF7E0FF0020BDE8F8831E4B7BB34FF438
:101DBC00C870AFF30080034648B30020D4F8481134
:101DCC004FF0010CC3E900100246C4F84831C3F8C7
:101DDC008801C3F88C01002EDCD0012103EB8204B6
:101DEC00C4F88890D3F8880191400843022EC3F8B8
:101DFC008801C4F80881CDD1D3F88C010143C3F814
:101E0C008C11C7E704F5A673C4F84831BCE7286801
:101E1C00FFF7A8FF4FF0FF30C5E700BF40040020DC
:101E2C00441E00080000000048656C6C6F20576F62
:101E3C00726C640A0000000018000020F8B500BFA6
:101E4C00F8BC08BC9E467047F8B500BFF8BC08BC8F
:041E5C009E467047E7
:081E6000191D00083101000802
:041E68000D01000860
:101E6C000000000001020304010203040607080934
:101E7C00020406080000000000000000040300201B
:101E8C006C030020D40300200000000000000000C0
:101E9C000000000000000000000000000000000036
:101EAC000000000000000000000000000000000026
:101EBC000000000000000000000000000000000016
:101ECC000000000000000000000000000000000006
:101EDC0000000000000000000000000000000000F6
:101EEC0000000000000000000000000000000000E6
:101EFC0000000000000000000000000000000000D6
:101F0C0000000000000000000000000000000000C5
:101F1C0000000000000000000000000000000000B5
:101F2C0001000000000000000E33CDAB34126DE652
:101F3C00ECDE05000B0000000000000000000000BB
:101F4C000000000000000000000000000000000085
:101F5C000000000000000000000000000000000075
:101F6C000000000000000000000000000000000065
:101F7C000000000000000000000000000000000055
:0422AC0060040020AA
:0400000508001C894A
:00000001FF
