:020000040800F2
:1000000000500020B90C0008DD070008DF070008D9
:10001000E1070008E3070008E5070008000000000A
:10002000000000000000000000000000E7070008DA
:10003000E907000800000000EB070008ED070008D2
:10004000010D0008010D0008010D0008010D000858
:10005000010D0008010D0008010D0008010D000848
:10006000010D0008010D0008010D0008010D000838
:10007000010D0008010D0008010D0008010D000828
:10008000010D0008010D0008010D0008010D000818
:10009000010D0008010D0008010D0008010D000808
:1000A000010D0008010D0008010D0008010D0008F8
:1000B000010D0008010D0008010D0008010D0008E8
:1000C000010D0008010D0008010D0008010D0008D8
:1000D000010D0008010D0008010D0008010D0008C8
:1000E000010D0008010D0008010D000800000000CE
:1000F0000000000000000000000000000000000000
:0C01000000000000000000005FF808F1A3
:10010C0010B5054C237833B9044B13B10448AFF345
:10011C0000800123237010BD0400002000000000AB
:10012C004C0D000808B5034B1BB103490348AFF352
:10013C00008008BD00000000080000204C0D0008E5
:10014C0082B0084B1B68084AA2FB03235B0A00FB26
:10015C0003F0019000BF019B5A1E0192002BF9D1B4
:10016C0002B0704700000020D34D621070B582B011
:10017C000446036813F0010F2CD0AB4B5B6803F003
:10018C000C03042B1DD0A84B5B6803F00C03082B4D
:10019C0012D06368B3F5803F41D0002B55D103F1E9
:1001AC00804303F504331A6822F480321A601A680B
:1001BC0022F480221A6037E09B4B5B6813F4803F7B
:1001CC00E7D0994B1B6813F4003F03D06368002BF6
:1001DC0000F0AE81236813F0020F76D0924B5B686F
:1001EC0013F00C0F5FD0904B5B6803F00C03082BE3
:1001FC0054D02369002B00F08A808C4B01221A60AA
:10020C0000F04AFB0546884B1B6813F0020F75D1B2
:10021C0000F042FB401B0228F5D903208BE1824AF7
:10022C00136843F480331360636843B300F034FB0A
:10023C0005467D4B1B6813F4003FCBD100F02CFB23
:10024C00401B6428F5D9032075E1B3F5A02F09D024
:10025C00754B1A6822F480321A601A6822F48022D4
:10026C001A60E1E703F18043A3F53C331A6842F4CA
:10027C0080221A601A6842F480321A60D4E700F0C7
:10028C000BFB0546684B1B6813F4003FA2D000F033
:10029C0003FB401B6428F5D903204CE1624B5B68DF
:1002AC0013F4803FA5D1604B1B6813F0020F04D0F0
:1002BC002369012B01D001203DE15B4A136823F037
:1002CC00F803616943EAC1031360236813F0080F54
:1002DC0032D0A369002B5BD0554B01221A6000F081
:1002EC00DBFA0546504B5B6A13F0020F21D100F08C
:1002FC00D3FA401B0228F5D903201CE14A4A1368A3
:10030C0023F0F803616943EAC1031360DDE7474B4F
:10031C0000221A6000F0C0FA0546434B1B6813F02C
:10032C00020FD2D000F0B8FA401B0228F5D90320F6
:10033C0001E10120FFF704FF236813F0040F00F024
:10034C009780394BDB6913F0805F33D1364BDA6918
:10035C0042F08052DA61DB6903F080530193019B18
:10036C000125344B1B6813F4807F25D0E368012BE7
:10037C0036D0002B4CD103F1804303F504331A6AB9
:10038C0022F001021A621A6A22F004021A622CE0AC
:10039C00274B00221A6000F07FFA0546224B5B6A5D
:1003AC0013F0020FC8D000F077FA401B0228F5D9E1
:1003BC000320C0E00025D4E71E4A136843F4807381
:1003CC00136000F069FA06461A4B1B6813F4807F21
:1003DC00CCD100F061FA801B6428F5D90320AAE087
:1003EC00114A136A43F001031362E36873B300F01C
:1003FC0053FA06460C4B1B6A13F0020F37D100F070
:10040C004BFA801B41F288339842F3D9032092E0D7
:10041C00052B11D0044B1A6A22F001021A621A6AD7
:10042C0022F004021A62E0E700100240000042428F
:10043C008004424200700040414B1A6A42F00402B0
:10044C001A621A6A42F001021A62CEE700F024FA2C
:10045C0006463B4B1B6A13F0020F08D000F01CFA47
:10046C00801B41F288339842F3D9032063E0E5B94D
:10047C00E369002B5ED0324A526802F00C02082A63
:10048C005BD0022B17D02F4B00221A6000F004FA1D
:10049C0004462B4B1B6813F0007F47D000F0FCF98F
:1004AC00001B0228F5D9032045E0254AD36923F027
:1004BC008053D361DCE7234B00221A6000F0ECF987
:1004CC0005461F4B1B6813F0007F06D000F0E4F9C3
:1004DC00401B0228F5D903202DE0236AB3F5803F99
:1004EC001AD017494B6823F47413226A606A0243CA
:1004FC0013434B60134B01221A6000F0CDF90446F4
:10050C000F4B1B6813F0007F0ED100F0C5F9001BD8
:10051C000228F5D903200EE0094A536823F400336E
:10052C00A1680B435360DCE7002004E0002002E0EC
:10053C00012000E0002002B070BD0120FBE700BFED
:10054C00001002406000424210B487B0164C94E890
:10055C000F000DF1180C0CE90F00238AADF80430D4
:10056C00124B5B6803F00C02082A1AD1C3F38342C6
:10057C00624412F8100C13F4803F05D10C4B03FBB2
:10058C0000F007B010BC7047084B5B68C3F34043E6
:10059C00634413F8142C074BB3FBF2F300FB03F08A
:1005AC00EFE70448EDE700BF640D000800100240BF
:1005BC0000093D0000127A00594B1B6803F0070339
:1005CC008B420CD2564A136823F007030B4313607B
:1005DC00136803F007038B4201D00120704770B5FC
:1005EC00036813F0020F06D04E4A536823F0F00351
:1005FC008468234353600C460546036813F0010FCF
:10060C0052D04368012B23D0022B28D0454A1268C4
:10061C0012F0020F00F0828042494A6822F0030275
:10062C0013434B6000F038F906466B68012B1DD064
:10063C00022B2AD03B4B5B6813F00C0F34D000F02C
:10064C002BF9801B41F288339842F3D9032064E0E4
:10065C00344A126812F4003FDED101205DE0314AC9
:10066C00126812F0007FD7D1012056E02D4B5B6849
:10067C0003F00C03042B17D000F00EF9801B41F291
:10068C0088339842F2D9032047E0264B5B6803F08D
:10069C000C03082B08D000F0FFF8801B41F28833C4
:1006AC009842F2D9032038E01D4B1B6803F0070376
:1006BC00A3420CD91A4A136823F00703234313608F
:1006CC00136803F00703A34201D0012025E02B6837
:1006DC0013F0040F06D0134A536823F4E063E9685F
:1006EC000B4353602B6813F0080F07D00D4A536867
:1006FC0023F46053296943EAC1035360FFF724FFD5
:10070C00084B5B68C3F30313074AD35CD840074B11
:10071C001860002000F090F8002070BD0120FCE76C
:10072C000020024000100240780D0008000000205C
:10073C00014B1868704700BF0000002000B583B063
:10074C00214B9A6942F001029A619B6903F0010303
:10075C000193019B032000F0A7F9002211466FF0D2
:10076C000B0000F0B3F9002211466FF00A0000F004
:10077C00ADF9002211466FF0090000F0A7F9002234
:10078C0011466FF0040000F0A1F9002211466FF041
:10079C00030000F09BF9002211466FF0010000F0FD
:1007AC0095F9002211464FF0FF3000F08FF9074BFE
:1007BC005A6822F0E0625A605A6842F080625A60CD
:1007CC0003B05DF804FB00BF0010024000000140C4
:1007DC007047FEE7FEE7FEE7FEE77047704770479D
:1007EC0008B500F051F800F0CCF908BD0F4B1A68B1
:1007FC0042F001021A6059680D4A0A405A601A68A0
:10080C0022F0847222F480321A601A6822F4802258
:10081C001A605A6822F4FE025A604FF41F029A6062
:10082C00044B4FF000629A60704700BF001002400A
:10083C000000FFF800ED00E010B50446074B186807
:10084C00074BA3FB0030800900F074F9002221460D
:10085C004FF0FF3000F03AF9002010BD00000020EE
:10086C00D34D621008B5074A136843F010031360A8
:10087C00032000F019F90020FFF7DEFFFFF75EFF01
:10088C00002008BD00200240024A136801331360A7
:10089C00704700BF20000020014B1868704700BF54
:1008AC002000002030B583B00190FFF7F5FF05461E
:1008BC00019CB4F1FF3F00D00134FFF7EDFF401B6A
:1008CC00A042FAD303B030BDF0B482B00026354656
:1008DC00A1E0002C59D0012C00D1CE68FF2B68D898
:1008EC008446FF2B68D8AC00DCF800200F27A7400B
:1008FC0022EA070206FA04F42243CCF800204A68E4
:10090C0012F0805F00F086805E4A946944F0010426
:10091C009461926902F001020192019AAC08A71C41
:10092C00594A52F8272005F00307BF004FF00F0C6F
:10093C000CFA07FC22EA0C0C544A904242D002F505
:10094C00806290427FD002F5806290427DD002F5A9
:10095C008062904234D0042235E04D4FBC4214D01A
:10096C000BD94C4FBC4210D007F58037BC420CD091
:10097C00A7F58017BC42B1D107E0A7F58017BC42A0
:10098C0003D007F58037BC42A8D18C687CB1012C10
:10099C0008D042610826A1E7CE6808369EE7CE68EB
:1009AC000C369BE70261082698E7002696E704269A
:1009BC0094E700F1040C94E7A5F10804A40093E774
:1009CC00032200E00022BA4042EA0C0202342E4F0D
:1009DC0047F824204A6812F4803F38D02E4C226805
:1009EC001A4322604A6812F4003F36D02A4C6268DF
:1009FC001A4362604A6812F4801F34D0264CA268F5
:100A0C001A43A2604A6812F4001F32D0224CE268EA
:100A1C001343E36001350F2D31D80122AA400B6836
:100A2C0013409A42F6D14C68122CB8D095D8022CAF
:100A3C00B2D07FF64EAF032CB7D0112C7FF44EAF53
:100A4C00CE6804364AE70122BDE70222BBE7124C0E
:100A5C00226822EA03022260C4E70F4C626822EA91
:100A6C0003026260C6E70C4CA26822EA0302A26091
:100A7C00C8E7094CE26822EA0303E360CAE702B064
:100A8C00F0BC70470010024000000140000801401B
:100A9C0000002110000031100004014012B90904BB
:100AAC000161704701617047074AD36823F4E06322
:100ABC001B041B0C000200F4E060184340F0BF6004
:100ACC0040F40030D060704700ED00E030B4174BBC
:100ADC00DB68C3F30223C3F10704042C28BF0424EE
:100AEC001D1D062D18D9033B4FF0FF3505FA04F4F4
:100AFC0021EA0401994005FA03F322EA030319439E
:100B0C0000280BDB0901C9B200F1604000F561401F
:100B1C0080F8001330BC70470023E5E700F00F00AD
:100B2C000901C9B2024B1954F4E700BF00ED00E013
:100B3C0014ED00E00138B0F1807F0AD2064B58600A
:100B4C00064AF02182F823100020986007221A60D0
:100B5C0070470120704700BF10E000E000ED00E09E
:100B6C00042805D0054A136823F00403136070476A
:100B7C00024A136843F004031360704710E000E06E
:100B8C00704708B5FFF7FCFF08BD000030B587B013
:100B9C00174B9A6942F004029A619B6903F00403B3
:100BAC000193019B134C002204212046FFF776FF92
:100BBC0004230293012303930225059502A92046E1
:100BCC00FFF782FE4FF40073029303950323059302
:100BDC0002A92046FFF778FE4FF4806302930023AE
:100BEC000393049302A92046FFF76EFE07B030BDB5
:100BFC000010024000080140FEE7000000B591B073
:100C0C000223069301230A9310230B9300230D93C5
:100C1C0006A8FFF7ABFAF0B90F230193002102915C
:100C2C0003910491059101A8FFF7C6FCB8B9FFF731
:100C3C007FFD0D4BA3FB00308009FFF77BFF0420E9
:100C4C00FFF78EFF002211464FF0FF30FFF73EFFFB
:100C5C0011B05DF804FB8B210448FFF7CDFF9921FF
:100C6C000248FFF7C9FF00BFD34D6210880D000882
:100C7C0010B5FFF7F7FDFFF7C1FFFFF787FF0A4C31
:100C8C00012204212046FFF709FF4FF4FA70FFF709
:100C9C0009FE002204212046FFF700FF4FF4FA70F2
:100CAC00FFF700FEEBE700BF00080140002103E066
:100CBC000B4B5B58435004310A480B4B42189A4279
:100CCC00F6D30A4A02E0002342F8043B084B9A424E
:100CDC00F9D3FFF78BFD00F00FF8FFF7C9FF704752
:100CEC009C0D0008000000200400002004000020DF
:100CFC0024000020FEE7000070B500250C4E0D4CC2
:100D0C00A41BA410A54209D100F01AF800250A4E24
:100D1C000A4CA41BA410A54205D170BD56F8253071
:100D2C0098470135EEE756F8253098470135F2E73C
:100D3C00940D0008940D0008940D0008980D0008FF
:100D4C00F8B500BFF8BC08BC9E467047F8B500BFAC
:080D5C00F8BC08BC9E4670477C
:100D640002030405060708090A0B0C0D0E0F1010E8
:100D74000102000000000000000000000102030462
:100D8400060708095372632F6D61696E2E630000B4
:040D94003101000821
:040D98000D01000841
:040D9C0000A24A0463
:0400000508000CB92A
:00000001FF
