:020000040800F2
:1000000000500020350C00086F0300087103000841
:100010007303000875030008770300080000000060
:10002000000000000000000000000000790300084C
:100030007B030008000000007D0300087F03000828
:100040007D0C00087D0C00087D0C00087D0C00086C
:100050007D0C00087D0C00087D0C00087D0C00085C
:100060007D0C00087D0C00087D0C00087D0C00084C
:100070007D0C00087D0C00087D0C00087D0C00083C
:100080007D0C00087D0C00087D0C00087D0C00082C
:100090007D0C00087D0C00087D0C00087D0C00081C
:1000A0007D0C00087D0C00087D0C00087D0C00080C
:1000B0007D0C00087D0C00087D0C00087D0C0008FC
:1000C0007D0C00087D0C00087D0C00087D0C0008EC
:1000D0007D0C00087D0C00087D0C00087D0C0008DC
:1000E0007D0C00087D0C00087D0C0008000000005D
:1000F0000000000000000000000000000000000000
:0C01000000000000000000005FF808F1A3
:10010C0010B5054C237833B9044B13B10448AFF345
:10011C0000800123237010BD0C00002000000000A3
:10012C00C80C000808B5034B1BB103490348AFF3D7
:10013C00008008BD0000000010000020C80C000862
:10014C000F4B1A6842F001021A6059680D4A0A40B6
:10015C005A601A6822F0847222F480321A601A688B
:10016C0022F480221A605A6822F4FE025A604FF47C
:10017C001F029A604FF00062034B9A60704700BFF9
:10018C00001002400000FFF800ED00E02DE9F74FF1
:10019C0000221646654BDFF8A4C1DFF8A4E14FF04E
:1001AC0001080C6808FA06F808EA0404A0457ED198
:1001BC004D68122D00F0AE8000F28780022D00F009
:1001CC00A6807BD8002D00F08D80012D00F09D8045
:1001DC004FF00F09FF2C93BF824606F18045083D76
:1001EC00D0F800B092BFB500D0F804B0AD0009FA59
:1001FC0005F82BEA080802FA05F588BF00F1040A95
:10020C0048EA0505CAF80050D1F804A01AF0805F3E
:10021C004DD0474F26F00308BD6908F1804845F0E2
:10022C000105BD61BD6908F5803805F00105019532
:10023C0006F0030B019D4FEA8B0BD8F8085009FA16
:10024C000BF925EA09093B4DA84268D005F58065F4
:10025C00A84266D005F58065A84264D005F5806596
:10026C00A8420CBF0325042505FA0BF545EA090540
:10027C00C8F808501D681AF4803F14BF2543A543E5
:10028C001D605D681AF4003F14BF2543A5435D60F3
:10029C009D681AF4801F14BF2543A5439D60DD683B
:1002AC001AF4001F14BF2C4325EA0404DC60013649
:1002BC00102E7FF474AF03B0BDE8F08F032D22D065
:1002CC00112D85D1CA68043282E71B4FBD4209D07B
:1002DC0012D8DFF870904D4504D009F580394D45A2
:1002EC007FF476AF8A68C2B1012A0CBFC0F81080C7
:1002FC00C0F8148008226BE76545F3D07545F1D042
:10030C00DFF84490EBE7002262E7CA6860E7CA684E
:10031C0008325DE7CA680C325AE7042258E7002518
:10032C00A2E70125A0E702259EE700BF00040140DB
:10033C0000100240000801400000211000003110A4
:10034C0000003210000011100000221083681942C6
:10035C0014BF0120002070470AB1016170470904E5
:10036C00FBE77047FEE7FEE7FEE7FEE770477047E6
:10037C00704708B500F03AF8BDE8084000F0C3B883
:10038C0038B50E4B054618784FF47A73B3FBF0F37F
:10039C000B4A1068B0FBF3F000F092F8044658B921
:1003AC000F2D09D8024629464FF0FF3000F054F8C3
:1003BC002046044B1D6038BD0120FCE704000020E2
:1003CC000000002008000020074A08B5136803202D
:1003DC0043F01003136000F02DF80020FFF7D0FF5E
:1003EC0000F004FB002008BD00200240034A044B2F
:1003FC0011681B780B441360704700BF2800002065
:10040C0004000020014B1868704700BF2800002032
:10041C0038B50446FFF7F6FF0546631C1EBF044BB8
:10042C001B78E418FFF7EEFF401BA042FAD338BD4F
:10043C0004000020074A0002D36800F4E06023F4B3
:10044C00E0631B041B0C43F0BF6343F40033034312
:10045C00D360704700ED00E0174B70B5DC684FF0CF
:10046C00FF36C4F30224C4F10705042D04F1040380
:10047C0028BF0425062B98BF002406FA05F388BF75
:10048C00033C21EA0303A34006FA04F422EA040421
:10049C00002843EA0403A8BF00F160404FEA0313AD
:1004AC00B8BF064ADBB2B5BF00F00F0000F56140E3
:1004BC00135480F8003370BD00ED00E014ED00E043
:1004CC000138B0F1807F0AD2F021064B064A586001
:1004DC0082F823100020072298601A6070470120D0
:1004EC00704700BF10E000E000ED00E0044B042872
:1004FC001A680CBF42F0040222F004021A60704722
:10050C0010E000E0704708B5FFF7FCFF08BD0000E5
:10051C0003682DE9F341DB07054610D42B689F07D0
:10052C005ED42B68190700F195802B685A0700F1EF
:10053C00BF80EA69002A40F02D81002014E0904C25
:10054C00636803F00C03042B07D0636803F00C03FF
:10055C00082B0CD16368DE0309D523689C03DDD519
:10056C006B68002BDAD1012002B0BDE8F0816B681A
:10057C00B3F5803F10D1236843F480332360FFF739
:10058C0041FF064623689803C8D4FFF73BFF801B46
:10059C006428F7D90320E7E79BB9236823F4803359
:1005AC002360236823F480232360FFF72BFF064688
:1005BC0023689903B2D5FFF725FF801B6428F7D970
:1005CC00E8E7B3F5A02F236803D143F4802323601D
:1005DC00D1E723F480332360236823F48023CDE711
:1005EC00674C636813F00C0F07D0636803F00C03BF
:1005FC00082B10D16368DA030DD423689B0702D54E
:10060C002B69012BAFD123686A6923F0F80343EA05
:10061C00C203236085E72A695A4B6AB101221A602A
:10062C00FFF7F0FE064623689F07ECD4FFF7EAFEBF
:10063C00801B0228F7D9ADE71A60FFF7E3FE0646E8
:10064C00236898077FF56DAFFFF7DCFE801B02284F
:10065C00F6D99FE7AA694A4C4B4BDAB101221A60D2
:10066C00FFF7D0FE0646636A9B070DD54FF4FA528E
:10067C00464B1B68B3FBF2F3019300BF019B5A1E60
:10068C000192002BF9D150E7FFF7BCFE801B02282A
:10069C00E9D97FE71A60FFF7B5FE0646636A9F0744
:1006AC007FF543AFFFF7AEFE801B0228F6D971E74A
:1006BC00334CE369D80024D40127E36943F0805319
:1006CC00E361E36903F080530093009B304E336881
:1006DC00D90518D5EB68012B26D1236A43F0010309
:1006EC002362FFF78FFE41F288368046236A9B0710
:1006FC003FD5002F3FF41DAFE36923F08053E36136
:10070C0017E70027E2E7336843F480733360FFF7A1
:10071C0079FE80463368DA05DCD4FFF773FEA0EB74
:10072C0008006428F6D935E7ABB9236A41F288385A
:10073C0023F001032362236A23F004032362FFF7EF
:10074C0061FE0646236A9807D3D5FFF75BFE801B34
:10075C004045F7D91EE7052B236A03D143F0040368
:10076C002362BAE723F001032362236A23F0040314
:10077C00B6E7FFF747FEA0EB0800B042B6D909E791
:10078C00001002400000424280044242000000205F
:10079C0000700040224C636803F00C03082B3FF4FC
:1007AC00E2AE00231F4E022A33602BD1FFF72AFE44
:1007BC000746236899011FD42B6AB3F5803F05D1F6
:1007CC006268A96822F400320A436260696A62684E
:1007DC000B4322F474121343636001233360FFF75D
:1007EC0011FE054623689A013FF5A7AEFFF70AFEF6
:1007FC00401B0228F6D9CDE6FFF704FEC01B0228E9
:10080C00D7D9C7E6FFF7FEFD054623689B017FF5A8
:10081C0094AEFFF7F7FD401B0228F6D9BAE600BFED
:10082C00001002406000424230B5184B87B002AC59
:10083C0003F11005224618685968083303C2AB420D
:10084C001446F7D140F201231149ADF804304B683E
:10085C0003F00C02082A17D1C3F3834206A8024402
:10086C00DB0312F8102C0CD54B680A48C3F3404339
:10087C00504306AA134413F8143CB0FBF3F007B032
:10088C0030BD05485043FAE70248F8E7E00C000891
:10089C000010024000127A0000093D004C4A2DE97C
:1008AC00F0411368054603F007038B420E4627D32D
:1008BC002A68910731D4D20737D4454A136803F01C
:1008CC000703B34271D82A68424C12F0040F77D157
:1008DC00130706D563682A6923F4605343EAC203FD
:1008EC006360FFF7A1FF63683B4AC3F30313D35C58
:1008FC00D8403A4B18600020FFF742FD00200AE078
:10090C00136823F007030B431360136803F007030A
:10091C008B42CDD00120BDE8F0812E49A8684B68F0
:10092C0023F0F00303434B60C5E76A68294C012AA6
:10093C0023681BD113F4003FECD0636841F2883874
:10094C0023F0030313436360FFF75CFD6B680746FA
:10095C00012B13D1636803F00C03042BADD0FFF70C
:10096C0051FDC01B4045F5D90320D4E7022A02D122
:10097C0013F0007FE0E713F0020FDDE7022B0FD13D
:10098C00636803F00C03082B97D0FFF73BFDC01BEB
:10099C004045F5D9E8E7FFF735FDC01B4045E3D8E6
:1009AC00636813F00C0FF6D187E7136823F0070385
:1009BC0033431360136803F00703B342AAD182E7F1
:1009CC006368E96823F4E0630B43636080E700BF6E
:1009DC000020024000100240F00C00080000002033
:1009EC00014B1868704700BF00000020204B07B572
:1009FC009A69032042F001029A619B6903F001039A
:100A0C000193019BFFF716FD00226FF00B001146BE
:100A1C00FFF722FD00226FF00A001146FFF71CFDC4
:100A2C0000226FF009001146FFF716FD00226FF04F
:100A3C0004001146FFF710FD00226FF00300114671
:100A4C00FFF70AFD00226FF001001146FFF704FDCD
:100A5C0000224FF0FF301146FFF7FEFC054A5368A9
:100A6C0023F0E06343F08063536003B05DF804FB54
:100A7C00001002400000014070B5164600220D46E1
:100A8C000F4BC0E900219969068141F0040199617D
:100A9C009B6986B003F00403044601933146284653
:100AAC00019BFFF759FC012303930223284602A95B
:100ABC0002960593FFF76AFB204606B070BD00BF97
:100ACC000010024038B504460D4631B92A4621893A
:100ADC006068FFF741FC256001E00129F6D0204653
:100AEC0038BD000030B50446084621600949A28093
:100AFC008D6987B045F004058D618969029201F01A
:100B0C0004010191019902A90493FFF73FFB2046D0
:100B1C0007B030BD0010024008B581880068FFF7AF
:100B2C0015FC431E5842584108BDFFF7F5BF022380
:100B3C0010B590B0012106931023CDE90A130023C0
:100B4C0006A80D93FFF7E4FC014600B1FEE70F2366
:100B5C00CDE90300CDE90130059001A8FFF79EFE19
:100B6C00044600B1FEE7FFF73BFF4FF47A73B0FB8E
:100B7C00F3F0FFF7A5FC0420FFF7B8FC2246214652
:100B8C004FF0FF30FFF768FC10B010BD00B589B016
:100B9C00FFF71AFCFFF7CBFF214B04A99A692148F8
:100BAC0042F004029A619B694FF4007203F0040353
:100BBC000193019B0223CDE9042303230024079313
:100BCC00FFF7E4FA4FF4806304A91648CDE9043426
:100BDC000694FFF7DBFA0422124904A8FFF74CFF36
:100BEC00082223460F490DEB0200FFF77BFF21463D
:100BFC0004A8FFF767FF4FF4FA60FFF709FC02A89F
:100C0C00FFF793FF012804D1002104A8FFF75AFF36
:100C1C00F5E702A8FFF789FF0028F0D10121F4E7DE
:100C2C000010024000080140002103E00B4B5B5810
:100C3C00435004310A480B4B42189A42F6D30A4AE5
:100C4C0002E0002342F8043B084B9A42F9D3FFF729
:100C5C0077FA00F00FF8FFF799FF7047080D0008BE
:100C6C00000000200C0000200C0000202C000020B4
:100C7C00FEE7000070B500250C4E0D4CA41BA41013
:100C8C00A54209D100F01AF800250A4E0A4CA41B03
:100C9C00A410A54205D170BD56F8253098470135F2
:100CAC00EEE756F8253098470135F2E7000D0008BD
:100CBC00000D0008000D0008040D0008F8B500BF79
:100CCC00F8BC08BC9E467047F8B500BFF8BC08BC21
:040CDC009E46704779
:100CE00002030405060708090A0B0C0D0E0F10106D
:100CF00000000000000000000102030406070809CC
:040D000031010008B5
:040D04000D010008D5
:0C0D080000A24A040100000010000000DE
:0400000508000C35AE
:00000001FF
