:020000040800F2
:1000000000500020915A0008D95A0008D95A000817
:10001000D95A0008D95A0008D95A0008000000002F
:10002000000000000000000000000000D95A000895
:10003000D95A000800000000D95A00082903000816
:10004000D95A0008D95A0008D95A0008D95A0008C4
:10005000D95A0008D95A0008D95A0008D95A0008B4
:10006000D95A0008D95A0008D95A0008D95A0008A4
:10007000D95A0008D95A0008D95A0008D95A000894
:10008000D95A0008D95A0008D95A0008D95A000884
:10009000D95A0008D95A0008D95A0008D95A000874
:1000A000D95A0008D95A0008D95A0008D95A000864
:1000B000D95A0008D95A0008D95A0008D95A000854
:1000C000D95A0008D95A0008D95A0008D95A000844
:1000D000D95A0008D95A0008D95A0008D95A000834
:1000E000D95A0008D95A0008D95A0008000000005F
:1000F0000000000000000000000000000000000000
:0C01000000000000000000005FF808F1A3
:10010C0010B5054C237833B9044B13B10448AFF345
:10011C0000800123237010BD440400200000000067
:10012C00405C000808B5034B1BB103490348AFF30F
:10013C00008008BD0000000048040020405C00085E
:10014C0080B588B000AF2A4B9B69294A43F0100355
:10015C009361274B9B6903F01003FB60FB68244BF6
:10016C009B69234A43F020039361214B9B6903F065
:10017C002003BB60BB681E4B9B691D4A43F0040304
:10018C0093611B4B9B6903F004037B607B68184BEA
:10019C009B69174A43F008039361154B9B6903F065
:1001AC0008033B603B684FF460433B6103237B6176
:1001BC0007F1100319460F4801F020FB4FF6FF130F
:1001CC003B6103237B6107F1100319460A4801F0D8
:1001DC0015FB4FF6FF733B6103237B6107F11003A3
:1001EC001946064801F00AFB00BF2037BD4680BD0A
:1001FC00001002400010014000080140000C0140BA
:10020C0080B500AF00F0AEF900F02EF8FFF798FFC4
:10021C0000F08CF84FF6FF7301221149114804F0DD
:10022C00ECFB0DE04FF6FF7301220D490D4804F075
:10023C003BFB4FF6FF73012209490A4804F0DDFB32
:10024C00074B1B780A2BEDD1054B0A221A704FF67F
:10025C00FF7301220249034804F026FBDAE700BFD2
:10026C00640400206804002080B590B000AF022325
:10027C00BB610123BB621023FB6200237B6307F18C
:10028C001803184601F0A0FD01237B600023BB601E
:10029C000023FB6000233B6100237B613B1D00219D
:1002AC00184603F0CBFB03F07DFA0246064BA3FB8A
:1002BC0002239B09184600F08AFC042000F0EAFC9B
:1002CC0000BF4037BD4680BDD34D621080B582B0B3
:1002DC0000AF104B9B690F4A43F0010393610D4B28
:1002EC009B6903F001037B607B68032000F026FC14
:1002FC00002200214FF0FF3000F02BFC064B5B6816
:10030C0023F0E063044A43F08063536000BF083776
:10031C00BD4680BD001002400000014080B500AF1A
:10032C0000F076F900F0D2FC00BF80BD80B500AFC4
:10033C000E4B0F4A1A600D4B4FF416525A600B4B72
:10034C0000229A60094B0022DA60084B00221A61E5
:10035C00064B0C225A61054B00229A61034B00227A
:10036C00DA61024804F010F900BF80BD6804002077
:10037C000038014080B588B000AF78607B681B689E
:10038C00164A934225D1164B9B69154A43F4804378
:10039C009361134B9B6903F48043FB60FB684FF440
:1003AC0000733B6102237B610323FB6107F11003A4
:1003BC0019460C4801F022FA4FF480633B6100238C
:1003CC007B610023BB6107F110031946054801F05E
:1003DC0015FA00BF2037BD4680BD00BF0038014074
:1003EC00001002400008014080B582B000AF786078
:1003FC007B681B68084A93420AD1084B9B69074AE1
:10040C0023F4804393614FF4C061054801F054FB21
:10041C0000BF0837BD4680BD0038014000100240C7
:10042C000008014080B400AF154B1B68144A43F020
:10043C0001031360124B5A681149124B13404B6065
:10044C000F4B1B680E4A23F0847323F48033136024
:10045C000B4B1B680A4A23F480231360084B5B6820
:10046C00074A23F4FE035360054B4FF41F029A60B6
:10047C00054B4FF000629A6000BFBD4680BC7047D0
:10048C00001002400000FFF800ED00E080B485B0E1
:10049C0000AF0023FB600023BB6000237B602C4B70
:1004AC005B6803F00C03FB60FB68042B07D0082B84
:1004BC0009D0002B33D1274B274A1A6033E0254B48
:1004CC00254A1A602FE0224B5B6803F47013BB6063
:1004DC001F4B5B6803F480337B60BB689B0C02335F
:1004EC00BB607B68002B06D1BB681C4A02FB03F384
:1004FC00184A136017E0164B5B6803F40033002BAB
:10050C0006D0BB68154A02FB03F3124A13600AE0DB
:10051C00BB68114A02FB03F30E4A136003E00D4B58
:10052C000D4A1A6000BF0A4B5B681B0903F00F03EE
:10053C000B4AD35CDBB2FB60064B1A68FB6822FAF1
:10054C0003F3044A136000BF1437BD4680BC7047E8
:10055C00001002400000002000127A0000093D004B
:10056C000400002080B500AF084B1B68074A43F01D
:10057C0010031360032000F0E1FA002000F02CF8C7
:10058C00FFF7A4FE0023184680BD00BF00200240E8
:10059C0080B500AF094B4FF0FF32DA60074B0022F9
:1005AC001A61064B4FF0FF32DA60044B0022DA601E
:1005BC0000F00CF80023184680BD00BF001002406C
:1005CC0080B400AF00BFBD4680BC704780B400AFA4
:1005DC0000BFBD4680BC704780B582B000AF78606C
:1005EC0003F0E0F80246094BA3FB02239B091846D3
:1005FC0000F0EDFA002279684FF0FF3000F0A9FA14
:10060C00002318460837BD4680BD00BFD34D62108D
:10061C0080B400AF044B1B680133034A136000BF66
:10062C00BD4680BC704700BF6004002080B400AFA2
:10063C00024B1B681846BD4680BC70476004002006
:10064C0080B584B000AF78600023FB60FFF7EEFF4D
:10065C00F86000BFFFF7EAFF0246FB68D21A7B681E
:10066C009A42F7D300BF1037BD4680BD80B400AFAF
:10067C00044B1B68034A23F00203136000BFBD4602
:10068C0080BC704710E000E080B400AF044B1B68E6
:10069C00034A43F00203136000BFBD4680BC7047A1
:1006AC0010E000E080B400AF4FF080731846BD46F8
:1006BC0080BC704780B485B000AF0B4B1B680B4AF5
:1006CC007A607A6892FAA2F23A603A68FA60FA684A
:1006DC00B2FA82F2BA60BA68D2B2D3401846143772
:1006EC00BD4680BC704700BF002004E00000FFFF47
:1006FC0080B400AF034B1B68C3F30B031846BD4615
:10070C0080BC7047002004E080B400AF044B5B68F1
:10071C00034A43F00103536000BFBD4680BC7047E1
:10072C00002004E080B400AF044B5B68034A23F064
:10073C000103536000BFBD4680BC7047002004E03D
:10074C0080B400AF044B5B68034A43F00203536070
:10075C0000BFBD4680BC7047002004E080B400AFF1
:10076C00044B5B68034A23F00203536000BFBD4691
:10077C0080BC7047002004E080B400AF044B5B6881
:10078C00034A43F00403536000BFBD4680BC70476E
:10079C00002004E080B400AF044B5B68034A23F0F4
:1007AC000403536000BFBD4680BC7047002004E0CA
:1007BC0080B485B000AF78607B6803F00703FB6002
:1007CC000C4BDB68BB60BA684FF6FF031340BB6091
:1007DC00FB681A02BB68134343F0BF6343F4003356
:1007EC00BB60044ABB68D36000BF1437BD4680BCF5
:1007FC00704700BF00ED00E080B400AF044BDB6835
:10080C001B0A03F007031846BD4680BC704700BFA7
:10081C0000ED00E080B483B000AF0346FB71FB79C0
:10082C0003F01F03012202FA03F1054A97F907307E
:10083C005B0942F8231000BF0C37BD4680BC7047E3
:10084C0000E100E080B483B000AF0346FB71FB799C
:10085C0003F01F03012202FA03F1064A97F907304D
:10086C005B09203342F8231000BF0C37BD4680BC17
:10087C00704700BF00E100E080B483B000AF0346D6
:10088C00FB710C4A97F907305B09403352F823305F
:10089C00FA7902F01F02012101FA02F21340002B37
:1008AC0001D0012300E0002318460C37BD4680BC64
:1008BC00704700BF00E100E080B483B000AF034696
:1008CC00FB71FB7903F01F03012202FA03F1064AC4
:1008DC0097F907305B09403342F8231000BF0C37FF
:1008EC00BD4680BC704700BF00E100E080B483B01F
:1008FC0000AF0346FB71FB7903F01F03012202FAE0
:10090C0003F1064A97F907305B09603342F823106C
:10091C0000BF0C37BD4680BC704700BF00E100E053
:10092C0080B483B000AF0346FB710C4A97F90730D3
:10093C005B09803352F82330FA7902F01F0201214F
:10094C0001FA02F21340002B01D0012300E0002336
:10095C0018460C37BD4680BC704700BF00E100E074
:10096C0080B483B000AF03463960FB7197F9073050
:10097C00002B0BDA3B68DAB20C49FB7903F00F035E
:10098C00043B1201D2B20B441A7609E03B68DAB28E
:10099C00074997F907301201D2B20B4483F80023B0
:1009AC0000BF0C37BD4680BC704700BF00ED00E0B7
:1009BC0000E100E080B483B000AF0346FB7197F90F
:1009CC000730002B0ADA0C4AFB7903F00F03043BC7
:1009DC0013441B7EDBB21B09DBB208E0074A97F914
:1009EC000730134493F80033DBB21B09DBB2184613
:1009FC000C37BD4680BC704700ED00E000E100E024
:100A0C0080B489B000AFF860B9607A60FB6803F01D
:100A1C000703FB61FB69C3F10703042B28BF042305
:100A2C00BB61FB690433062B02D9FB69033B00E075
:100A3C0000237B610122BB6902FA03F3013B1A46D6
:100A4C00BB681A407B699A4001217B6901FA03F368
:100A5C00013B19467B680B40134318462437BD46AF
:100A6C0080BC704780B489B000AFF860B9607A6020
:100A7C003B60BB6803F00703FB61FB69C3F1070331
:100A8C00042B28BF0423BB61FB690433062B02D95A
:100A9C00FB69033B00E000237B61FA687B6922FA67
:100AAC0003F30121BA6901FA02F2013A1A407B6898
:100ABC001A6001227B6902FA03F3013B1A46FB68B8
:100ACC001A403B681A6000BF2437BD4680BC704793
:100ADC0080B400AFBFF34F8F054BDB6803F4E062CB
:100AEC000349044B1343CB60BFF34F8FFEE700BFAA
:100AFC0000ED00E00400FA0580B582B000AF78602C
:100B0C007B68013BB3F1807F01D301230FE00A4ADC
:100B1C007B68013B53600F214FF0FF30FFF720FF44
:100B2C00054B00229A60044B07221A6000231846DA
:100B3C000837BD4680BD00BF10E000E080B582B034
:100B4C0000AF78607868FFF733FE00BF0837BD460A
:100B5C0080BD80B586B000AF0346B9607A60FB7388
:100B6C0000237B61FFF748FE78617A68B968786981
:100B7C00FFF746FF024697F90F3011461846FFF76C
:100B8C00EFFE00BF1837BD4680BD80B582B000AF08
:100B9C000346FB7197F907301846FFF73BFE00BF81
:100BAC000837BD4680BD80B582B000AF0346FB71EF
:100BBC0097F907301846FFF745FE00BF0837BD46CA
:100BCC0080BD80B500AFFFF783FF00BF80BD80B54F
:100BDC0082B000AF78607868FFF78EFF0346184646
:100BEC000837BD4680BD80B500AFFFF705FE034654
:100BFC00184680BD80B584B000AFB9607A603B60A8
:100C0C000346FB7397F90F301846FFF7D3FE3B688A
:100C1C007A68B968FFF726FF00BF1037BD4680BD64
:100C2C0080B582B000AF0346FB7197F907301846C8
:100C3C00FFF742FE00BF0837BD4680BD80B582B0CD
:100C4C0000AF0346FB7197F907301846FFF714FE07
:100C5C00034618460837BD4680BD80B582B000AF4C
:100C6C000346FB7197F907301846FFF73FFE00BFAC
:100C7C000837BD4680BD80B582B000AF0346FB711E
:100C8C0097F907301846FFF74BFE0346184608370E
:100C9C00BD4680BD80B483B000AF78607B68042B08
:100CAC0006D1094B1B68084A43F00403136005E0A6
:100CBC00054B1B68044A23F00403136000BF0C3778
:100CCC00BD4680BC704700BF10E000E080B500AFAF
:100CDC0000F002F800BF80BD80B400AF00BFBD467D
:100CEC0080BC704780B485B000AF78600023FB6097
:100CFC007B68002B01D1012339E07B6893F821300C
:100D0C00002B03D17B68002283F820207B68022211
:100D1C0083F821207B681B681B68FB60FB6823F44D
:100D2C007F5323F03003FB607B685A687B689B68B9
:100D3C001A437B68DB681A437B681B691A437B6820
:100D4C005B691A437B689B691A437B68DB691343B5
:100D5C00FA681343FB607B681B68FA681A607B684F
:100D6C0000225A637B68012283F821200023184655
:100D7C001437BD4680BC704780B483B000AF786038
:100D8C007B68002B01D10123C0E07B6893F82130F4
:100D9C00022B01D10123B9E07B681B681A687B68C0
:100DAC001B6822F001021A607B681B6800221A6023
:100DBC007B681B6800225A607B681B6800229A6063
:100DCC007B681B680022DA607B681B68524A93427E
:100DDC0029D07B681B68514A934222D07B681B68E0
:100DEC004F4A93421AD07B681B684E4A934212D0EA
:100DFC007B681B684C4A93420AD07B681B684B4A41
:100E0C00934202D14FF400130EE04FF000730BE04D
:100E1C004FF4003308E04FF4005305E04FF4007337
:100E2C0002E0202300E00223414A53607B681B68E8
:100E3C00394A934229D07B681B68384A934222D0A6
:100E4C007B681B68364A93421AD07B681B68354A0C
:100E5C00934212D07B681B68334A93420AD07B685A
:100E6C001B68324A934202D14FF400030EE04FF05C
:100E7C0000630BE04FF4002308E04FF4004305E05F
:100E8C004FF4006302E0802300E00823284A5360FB
:100E9C007B681B68204A934229D07B681B681F4AD9
:100EAC00934222D07B681B681D4A93421AD07B6800
:100EBC001B681C4A934212D07B681B681A4A9342E7
:100ECC000AD07B681B68194A934202D14FF4800305
:100EDC000EE04FF080630BE04FF4802308E04FF4FA
:100EEC00804305E04FF4806302E0402300E00423DC
:100EFC000F4A53607B6800225A637B68002283F898
:100F0C0021207B68002283F82020002318460C3710
:100F1C00BD4680BC704700BF080002401C00024068
:100F2C003000024044000240580002406C00024075
:100F3C000000024080B584B000AFF860B9607A6000
:100F4C003B60FB6893F82030012B01D102231EE09B
:100F5C00FB68012283F82020FB68022283F8212001
:100F6C00FB681B681A68FB681B6822F001021A6098
:100F7C003B687A68B968F86800F01BFCFB681B6872
:100F8C001A68FB681B6842F001021A6000231846BD
:100F9C001037BD4680BD80B584B000AFF860B96035
:100FAC007A603B60FB6893F82030012B01D102235F
:100FBC0036E0FB68012283F82020FB68022283F8CC
:100FCC002120FB681B681A68FB681B6822F0010271
:100FDC001A603B687A68B968F86800F0EAFBFB684D
:100FEC001B681A68FB681B6842F002021A60FB68F7
:100FFC001B681A68FB681B6842F004021A60FB68E5
:10100C001B681A68FB681B6842F008021A60FB68D0
:10101C001B681A68FB681B6842F001021A60002307
:10102C0018461037BD4680BD80B584B000AF7860DF
:10103C000023FB607B681B681A687B681B6822F0C6
:10104C0001021A60FFF7F2FAF86017E0FFF7EEFA08
:10105C000246FB68D31AB3F57A7F0FD97B685B6BBA
:10106C0043F020027B685A637B68032283F82120BB
:10107C007B68002283F8202003230FE07B681B6829
:10108C001B6803F00103002BE0D17B68012283F87D
:10109C0021207B68002283F820200023184610377B
:1010AC00BD4680BD80B586B000AFF860B9607A608F
:1010BC0000233B61BB68002B31D1FB681B689E4A47
:1010CC00934229D0FB681B689C4A934222D0FB6850
:1010DC001B689B4A93421AD0FB681B68994A93423F
:1010EC0012D0FB681B68984A93420AD0FB681B68B5
:1010FC00964A934202D14FF400130EE04FF0007366
:10110C000BE04FF4003308E04FF4005305E04FF4CC
:10111C00007302E0202300E002237B6130E0FB68D7
:10112C001B68854A934229D0FB681B68834A93420B
:10113C0022D0FB681B68824A93421AD0FB681B685A
:10114C00804A934212D0FB681B687F4A93420AD0B4
:10115C00FB681B687D4A934202D14FF480030EE07A
:10116C004FF080630BE04FF4802308E04FF4804392
:10117C0005E04FF4806302E0402300E004237B6130
:10118C00FFF754FA386195E0714B1A68FB681B68DD
:10119C0069498B4229D0FB681B6868498B4222D075
:1011AC00FB681B6866498B421AD0FB681B68654953
:1011BC008B4212D0FB681B6863498B420AD0FB68D8
:1011CC001B6862498B4202D14FF400030EE04FF0D2
:1011DC0000630BE04FF4002308E04FF4004305E0FC
:1011EC004FF4006302E0802300E008231340002B3F
:1011FC0041D0FB681B68504A934229D0FB681B689E
:10120C004E4A934222D0FB681B684D4A93421AD037
:10121C00FB681B684B4A934212D0FB681B684A4A16
:10122C0093420AD0FB681B68484A934202D14FF4A0
:10123C0000030EE04FF000630BE04FF4002308E0D6
:10124C004FF4004305E04FF4006302E0802300E01C
:10125C0008233F4A5360FB685B6B43F00102FB6859
:10126C005A63FB68042283F82120FB68002283F870
:10127C0020200123A9E07B68B3F1FF3F1AD07B68E3
:10128C00002B07D0FFF7D2F902463B69D31A7A68D4
:10129C009A420FD2FB685B6B43F02002FB685A63E7
:1012AC00FB68032283F82120FB68002283F82020AE
:1012BC0003238AE0264B1A687B691340002B3FF40A
:1012CC0063AFBB68002B45D1FB681B681A4A93427D
:1012DC0029D0FB681B68194A934222D0FB681B6813
:1012EC00174A93421AD0FB681B68164A934212D0D5
:1012FC00FB681B68144A93420AD0FB681B68134AAC
:10130C00934202D14FF400130EE04FF000730BE048
:10131C004FF4003308E04FF4005305E04FF4007332
:10132C0002E0202300E00223094A5360FB680122FB
:10133C0083F8212044E000BF080002401C0002405A
:10134C003000024044000240580002406C00024051
:10135C0000000240FB681B681E4A934229D0FB68C0
:10136C001B681D4A934222D0FB681B681B4A9342A0
:10137C001AD0FB681B681A4A934212D0FB681B6890
:10138C00184A93420AD0FB681B68174A934202D151
:10139C004FF480030EE04FF080630BE04FF480239A
:1013AC0008E04FF4804305E04FF4806302E04023F3
:1013BC0000E004230D4A5360FB68112283F82120BE
:1013CC00FB68002283F82020002318461837BD46FE
:1013DC0080BD00BF080002401C00024030000240EB
:1013EC0044000240580002406C00024000000240E1
:1013FC0080B582B000AF7860824B1A687B681B683E
:10140C0081498B4229D07B681B6880498B4222D052
:10141C007B681B687E498B421AD07B681B687D49B0
:10142C008B4212D07B681B687B498B420AD07B684D
:10143C001B687A498B4202D14FF400030EE04FF047
:10144C0000630BE04FF4002308E04FF4004305E089
:10145C004FF4006302E0802300E008231340002BCC
:10146C0056D07B681B681B6803F00803082B4FD110
:10147C007B681B681A687B681B6822F008021A607C
:10148C007B681B68604A934229D07B681B685F4A63
:10149C00934222D07B681B685D4A93421AD07B68CA
:1014AC001B685C4A934212D07B681B685A4A934271
:1014BC000AD07B681B68594A934202D14FF400034F
:1014CC000EE04FF000630BE04FF4002308E04FF404
:1014DC00004305E04FF4006302E0802300E00823A2
:1014EC00484A53607B685B6B43F001027B685A632C
:1014FC007B68042283F821207B68002283F820205B
:10150C007B681B6B002B03D07B681B6B7868984740
:10151C003C4B1A687B681B683B498B4229D07B6823
:10152C001B683A498B4222D07B681B6838498B4236
:10153C001AD07B681B6837498B4212D07B681B68BA
:10154C0035498B420AD07B681B6834498B4202D1E7
:10155C004FF480030EE04FF080630BE04FF48023D8
:10156C0008E04FF4804305E04FF4806302E0402331
:10157C0000E004231340002B61D07B681B681B68C0
:10158C0003F00403042B5AD17B681B681B6803F01F
:10159C002003002B07D17B681B681A687B681B68CB
:1015AC0022F004021A607B681B68174A934237D0FA
:1015BC007B681B68154A934222D07B681B68144ACF
:1015CC0093421AD07B681B68124A934212D07B68F4
:1015DC001B68114A93420AD07B681B680F4A9342DE
:1015EC0002D14FF480031CE04FF0806319E04FF4FC
:1015FC00802316E04FF4804313E04FF4806310E037
:10160C0040230EE000000240080002401C00024093
:10161C003000024044000240580002406C0002407E
:10162C000423514A53607B68112283F821207B6884
:10163C00DB6A002B03D07B68DB6A786898474A4BDF
:10164C001A687B681B6849498B4229D07B681B68E8
:10165C0047498B4222D07B681B6846498B421AD083
:10166C007B681B6844498B4212D07B681B684349DA
:10167C008B420AD07B681B6841498B4202D14FF4E4
:10168C0000130EE04FF000730BE04FF4003308E052
:10169C004FF4005305E04FF4007302E0202300E008
:1016AC0002231340002B5BD07B681B681B6803F084
:1016BC000203022B54D17B681B681B6803F02003C8
:1016CC00002B07D17B681B681A687B681B6822F0AB
:1016DC0002021A607B681B68244A934229D07B68FB
:1016EC001B68234A934222D07B681B68214A934291
:1016FC001AD07B681B68204A934212D07B681B6807
:10170C001E4A93420AD07B681B681D4A934202D141
:10171C004FF400130EE04FF000730BE04FF4003366
:10172C0008E04FF4005305E04FF4007302E020236F
:10173C0000E002230C4A53607B685A6B7B685A6347
:10174C007B68012283F821207B68002283F820200B
:10175C007B689B6A002B03D07B689B6A78689847F0
:10176C0000BF0837BD4680BD0000024008000240A3
:10177C001C0002403000024044000240580002406D
:10178C006C00024080B483B000AF78607B6893F843
:10179C00213018460C37BD4680BC704780B483B0EE
:1017AC0000AF78607B685B6B18460C37BD4680BC1D
:1017BC00704780B485B000AFF860B9607A603B6068
:1017CC00FB681B683A685A60FB685B68102B08D191
:1017DC00FB681B687A689A60FB681B68BA68DA60F9
:1017EC0007E0FB681B68BA689A60FB681B687A683C
:1017FC00DA6000BF1437BD4680BC704780B48BB034
:10180C0000AF786039600023FB610023BB610023CB
:10181C007B6100233B6200233B6100237B6227E159
:10182C0001227B6A02FA03F3FB613B681B68FA69CD
:10183C001340BB61BA69FB699A4240F016813B6860
:10184C005B68122B34D0122B0DD8022B2BD0022B11
:10185C0004D8002B31D0012B1CD048E0032B43D0F3
:10186C00112B1BD043E0874A934226D0854A9342E2
:10187C0006D8854A934220D0844A93421DD036E044
:10188C00834A934219D0834A934216D0824A934298
:10189C0013D02CE03B68DB683B6228E03B68DB68DC
:1018AC0004333B6223E03B68DB6808333B621EE099
:1018BC003B68DB680C333B6219E03B689B68002B90
:1018CC0002D104233B6212E03B689B68012B05D1DB
:1018DC0008233B627B68FA691A6108E008233B62C3
:1018EC007B68FA695A6102E000233B6200BFBB6966
:1018FC00FF2B01D87B6801E07B680433FB60BB697C
:10190C00FF2B02D87B6A9B0002E07B6A083B9B00A2
:10191C003B61FB681A680F213B6901FA03F3DB4357
:10192C001A40396A3B6901FA03F31A43FB681A60DF
:10193C003B685B6803F08053002B00F09680574B9C
:10194C009B69564A43F001039361544B9B6903F026
:10195C000103BB60BB68524A7B6A9B08023352F896
:10196C0023307B617B6A03F003039B000F2202FA96
:10197C0003F3DB437A6913407B617B68494A9342EA
:10198C0013D07B68484A93420DD07B68474A9342F8
:10199C0007D07B68464A934201D1032306E0042317
:1019AC0004E0022302E0012300E000237A6A02F043
:1019BC000302920093407A6913437B6138497B6A36
:1019CC009B0802337A6941F823203B685B6803F477
:1019DC008033002B06D0374B1A683649BB6913434A
:1019EC000B6006E0334B1A68BB69DB43314913408B
:1019FC000B603B685B6803F40033002B06D02D4B67
:101A0C005A682C49BB6913434B6006E0294B5A6852
:101A1C00BB69DB43274913404B603B685B6803F4AD
:101A2C008013002B06D0234B9A682249BB691343C1
:101A3C008B6006E01F4B9A68BB69DB431D49134062
:101A4C008B603B685B6803F40013002B06D0194BCA
:101A5C00DA681849BB691343CB6006E0154BDA68AA
:101A6C00BB69DB4313491340CB607B6A01337B6258
:101A7C007B6A0F2B7FF6D4AE00BF2C37BD4680BCE3
:101A8C00704700BF00002110000011100000121060
:101A9C000000311000003210000022100010024033
:101AAC000000014000080140000C01400010014002
:101ABC00001401400004014080B489B000AF78608C
:101ACC0039600023FB610023BB6100237B61002391
:101ADC003B619AE00122FB6902FA03F33A68134076
:101AEC00BB61BB69002B00F08D80BB69FF2B01D85B
:101AFC007B6801E07B680433FB60BB69FF2B02D879
:101B0C00FB699B0002E0FB69083B9B003B61FB68A7
:101B1C001A680F213B6901FA03F3DB431A400421D5
:101B2C003B6901FA03F31A43FB681A607B68DA68B5
:101B3C00BB69DB431A407B68DA603A4AFB699B0855
:101B4C00023352F823307B61FB6903F003039B00E3
:101B5C000F2202FA03F37A6913407B617B68324AE5
:101B6C00934213D07B68314A93420DD07B68304A44
:101B7C00934207D07B682F4A934201D1032306E09E
:101B8C00042304E0022302E0012300E00023FA69AD
:101B9C0002F00302920093407A699A4232D1FB69B7
:101BAC0003F003039B000F2202FA03F37B611D4A2F
:101BBC00FB699B08023352F823107B69DA431948FE
:101BCC00FB699B080A40023340F823201A4B1A6821
:101BDC00BB69DB43184913400B60174B5A68BB6950
:101BEC00DB43154913404B60134B9A68BB69DB43CD
:101BFC00114913408B60104BDA68BB69DB430E490B
:101C0C001340CB60FB690133FB613A68FB6922FA34
:101C1C0003F3002B7FF45EAF00BF2437BD4680BCBE
:101C2C00704700BF0000014000080140000C01405B
:101C3C0000100140001401400004014080B485B044
:101C4C0000AF78600B467B807B689A687B8813407A
:101C5C00002B02D00123FB7301E00023FB73FB7B01
:101C6C0018461437BD4680BC704780B483B000AFB3
:101C7C0078600B467B8013467B707B78002B03D0FF
:101C8C007A887B681A6103E07B881A047B681A6186
:101C9C0000BF0C37BD4680BC704780B483B000AF2A
:101CAC0078600B467B807B68DA687B885A407B685F
:101CBC00DA6000BF0C37BD4680BC704780B485B07D
:101CCC0000AF78600B467B804FF48033FB607A88E2
:101CDC00FB681343FB60FA687B689A617A887B68BF
:101CEC009A61FA687B689A617B689B69FB607B6888
:101CFC009B6903F48033002B01D0002300E0012307
:101D0C0018461437BD4680BC704780B582B000AF12
:101D1C000346FB80084B5A69FB881340002B06D006
:101D2C00054AFB885361FB88184600F007F800BF92
:101D3C000837BD4680BD00BF0004014080B483B0AD
:101D4C0000AF0346FB8000BF0C37BD4680BC70471C
:101D5C0080B485B000AF1B4B5B681A4A23F00303B9
:101D6C005360184B1B68174A23F0847323F4803399
:101D7C001360144B1B68134A23F480231360114B1C
:101D8C0000225A600F4B1B6823F0F802F8237B608B
:101D9C007B6893FAA3F33B603B68FB60FB68B3FA88
:101DAC0083F3BB60BB68DBB2194610238B4005493B
:101DBC0013430B60034B00229A6000BF1437BD46DF
:101DCC0080BC70470010024080B5ADF57C7D00AF43
:101DDC003B1D18600023C7F8EC333B1D1B681B68C8
:101DEC0003F00103002B00F0FB81CE4B5B6803F08A
:101DFC000C03042B0CD0CB4B5B6803F00C03082BAF
:101E0C006ED1C84B5B6803F48033B3F5803F67D168
:101E1C004FF40033C7F8E033D7F8E03393FAA3F369
:101E2C00C7F8DC33D7F8DC33C7F8E833D7F8E83336
:101E3C00B3FA83F3C7F8E433D7F8E433DBB25B09C6
:101E4C00DBB243F00103DBB2012B02D1B54B1B68B3
:101E5C0015E04FF40033C7F8D033D7F8D03393FAEA
:101E6C00A3F3C7F8CC33D7F8CC33C7F8D833D7F8AB
:101E7C00D833B3FA83F3C7F8D433AA4B5B6A4FF465
:101E8C000032C7F8C023D7F8C02392FAA2F2C7F8E1
:101E9C00BC23D7F8BC23C7F8C823D7F8C823B2FA99
:101EAC0082F2C7F8C423D7F8C423D2B242F020027E
:101EBC00D2B202F01F02D34003F00103002B00F05A
:101ECC008E813B1D1B685B68012B00F088813B1DDC
:101EDC001B685B68052B00F08281012301F0F4B9CB
:101EEC00904B1B688F4A23F4803313608D4B1B6817
:101EFC008C4A23F480231360FEF798FBC7F8EC039D
:101F0C000CE0FEF793FB0246D7F8EC33D31A41F200
:101F1C008832934202D9032301F0D6B94FF400332F
:101F2C00C7F8B033D7F8B03393FAA3F3C7F8AC3390
:101F3C00D7F8AC33C7F8B833D7F8B833B3FA83F360
:101F4C00C7F8B433D7F8B433DBB25B09DBB243F078
:101F5C000103DBB2012B02D1724B1B6815E04FF46D
:101F6C000033C7F8A033D7F8A03393FAA3F3C7F81C
:101F7C009C33D7F89C33C7F8A833D7F8A833B3FAF7
:101F8C0083F3C7F8A433674B5B6A4FF40032C7F88E
:101F9C009023D7F8902392FAA2F2C7F88C23D7F8A3
:101FAC008C23C7F89823D7F89823B2FA82F2C7F893
:101FBC009423D7F89423D2B242F02002D2B202F08A
:101FCC001F02D34003F00103002B9AD1554B1B6821
:101FDC00544A23F4803313603B1D1B685B68012B50
:101FEC000CD1504B1B684F4A23F4802313604D4B8C
:101FFC001B684C4A43F48033136011E03B1D1B6893
:10200C005B68052B06D13B1D1B685A68464BD2B248
:10201C001A7005E0434B1B68424A23F4802313607B
:10202C003B1D1B685B68002B6AD0FEF7FFFAC7F8F4
:10203C00EC030CE0FEF7FAFA0246D7F8EC33D31AAD
:10204C0041F28832934202D9032301F03DB94FF497
:10205C000033C7F88033D7F8803393FAA3F3C7F86B
:10206C007C33D7F87C33C7F88833D7F88833B3FA86
:10207C0083F3C7F88433D7F88433DBB25B09DBB264
:10208C0043F00103DBB2012B02D1264B1B6815E098
:10209C004FF40033C7F87033D7F8703393FAA3F3C7
:1020AC00C7F86C33D7F86C33C7F87833D7F8783374
:1020BC00B3FA83F3C7F874331A4B5B6A4FF40032EC
:1020CC00C7F86023D7F8602392FAA2F2C7F85C2312
:1020DC00D7F85C23C7F86823D7F86823B2FA82F2E2
:1020EC00C7F86423D7F86423D2B242F02002D2B2EC
:1020FC0002F01F02D34003F00103002B9AD06FE0D3
:10210C00FEF794FAC7F8EC0310E0FEF78FFA0246DC
:10211C00D7F8EC33D31A41F28832934206D9032311
:10212C0001F0D2B800100240021002404FF400330C
:10213C00C7F85033D7F8503393FAA3F3C7F84C339E
:10214C00D7F84C33C7F85833D7F85833B3FA83F36E
:10215C00C7F85433D7F85433DBB25B09DBB243F026
:10216C000103DBB2012B02D19F4B1B6815E04FF42E
:10217C000033C7F84033D7F8403393FAA3F3C7F8CA
:10218C003C33D7F83C33C7F84833D7F84833B3FA65
:10219C0083F3C7F84433944B5B6A4FF40032C7F8AF
:1021AC003023D7F8302392FAA2F2C7F82C23D7F8B1
:1021BC002C23C7F83823D7F83823B2FA82F2C7F8A1
:1021CC003423D7F83423D2B242F02002D2B202F038
:1021DC001F02D34003F00103002B96D100E000BF97
:1021EC003B1D1B681B6803F00203002B00F00E82E2
:1021FC007D4B5B6803F00C03002B0DD07A4B5B68B6
:10220C0003F00C03082B40F08A80774B5B6803F4D7
:10221C008033002B40F083800223C7F82033D7F89B
:10222C00203393FAA3F3C7F81C33D7F81C33C7F841
:10223C002833D7F82833B3FA83F3C7F82433D7F805
:10224C002433DBB25B09DBB243F00103DBB2012BBD
:10225C0002D1654B1B6814E00223C7F81033D7F882
:10226C00103393FAA3F3C7F80C33D7F80C33C7F831
:10227C001833D7F81833B3FA83F3C7F814335A4B1F
:10228C005B6A0222C7F80023D7F8002392FAA2F265
:10229C00C7F8FC22D7F8FC22C7F80823D7F8082384
:1022AC00B2FA82F2C7F80423D7F80423D2B242F070
:1022BC002002D2B202F01F02D34003F00103002B24
:1022CC0007D03B1D1B681B69012B02D0012300F0BA
:1022DC00FBBF454B1B6823F0F8023B1D1B685B6979
:1022EC0007F53C71F820086007F53C71096891FA14
:1022FC00A1F007F53B71086007F53B710968C7F859
:10230C00F812D7F8F812B1FA81F1C7F8F412D7F82D
:10231C00F412C9B28B40344913430B6076E13B1D78
:10232C001B681B69002B00F0CF8007F53873012266
:10233C001A6007F538731B6893FAA3F207F5377325
:10234C001A6007F537731A6807F53A731A6007F5C0
:10235C003A731B68B3FA83F207F539731A6007F501
:10236C0039731B68DBB29B0003F1844303F58403D0
:10237C001A4601231360FEF759F9C7F8EC030AE07B
:10238C00FEF754F90246D7F8EC33D31A642B02D972
:10239C00032300F099BF07F5347302221A6007F586
:1023AC0034731B6893FAA3F207F533731A6007F5BD
:1023BC0033731A6807F536731A6007F536731B68A2
:1023CC00B3FA83F207F535731A6007F535731B689A
:1023DC00DBB25B09DBB243F00103DBB2012B05D1AD
:1023EC00014B1B681EE000BF0010024007F5307364
:1023FC0002221A6007F530731B6893FAA3F207F5F3
:10240C002F731A6007F52F731A6807F532731A6069
:10241C0007F532731B68B3FA83F207F531731A6050
:10242C009C4B5B6A07F52C720221116007F52C722C
:10243C00126892FAA2F107F52B72116007F52B7254
:10244C00116807F52E72116007F52E721268B2FA38
:10245C0082F107F52D72116007F52D721268D2B258
:10246C0042F02002D2B202F01F02D34003F001036B
:10247C00002B85D0874B1B6823F0F8023B1D1B6893
:10248C005B6907F52871F820086007F52871096861
:10249C0091FAA1F007F52771086007F52771086814
:1024AC0007F52A71086007F52A710968B1FA81F0FD
:1024BC0007F52971086007F529710968C9B28B40C5
:1024CC00744913430B60A1E007F5247301221A60D1
:1024DC0007F524731B6893FAA3F207F523731A60AC
:1024EC0007F523731A6807F526731A6007F5267328
:1024FC001B68B3FA83F207F525731A6007F5257389
:10250C001B68DBB29B0003F1844303F584031A467A
:10251C0000231360FEF78AF8C7F8EC030AE0FEF715
:10252C0085F80246D7F8EC33D31A642B02D903236F
:10253C0000F0CABE07F5207302221A6007F520735B
:10254C001B6893FAA3F207F51F731A6007F51F7344
:10255C001A6807F522731A6007F522731B68B3FA21
:10256C0083F207F521731A6007F521731B68DBB240
:10257C005B09DBB243F00103DBB2012B02D1454B0B
:10258C001B681BE007F51C7302221A6007F51C730D
:10259C001B6893FAA3F207F51B731A6007F51B73FC
:1025AC001A6807F51E731A6007F51E731B68B3FAD9
:1025BC0083F207F51D731A60364B5B6A07F51872C8
:1025CC000221116007F51872126892FAA2F107F550
:1025DC001772116007F51772116807F51A721160FE
:1025EC0007F51A721268B2FA82F107F519721160C6
:1025FC0007F519721268D2B242F02002D2B202F080
:10260C001F02D34003F00103002B88D13B1D1B6834
:10261C001B6803F00803002B00F037813B1D1B687F
:10262C009B69002B00F09D8007F5147301221A6042
:10263C0007F514731B6893FAA3F207F513731A606A
:10264C0007F513731A6807F516731A6007F51673F6
:10265C001B68B3FA83F207F515731A6007F5157347
:10266C001B68DBB29B001A460B4B13441A46012322
:10267C001360FDF7DBFFC7F8EC030FE0FDF7D6FFA7
:10268C000246D7F8EC33D31A642B07D9032300F096
:10269C001BBE00BF001002408004424207F51073BD
:1026AC0002221A6007F510731B6893FAA3F207F560
:1026BC000F731A6007F50F731A6807F512731A6017
:1026CC0007F512731B68B3FA83F207F511731A60DE
:1026DC0007F50C7302221A6007F50C731B6893FA4A
:1026EC00A3F207F50B731A6007F50B731A6807F55D
:1026FC000E731A6007F50E731B68B3FA83F207F5B5
:10270C000D731A60A94B5A6A07F5087302211960F8
:10271C0007F508731B6893FAA3F107F507731960A3
:10272C0007F50773196807F50A73196007F50A733B
:10273C001B68B3FA83F107F50973196007F5097380
:10274C001B68DBB243F06003DBB203F01F0322FA19
:10275C0003F303F00103002B90D00120FDF770FF71
:10276C0093E007F5047301221A6007F504731B68E4
:10277C0093FAA3F207F503731A6007F503731A684B
:10278C0007F506731A6007F506731B68B3FA83F234
:10279C0007F505731A6007F505731B68DBB29B0020
:1027AC001A46834B13441A4600231360FDF73EFF71
:1027BC00C7F8EC030AE0FDF739FF0246D7F8EC3313
:1027CC00D31A642B02D9032300F07EBD07F50073E6
:1027DC0002221A6007F500731B6893FAA3F207F53F
:1027EC00FE731A6007F5FE731A6807F502731A6018
:1027FC0007F502731B68B3FA83F207F501731A60CD
:10280C0007F5F87302221A6007F5F8731B6893FA40
:10281C00A3F207F5F6731A6007F5F6731A6807F555
:10282C00FC731A6007F5FC731B68B3FA83F207F5A7
:10283C00FA731A605D4B5A6A07F5F073022119603E
:10284C0007F5F0731B6893FAA3F107F5EE731960A3
:10285C0007F5EE73196807F5F473196007F5F4734F
:10286C001B68B3FA83F107F5F273196007F5F2737D
:10287C001B68DBB243F06003DBB203F01F0322FAE8
:10288C0003F303F00103002B95D13B1D1B681B6860
:10289C0003F00403002B00F0ED82444BDB69434A48
:1028AC0043F08053D361414BDB6903F0805207F155
:1028BC0008031A6007F108031B683E4B1B683D4A6E
:1028CC0043F480731360FDF7B1FEC7F8EC030AE024
:1028DC00FDF7ACFE0246D7F8EC33D31A642B02D9C1
:1028EC00032300F0F1BC334B1B6803F48073002B03
:1028FC00EED007F5E07301221A6007F5E0731B6850
:10290C0093FAA3F207F5DE731A6007F5DE731A6803
:10291C0007F5E4731A6007F5E4731B68B3FA83F2E6
:10292C0007F5E2731A6007F5E2731B68DBB29B00D4
:10293C001A46214B13441A460023136007F5E8731B
:10294C0004221A6007F5E8731B6893FAA3F207F5E3
:10295C00E6731A6007F5E6731A6807F5EC731A60EC
:10296C0007F5EC731B68B3FA83F207F5EA731A6088
:10297C0007F5EA731B68DBB29B001A460E4B134437
:10298C001A4600231360FDF751FEC7F8EC0315E05F
:10299C00FDF74CFE0246D7F8EC33D31A41F28832DD
:1029AC0093420BD9032300F08FBC00BF00100240F0
:1029BC0080044242007000400004424207F5D87384
:1029CC0002221A6007F5D8731B6893FAA3F207F575
:1029DC00D6731A6007F5D6731A6807F5DC731A609C
:1029EC0007F5DC731B68B3FA83F207F5DA731A6028
:1029FC0007F5D07302221A6007F5D0731B6893FA9F
:102A0C00A3F207F5CE731A6007F5CE731A6807F5B3
:102A1C00D4731A6007F5D4731B68B3FA83F207F505
:102A2C00D2731A6007F5D2731B68DBB25B09DBB299
:102A3C0043F00203DBB2022B02D1B84B1B6A01E05C
:102A4C00B64B5B6A07F5C8720221116007F5C872B4
:102A5C00126892FAA2F107F5C672116007F5C672F8
:102A6C00116807F5CC72116007F5CC721268B2FAD6
:102A7C0082F107F5CA72116007F5CA721268D2B2F8
:102A8C0042F04002D2B202F01F02D34003F0010325
:102A9C00002B7FF47DAF3B1D1B68DB68002B4AD1FC
:102AAC0007F5B87301221A6007F5B8731B6893FA1F
:102ABC00A3F207F5B6731A6007F5B6731A6807F533
:102ACC00BC731A6007F5BC731B68B3FA83F207F585
:102ADC00BA731A6007F5BA731B68DBB29B001A460F
:102AEC008F4B13441A460023136007F5C07304225E
:102AFC001A6007F5C0731B6893FAA3F207F5BE734F
:102B0C001A6007F5BE731A6807F5C4731A6007F5E7
:102B1C00C4731B68B3FA83F207F5C2731A6007F526
:102B2C00C2731B68DBB29B001A467D4B13441A46DA
:102B3C000023136099E03B1D1B68DB68012B4AD115
:102B4C0007F5A87304221A6007F5A8731B6893FA9B
:102B5C00A3F207F5A6731A6007F5A6731A6807F5B2
:102B6C00AC731A6007F5AC731B68B3FA83F207F504
:102B7C00AA731A6007F5AA731B68DBB29B001A468E
:102B8C00674B13441A460023136007F5B0730122F8
:102B9C001A6007F5B0731B6893FAA3F207F5AE73CE
:102BAC001A6007F5AE731A6807F5B4731A6007F567
:102BBC00B4731B68B3FA83F207F5B2731A6007F5A6
:102BCC00B2731B68DBB29B001A46554B13441A4672
:102BDC000123136049E007F5987301221A6007F589
:102BEC0098731B6893FAA3F207F596731A6007F5AE
:102BFC0096731A6807F59C731A6007F59C731B682B
:102C0C00B3FA83F207F59A731A6007F59A731B6887
:102C1C00DBB29B001A46424B13441A460023136046
:102C2C0007F5A07304221A6007F5A0731B6893FACA
:102C3C00A3F207F59E731A6007F59E731A6807F5E1
:102C4C00A4731A6007F5A4731B68B3FA83F207F533
:102C5C00A2731A6007F5A2731B68DBB29B001A46BD
:102C6C002F4B13441A46012313603B1D1B68DB6872
:102C7C00012B40F08280FDF7D9FCC7F8EC030BE088
:102C8C00FDF7D4FC0246D7F8EC33D31A41F2883264
:102C9C00934201D9032317E307F5907302221A60BC
:102CAC0007F590731B6893FAA3F207F58E731A60FD
:102CBC0007F58E731A6807F594731A6007F5947309
:102CCC001B68B3FA83F207F592731A6007F58873E1
:102CDC0002221A6007F588731B6893FAA3F207F5B2
:102CEC0086731A6007F586731A6807F58C731A6079
:102CFC0007F58C731B68B3FA83F207F58A731A60B5
:102D0C0007F58A731B68DBB25B09DBB243F0020385
:102D1C00DBB2022B06D1014B1B6A05E0001002400E
:102D2C00000442428C4B5B6A07F5807202211160F1
:102D3C0007F58072126892FAA2F107F1FC02116099
:102D4C0007F1FC02116807F58472116007F58472B3
:102D5C001268B2FA82F107F58272116007F582727D
:102D6C001268D2B242F04002D2B202F01F02D3403B
:102D7C0003F00103002B83D07CE0FDF757FCC7F870
:102D8C00EC030BE0FDF752FC0246D7F8EC33D31AF8
:102D9C0041F28832934201D9032395E207F1F00303
:102DAC0002221A6007F1F0031B6893FAA3F207F1F1
:102DBC00EC031A6007F1EC031A6807F1F8031A60C8
:102DCC0007F1F8031B68B3FA83F207F1F4031A60F6
:102DDC0007F1E00302221A6007F1E0031B6893FA83
:102DEC00A3F207F1DC031A6007F1DC031A6807F1A0
:102DFC00E8031A6007F1E8031B68B3FA83F207F1E2
:102E0C00E4031A6007F1E4031B68DBB25B09DBB275
:102E1C0043F00203DBB2022B02D14F4B1B6A01E0E1
:102E2C004D4B5B6A07F1D0020221116007F1D00211
:102E3C00126892FAA2F107F1CC02116007F1CC02F0
:102E4C00116807F1D802116007F1D8021268B2FAC2
:102E5C0082F107F1D402116007F1D4021268D2B2E8
:102E6C0042F04002D2B202F01F02D34003F0010341
:102E7C00002B87D13B1D1B68DB69002B00F02382E4
:102E8C00354B5B6803F00C03082B00F01A823B1DDA
:102E9C001B68DB69022B40F06B8107F1C0034FF01C
:102EAC0080721A6007F1C0031B6893FAA3F207F152
:102EBC00BC031A6007F1BC031A6807F1C8031A6057
:102ECC0007F1C8031B68B3FA83F207F1C4031A6055
:102EDC0007F1C4031B68DBB29B0003F1844303F5C9
:102EEC0084031A4600231360FDF7A0FBC7F8EC031C
:102EFC0009E0FDF79BFB0246D7F8EC33D31A642BA1
:102F0C0001D90323E0E107F1B0034FF000721A601E
:102F1C0007F1B0031B6893FAA3F207F1AC031A6034
:102F2C0007F1AC031A6807F1B8031A6007F1B8038C
:102F3C001B68B3FA83F207F1B4031A6007F1B40308
:102F4C001B68DBB25B09DBB243F00103DBB2012B84
:102F5C0004D1014B1B681EE00010024007F1A003D6
:102F6C004FF000721A6007F1A0031B6893FAA3F2EA
:102F7C0007F19C031A6007F19C031A6807F1A80378
:102F8C001A6007F1A8031B68B3FA83F207F1A403D4
:102F9C001A60A74B5B6A07F190024FF00071116049
:102FAC0007F19002126892FAA2F107F18C021160FB
:102FBC0007F18C02116807F19802116007F1980271
:102FCC001268B2FA82F107F19402116007F19402CF
:102FDC001268D2B242F02002D2B202F01F02D340E9
:102FEC0003F00103002B84D13B1D1B681B6AB3F556
:102FFC00803F09D18E4B5B6823F400323B1D1B686C
:10300C009B688B4913434B60894B5B6823F47412A8
:10301C003B1D1B68196A3B1D1B685B6A0B4384498B
:10302C0013434B6007F180034FF080721A6007F175
:10303C0080031B6893FAA3F207F17C031A6007F173
:10304C007C031A6807F188031A6007F188031B6870
:10305C00B3FA83F207F184031A6007F184031B6847
:10306C00DBB29B0003F1844303F584031A4601236E
:10307C001360FDF7DBFAC7F8EC0309E0FDF7D6FAAD
:10308C000246D7F8EC33D31A642B01D903231BE186
:10309C0007F170034FF000721A6007F170031B68A0
:1030AC0093FAA3F207F16C031A6007F16C031A6828
:1030BC0007F178031A6007F178031B68B3FA83F2FF
:1030CC0007F174031A6007F174031B68DBB25B0928
:1030DC00DBB243F00103DBB2012B02D1544B1B6872
:1030EC001CE007F160034FF000721A6007F16003F7
:1030FC001B6893FAA3F207F15C031A6007F15C03F7
:10310C001A6807F168031A6007F168031B68B3FAC1
:10311C0083F207F164031A60454B5B6A07F15002B6
:10312C004FF00071116007F15002126892FAA2F18F
:10313C0007F14C02116007F14C02116807F15802BB
:10314C00116007F158021268B2FA82F107F15402C9
:10315C00116007F154021268D2B242F02002D2B2CE
:10316C0002F01F02D34003F00103002B86D0AAE02B
:10317C0007F140034FF080721A6007F140031B689F
:10318C0093FAA3F207F13C031A6007F13C031A68A7
:10319C0007F148031A6007F148031B68B3FA83F27E
:1031AC0007F144031A6007F144031B68DBB29B0070
:1031BC0003F1844303F584031A4600231360FDF7DF
:1031CC0035FAC7F8EC0309E0FDF730FA0246D7F8F8
:1031DC00EC33D31A642B01D9032375E007F13003C8
:1031EC004FF000721A6007F130031B6893FAA3F2D8
:1031FC0007F12C031A6007F12C031A6807F1380346
:10320C001A6007F138031B68B3FA83F207F1340331
:10321C001A6007F134031B68DBB25B09DBB243F0C5
:10322C000103DBB2012B05D1014B1B681FE000BF72
:10323C000010024007F120034FF000721A6007F1F2
:10324C0020031B6893FAA3F207F11C031A6007F121
:10325C001C031A6807F128031A6007F128031B687E
:10326C00B3FA83F207F124031A601A4B5B6A07F175
:10327C0010024FF00071116007F11002126892FAFF
:10328C00A2F107F10C02116007F10C02116807F1B1
:10329C001802116007F118021268B2FA82F107F1F4
:1032AC001402116007F114021268D2B242F020022B
:1032BC00D2B202F01F02D34003F00103002B83D1E2
:1032CC0001E0012300E00023184607F57C77BD469A
:1032DC0080BD00BF0010024080B5A8B000AF786080
:1032EC0039600023C7F89C307B681B6803F002032D
:1032FC00002B08D09A4B5B6823F0F0027B689B682C
:10330C00974913434B607B681B6803F00103002B48
:10331C0000F02E817B685B68012B50D14FF4003399
:10332C00C7F89030D7F8903093FAA3F3C7F88C30E5
:10333C00D7F88C30C7F89830D7F89830B3FA83F3B5
:10334C00C7F89430D7F89430DBB25B09DBB243F0AA
:10335C000103DBB2012B02D1814B1B6813E04FF44C
:10336C000033C7F88030D7F8803093FAA3F3FB67AB
:10337C00FB6FC7F88830D7F88830B3FA83F3C7F8F7
:10338C008430774B5B6A4FF400323A673A6F92FAAB
:10339C00A2F2FA66FA6EBA67BA6FB2FA82F27A677A
:1033AC007A6FD2B242F02002D2B202F01F02D340A6
:1033BC0003F00103002B40F089800123FBE07B68C4
:1033CC005B68022B42D14FF000733B663B6E93FA65
:1033DC00A3F3FB65FB6DBB66BB6EB3FA83F37B6635
:1033EC007B6EDBB25B09DBB243F00103DBB2012B7A
:1033FC0002D15B4B1B680EE04FF000733B653B6DDD
:10340C0093FAA3F3FB64FB6CBB65BB6DB3FA83F35C
:10341C007B65534B5B6A4FF000723A643A6C92FADC
:10342C00A2F2FA63FA6BBA64BA6CB2FA82F27A64F8
:10343C007A6CD2B242F02002D2B202F01F02D34018
:10344C0003F00103002B41D10123B4E002233B63C1
:10345C003B6B93FAA3F3FB62FB6ABB63BB6BB3FAE4
:10346C0083F37B637B6BDBB25B09DBB243F0010361
:10347C00DBB2012B02D13A4B1B680DE002233B62FD
:10348C003B6A93FAA3F3FB61FB69BB62BB6AB3FAB9
:10349C0083F37B62324B5B6A02223A613A6992FA9D
:1034AC00A2F2FA60FA68BA61BA69B2FA82F27A6187
:1034BC007A69D2B242F02002D2B202F01F02D3409B
:1034CC0003F00103002B01D1012374E0244B5B6852
:1034DC0023F003027B685B68214913434B60FDF7C3
:1034EC00A5F8C7F89C007B685B68012B13D10BE037
:1034FC00FDF79CF80246D7F89C30D31A41F288327B
:10350C00934201D9032356E0154B5B6803F00C037F
:10351C00042BEDD12CE07B685B68022B22D10BE0F5
:10352C00FDF784F80246D7F89C30D31A41F2883262
:10353C00934201D903233EE0094B5B6803F00C0373
:10354C00082BEDD114E0FDF771F80246D7F89C304A
:10355C00D31A41F28832934204D903232BE000BFE3
:10356C0000100240164B5B6803F00C03002BEAD1F1
:10357C007B681B6803F00403002B08D0104B5B68BE
:10358C0023F4E0627B68DB680D4913434B607B6876
:10359C001B6803F00803002B09D0094B5B6823F46C
:1035AC0060527B681B69DB00054913434B600020AC
:1035BC00FDF712F800231846A037BD4680BD00BFAA
:1035CC000010024080B58AB000AFF860B9607A6034
:1035DC00134B9B69124A43F004039361104B9B6994
:1035EC0003F004037B617B694FF48073BB6102239E
:1035FC00FB6103237B6200233B6207F1180319462E
:10360C000848FEF7FBF8064B5B6823F0E0620449C0
:10361C00BB6813434B6000BF2837BD4680BD00BF5D
:10362C00001002400008014080B485B000AF4FF498
:10363C0000237B607B6893FAA3F33B603B68FB60E1
:10364C00FB68B3FA83F3BB60BB68DBB29B0003F18E
:10365C00844303F584031A460123136000BF143717
:10366C00BD4680BC704780B485B000AF4FF40023DA
:10367C007B607B6893FAA3F33B603B68FB60FB6861
:10368C00B3FA83F3BB60BB68DBB29B0003F18443EA
:10369C0003F584031A460023136000BF1437BD469C
:1036AC0080BC704790B492B000AF394B3C1D0FCB2F
:1036BC0084E80F00374B1B883B800023FB630023FF
:1036CC00BB6300237B6400237B6300233B64324B8E
:1036DC005B68FB63FB6B03F00C03042B02D0082B21
:1036EC0003D04BE02D4B3B644BE0FB6B03F47013AE
:1036FC004FF47012BA62BA6A92FAA2F27A627A6AD9
:10370C003A633A6BB2FA82F2FA62FA6AD2B2D340F4
:10371C0007F14802134413F8443C7B63FB6B03F43E
:10372C008033002B22D01C4B5B6803F400334FF426
:10373C000032BA61BA6992FAA2F27A617A693A6293
:10374C003A6AB2FA82F2FA61FA69D2B2D34007F15C
:10375C004802134413F8483CBB63104ABB6BB2FBE2
:10376C00F3F27B6B02FB03F37B6404E07B6B0C4A90
:10377C0002FB03F37B647B6C3B6402E0074B3B6412
:10378C0000BF3B6C18464837BD4690BC704700BF25
:10379C00685C0008785C00080010024000127A0097
:1037AC0000093D0080B584B000AFFFF77BFF0146F8
:1037BC000F4B5B6803F0F003F0227A607A6892FAA0
:1037CC00A2F23A603A68FA60FA68B2FA82F2BA6027
:1037DC00BA68D2B2D340074AD35C21FA03F3064A43
:1037EC001360054B1B6818461037BD4680BD00BFE3
:1037FC0000100240585C00080000002080B584B026
:10380C0000AFFFF7CFFF01460D4B5B6803F4E0639D
:10381C004FF4E0627A607A6892FAA2F23A603A68FF
:10382C00FA60FA68B2FA82F2BA60BA68D2B2D340DD
:10383C00044AD35C21FA03F318461037BD4680BD09
:10384C0000100240585C000880B584B000AFFFF750
:10385C00A9FF01460D4B5B6803F460534FF46052B3
:10386C007A607A6892FAA2F23A603A68FA60FA6878
:10387C00B2FA82F2BA60BA68D2B2D340044AD35CCC
:10388C0021FA03F318461037BD4680BD00100240E4
:10389C00585C000880B487B000AF78607B680F225A
:1038AC001A60424B1B6803F48023B3F5802F03D1BD
:1038BC007B6805225A600DE03C4B1B6803F4803397
:1038CC00B3F5803F03D17B6801225A6002E07B682C
:1038DC0000225A60354B5B6803F400327B689A60B7
:1038EC00324B1B6803F00103012B03D17B680122CF
:1038FC001A6102E07B6800221A612C4B1B6803F0F2
:10390C00F803F822FA60FA6892FAA2F2BA60BA687E
:10391C007A617A69B2FA82F23A613A69D2B223FADE
:10392C0002F27B685A61214B1B6A03F00403042BDF
:10393C0003D17B680522DA600CE01C4B1B6A03F098
:10394C000103012B03D17B680122DA6002E07B6862
:10395C000022DA60154B5B6A03F00103012B03D1E3
:10396C007B6801229A6102E07B6800229A610F4B0E
:10397C001B6803F08073B3F1807F03D17B68022254
:10398C00DA6102E07B680122DA61084B5B6803F4C0
:10399C0080327B681A62054B5B6803F470127B689B
:1039AC005A6200BF1C37BD4680BC704700100240F5
:1039BC0080B483B000AF786039607B680F221A60E6
:1039CC00104B5B6803F003027B685A600D4B5B681D
:1039DC0003F0F0027B689A600A4B5B6803F4E062C8
:1039EC007B68DA60074B5B68DB0803F4E0627B689A
:1039FC001A613B6800221A6000BF0C37BD4680BCC0
:103A0C00704700BF0010024080B500AF064B9B68AA
:103A1C0003F08003802B04D100F00AF8034B8022C2
:103A2C001A7000BF80BD00BF001002400A10024097
:103A3C0080B400AF00BFBD4680BC704780B5CCB031
:103A4C0000AF3B1D18603B4619600023C7F82C31B2
:103A5C00CB4B1B6803F007033A4612689A4240F2BC
:103A6C009A81C74B1B6823F00702C5493B461B686C
:103A7C0013430B60C24B1B6803F007033A461268F2
:103A8C009A4201D0012331E33B1D1B681B6803F0F4
:103A9C000203002B09D0BB4B5B6823F0F0023B1DEB
:103AAC001B689B68B74913434B603B1D1B681B6825
:103ABC0003F00103002B00F0F2823B1D1B685B68D6
:103ACC00012B5AD14FF40033C7F82031D7F82031ED
:103ADC0093FAA3F3C7F81C31D7F81C31C7F8283177
:103AEC00D7F82831B3FA83F3C7F82431D7F8243147
:103AFC00DBB25B09DBB243F00103DBB2012B02D179
:103B0C00A04B1B6815E04FF40033C7F81031D7F801
:103B1C00103193FAA3F3C7F80C31D7F80C31C7F86E
:103B2C001831D7F81831B3FA83F3C7F81431954B21
:103B3C005B6A4FF40032C7F80021D7F8002192FAE3
:103B4C00A2F2C7F8FC20D7F8FC20C7F80821D7F858
:103B5C000821B2FA82F2C7F80421D7F80421D2B2B4
:103B6C0042F02002D2B202F01F02D34003F0010354
:103B7C00002B40F0B8800123B8E23B1D1B685B684A
:103B8C00022B59D14FF00073C7F8F030D7F8F03052
:103B9C0093FAA3F3C7F8EC30D7F8EC30C7F8F83049
:103BAC00D7F8F830B3FA83F3C7F8F430D7F8F43019
:103BBC00DBB25B09DBB243F00103DBB2012B02D1B8
:103BCC00704B1B6815E04FF00073C7F8E030D7F866
:103BDC00E03093FAA3F3C7F8DC30D7F8DC30C7F841
:103BEC00E830D7F8E830B3FA83F3C7F8E430654B24
:103BFC005B6A4FF00072C7F8D020D7F8D02092FA49
:103C0C00A2F2C7F8CC20D7F8CC20C7F8D820D7F828
:103C1C00D820B2FA82F2C7F8D420D7F8D420D2B286
:103C2C0042F02002D2B202F01F02D34003F0010393
:103C3C00002B58D1012359E20223C7F8C030D7F822
:103C4C00C03093FAA3F3C7F8BC30D7F8BC30C7F830
:103C5C00C830D7F8C830B3FA83F3C7F8C430D7F8F4
:103C6C00C430DBB25B09DBB243F00103DBB2012BE6
:103C7C0002D1444B1B6814E00223C7F8B030D7F8CC
:103C8C00B03093FAA3F3C7F8AC30D7F8AC30C7F820
:103C9C00B830D7F8B830B3FA83F3C7F8B430394B2F
:103CAC005B6A0222C7F8A020D7F8A02092FAA2F2F1
:103CBC00C7F89C20D7F89C20C7F8A820D7F8A820D4
:103CCC00B2FA82F2C7F8A420D7F8A420D2B242F0FC
:103CDC002002D2B202F01F02D34003F00103002BEA
:103CEC0001D1012302E2274B5B6823F003023B1D49
:103CFC001B685B68234913434B60FCF797FCC7F8C0
:103D0C002C013B1D1B685B68012B13D10BE0FCF7EE
:103D1C008DFC0246D7F82C31D31A41F288329342EB
:103D2C0001D90323E2E1174B5B6803F00C03042B6E
:103D3C00EDD1B4E13B1D1B685B68022B24D10BE079
:103D4C00FCF774FC0246D7F82C31D31A41F28832B6
:103D5C00934201D90323C9E10A4B5B6803F00C03BE
:103D6C00082BEDD19BE1FCF761FC0246D7F82C3116
:103D7C00D31A41F28832934206D90323B6E100BF2D
:103D8C000020024000100240B14B5B6803F00C03B2
:103D9C00002BE8D183E13B1D1B681B6803F0020379
:103DAC00002B09D0AA4B5B6823F0F0023B1D1B686B
:103DBC009B68A74913434B603B1D1B681B6803F0B2
:103DCC000103002B00F058813B1D1B685B68012B25
:103DDC0050D14FF40033C7F89030D7F8903093FAA5
:103DEC00A3F3C7F88C30D7F88C30C7F89830D7F8D5
:103DFC009830B3FA83F3C7F89430D7F89430DBB229
:103E0C005B09DBB243F00103DBB2012B02D1904B17
:103E1C001B6813E04FF40033C7F88030D7F88030BC
:103E2C0093FAA3F3FB67FB6FC7F88830D7F8883099
:103E3C00B3FA83F3C7F88430854B5B6A4FF40032D6
:103E4C003A673A6F92FAA2F2FA66FA6EBA67BA6FEA
:103E5C00B2FA82F27A677A6FD2B242F02002D2B210
:103E6C0002F01F02D34003F00103002B40F0B0809E
:103E7C0001233BE13B1D1B685B68022B42D14FF0D9
:103E8C0000733B663B6E93FAA3F3FB65FB6DBB665D
:103E9C00BB6EB3FA83F37B667B6EDBB25B09DBB282
:103EAC0043F00103DBB2012B02D1694B1B680EE01E
:103EBC004FF000733B653B6D93FAA3F3FB64FB6C13
:103ECC00BB65BB6DB3FA83F37B65614B5B6A4FF0EB
:103EDC0000723A643A6C92FAA2F2FA63FA6BBA6420
:103EEC00BA6CB2FA82F27A647A6CD2B242F02002E4
:103EFC00D2B202F01F02D34003F00103002B67D1B2
:103F0C000123F3E007F1300302221A6007F13003BA
:103F1C001B6893FAA3F207F12C031A6007F12C0328
:103F2C001B68BB63BB6BB3FA83F37B637B6BDBB24A
:103F3C005B09DBB243F00103DBB2012B02D1444B32
:103F4C001B681BE007F1200302221A6007F1200313
:103F5C001B6893FAA3F207F11C031A6007F11C0308
:103F6C001A6807F128031A6007F128031B68B3FAD3
:103F7C0083F207F124031A60354B5B6A07F11002D8
:103F8C000221116007F11002126892FAA2F107F1F6
:103F9C000C02116007F10C02116807F11802116094
:103FAC0007F118021268B2FA82F107F114021160DB
:103FBC0007F114021268D2B242F02002D2B202F01F
:103FCC001F02D34003F00103002B01D101238DE02C
:103FDC001F4B5B6823F003023B1D1B685B681C498D
:103FEC0013434B60FCF722FBC7F82C013B1D1B68ED
:103FFC005B68012B13D10BE0FCF718FB0246D7F8DA
:10400C002C31D31A41F28832934201D903236DE04B
:10401C000F4B5B6803F00C03042BEDD12CE03B1D24
:10402C001B685B68022B21D10BE0FCF7FFFA024600
:10403C00D7F82C31D31A41F28832934201D9032399
:10404C0054E0034B5B6803F00C03082BEDD113E039
:10405C0000100240FCF7EAFA0246D7F82C31D31ACA
:10406C0041F28832934201D903233FE0224B5B6833
:10407C0003F00C03002BEDD1204B1B6823F007023F
:10408C001E493B461B6813430B601C4B1B6803F01B
:10409C0007033A4612689A4201D0012326E03B1DE1
:1040AC001B681B6803F00403002B09D0124B5B68E0
:1040BC0023F4E0623B1D1B68DB680F4913434B6024
:1040CC003B1D1B681B6803F00803002B0AD00A4B2E
:1040DC005B6823F460523B1D1B681B69DB000649BF
:1040EC0013434B600020FCF777FA0023184607F5C2
:1040FC009877BD4680BD00BF0010024000200240F2
:10410C0080B483B000AF786039607B680F221A608E
:10411C00114B5B6803F003027B685A600E4B5B68C3
:10412C0003F0F0027B689A600B4B5B6803F4E0626F
:10413C007B68DA60084B5B68DB0803F4E0627B6841
:10414C001A61064B1B6803F007023B681A6000BF3C
:10415C000C37BD4680BC7047001002400020024066
:10416C0080B59AB000AF786000237B6600233B6675
:10417C007B681B6803F00103002B00F0C080714BBF
:10418C00DB69704A43F08053D3616E4BDB6903F0FB
:10419C008053FB60FB686C4B1B686B4A43F4807369
:1041AC001360FCF743FA786608E0FCF73FFA024626
:1041BC007B6ED31A642B01D90323BFE0624B1B68BF
:1041CC0003F48073002BF0D05E4B1B6A03F4407336
:1041DC003B667B685B6803F440733A6E9A4233D05B
:1041EC00584B1B6A23F440733B664FF480337B645B
:1041FC007B6C93FAA3F33B643B6CFB64FB6CB3FAF0
:10420C0083F3BB64BB6CDBB29B001A464F4B13446D
:10421C001A46012313604FF480337B657B6D93FA50
:10422C00A3F33B653B6DFB65FB6DB3FA83F3BB6599
:10423C00BB6DDBB29B001A46444B13441A46002359
:10424C001360404A3B6E13627B685B68B3F5807FFA
:10425C004CD1FCF7EBF978660AE0FCF7E7F902467B
:10426C007B6ED31A41F28832934201D9032365E065
:10427C0002237B637B6B93FAA3F33B633B6BFB6384
:10428C00FB6BB3FA83F3BB6302237B627B6A93FA07
:10429C00A3F33B623B6AFB62FB6AB3FA83F3BB6238
:1042AC00BB6ADBB25B09DBB243F00203DBB2022B6D
:1042BC0002D1244B1B6A01E0224B5B6A02227A6119
:1042CC007A6992FAA2F23A613A69FA61FA69B2FA37
:1042DC0082F2BA61BA69D2B242F04002D2B202F0B2
:1042EC001F02D34003F00103002BB6D0154B1B6A01
:1042FC0023F440727B685B68124913430B627B6842
:10430C001B6803F00203002B08D00E4B5B6823F4F0
:10431C0040427B689B680B4913434B607B681B686E
:10432C0003F01003002B08D0064B5B6823F48002CB
:10433C007B68DB68034913434B60002318466837DE
:10434C00BD4680BD00100240007000400004424297
:10435C0080B485B000AF78600023FB607B680122DD
:10436C001A60124B1B6A03F44073FB607B68FA689B
:10437C005A607B681B6843F002027B681A600B4B27
:10438C005B6803F440427B689A607B681B6843F06F
:10439C0010027B681A60054B5B6803F480027B6833
:1043AC00DA6000BF1437BD4680BC70470010024075
:1043BC0090B599B000AF78606D4B07F10C040FCB42
:1043CC0084E80F006B4B1B883B8100237B6500232B
:1043DC00FB6500233B650023BB650023FB647B6806
:1043EC00022B00F0A280102B02D0012B67D0BAE078
:1043FC00614B5B687B65604B1B6803F08073002B23
:10440C0000F0B0807B6D03F470134FF470123A64BB
:10441C003A6C92FAA2F2FA63FA6BBA64BA6CB2FA18
:10442C0082F27A647A6CD2B2D34007F16002134400
:10443C0013F8543CFB647B6D03F48033002B27D0C2
:10444C004D4B5B6803F400334FF400323A633A6B24
:10445C0092FAA2F2FA62FA6ABA63BA6BB2FA82F20E
:10446C007A637A6BD2B2D34007F16002134413F82B
:10447C00583C3B657B6D03F48033002B0DD03F4AD9
:10448C003B6DB2FBF3F2FB6C02FB03F3BB6504E088
:10449C00FB6C3B4A02FB03F3BB65374B5B6803F4D5
:1044AC008003B3F5800F02D1BB6DFB655AE0BB6D89
:1044BC005B00344AA2FB03235B08FB6552E02E4BE6
:1044CC001B6A7B657B6D03F44073B3F5807F08D169
:1044DC007B6D03F00203002B03D04FF40043FB650C
:1044EC0022E07B6D03F44073B3F5007F09D1224BBE
:1044FC005B6A03F00203002B03D049F64043FB65D3
:10450C0012E07B6D03F44073B3F5407F09D11A4B75
:10451C001B6803F40033002B03D04FF22443FB65DC
:10452C0002E00023FB651EE01DE0FFF78DF901465C
:10453C00114B5B6803F440434FF480423A623A6A91
:10454C0092FAA2F2FA61FA69BA62BA6AB2FA82F221
:10455C007A627A6AD2B2D34001335B00B1FBF3F3D7
:10456C00FB6500E000BFFB6D18466437BD4690BD8F
:10457C007C5C00088C5C00080010024000127A0081
:10458C0000093D00ABAAAAAA80B582B000AF786042
:10459C007B68002B01D101233BE07B6893F8393019
:1045AC00DBB2002B06D17B68002283F838207868B8
:1045BC00FBF7E0FE7B68022283F839207B681B68DE
:1045CC00DA687B681B6822F40052DA60786801F0C4
:1045DC009AF97B681B681A697B681B6822F4904205
:1045EC001A617B681B685A697B681B6822F02A0277
:1045FC005A617B681B68DA687B681B6842F400525E
:10460C00DA607B680022DA637B68012283F8392048
:10461C00002318460837BD4680BD80B582B000AF78
:10462C0078607B68002B01D101233FE07B6893F815
:10463C003930DBB2002B02D17868FBF79BFE7B682C
:10464C00022283F839207B681B68DA687B681B6858
:10465C0022F40052DA60786801F055F97B681B6827
:10466C001A697B681B6822F490421A617B681B688C
:10467C005A697B681B6822F022025A617B681B68AE
:10468C005A697B681B6842F008025A617B681B6898
:10469C00DA687B681B6842F40052DA607B6800229F
:1046AC00DA637B68012283F8392000231846083727
:1046BC00BD4680BD80B582B000AF786039607B6844
:1046CC00002B01D1012349E07B6893F83930DBB230
:1046DC00002B02D17868FBF74DFE7B68022283F831
:1046EC0039207B681B68DA687B681B6822F40052EF
:1046FC00DA60786801F007F97B681B681A697B68D7
:10470C001B6822F400621A617B681B685A697B681B
:10471C001B6822F02A025A617B681B681A697B6845
:10472C001B6842F480421A617B681B681B6923F08A
:10473C0020017B681B683A680A431A617B681B6816
:10474C00DA687B681B6842F40052DA607B680022EE
:10475C00DA637B68012283F8392000231846083776
:10476C00BD4680BD80B584B000AFF8600B467A6062
:10477C00FB72FB68002B01D101234BE0FB6893F823
:10478C003930DBB2002B02D1F868FBF7F3FDFB6884
:10479C00022283F83920FB681B68DA68FB681B6807
:1047AC0022F40052DA60F86801F0ADF8FB681B687F
:1047BC001A69FB681B6822F490421A61FB681B683B
:1047CC005A69FB681B6822F02A025A61FB681B6855
:1047DC001B6923F00F01FA7AFB681B680A431A6104
:1047EC00FB681B68DB6823F40061FB681B687A6854
:1047FC000A43DA60FB681B68DA68FB681B6842F4E2
:10480C000052DA60FB680022DA63FB68012283F84D
:10481C003920002318461037BD4680BD80B582B0C4
:10482C0000AF78607B68002B01D1012326E07B6808
:10483C00022283F839207B681B68DA687B681B6866
:10484C0022F40052DA607B681B680022DA607B6815
:10485C001B6800221A617B681B6800225A61786809
:10486C00FBF7C2FD7B680022DA637B68002283F8C9
:10487C0039207B68002283F838200023184608373B
:10488C00BD4680BD80B483B000AF786000BF0C37EC
:10489C00BD4680BC704780B483B000AF786000BF69
:1048AC000C37BD4680BC704780B586B000AFF86051
:1048BC00B9603B601346FB8000237B61FB6893F877
:1048CC003930DBB27B617B69012B03D07B69222BF6
:1048DC0040F08E80BB68002B02D0FB88002B01D1EE
:1048EC00012386E0FB6893F83830012B01D10223B9
:1048FC007FE0FB68012283F83820FB680022DA6332
:10490C00FB6893F83930DBB2222B04D1FB683222DE
:10491C0083F8392003E0FB68122283F83920FB6806
:10492C00FA889A84FB68FA88DA843DE0FB68DB8CB1
:10493C00013B9AB2FB68DA84FB689B68B3F5805F35
:10494C0020D13B6800228021F86800F029FE034644
:10495C00002B01D003234CE0BB683B613B691B88F7
:10496C001A46FB681B68C2F308025A60FB681B6995
:10497C00002B03D1BB680233BB6015E0BB6801336D
:10498C00BB6011E03B6800228021F86800F008FE53
:10499C000346002B01D003232BE0BB685A1CBA60E2
:1049AC001A78FB681B685A60FB68DB8C002BBDD146
:1049BC003B6800224021F86800F0F2FD0346002B12
:1049CC0001D0032315E0FB6893F83930DBB2322BAE
:1049DC0004D1FB68222283F8392003E0FB68012212
:1049EC0083F83920FB68002283F83820002300E08C
:1049FC00022318461837BD4680BD80B586B000AF7F
:104A0C00F860B9603B601346FB8000237B61FB6858
:104A1C0093F83930DBB27B617B69012B03D07B6966
:104A2C00122B40F09D80BB68002B02D0FB88002B22
:104A3C0001D1012395E0FB6893F83830012B01D1AB
:104A4C0002238EE0FB68012283F83820FB680022E9
:104A5C00DA63FB6893F83930DBB2122B04D1FB68B4
:104A6C00322283F8392003E0FB68222283F83920B4
:104A7C00FB68FA889A85FB68FA88DA8557E0FB6848
:104A8C00DB8D013B9AB2FB68DA85FB689B68B3F55A
:104A9C00805F29D13B6800222021F86800F080FD5E
:104AAC000346002B01D003235BE0BB683B61FB6832
:104ABC001B69002B0CD1FB681B685B689BB2C3F3B2
:104ACC0008039AB23B691A80BB680233BB602EE0C4
:104ADC00FB681B685B689BB2DBB29AB23B691A80BD
:104AEC00BB680133BB6022E03B6800222021F868E0
:104AFC0000F056FD0346002B01D0032331E0FB6888
:104B0C001B69002B08D1FB681B685968BB685A1CD1
:104B1C00BA60CAB21A700AE0FB681B685B68DAB24A
:104B2C00BB68591CB96002F07F02D2B21A70FB68E4
:104B3C00DB8D002BA3D1FB6893F83930DBB2322B21
:104B4C0004D1FB68122283F8392003E0FB680122B0
:104B5C0083F83920FB68002283F83820002300E01A
:104B6C00022318461837BD4680BD80B487B000AF0D
:104B7C00F860B9601346FB8000237B61FB6893F8F7
:104B8C003930DBB27B617B69012B02D07B69222B34
:104B9C0043D1BB68002B02D0FB88002B01D1012331
:104BAC003CE0FB6893F83830012B01D1022335E04F
:104BBC00FB68012283F83820FB68BA681A62FB682C
:104BCC00FA889A84FB68FA88DA84FB680022DA6334
:104BDC00FB6893F83930DBB2222B04D1FB6832220C
:104BEC0083F8392003E0FB68122283F83920FB6834
:104BFC00002283F83820FB681B685A69FB681B6825
:104C0C0042F001025A61FB681B68DA68FB681B689A
:104C1C0042F08002DA60002300E0022318461C37C1
:104C2C00BD4680BC704780B487B000AFF860B960F7
:104C3C001346FB8000237B61FB6893F83930DBB2B1
:104C4C007B617B69012B02D07B69122B4BD1BB683A
:104C5C00002B02D0FB88002B01D1012344E0FB6820
:104C6C0093F83830012B01D102233DE0FB6801227F
:104C7C0083F83820FB68BA689A62FB68FA889A85D0
:104C8C00FB68FA88DA85FB680022DA63FB6893F824
:104C9C003930DBB2122B04D1FB68322283F8392075
:104CAC0003E0FB68222283F83920FB68002283F89A
:104CBC003820FB681B68DA68FB681B6842F480725A
:104CCC00DA60FB681B685A69FB681B6842F00102DA
:104CDC005A61FB681B68DA68FB681B6842F02002AB
:104CEC00DA60002300E0022318461C37BD4680BC66
:104CFC00704780B586B000AFF860B9601346FB8092
:104D0C0000237B61FB6893F83930DBB27B617B69F4
:104D1C00012B02D07B69222B5AD1BB68002B02D00D
:104D2C00FB88002B01D1012353E0FB6893F838304A
:104D3C00012B01D102234CE0FB68012283F83820BF
:104D4C00BA68FB681A62FB68FA889A84FB68FA886E
:104D5C00DA84FB680022DA63FB6893F83930DBB243
:104D6C00222B04D1FB68322283F8392003E0FB6844
:104D7C00122283F83920FB681B6B184A9A62FB6875
:104D8C001B6B174ADA62FB681B6B164A1A6307F136
:104D9C0008033B61FB68186B3B691968FB681B686F
:104DAC0004331A46FB88FCF7F6F8FB681B686FF0B7
:104DBC0040021A60FB681B685A69FB681B6842F06A
:104DCC0080025A61FB68002283F83820002300E03F
:104DDC00022318461837BD4680BD00BF8954000811
:104DEC00DB5400087155000880B586B000AFF86040
:104DFC00B9601346FB8000237B61FB6893F8393064
:104E0C00DBB27B617B69012B02D07B69122B52D107
:104E1C00BB68002B02D0FB88002B01D101234BE097
:104E2C00FB6893F83830012B01D1022344E0FB6876
:104E3C00012283F83820BA68FB689A62FB68FA880A
:104E4C009A85FB680022DA63FB6893F83930DBB291
:104E5C00122B04D1FB68322283F8392003E0FB6863
:104E6C00222283F83920FB685B6B154A9A62FB6837
:104E7C005B6B144ADA62FB685B6B134A1A6307F1CB
:104E8C0008033B61FB68586BFB681B6804331946CD
:104E9C003B691A68FB88FCF77EF8FB681B685A694B
:104EAC00FB681B6842F040025A61FB68002283F8E1
:104EBC003820002300E0022318461837BD4680BD79
:104ECC00F7540008555500087155000880B483B09C
:104EDC0000AF78607B6893F83830012B01D1022346
:104EEC003BE07B68012283F838207B6893F83930EB
:104EFC00DBB2122B08D17B681B685A697B681B6874
:104F0C0022F080025A6123E07B6893F83930DBB2DF
:104F1C00222B08D17B681B685A697B681B6822F0BE
:104F2C0040025A6114E07B6893F83930DBB2322BC3
:104F3C0008D17B681B685A697B681B6822F0C00229
:104F4C005A6105E07B68002283F83820012304E0D5
:104F5C007B68002283F83820002318460C37BD46A6
:104F6C0080BC704780B485B000AF78607B6893F8E4
:104F7C003830012B01D102234DE07B68012283F8EC
:104F8C0038207B6893F83930DBB2122B08D17B6860
:104F9C001B685A697B681B6842F080025A6135E0D5
:104FAC007B6893F83930DBB2222B11D17B681B68FC
:104FBC001B68FB607B681B685B68FB60FB687B683D
:104FCC001B685A697B681B6842F040025A611DE0FD
:104FDC007B6893F83930DBB2322B11D17B681B68BC
:104FEC001B68BB607B681B685B68BB60BB687B68CD
:104FFC001B685A697B681B6842F0C0025A6105E065
:10500C007B68002283F83820012304E07B680022AF
:10501C0083F83820002318461437BD4680BC7047EF
:10502C0080B582B000AF78607B681B685A697B687A
:10503C001B6822F0C0025A617B681B6B002B04D0EA
:10504C007B681B6B1846FBF7EFFF7B685B6B002BD9
:10505C0004D07B685B6B1846FBF7E6FF7B6801228C
:10506C0083F83920002318460837BD4680BD80B52B
:10507C0088B000AF78600023FB610023BB617B68C4
:10508C001B681B6803F00103012B0CBF01230023D9
:10509C00DBB2FB617B681B68DB6803F48073BB616C
:1050AC00FB69002B11D0BB69002B0ED07B681B68F1
:1050BC001B687B617B681B685B687B617B697B68B9
:1050CC00DB6B43F001027B68DA637B681B681B684F
:1050DC0003F00203022B0CBF01230023DBB2FB61A4
:1050EC007B681B685B6903F00103BB61FB69002BE8
:1050FC0011D0BB69002B0ED07B681B681B683B6111
:10510C007B681B685B683B613B697B68DB6B43F0CE
:10511C0004027B68DA637B681B681B6803F004037A
:10512C00042B0CBF01230023DBB2FB61FB69002BBA
:10513C0011D0BB69002B0ED07B681B681B68FB6011
:10514C007B681B685B68FB60FB687B68DB6B43F010
:10515C0002027B68DA637B681B681B6803F0080338
:10516C00082B0CBF01230023DBB2FB61FB69002B76
:10517C0011D0BB69002B0ED07B681B681B68BB6011
:10518C007B681B685B68BB60BB687B68DB6B43F050
:10519C0008027B68DA637B681B681B6803F02003DA
:1051AC00202B0CBF01230023DBB2FB617B681B6847
:1051BC00DB6803F02003BB61FB69002B05D0BB69E6
:1051CC00002B02D0786800F00BFB7B681B681B6817
:1051DC0003F08003802B0CBF01230023DBB2FB61A7
:1051EC007B681B68DB6803F08003BB61FB69002BE9
:1051FC0005D0BB69002B02D0786800F06AFA7B6896
:10520C001B681B6803F04003402B0CBF01230023D9
:10521C00DBB2FB617B681B68DB6803F04003BB619E
:10522C00FB69002B05D0BB69002B02D0786800F01D
:10523C00ACFA7B68DB6B002B06D07B68012283F811
:10524C003920786800F028F800BF2037BD4680BDB3
:10525C0080B483B000AF786000BF0C37BD4680BC13
:10526C00704780B483B000AF786000BF0C37BD4688
:10527C0080BC704780B483B000AF786000BF0C373F
:10528C00BD4680BC704780B483B000AF786000BF6F
:10529C000C37BD4680BC704780B483B000AF7860DB
:1052AC0000BF0C37BD4680BC704780B483B000AFE4
:1052BC0078607B6893F83830012B01D1022318E019
:1052CC007B68012283F838207B68022283F839201E
:1052DC007B681B68DA687B681B6842F00102DA6045
:1052EC007B68012283F839207B68002283F8382000
:1052FC00002318460C37BD4680BC704780B483B081
:10530C0000AF78607B6893F83830012B01D1022311
:10531C0018E07B68012283F838207B68022283F82E
:10532C0039207B681B68DA687B681B6842F00202D4
:10533C00DA607B68012283F839207B68002283F8CD
:10534C003820002318460C37BD4680BC704780B40B
:10535C0083B000AF78607B6893F83830012B01D1B3
:10536C00022318E07B68012283F838207B68022234
:10537C0083F839207B681B68DA687B681B6822F02D
:10538C000202DA607B68012283F839207B680022F4
:10539C0083F83820002318460C37BD4680BC704774
:1053AC0080B483B000AF78607B6893F83830012B01
:1053BC0001D102231AE07B68012283F838207B6834
:1053CC00022283F839207B681B68DB6823F00C020F
:1053DC007B681B6842F00802DA607B68012283F864
:1053EC0039207B68002283F83820002318460C37BC
:1053FC00BD4680BC704780B483B000AF78607B68DA
:10540C0093F83830012B01D102231AE07B6801227A
:10541C0083F838207B68022283F839207B681B686C
:10542C00DB6823F00C027B681B6842F00402DA6034
:10543C007B68012283F839207B68002283F83820AE
:10544C00002318460C37BD4680BC704780B483B02F
:10545C0000AF78607B6893F83930DBB218460C37B4
:10546C00BD4680BC704780B483B000AF78607B6869
:10547C00DB6B18460C37BD4680BC704780B584B0DA
:10548C0000AF78607B685B6AFB607B681B681B689D
:10549C0003F02003002B13D1FB680022DA84FB6895
:1054AC001B685A69FB681B6822F080025A61FB6812
:1054BC001B68DA68FB681B6842F04002DA6002E0A5
:1054CC00F868FFF7C5FE00BF1037BD4680BD80B53C
:1054DC0084B000AF78607B685B6AFB60F868FFF7AC
:1054EC00C0FE00BF1037BD4680BD80B584B000AF94
:1054FC0078607B685B6AFB607B681B681B6803F0E9
:10550C002003002B19D1FB680022DA85FB681B688D
:10551C005A69FB681B6822F040025A61FB6893F8D9
:10552C003930DBB2322B04D1FB68122283F83920DC
:10553C0003E0FB68012283F83920F868FFF79AFE34
:10554C0000BF1037BD4680BD80B584B000AF786019
:10555C007B685B6AFB60F868FFF795FE00BF10374D
:10556C00BD4680BD80B584B000AF78607B685B6A57
:10557C00FB60FB680022DA85FB680022DA84FB689A
:10558C00012283F83920FB68DB6B43F01002FB68C7
:10559C00DA63F868FFF780FE00BF1037BD4680BDA8
:1055AC0080B586B000AFF860B9603B601346FB7104
:1055BC0000237B61FBF73AF87861FB79002B7BD1F8
:1055CC0038E03B68B3F1FF3F34D03B68002B07D089
:1055DC00FBF72CF802467B69D31A3A689A4229D217
:1055EC00FB681B68DA68FB681B6822F08002DA60D3
:1055FC00FB681B68DA68FB681B6822F02002DA6023
:10560C00FB681B68DA68FB681B6822F48072DA603E
:10561C00FB681B685A69FB681B6822F001025A611F
:10562C00FB68012283F83920FB68002283F83820BC
:10563C0003234AE0FB681B681A68BB681340BA680E
:10564C009A42BED140E03B68B3F1FF3F34D03B6897
:10565C00002B07D0FAF7EAFF02467B69D31A3A68A7
:10566C009A4229D2FB681B68DA68FB681B6822F037
:10567C008002DA60FB681B68DA68FB681B6822F042
:10568C002002DA60FB681B68DA68FB681B6822F48E
:10569C008072DA60FB681B685A69FB681B6822F031
:1056AC0001025A61FB68012283F83920FB68002251
:1056BC0083F83820032308E0FB681B681A68BB6872
:1056CC001340BA689A42BED0002318461837BD461C
:1056DC0080BD80B485B000AF78600023FB607B6830
:1056EC0093F83930DBB2FB60FB68122B02D0FB68FD
:1056FC00322B44D17B689B68B3F5805F1AD17B68F1
:10570C001B6ABB60BB681B881A467B681B68C2F3AC
:10571C0008025A607B681B69002B05D17B681B6AE9
:10572C009A1C7B681A620EE07B681B6A5A1C7B68A9
:10573C001A6208E07B681B6A591C7A6811621A7835
:10574C007B681B685A607B68DB8C013B9AB27B6878
:10575C00DA847B68DB8C002B0FD17B681B68DA68E2
:10576C007B681B6822F08002DA607B681B68DA6851
:10577C007B681B6842F04002DA60002300E00223E1
:10578C0018461437BD4680BC704780B582B000AF58
:10579C0078607B681B68DA687B681B6822F04002C3
:1057AC00DA607B6893F83930DBB2322B04D17B683A
:1057BC00222283F839200BE07B681B685A697B68CE
:1057CC001B6822F001025A617B68012283F83920A0
:1057DC007868FFF73DFD002318460837BD4680BDAD
:1057EC0080B584B000AF78600023FB607B6893F8D1
:1057FC003930DBB2FB60FB68222B02D0FB68322B0A
:10580C007CD17B689B68B3F5805F23D17B689B6AF6
:10581C00BB607B681B69002B0ED17B681B685B68C7
:10582C009BB2C3F308039AB2BB681A807B689B6A6D
:10583C009A1C7B689A6229E07B681B685B689BB248
:10584C00DBB29AB2BB681A807B689B6A5A1C7B6875
:10585C009A621BE07B681B69002B0AD17B681B6872
:10586C0058687B689B6A591C7A689162C2B21A703C
:10587C000CE07B681B685B68DAB27B689B6A581C1F
:10588C007968886202F07F02D2B21A707B68DB8D75
:10589C00013B9AB27B68DA857B68DB8D002B2BD1C0
:1058AC007B681B68DA687B681B6822F02002DA6070
:1058BC007B6893F83930DBB2322B04D17B6812222F
:1058CC0083F8392013E07B681B68DA687B681B68F7
:1058DC0022F48072DA607B681B685A697B681B68EB
:1058EC0022F001025A617B68012283F83920786822
:1058FC00FFF7C0FC002302E0002300E0022318465F
:10590C001037BD4680BDB0B584B000AF78600023C1
:10591C00FB607B681B681B6923F440517B68DA6869
:10592C007B681B680A431A617B689A687B681B69F1
:10593C001A437B685B691343FB607B681B68DB68FD
:10594C0023F4B05323F00C037A681268F9680B4304
:10595C00D3607B681B685B6923F440717B689A6930
:10596C007B681B680A435A617B681B68434A9342F5
:10597C0040D1FDF769FF024613469B0013449A0081
:10598C001A447B685B689B00B2FBF3F33C4AA2FBB6
:10599C0003235B091C01FDF757FF024613469B00CE
:1059AC0013449A001A447B685B689B00B2FBF3F5C6
:1059BC00FDF74AFF024613469B0013449A001A4413
:1059CC007B685B689B00B2FBF3F32D4AA2FB0323BD
:1059DC005B09642202FB03F3EB1A1B013233284AE6
:1059EC00A2FB03235B0903F00F027B681B682243B5
:1059FC009A603FE0FDF702FF024613469B001344FA
:105A0C009A001A447B685B689B00B2FBF3F31C4A58
:105A1C00A2FB03235B091C01FDF7F0FE02461346B3
:105A2C009B0013449A001A447B685B689B00B2FB92
:105A3C00F3F5FDF7E3FE024613469B0013449A0070
:105A4C001A447B685B689B00B2FBF3F30C4AA2FB25
:105A5C0003235B09642202FB03F3EB1A1B013233B1
:105A6C00074AA2FB03235B0903F00F027B681B6848
:105A7C0022439A6000BF1037BD46B0BD00380140CC
:105A8C001F85EB51002103E00B4B5B584350043155
:105A9C000A480B4B42189A42F6D30A4A02E00023FA
:105AAC0042F8043B084B9A42F9D3FAF7BBFC00F0DE
:105ABC000FF8FAF7A5FB7047A05C00080000002067
:105ACC004404002044040020CC040020FEE7000025
