:020000040800F2
:1000000040080020010400085904000859040008B1
:1000100059040008590400085904000800000000B1
:10002000000000000000000000000000590400086B
:100030005904000800000000590400085904000891
:10004000590400085904000859040008590400081C
:10005000590400085904000859040008590400080C
:1000600059040008590400085904000859040008FC
:1000700059040008590400085904000859040008EC
:100080005904000859040008590400080000000041
:1000900000000000000000000000000059040008FB
:1000A00059040008590400085904000859040008BC
:1000B00059040008590400085904000859040008AC
:1000C000590400085904000859040008590400089C
:1000D000590400085904000859040008590400088C
:1000E00059040008590400085904000800000000E1
:1000F0000000000000000000000000000000000000
:1001000000000000000000000000000000000000EF
:100110000000000000000000590400085904000815
:040120005FF808F18B
:1001240010B5054C237833B9044B13B10448AFF32D
:1001340000800123237010BD44080020000000004B
:10014400A016000808B5034B1BB103490348AFF3DD
:10015400008008BD0000000048080020A016000828
:1001640080B400AF00231846BD4680BC7047000031
:1001740080B500AF154B1B68144A43F001031360AC
:10018400124B5A681149124B13404B600F4B1B68BA
:100194000E4A23F0847323F4803313600B4B1B68E3
:1001A4000A4A23F480231360084B5B68074A23F44C
:1001B400FE035360054B4FF41F029A6000F07EF873
:1001C400044B4FF000629A6000BF80BD00100240F3
:1001D4000000FFF800ED00E080B485B000AF00231C
:1001E400FB600023BB6000237B602F4B5B6803F044
:1001F4000C03FB60FB68042B07D0082B09D0002BF1
:1002040038D12A4B2A4A1A6038E0284B284A1A6007
:1002140034E0254B5B6803F47013BB60224B5B68CE
:1002240003F480337B60BB689B0C0233BB607B6848
:10023400002B06D1BB681F4A02FB03F31B4A136061
:100244001CE0194B5B6803F40033002B14BF01233B
:100254000023DBB2002B06D0BB68164A02FB03F373
:10026400124A13600AE0BB68114A02FB03F30F4A07
:10027400136003E00D4B0E4A1A6000BF0A4B5B6823
:100284001B0903F00F030C4AD35CDBB2FB60074B82
:100294001A68FB6822FA03F3044A136000BF143798
:1002A400BD4680BC704700BF001002400000002023
:1002B40000127A0000093D000400002080B500AF60
:1002C40000F002F800BF80BD80B483B000AF00230B
:1002D4007B6000233B60474B1B68464A43F48033F2
:1002E4001360444B1B6803F400333B607B680133A9
:1002F4007B603B68002B05D17B68B3F5A06F01D010
:10030400012300E00023002B00D0EAE7394B1B68EF
:1003140003F40033002B14BF01230023DBB2002BB2
:1003240002D001233B6001E000233B603B68012BCA
:100334000CBF01230023DBB2002B55D02E4B1B68CE
:100344002D4A43F0100313602B4B1B682A4A23F0F9
:1003540003031360284B1B68274A43F0020313600E
:10036400244B244A5B685360224B224A5B685360E7
:10037400204B5B681F4A43F4806353601D4B5B68EA
:100384001C4A23F47C1353601A4B5B68194A43F4E8
:10039400E8135360174B1B68164A43F080731360CD
:1003A400144B1B6803F00073002B0CBF01230023C4
:1003B400DBB2002B00D0F3E70E4B5B680D4A23F051
:1003C400030353600B4B5B680A4A43F00203536018
:1003D400084B5B6803F00C03082B14BF01230023B4
:1003E400DBB2002B00D0F3E700BF0C37BD4680BC66
:1003F400704700BF001002400020024080B582B068
:1004040000AF114B7B60114B3B603B68104A934239
:1004140008D27A68131D7B603B68191D3960126825
:100424001A60F2E70D480E494FF000028842B8BF47
:1004340040F8042BFADBFFF79BFEFFF791FE00BFA9
:100444000837BD4680BD00BF8417000800000020A7
:100454004404002080B400AFFEE7000044080020FC
:100464008808002003685A004CBF43F0004323F07F
:1004740000431844704700BF61B32DE9F84F01F100
:10048400FF3A90460646D146002707EB090404EBE1
:10049400D4746410E50071190846FFF7E3FFA24520
:1004A400834605F10800304409D0FFF7DBFFC3455C
:1004B40000F1FF3005D8404509D2671CE5E7C34584
:1004C40005D9A74202D004F1FF39DEE7002108462E
:1004D400BDE8F88F08467047012807D0022807D0E6
:1004E400044B00280CBF1846002070470248704790
:1004F40002487047D90B0008DD0B0008E10B000827
:1005040030B5264B83B004468D1E4BB301A9284653
:10051400AFF30080F0B101992A46FFF7ADFF014621
:10052400C0B1FFF79FFF4B68A064012B2FD0002BB5
:1005340001F1040027DBFFF795FF0023C4E913034F
:100544000368002B13DBFFF78DFF0023206118469F
:1005540003B030BD092300221846226103B030BD28
:100564000F4B10491846C91AC9100191D4E7C3F3B7
:100574000360FFF7B1FF002814BF002309232061A3
:10058400184603B030BD0123C4E91303D8E705239B
:1005940000221846226103B030BD00BF00000000F5
:1005A400A016000878170008036810B5DA07044697
:1005B40006D49B0700F1480009D500F067FC2368C6
:1005C400590709D51A070ED5DB0613D510BD00F05F
:1005D40055FC23685907F5D404F1D00000F05EFC03
:1005E40023681A07F0D404F5A87000F05FFC2368B0
:1005F400DB06EBD404F5E870BDE8104000F09ABCCB
:10060400036803B103441846704700BF09207047CC
:10061400704700BF70B504460D4608E02A6C236994
:10062400626121462A4601209847082808D1296C8E
:100634002046FFF765FF06460028EFD000F01AFFBA
:100644000728FBD13046296CFFF7E2FF281D00F094
:1006540009FC00BF2DE9F04705464FF0000CADF54D
:10066400727D03AC0E1D17460FCE0FC40FCE0FC400
:100674000FCE0FC496E80F00D5F80C80D5F818906B
:1006840084E80F0002ACC4F800C021E0236C4FF4EE
:10069400F0726B6121467AA800F076FE2B697AAA83
:1006A400294630469847889BCDE9004982466364D1
:1006B40031462B462A460120C0470746F8B94FF475
:1006C400F0727AA9204600F05FFEBAF1080F1CD13F
:1006D400216C2846FFF714FF002F08BF09260746A0
:1006E40018BF0A260028D1D0A36B46F01001CDE92B
:1006F40000492A46636401202B46C04700B10927FC
:1007040038460DF5727DBDE8F087BAF1070FF6D1D2
:100714003846216CFFF77CFF03A800F0A3FB00BF61
:10072400406C70474FF0FF3CF0B5CB6BF9B00B64F5
:100734000D1D01AC0F4606460FCD0FC40FCD0FC4DF
:100744000FCD0FC495E80F0084E80F00CDF800C06A
:1007540006E033696A46314698470828044608D1BA
:1007640010993046FFF7CCFE0028F2D0092079B06A
:10077400F0BD6846FFF718FF062CF7D1394630461E
:10078400FFF748FF30B4DD6BC160826119461D6418
:10079400002230BC5EE700BF70B54369C6680B64D5
:1007A400BEB903690A4604460D460146022098472D
:1007B400072807D0082803D129462046FFF72AFF37
:1007C40000F058FE3046296CFFF722FF281D00F088
:1007D40049FB0122FFF73EFF00F04CFEC2682AB13C
:1007E40010B4CC6B00220C6410BC33E79AE700BF52
:1007F400704700BF836813B1014601201847704752
:10080400042907D8DFE801F00308060808000BB93B
:100814000F2A03D9022070470120704700EB8200A1
:1008240042681846009B1A60704700BF002310B549
:1008340084B003AC0A4600941946FFF7E1FF03981D
:1008440004B010BD042907D8DFE801F00308060846
:1008540008000BB90F2A03D9022070470120704702
:10086400009900EB8202096818465160704700BF86
:10087400002310B584B004AC44F8042D00940A4657
:100884001946FFF7DFFF04B010BD00BF4FF0FF3C77
:10089400F0B5D36BADF50F7D1364151D17AC07468A
:1008A4000E460FCD0FC40FCD0FC40FCD0FC495E866
:1008B4000F0084E80F00CDF858C012E00C2116A8F0
:1008C4006A46FFF7D5FF314616A8B84778B9049BA6
:1008D40016AA6946082098470528044608D009281E
:1008E40005D026996846FFF70BFE0028E6D00924B8
:1008F40016A8FFF759FE20460DF50F7DF0BD00BF89
:100904002DE9F04F0D46C96C89B00C1D164600F058
:10091400030B0A681F460694002B68D00221130CAF
:100924008DF81D301204DBB204EB830405928DF8BC
:100934001C102B6DBBF1020F08BFAC6B13F001034D
:1009440046D1019300F008030093D4F80090B9F164
:10095400000F00F0F380022F45D0B4F80090B4F8F3
:1009640002800434AB6C28F0010A0F2130469A440B
:10097400FFF75CFF824534D829F0010353448342D6
:1009840094BF002001204FEA480808F0020809F04B
:10099400010948EA0908B8F1010F3AD031D3B8F196
:1009A400020F1AD1236823F0004ABBF1000F66D16D
:1009B40030B1009A002A6CD0BAF1000F00F0908098
:1009C400002B00DA04340AF1010304EB8304BCE7CE
:1009D400304605A900F048FB78B1092009B0BDE80C
:1009E400F08F0020CFE7D4F804800834BAE703235B
:1009F40012020592ADF81C309BE7082009B0BDE84F
:100A0400F08FBBF1000F02D0002840F0B480043412
:100A14009BE7BBF1000F18D1A8B1D4E90023991CBE
:100A24004FEAD272D9D005F158010133049100F094
:100A3400B580201DFFF7E4FD04AB01462846AFF363
:100A44000080002867D108347FE70D213046D5F8AF
:100A54002080FFF7EBFE8045F5D1AB6A9C42F2D1D2
:100A64002046FFF7FFFC0F2102463046FFF700FF48
:100A740030462A460021FFF7FBFE0720AEE70D2192
:100A84003046D5F82080FFF7D1FE804532D0236868
:100A940096E7BAF1000F23D005F1580304F10408D6
:100AA400CDF808B0DDF80090A34603971C4602E099
:100AB4005745B94640D040460494FFF7A1FD04AB26
:100AC400014600222846AFF3008009F1010708F12E
:100AD40004080028ECD0D1455C46DDE902B7D6D144
:100AE40030460D21FFF7A2FE049B2862C5E90934B4
:100AF400062073E7AB6A9C42C9D104224FF0000878
:100B0400A318C5E90AA8C5E90C23236843454DDBAE
:100B14000123019357E780460D213046FFF786FEF7
:100B2400B8F1020F28623ED12B46049A43F82C2FC9
:100B34006B62AC62062051E75C46D1E705A93046FA
:100B440000F092FA00287FF448AF019B002B3FF499
:100B540054AF0F213046FFF769FE0E21024630469E
:100B6400FFF786FE30461A4A0F21FFF781FE072061
:100B740009B0BDE8F08F2046FFF774FC0434074643
:100B8400AC632846AFF3008000283FF426AF30461C
:100B94003A460F21FFF76CFE07201FE730460D2170
:100BA400FFF744FE2862049B6B62C2E70AF101006E
:100BB40004EB8000FFF756FC0F2102463046FFF796
:100BC40057FE30462A464146FFF752FE072005E706
:100BD40000000000002393E6012391E602238FE640
:100BE4002DE9F0410546C4B0042906D8DFE801F038
:100BF4004D2B05030900032B5FD0022044B0BDE850
:100C0400F081002BF9D1102AF7D82B68DC0600F10B
:100C1400F68022AC20460192012600F095F90023CB
:100C2400A86B019A06FA03F1114203D0016804305B
:100C340044F823100133042BF4D1A863204600F0B8
:100C440079F90020DAE7012B4FEA124697B254D023
:100C5400052BD2D106EB0708B8F1200FCDD80F2E03
:100C640040F29B80B846002F40F0DD80AA6B0F2E27
:100C7400AA6340F2C080B8F1000F02D002A800F0CD
:100C84000DF9002044B0BDE8F081002BB5D1012757
:100C9400AC6B96B2281D07FA03F1314203F101034C
:100CA40002D0216804340160102B00F10400F2D159
:100CB40012F40050E5D1AC63A0E7160C97B2F31917
:100CC400102B9AD82B681A075FD422AC204600F068
:100CD4000FF904EBC601A86B4FB1034600EBC70044
:100CE4001A680433834241F8042BF9D11846A863E7
:100CF400204600F0DBF8002080E7F219102A3FF6C6
:100D04007CAF0F2E3FF679AF2A68D10708D5284665
:100D140022F0030240F8482B019300F0B3F8019B42
:100D240022AC2046019300F0ADF8A96B019B002F83
:100D340000F095804FF000087A0004EBC604043CF0
:100D440001EB820251F8040B914244F8040FF9D1EB
:100D5400B8F1000F0FD002AC102E314638BF10216D
:100D640004EBC101843902EBC80452F8040B944229
:100D740041F8040FF9D1012B7FF479AF22AC04328E
:100D8400AA63204600F07AF87BE723F008032B607F
:100D940005F5A87000F0ACF897E7B8F1100F2A68D1
:100DA40043D9D007A8F110080BD5284622F0010238
:100DB40042F0020240F8482B019300F06BF82A68D5
:100DC400019B510725D40F2E04D822A8019300F0CB
:100DD40061F8019B02AC2046019300F063F8C6F170
:100DE40010000028AA6B019BB6DD22AC114604EB6F
:100DF400C6044200A3E722A800F048F83BE723F02A
:100E040010032B6005F5E870019200F09DF8019A3B
:100E1400FFE6284622F0040240F8D02B019300F0AC
:100E240041F8019BCFE72A68CBE7D0070AD52846CB
:100E340022F0010242F0020240F8482B019300F034
:100E440029F8019B22AC20460193B84600F022F811
:100E5400A96B019B002F7FF46DAF0A4607E70A4692
:100E64008DE700BF00F1340191E838009C46A646A6
:100E74004CF8045D90E8FF0FE54600BD90EC210BB3
:100E8400704700BF80EC210B704700BF90EC200B33
:100E9400704700BF80EC200B704700BFD0EC200BE4
:100EA400704700BFC0EC200B704700BFF0EC02019C
:100EB400F0EC0211F0EC0221F0EC0231F0EC024112
:100EC400F0EC0251F0EC0261F0EC0271F0EC028102
:100ED400F0EC0291F0EC02A1F0EC02B1F0EC02C1F2
:100EE400F0EC02D1F0EC02E1F0EC02F1704700BF4B
:100EF400E0EC0201E0EC0211E0EC0221E0EC023152
:100F0400E0EC0241E0EC0251E0EC0261E0EC027141
:100F1400E0EC0281E0EC0291E0EC02A1E0EC02B131
:100F2400E0EC02C1E0EC02D1E0EC02E1E0EC02F121
:100F3400704700BFB0FC0181B0FC0191B0FC01A17D
:100F4400B0FC01B1704700BFA0FC0181A0FC01917D
:100F5400A0FC01A1A0FC01B1704700BFEC4600B5A4
:100F64002DE900502DE9FF1F4FF000032DE90C007F
:100F740001A9FFF7D7FBDDF840E012B0704700BFCE
:100F8400EC4600B52DE900502DE9FF1F4FF000039A
:100F94002DE90C0001A9FFF7FFFBDDF840E012B0DA
:100FA400704700BFEC4600B52DE900502DE9FF1F46
:100FB4004FF000032DE90C0001A9FFF70FFCDDF849
:100FC40040E012B0704700BFEC4600B52DE9005078
:100FD4002DE9FF1F4FF000032DE90C0001ABFFF7D3
:100FE400D1FBDDF840E012B0704700BFEC4600B51D
:100FF4002DE900502DE9FF1F4FF000032DE90C00EF
:1010040001AAFFF743FCDDF840E012B0704700BFCF
:10101400027A7AB9437AA3B103214268013B10B43E
:1010240043721368141D01721A024460026010BCFA
:10103400180E70470368013A02721A020260180E11
:101044007047B020704700BF002300B585B003AAE5
:10105400009219460C22FFF7D3FB039805B05DF804
:1010640004FB00BFF0E700BF2DE9F04305460E4640
:101074004FF0000885B03046FFF7CAFFB028044699
:1010840000F0B080070620D500F0F003802B65D077
:10109400902B36D0A02B78D0B02B47D0C02B00F0AB
:1010A400898000F0F803D02B0BD100F00702013245
:1010B40042F40022052301212846FFF791FD002870
:1010C400D9D0092005B0BDE8F08300230DF10C0947
:1010D40019468700CDF800900D222846FFF790FBB3
:1010E400FFB2039B043760064CBFDF1BFF180023CD
:1010F400CDF8009019460D2228460397FFF7A2FB6E
:10110400B9E700F00D030D2BDBD0002303AF00F093
:101114000F02194600972846FFF772FB0023009739
:1011240019460D222846FFF78DFBA4E7B1285ED0AF
:10113400B22800F0CB80B3287DD000F0FC03B42BA0
:10114400BFD0012300F007021A4442F400221946DA
:101154002846FFF745FD00288DD0B2E73046FFF75B
:1011640057FF24020443B4F5004FAAD000232401FE
:10117400A2B219462846FFF733FD0028A1D114F482
:10118400004F18BF4FF0010875E7C3434FF47F6267
:1011940003F007031A410023010702F47F6248BFEA
:1011A40042F4804219462846FFF71AFD00283FF40E
:1011B40062AF86E7C62851D0C7285AD000F0F8039A
:1011C400C02B69D0C82875D0C9287FF47AAF3046BF
:1011D400FFF71EFF020300F00F0002F4702201303B
:1011E400024367E7B8F1000F14D000206AE73046E5
:1011F400FFF70EFF00283FF464AF10F0F0037FF414
:1012040060AF024619462846FFF7EAFC00283FF47F
:1012140032AF56E703AC43460E22414600942846BB
:10122400FFF7EEFA0094284643460F224146FFF7A3
:1012340009FB404646E73046FFF7EAFE0123010377
:1012440000F00F0001F47021C2180A432846194621
:10125400FFF7C6FC00283FF40EAF32E73046FFF735
:10126400D7FE010300F00F00032301F47021421C98
:10127400EBE73046FFF7CCFE024600283FF421AFEF
:1012840010F0F0037FF41DAF04212846FFF7A8FCFB
:1012940000283FF4F0AE14E7032300F00F020132FC
:1012A40042F4202219462846FFF79AFC00283FF40E
:1012B400E2AE06E73046FFF7ABFE00F0F00200F0C6
:1012C4000F031032013343EA0232F3E600230DF137
:1012D4000C090D221946CDF800902846FFF790FA24
:1012E4003046FFF795FE02064FF002070CD5039B2C
:1012F40000F07F00B840034430460393FFF788FEB4
:10130400030607F10707F2D40023039A00F07F04D1
:10131400BC4002F501721444CDF8009019460D2228
:1013240028460394FFF78EFAA5E600BF30B50324E0
:101334000D46C36C85B05A688DF80C40DC791202F6
:10134400083301A9284601928DF80D400293FFF756
:101354008BFE05B030BD00BF08B5FFF783FE806C7F
:1013640008BD00BF08B5FFF77DFEC06CC37900EB74
:101374008300083008BD00BF08B500F07BF800BF4B
:1013840008B5FFF7F9FF00BF844641EA000313F0F4
:10139400030349D1403A23D30B6803604B6843608D
:1013A4008B688360CB68C3600B6903614B694361DD
:1013B4008B698361CB69C3610B6A03624B6A4362C5
:1013C4008B6A8362CB6AC3620B6B03634B6B4363AD
:1013D4008B6B8363CB6BC36340304031403ADBD2C9
:1013E40030320BD30B6803604B6843608B688360B7
:1013F400CB68C36010301031103AF3D20C3205D3ED
:1014040051F8043B40F8043B043AF9D2043208D0C2
:10141400D2071CBF11F8013B00F8013B01D30B8834
:1014240003806046704700BF082A13D38B07B1D0EE
:1014340010F00303AED0C3F10403D21ADB071CBFC0
:1014440011F8013B00F8013BA4D331F8023B20F82A
:10145400023B9FE7043AD9D3013A11F8013B00F863
:10146400013BF9D20B7803704B7843708B7883700F
:101474006046704708B5062000F032F8012000F0FD
:10148400EBF800BF1F2938B524D8D0F8DC32054664
:101494000C4673B153F821205AB1012A13D0511CC0
:1014A40014D00025204643F8245090472B46184674
:1014B40038BD284600F030F8224601462846BDE8EB
:1014C400384000F015B80023184638BD1622012311
:1014D4000260ECE716224FF0FF330260E7E700BF3B
:1014E400024B01461868FFF7CDBF00BF140000206F
:1014F40070B50D460023074C064611462846236066
:1015040000F0A2F8431C00D070BD2368002BFBD070
:10151400336070BD8408002000F08EB8024B13B114
:10152400024800F005B870470000000041150008AB
:10153400002301461A46184600F01EB838B50A4C76
:101544000A4D641BA4100AD004F18043013B05EB4F
:101554008305013C55F804399847002CF9D1BDE8BE
:10156400384000F083B800BF8417000880170008D3
:10157400704700BF704700BF2DE9F8432B4D064666
:10158400286898460F469146FFF7F2FF284B1C68DF
:10159400D4F84831002B3DD05A681F2A0DDC02F1E3
:1015A400010C16BB0232C3F804C0286843F8227049
:1015B400FFF7E0FF0020BDE8F8831E4B7BB34FF438
:1015C400C870AFF30080034648B30020D4F8481134
:1015D4004FF0010CC3E900100246C4F84831C3F8C7
:1015E4008801C3F88C01002EDCD0012103EB8204B6
:1015F400C4F88890D3F8880191400843022EC3F8B8
:101604008801C4F80881CDD1D3F88C010143C3F813
:101614008C11C7E704F5A673C4F84831BCE7286801
:10162400FFF7A8FF4FF0FF30C5E700BF40040020DC
:1016340060160008000000005822024B4FF0FF30F3
:101644001A607047840800205822024B4FF0FF3084
:101654001A60704784080020FEE700BF18000020CD
:10166400F8B500BFF8BC08BC9E467047F8B500BF8B
:08167400F8BC08BC9E4670475B
:10167C0001970181B0B008840000000008B101811D
:10168C00B0B000840000000008B10181B0B000844B
:04169C00000000004A
:1016A000C4EAFF7F01000000CCEAFF7F0884978036
:1016B0002CEBFF7F0100000048EDFF7FC0FFFF7FA4
:1016C00098EDFF7F010000003CEEFF7FB0A9028093
:1016D000DCEEFF7FB0B0A8802CEFFF7F01000000A0
:1016E00038EFFF7FB0B0AA8070EFFF7FAE71B2809D
:1016F00034F0FF7F0100000030F0FF7FAB3F388007
:1017000088F0FF7F0100000094F0FF7FB0B0AA8056
:10171000D0F0FF7F0100000078F1FF7FAB0EB280B8
:10172000E4F1FF7FB0AF0880B0F4FF7F010000005C
:10173000B4F4FF7FAC3F038030F7FF7F010000006F
:101740000CF9FF7F0084048020F9FF7F0100000076
:101750001CF9FF7FB0AD0480D8FBFF7FB0A90480E7
:10176000FCFBFF7F24FFFF7F00FCFF7F28FFFF7F44
:081770000CFCFF7F01000000EA
:081778002115000849010008D9
:041780002501000837
:1017840000A24A040000000000000000010203045B
:1017940006070809180000200000000004030020C8
:1017A4006C030020D40300200000000000000000AF
:1017B4000000000000000000000000000000000025
:1017C4000000000000000000000000000000000015
:1017D4000000000000000000000000000000000005
:1017E40000000000000000000000000000000000F5
:1017F40000000000000000000000000000000000E5
:1018040000000000000000000000000000000000D4
:1018140000000000000000000000000000000000C4
:1018240000000000000000000000000000000000B4
:1018340000000000000000000000000000000000A4
:1018440001000000000000000E33CDAB34126DE641
:10185400ECDE05000B0000000000000000000000AA
:101864000000000000000000000000000000000074
:101874000000000000000000000000000000000064
:101884000000000000000000000000000000000054
:101894000000000000000000000000000000000044
:041BC4006008002095
:101BC800000000000000000000000000000000000D
:101BD80000000000000000000000000000000000FD
:101BE80000000000000000000000000000000000ED
:101BF80000000000000000000000000000000000DD
:0400000508000401EA
:00000001FF
