:020000040800F2
:10000000040B0020A93F00080D2100081921000859
:100010001F210008252100082B21000800000000F6
:100020000000000000000000000000003121000876
:100030003D21000800000000492100088915000842
:10004000014000080140000801400008014000088C
:10005000014000080140000801400008014000087C
:10006000014000080140000801400008014000086C
:100070000140000801400008D51100085512000891
:10008000911200081512000801400008000000004D
:100090000000000000000000000000000140000817
:1000A000014000080140000801400008014000082C
:1000B000014000080140000801400008014000081C
:1000C000014000080140000801400008014000080C
:1000D00001400008CD1200081D130008014000086F
:1000E0000140000801400008014000080000000035
:1000F0000000000000000000000000000000000000
:1001000000000000000000000000000000000000EF
:10011000000000000000000001400008014000084D
:040120005FF808F18B
:1001240080B500AF00F00CF80449012000F0D4FCC5
:100134004FF47A7001F07EF9F6E700BF68460008D4
:1001440080B500AF00F06CFA01F05AF94FF4165183
:10015400012000F071FA0349012000F036FC00BFD1
:1001640080BD00BF70460008F0B5ABB008AF01F029
:10017400ABF9C7F88400364B1B68D7F88420D31A30
:10018400322B60DD01F0ECFB314AD7F88430136088
:1001940001F0B0FA0346002B3CD03B1D184601F099
:1001A400B3FA2C4B1B6807936D4607F114040FCC6C
:1001B4000FC594E8070085E807003B1D0FCB00F04E
:1001C40043F9C7F88000D7F88030002B3BD03B7F41
:1001D4001D467B7F1E463B6A7A6AD7F88010413100
:1001E400381DC41D07F13000059104920393029653
:1001F4003B1D0F33019300952346174A502101F00C
:1002040019FE07F13003184601F04EFB114B002292
:100214001A6018E0114B1B68D7F88420D31A41F2F6
:10022400883293420FDD01F0A3FA01F0E1FA0346AC
:10023400032B04D000F014F8064B01221A60074A7D
:10024400D7F88430136000BF8C37BD46F0BD00BFC3
:10025400080B002000000020904600080C0B002032
:1002640080B594B000AF03E04FF47A7001F0E2F887
:100274000D4801F0D1FA0346002BF5D101F070FBD3
:100284003B465021184601F04DFB0346002BF5D0A8
:100294003B461946002001F00DFF044801F004FB21
:1002A40000BF5037BD4680BDCC460008E446000878
:1002B40080B485B000AF786039607A683B689A4250
:1002C40004DD7A683B68D31AFB6003E03A687B6814
:1002D400D31AFB60FB68B42B03DDFB68C3F5B4736E
:1002E400FB60FB6818461437BD4680BC704780B479
:1002F40089B000AFF860B9607A603B60FB68023394
:100304001B78303B4FF47A7202FB03F2FB68033331
:100314001B78303B642101FB03F3D118FB680533E0
:100324001B78A3F1300213469B0013445B00CA18E8
:10033400FB6806331B78303B13447B61BB68023394
:100344001B78303B4FF47A7202FB03F2BB68033331
:100354001B78303B642101FB03F3D118BB680533E0
:100364001B78A3F1300213469B0013445B00CA18A8
:10037400BB6806331B78303B13443B617A693B69A5
:100384009A4204DD7A693B69D31AFB6103E03A6956
:100394007B69D31AFB617B6803331B78303B4FF4D2
:1003A4007A7202FB03F27B6804331B78303B6421CE
:1003B40001FB03F3D1187B6806331B78A3F13002E9
:1003C40013469B0013445B00CA187B6807331B78F1
:1003D400303B13447B613B6803331B78303B4FF461
:1003E4007A7202FB03F23B6804331B78303B6421CE
:1003F40001FB03F3D1183B6806331B78A3F13002E9
:1004040013469B0013445B00CA183B6807331B78F0
:10041400303B13443B617A693B699A4204DD7A6953
:100424003B69D31ABB6103E03A697B69D31ABB61A8
:10043400BA69FB699A4201DDBB69FB61FB69184635
:100444002437BD4680BC704784B0B0B584B000AFDB
:1004540007F1200484E80F000023FB730023BB731F
:10046400BB6C002B00F08E803B6C032B0FDD654BC7
:1004740001221A70FA6B644BDB6919461046FFF7C8
:1004840017FF0346142B02DD604B01221A7001F0A2
:100494001BF802465E4B1B68D31A47F23052934254
:1004A4001EDDFB6C002B04D00123FB730023BB7304
:1004B4007AE007F127035749184603F0A7FD0346DE
:1004C400002B08D107F12F035349184603F09EFD72
:1004D4000346002B68D00123FB730123BB7363E045
:1004E40000F0F2FF02464A4B1B68D31A41F28832ED
:1004F400934259DD454B1B78002B16D007F1270397
:100504004449184603F082FD0346002B08D107F145
:100514002F034149184603F079FD0346002B43D0CD
:100524000123FB730223BB733EE0364B1B78002B85
:100534003AD007F12F0307F12701374A3548FFF76F
:10054400D6FE78603B6CBB60BB682B2B03DDBB68BD
:100554005B00BB600DE0BB68202B05DDBB685B1056
:10056400BA681344BB6004E0BB68022B01DC0323BC
:10057400BB607A68BB689A4216DD0123FB730323D0
:10058400BB7311E0254B9B6A002B0DD000F09CFF40
:1005940002461F4B1B68D31A41F28832934203DD93
:1005A4000123FB730423BB73FB7B002B16D0164B78
:1005B4001C4607F120050FCD0FC40FCD0FC495E8DD
:1005C400070084E8070000F07FFF0246104B1A6022
:1005D4000E4B00221A700B4B00221A700F4B1C4654
:1005E40007F120050FCD0FC40FCD0FC495E8070008
:1005F40084E80700BB7B18461037BD46BDE8B04011
:1006040004B07047100B0020140B0020400B002096
:10061400440B00201B0B0020230B0020480B002060
:1006240080B500AF0121142002F04CFB0121012010
:1006340002F02AFB00BF80BD80B596B000AF7860A1
:10064400396001237B657B68012B05D1012144F2CC
:10065400050002F037FB10E07B68022B05D1012175
:100664004FF4003002F04CFB07E07B68032B04D10D
:1006740001214FF4802002F043FBCB497A681346F2
:100684009B0013441B010B441B689BB2A7F850301A
:10069400032387F85230182387F8533007F15003A7
:1006A4001946C24801F0D2FDBF497A6813469B003F
:1006B40013441B010B4404331B689BB2A7F850304E
:1006C400042387F8533007F150031946B74801F063
:1006D400BDFD3B683B640023A7F844300023A7F822
:1006E40046300023A7F848300023A7F84C300C23E9
:1006F400A7F84A3000233B8700237B874FF400731D
:10070400BB870023FB8707F138031946A84802F08A
:1007140025FDA5497A6813469B0013441B010B442D
:1007240008331B6807F140021146184602F040FCEA
:100734009D497A6813469B0013441B010B440833FC
:100744001B6801228021184602F0AEFD96497A68A2
:1007540013469B0013441B010B4408331B680122FE
:100764004021184602F0A0FD8F497A6813469B0089
:1007740013441B010B4408331B680121184602F083
:100784002DFD89497A6813469B0013441B010B44D1
:100794000C331B680021184603F040F982497A683B
:1007A40013469B0013441B010B440C331B6818466F
:1007B40003F010F87C497A6813469B0013441B012C
:1007C4000B4408331B680433FB6077497A6813468B
:1007D4009B0013441B010B4420331B683B61102313
:1007E4007B610023BB610023FB6180233B62002308
:1007F4007B620023BB620023FB624FF440533B63E4
:1008040000237B6368497A6813469B0013441B01E9
:100814000B440C331B6807F10C021146184603F015
:1008240095F861497A6813469B0013441B010B44F5
:1008340014331B68184603F06DF95B497A68134654
:100844009B0013441B010B440C331B68012202213F
:10085400184603F0FFF84FF4C06003F0B7F95249AB
:100864007A6813469B0013441B010B441C331B780A
:100874003B7201237B720723BB720123FB7207F1D6
:100884000803184603F0B4F947497A6813469B00F5
:1008940013441B010B441E331B783B7201237B72F0
:1008A4000023BB720123FB7207F10803184603F00F
:1008B4009FF93D497A6813469B0013441B010B447E
:1008C40008331B68012240F22441184602F0A5FCBB
:1008D40035497A6813469B0013441B010B441033BB
:1008E4001B680021184603F099F82F497A681346CB
:1008F4009B0013441B010B4410331B68184602F081
:1009040069FF29497A6813469B0013441B010B4471
:1009140008331B680433FB6023497A6813469B0041
:1009240013441B010B4424331B683B6100237B618C
:100934000023BB610023FB6180233B6200237B62B5
:100944000023BB620023FB624FF440533B6300234C
:100954007B6315497A6813469B0013441B010B44BF
:1009640010331B6807F10C021146184602F0EEFF23
:100974000D497A6813469B0013441B010B4418333A
:100984001B68184603F0C6F807497A6813469B00AB
:1009940013441B010B441D331B783B7201237B72F0
:1009A4000123BB72012305E004000020000801407C
:1009B40000380140FB7207F10803184603F018F9E8
:1009C4007B6D18465837BD4680BD80B584B000AFF6
:1009D4007860396076E000BF3E497A6813469B0030
:1009E40013441B010B4438331B68002BF4D0002341
:1009F400FB6035E037497A6813469B0013441B01BA
:100A04000B442033196833487A6813469B00134417
:100A14001B01034430331B680B443A6812781A7084
:100A24003B681B780A2B03D03B681B780D2B01D144
:100A34000123FB6027497A6813469B0013441B017A
:100A44000B4430331B68591C22487A6813469B00B8
:100A540013441B010344303319603B6801333B608A
:100A64003B681B78002B13D01A497A6813469B0005
:100A740013441B010B443033196816487A68134633
:100A84009B0013441B01034428331B689942B1DBC8
:100A9400FB68002B13D10F497A6813469B0013445B
:100AA4001B010B44303319680A487A6813469B00CB
:100AB40013441B01034428331B68994202D178680C
:100AC40000F0BCFA3B681B78002B84D100BF1037C0
:100AD400BD4680BD0400002080B582B000AF7860C0
:100AE400396039687868FFF770FF04497868FFF760
:100AF4006CFF00BF0837BD4680BD00BF1447000827
:100B040080B588B000AF7860396007F10C0300222B
:100B14001A605A609A600023FB770A23BB613B6822
:100B2400002B04DA0123FB773B685B423B603A68A5
:100B34001C4B83FB02139910D317C91A0B469B0055
:100B44000B445B00D11ACAB2BB69591EB961303279
:100B5400D2B207F120010B4403F8142C3B68114A6C
:100B640082FB03129210DB17D31A3B603B68002B05
:100B7400DDDCFB7F002B06D007F10C02BB691344BC
:100B84002D221A7002E0BB690133BB61BB6907F116
:100B94000C02134419467868FFF717FF00BF20378B
:100BA400BD4680BD6766666680B582B000AF78607A
:100BB4000E497A6813469B0013441B010B443833D7
:100BC4001B68002B0DD009497A6813469B00134417
:100BD4001B010B4430331B68002B02D0786800F0F3
:100BE4002DFA00BF0837BD4680BD00BF04000020B9
:100BF40080B582B000AF786024497A6813469B00C0
:100C040013441B010B4410331B680021184602F0E7
:100C140005FF1E497A6813469B0013441B010B44CD
:100C240018331B68184602F075FF18497A68134692
:100C34009B0013441B010B441033186813497A6852
:100C440013469B0013441B010B442C331B689BB2BB
:100C5400194602F01CFF0D497A6813469B001344A1
:100C64001B010B443C3300221A6008497A6813467E
:100C74009B0013441B010B4410331B6801211846CD
:100C840002F0CCFE00BF0837BD4680BD0400002042
:100C940080B582B000AF78600E497A6813469B0035
:100CA40013441B010B4418331B68184602F009FF58
:100CB4000346002B01D0012308E006497A68134655
:100CC4009B0013441B010B443C331B681846083734
:100CD400BD4680BD0400002090B583B000AF7860AD
:100CE4000D497A6813469B0013441B010B442C33B3
:100CF4001C6809497A6813469B0013441B010B4482
:100D040010331B68184602F0D0FE0346E31A184657
:100D14000C37BD4690BD00BF0400002080B483B0F2
:100D240000AF786006497A6813469B0013441B01A0
:100D34000B4424331B6818460C37BD4680BC7047EF
:100D44000400002080B485B000AF78604FF0FF331A
:100D5400FB6017497A6813469B0013441B010B443C
:100D64004C33196812487A6813469B0013441B01DC
:100D7400034448331B68994214D00D497A681346DA
:100D84009B0013441B010B444033196808487A68DC
:100D940013469B0013441B0103444C331B680B4450
:100DA4001B78FB60FB6818461437BD4680BC70474F
:100DB4000400002080B485B000AF78604FF0FF33AA
:100DC400FB6028497A6813469B0013441B010B44BB
:100DD4004C33196823487A6813469B0013441B015B
:100DE400034448331B68994235D01E497A68134638
:100DF4009B0013441B010B444033196819487A685B
:100E040013469B0013441B0103444C331B680B44DF
:100E14001B78FB6013497A6813469B0013441B013B
:100E24000B444C331B685A1C0E4879680B469B00D4
:100E34000B441B01034444331B6892FBF3F103FB93
:100E440001F3D11A07487A6813469B0013441B0127
:100E540003444C331960FB6818461437BD4680BC04
:100E6400704700BF0400002080B489B000AF7860F0
:100E74000023FB6126497A6813469B0013441B0137
:100E84000B4440331B687B6121497A6813469B00FD
:100E940013441B010B444C331B68BB611C497A6827
:100EA40013469B0013441B010B4448331B683B61EE
:100EB40017497A6813469B0013441B010B444433BF
:100EC4001B68FB601AE0BB697A6913441B780D2B1D
:100ED40005D0BB697A6913441B780A2B02D101231C
:100EE400FB610FE0BB690133BB61BB69FA6893FB2B
:100EF400F2F2F96801FB02F29B1ABB61BA693B6921
:100F04009A42E0D1FB6918462437BD4680BC70473D
:100F14000400002080B48BB000AFF860B9607A6040
:100F24004549FA6813469B0013441B010B444033A4
:100F34001B68BB614049FA6813469B0013441B01BC
:100F44000B444C331B687B623B49FA6813469B0095
:100F540013441B010B4448331B687B613649FA6810
:100F640013469B0013441B010B4444331B683B6131
:100F740000233B620023FB617B68013B7B60002311
:100F84003B6239E07B6A5A1C7A621A46BB691A448E
:100F94003B6AB9680B4412781A707B6A3A6993FB0E
:100FA400F2F2396901FB02F29B1A7B623B6ABA686E
:100FB40013441B780D2B05D03B6ABA6813441B7885
:100FC4000A2B09D1FB69002B03D03B6A013B3B622E
:100FD4001CE00123FB610CE0FB69002B09D07B6A58
:100FE400013B7B627B6A002B0FDA3B69013B7B622E
:100FF4000BE03B6A01333B623A6A7B689A4205DA4A
:101004007A6A7B699A42BDD100E000BF3B6ABA6844
:10101400134400221A700849FA6813469B001344CB
:101024001B010B444C337A6A1A60BB6818462C3790
:10103400BD4680BC704700BF0400002080B582B06C
:1010440000AF78601E497A6813469B0013441B0165
:101054000B440C331B680021184602F0DFFC1849CE
:101064007A6813469B0013441B010B440C33186825
:1010740013497A6813469B0013441B010B44303315
:101084001B689BB2194602F002FD0D497A681346AB
:101094009B0013441B010B44383300221A60084997
:1010A4007A6813469B0013441B010B440C331B68E2
:1010B4000121184602F0B2FC00BF0837BD4680BDCE
:1010C4000400002080B58AB000AF78607868FFF72C
:1010D40003FEB8613D497A6813469B0013441B0123
:1010E4000B444C331B687B6238497A6813469B0077
:1010F40013441B010B4448331B683B6233497A6831
:1011040013469B0013441B010B4440331B687B6153
:101114002E497A6813469B0013441B010B44243365
:101124001B683B6129497A6813469B0013441B01E1
:101134000B4444331B68FB600023FB6126E0FB691E
:101144003A691A443B6A591C396219467B690B4453
:1011540012781A703B6AFA6893FBF2F2F96801FBA1
:1011640002F29B1A3B623A6A7B6A9A420BD17B6A0F
:1011740001337B627B6AFA6893FBF2F2F96801FB44
:1011840002F29B1A7B62FB690133FB61FA69BB695A
:101194009A42D4DB0D497A6813469B0013441B0121
:1011A4000B444C337A6A1A6008497A6813469B00E8
:1011B40013441B010B4448333A6A1A607868FFF7FA
:1011C40017FD00BF2837BD4680BD00BF04000020C6
:1011D40080B500AF4FF4005002F073FC0346012BBE
:1011E4000FD14FF4005002F095FC0021064802F0A4
:1011F40015FC064B0122C3F88820044B0022C3F8D7
:10120400802000BF80BD00BF4400024004000020D5
:1012140080B500AF4FF0007002F053FC0346012B81
:101224000FD14FF0007002F075FC0021064802F067
:10123400F5FB064B0122C3F8D820044B0022C3F867
:10124400D02000BF80BD00BF800002400400002009
:1012540080B500AF4FF4003002F033FC0346012B9D
:101264000ED14FF4003002F055FC0021054802F085
:10127400D5FB054B0122C3F88C200120FFF722FF88
:1012840000BF80BD580002400400002080B500AFBC
:101294004FF4001002F015FC0346012B0ED14FF45D
:1012A400001002F037FC0021054802F0B7FB054BA3
:1012B4000122C3F8DC200220FFF704FF00BF80BD39
:1012C4006C0002400400002080B582B000AF40F200
:1012D40024410E4802F007FA0346002B12D00B4BB0
:1012E4001B889BB27B60094B9B889BB27B6000216F
:1012F400074802F093FB074B0222C3F88C2001201D
:10130400FFF7E0FE00BF0837BD4680BD003801404E
:10131400580002400400002080B582B000AF40F2C3
:1013240024410E4802F0DFF90346002B12D00B4B88
:101334001B889BB27B60094B9B889BB27B6000211E
:10134400074802F06BFB074B0222C3F8DC200220A3
:10135400FFF7B8FE00BF0837BD4680BD004400401B
:101364006C0002400400002080B483B000AF034648
:101374003960FB7197F90730002B0BDA3B68DAB25E
:101384000C49FB7903F00F03043B1201D2B20B4466
:101394001A7609E03B68DAB2074997F90730120177
:1013A400D2B20B4483F8002300BF0C37BD4680BC87
:1013B400704700BF00ED00E000E100E080B582B0BE
:1013C40000AF78607B68B3F1807F01D3012311E023
:1013D4007B6823F07F43094A013B53600F214FF0A0
:1013E400FF30FFF7C1FF054B00229A60034B072231
:1013F4001A60002318460837BD4680BD10E000E09F
:1014040080B582B000AF0A4B1B68DB081846FFF7B3
:10141400D5FF03467B607B68002B03D16FF004008B
:1014240002F07EFC7B6818460837BD4680BD00BFCD
:101434005801002080B487B000AF786035E07B6845
:10144400B3F57A7F28BF4FF47A73FB601B4B9B681C
:101454007B611B4B1B681B4AA2FB03235A0AFB68D4
:1014640002FB03F33B617A68FB68D31A7B60134B7E
:101474009B68BB60BA687B699A4210D93A697B69F8
:101484009A4200D211E03A697B69D21A0C4B1B686C
:10149400DB08B968CB1A13443B61BB687B617A698A
:1014A400BB68D31A3A699A42E1D87B68002BC6D14B
:1014B40000BF1C37BD4680BC704700BF10E000E091
:1014C40058010020D34D621080B485B000AF154B95
:1014D4009B68BB60144B1B68FB60124B9B687B6072
:1014E4007A68BB689A4202D90F4B1B68FB60FB68A1
:1014F4004FF47A7202FB03F20C4B1B68D9087B6829
:10150400C91A0A4B1B680A48A0FB03035B0AB1FB18
:10151400F3F313443B603B6818461437BD4680BC64
:10152400704700BF10E000E0941400205801002030
:10153400D34D621080B485B000AF78600023FB60A7
:101544000BE0FB687A6813441978084AFB68134473
:101554000A461A70FB680133FB60FB68052BF0DD5B
:1015640000BF1437BD4680BC704700BF98140020EC
:1015740080B400AF024B1846BD4680BC704700BF24
:101584009814002080B400AF044B1B680133034A55
:10159400136000BFBD4680BC704700BF9414002098
:1015A40080B582B000AF1023BB800223BB7110232F
:1015B400FB713B1D1946114800F048FE10210F48ED
:1015C40000F06BFF0E49012000F074FD10210B4860
:1015D40000F055FF40F6C410FFF72CFF4FF4E13143
:1015E4000220FFF729F80220FFF702FB00F00AF8B7
:1015F400034618460837BD4680BD00BF00080140B9
:101604001847000880B582B000AF4FF0FF337B600D
:101614000B4800F0B2F978607B68002B0AD10948C6
:1016240000F0ABF978607B68002B03D106490120F8
:1016340000F040FD7B6818460837BD4680BD00BFFA
:10164400284700082C4700083447000880B500AF3D
:10165400FFF7D8FF00F01AF800F07CF800F088F8E3
:1016640000F09AF800BF80BD80B483B000AF064B91
:101674001B687B60044B00221A607B6818460C3799
:10168400BD4680BC704700BFCC14002080B582B03A
:1016940000AF094800F071F978607B68002B06D12F
:1016A400064800F06AF97860054B00225A627B68AC
:1016B40018460837BD4680BD404700084C4700081F
:1016C400A014002080B582B000AF084800F055F99E
:1016D40078607B68002B03D1054800F04EF97860F0
:1016E4007B6818460837BD4680BD00BF58470008D0
:1016F4006447000880B400AF024B5B6A1846BD46DD
:1017040080BC7047A0140020B0B48FB000AF7860E4
:101714000F4B07F10C041D460FCD0FC40FCD0FC4A2
:1017240095E8070084E80700094B00225A627B68A9
:101734001D4607F10C040FCC0FC50FCC0FC594E860
:10174400070085E8070078683C37BD46B0BC7047A1
:10175400A014002080B582B000AF044800F00DF959
:1017640078607B6818460837BD4680BD704700081E
:1017740080B500AF064800F000F90346002B02D103
:10178400044B1B6801E04FF0FF33184680BD00BFD7
:101794007C470008D414002080B582B000AF41F229
:1017A4008831104800F009F978607B68002B13D168
:1017B40041F288310C4800F000F978607B68002B16
:1017C4000AD1C820FFF736FE43F69821074800F0F7
:1017D400F4F8786000F00CF87B6818460837BD46CA
:1017E40080BD00BF8447000890470008AC4700084C
:1017F40080B500AF064800F0C0F80346002B02D1C4
:10180400044B1B6801E04FF0FF33184680BD00BF56
:10181400BC470008D0140020B0B598B000AF786081
:10182400FFF7E6FFF86507E000F034F83220FFF731
:1018340001FEFFF7DDFFF865FB6D022BF4D0FB6DB5
:10184400032BF1D007F10C03104A1C4615460FCDAB
:101854000FC42B681A46228002341B0C237007F134
:101864000C037968184602F0DBFC07F10C0347F21D
:101874003051184600F0A1F8F865054B00221A70A3
:10188400FB6D18466037BD46B0BD00BFCC470008AD
:10189400D814002080B500AF024800F06EF800BFF5
:1018A400184680BDE047000880B5A4B000AF78605A
:1018B4001949002000F0FEFB18490220FFF70CF93B
:1018C4004FF0FF33C7F88C300220FFF73BFAC7F81C
:1018D4008C00D7F88C302B2B02D100F0ADF802E04D
:1018E4000220FFF767FAD7F88C303E2BECD17968E9
:1018F4000220FFF76AF80A490220FFF7EDF8796839
:10190400002000F0D7FB42F2107000F06BF80346A1
:1019140018469037BD4680BDEC470008F8470008DC
:101924000448000880B584B000AF786039600023B3
:10193400FB600A4B1B78002B0AD03B681A46074908
:10194400786802F0A9FD054B00221A700123FB60A0
:10195400FB6818461037BD4680BD00BFD814002070
:1019640080B500AF00F068F8FFF77EFE0346002B59
:1019740001D0FFF76BFE00BF80BD80B584B000AF1F
:1019840078604FF0FF33FB600023BB600BE040F650
:10199400B831786800F011F8F860FB68002B06D0C5
:1019A400BB680133BB60BB68022BF0DD00E000BF05
:1019B400FB6818461037BD4680BD80B5A2B000AFA5
:1019C400786039607968002000F074FB796802203F
:1019D400FFF782F8386800F005F8034618468837A0
:1019E400BD4680BD80B584B000AF78606FF0010360
:1019F400FB601420FFF71EFD7B680E4A82FB031276
:101A0400D210DB17D31ABB6005E01420FFF712FDD8
:101A140000F012F8F860BB685A1EBA60002B03DDB0
:101A2400FB6813F1020FF0D0FB6818461037BD466F
:101A340080BD00BF6766666680B5A6B000AF6FF074
:101A44000103C7F89430EEE03B1D802219460220C2
:101A5400FFF760FA3B1D1B78002B00F0E4800123A4
:101A6400C7F890303B1D7649184602F0CFFA03467A
:101A7400002B03D10023C7F89430CBE03B1D0A228E
:101A84007049184602F0BEFC0346002B04D14FF007
:101A9400FF33C7F89430BDE03B1D6B49184602F094
:101AA400B5FA0346002B04D14FF0FF33C7F8943046
:101AB400B0E03B1D05226549184602F0A3FC03462D
:101AC400002B13D13B1D2C21184602F0C9FBC7F88B
:101AD4008400D7F8843000221A703B1D0533184661
:101AE40002F072FB02465A4B1A6093E03B1D0C2233
:101AF4005849184602F086FC0346002B49D13B1D89
:101B04002021184602F0ACFB03460133C7F88830A5
:101B140007225149D7F8880002F074FC0346002BD1
:101B240003D14E4B00221A6074E007224C49D7F8C7
:101B3400880002F067FC0346002B03D1474B0122C7
:101B44001A6067E00A224749D7F8880002F05AFC75
:101B54000346002B03D1414B02221A605AE00222B1
:101B64003749D7F8880002F04DFC0346002B03D117
:101B74003A4B03221A604DE005223B49D7F888000E
:101B840002F040FC0346002B44D1344B04221A607B
:101B940040E03B1D06223549184602F033FC03465B
:101BA400002B07D13B1D184600F06AF80023C7F844
:101BB40090302FE03B1D08222D49184602F022FCEC
:101BC4000346002B13D13B1D2C21184602F048FB81
:101BD400C7F88C00D7F88C30002B1BD0D7F88C308A
:101BE400013380221946234802F056FC12E03B1DC3
:101BF40006222149184602F005FC0346002B06D1B3
:101C04001E4B01221A600123C7F8943002E000231E
:101C1400C7F89030D7F89030002B04D03B1D1946FC
:101C2400002000F047FA0220FFF71EF90346002BBC
:101C34007FF40AAFD7F8943018469837BD4680BD74
:101C4400084800080C4800081848000830480008F4
:101C5400D41400203848000848480008D014002054
:101C64005048000858480008644800086C480008B8
:101C740074480008D814002080480008CC140020C0
:101C840080B59AB002AF78602C21786802F0E8FA47
:101C9400F865FB6D01332C21184602F0E1FAB865B2
:101CA400FB6D0133BA6D9A4240F2B7805D4B01225D
:101CB4005A62FB6D0133062219465A4802F0ECFBC6
:101CC4005848FFF737FC574B00229A71BB6D01331C
:101CD4001B78412B40F08C80524B01229A62BB6DE1
:101CE4000333FB652E21F86D02F0BAFAB865BA6DBC
:101CF400FB6D9A427FD9BA6DFB6DD31A03331A4632
:101D0400F96D494802F0C8FBBA6DFB6DD31A033371
:101D1400444A13440022DA712C21B86D02F0A0FA6F
:101D240003460133FB65FB6D1A783E4B1A76FB6D57
:101D34000233FB652E21F86D02F092FAB865BA6D94
:101D4400FB6D9A4257D9BA6DFB6DD31A03331A4609
:101D5400F96D364802F0A0FBBA6DFB6DD31A03335C
:101D6400304A13440022DA732C21B86D02F078FA59
:101D740003460133FB65FB6D1A782A4B5A76FB6DDB
:101D84000233FB652E21F86D02F06AFAB865BA6D6C
:101D9400FB6D9A4209D9BB6D00221A70F86D02F0EE
:101DA40013FA02461F4B1A6202E01E4B00221A620B
:101DB400BB6D01332C21184602F052FA034601335D
:101DC400FB652E21F86D02F04BFAB865BA6DFB6D18
:101DD4009A4209D9BB6D00221A70F86D02F0F4F929
:101DE4000246104BDA6106E00E4B0022DA6102E093
:101DF4000C4B00229A620B4B9A6A07F108000B4BBA
:101E04000193094B00931346094A502100F012F83C
:101E140003461946002000F04DF900BF6037BD4667
:101E240080BD00BFA0140020A7140020AF14002020
:101E3400884800080CB480B58CB000AF7860396075
:101E440007F13C037B610023FB629CE0BB6B1B78C6
:101E5400252B40F08D80202387F82B3000237B62D4
:101E6400202387F8233007F10803FB61BB6B0133A0
:101E7400BB63BB6B1B78FB7697F82B30202B06D10A
:101E8400FB7E302B03D1FB7E87F82B3018E002F069
:101E9400A3F90246FB7E013313441B7803F00403C9
:101EA400002B0AD07A6A13469B0013445B001A463F
:101EB400FB7E1344303B7B6202E0FB7E87F82330D9
:101EC40097F82330202BD1D0BB6B0133BB6397F839
:101ED4002330642B14D0642B04DC252B28D0632BF3
:101EE40005D02AE0692B0BD0732B1BD025E07B692E
:101EF4001A1D7A611B68DBB23B7200237B721CE003
:101F04007B6A0B2B01DD0B237B627B691A1D7A61D3
:101F1400196897F82B2007F108007B6A00F04AF84B
:101F2400F8610AE07B691A1D7A611B68FB6104E0B1
:101F340025233B7200237B7200BF0AE0FB695A1C15
:101F4400FA61FA6A511CF96211467A680A441B78EC
:101F54001370FB691B78002B04D03B68013BFA6AC1
:101F64009A42EBDBFB6A7A68134400221A700AE097
:101F7400BB6B5A1CBA63FA6A511CF96211467A683F
:101F84000A441B781370BB6B1B78002B05D03B688D
:101F9400013BFA6A9A42FFF659AFFB6A7A68134426
:101FA40000221A707B6818463037BD46BDE8804071
:101FB40002B0704780B489B000AFF860B9603B608C
:101FC4001346FB710023FB6107E0FB69FA681344C5
:101FD40000221A70FB690133FB61FB690B2BF4DDF2
:101FE4000023FB760A237B61BB68002B04DA012300
:101FF400FB76BB685B42BB60BA68214B83FB021370
:102004009910D317C91A0B469B000B445B00D11AD5
:10201400CAB27B69591E79611946FB680B44303298
:10202400D2B21A70BB68164A82FB03129210DB17F5
:10203400D31ABB60BB68002BDEDCFB7E002B05D013
:102044007B69FA6813442D221A700BE07B69013313
:102054007B6107E07B69013B7B617B69FA68134420
:10206400FA791A707B69C3F10C033A689A42F1DA7F
:102074007B69FA68134418462437BD4680BC704710
:102084006766666680B483B000AF7860034A7B6895
:10209400136000BF0C37BD4680BC70475815002044
:1020A40080B400AF024B1B681846BD4680BC704725
:1020B4005815002090B585B002AF786039600F4B99
:1020C4001B687A689A4215DBFFF752FA0446FFF759
:1020D400FBF902463B68019300922346084A80219B
:1020E4000848FFF7A7FE07490120FEF76EFC012010
:1020F400FEF75AFD00BF0C37BD4690BD58150020B1
:10210400984800085C15002080B400AF00BFBD46AD
:1021140080BC704780B400AFFEE780B400AFFEE738
:1021240080B400AFFEE780B400AFFEE780B400AF38
:1021340000BFBD4680BC704780B400AF00BFBD4641
:1021440080BC704780B400AF00BFBD4680BC704700
:1021540080B582B000AF78607B682F4A934208D183
:102164000121042000F0EAFD0021042000F0E6FD36
:102174004EE07B68294A934208D10121082000F0EF
:10218400DDFD0021082000F0D9FD41E07B68244AF0
:10219400934208D10121102000F0D0FD002110202D
:1021A40000F0CCFD34E07B681E4A934208D1012143
:1021B400202000F0C3FD0021202000F0BFFD27E017
:1021C4007B68194A934208D10121402000F0B6FDF2
:1021D4000021402000F0B2FD1AE07B68134A9342CC
:1021E40008D10121802000F0A9FD0021802000F009
:1021F400A5FD0DE07B680E4A934209D101214FF4FD
:10220400807000F09BFD00214FF4807000F096FD7B
:1022140000BF0837BD4680BD00080140000C0140E6
:10222400001001400014014000180140001C01404E
:102234000020014080B500AF0121012000F07EFDA7
:102244000021012000F07AFD00BF80BD80B489B078
:1022540000AF786039600023FB6100233B610023F9
:10226400BB610023FB6000237B610023BB603B68F0
:10227400DB7803F00F03FB613B68DB7803F01003AA
:10228400002B05D03B689B781A46FB691343FB611E
:102294003B681B88DBB2002B44D07B681B687B61E6
:1022A4000023BB6138E00122BB6902FA03F3FB603F
:1022B4003B681B881A46FB6813403B613A69FB681C
:1022C4009A4226D1BB699B00FB600F22FB6802FA8D
:1022D40003F3BB60BB68DB437A6913407B61FA6933
:1022E400FB6802FA03F37A6913437B613B68DB788A
:1022F400282B05D10122BB699A407B685A6108E00A
:102304003B68DB78482B04D10122BB699A407B6887
:102314001A61BB690133BB61BB69072BC3D97B68F5
:102324007A691A603B681B88FF2B46D97B685B6817
:102334007B610023BB613AE0BB690833012202FAE6
:1023440003F3FB603B681B881A46FB6813403B6140
:102354003A69FB689A4227D1BB699B00FB600F2254
:10236400FB6802FA03F3BB60BB68DB437A69134082
:102374007B61FA69FB6802FA03F37A6913437B61B0
:102384003B68DB78282B05D1BB69083301229A40CE
:102394007B685A613B68DB78482B05D1BB690833FD
:1023A40001229A407B681A61BB690133BB61BB6936
:1023B400072BC1D97B687A695A6000BF2437BD46B0
:1023C40080BC704780B483B000AF78607B684FF600
:1023D400FF721A807B6802229A707B680422DA708A
:1023E40000BF0C37BD4680BC704780B485B000AFD9
:1023F40078600B467B800023FB737B689A687B883C
:102404001340002B02D00123FB7301E00023FB7374
:10241400FB7B18461437BD4680BC704780B483B03C
:1024240000AF78607B689B689BB218460C37BD464A
:1024340080BC704780B485B000AF78600B467B8069
:102444000023FB737B68DA687B881340002B02D07F
:102454000123FB7301E00023FB73FB7B1846143755
:10246400BD4680BC704780B483B000AF78607B68A1
:10247400DB689BB218460C37BD4680BC704780B4FD
:1024840083B000AF78600B467B807A887B681A61E2
:1024940000BF0C37BD4680BC704780B483B000AF2A
:1024A40078600B467B807A887B685A6100BF0C3762
:1024B400BD4680BC704780B483B000AF78600B46E3
:1024C4007B8013467B707B78002B03D07A887B68F3
:1024D4001A6102E07A887B685A6100BF0C37BD46F6
:1024E40080BC704780B483B000AF78600B467B80BB
:1024F4007A887B68DA6000BF0C37BD4680BC7047C1
:1025040080B485B000AF78600B467B804FF4803395
:10251400FB607B88FA681343FB607B68FA689A6106
:102524007A887B689A617B68FA689A617B689B69A0
:10253400FB607B689B69FB6000BF1437BD4680BCB1
:10254400704780B485B000AF03460A46FB7113465A
:10255400BB710023FB600C4B1B68FB60FA684FF6F1
:1025640080731340FB60FB791B01FA681343FB6023
:10257400BB79FA681343FB60034AFB68136000BF2E
:102584001437BD4680BC70470000014080B483B05E
:1025940000AF0346FB71044AFB79136000BF0C379C
:1025A400BD4680BC704700BF1C00204280B487B089
:1025B40000AF78600B46FB7000233B610023FB6097
:1025C40000237B610023BB607B68002B03DA2E4B66
:1025D400DB697B6102E02C4B5B687B617B681B0CD5
:1025E40003F00F03BB607B689BB23B617B6803F421
:1025F4004013B3F5401F0AD17B6923F070637B61FC
:10260400214B5B68204A23F07063536021E07B68B0
:1026140003F48013002B0ED00322BB6802FA03F3E9
:10262400FB60FB68DB437A6913407B617B6943F0A1
:1026340070637B610DE07B685B0D1B013A6902FAF4
:1026440003F3DB437A6913407B617B6943F0706376
:102654007B61FB78002B08D07B685B0D1B013A691A
:1026640002FA03F37A6913437B617B68002B03DA74
:10267400054A7B69D36102E0034A7B69536000BF6A
:102684001C37BD4680BC70470000014080B485B053
:1026940000AF03460A46FB711346BB710023FB607F
:1026A400BB7903F003039B000F2202FA03F3FB60E0
:1026B400154ABB799B08DBB2023352F82320FB682E
:1026C400DB431148B9798908C9B21A408B1C40F818
:1026D40023200D4ABB799B08DBB2023352F8232036
:1026E400F979BB7903F003039B0001FA03F306486D
:1026F400B9798908C9B21A438B1C40F8232000BF5A
:102704001437BD4680BC70470000014080B483B0DC
:1027140000AF7860034A7B68136000BF0C37BD4686
:1027240080BC7047DC00204280B400AF134B1B68B0
:10273400124A43F001031360104B5A680F49104BBF
:1027440013404B600D4B1B680C4A23F0847323F435
:1027540080331360094B1B68084A23F480231360F9
:10276400064B5B68054A23F4FE035360034B4FF4A6
:102774001F029A6000BFBD4680BC70470010024033
:102784000000FFF880B483B000AF7860134B1B687F
:10279400124A23F480331360104B1B680F4A23F44E
:1027A400802313607B68B3F5803F03D0B3F5802F9B
:1027B40007D00DE0094B1B68084A43F480331360CB
:1027C40006E0064B1B68054A43F4A023136000BFD0
:1027D40000BF0C37BD4680BC704700BF00100240EC
:1027E40080B582B000AF00233B600023FB7100235F
:1027F400BB71312000F00EFB0346BB713B68013313
:102804003B603B68B3F5A06F02D0BB79002BF0D0DE
:10281400312000F0FFFA0346002B02D00123FB71A4
:1028240001E00023FB71FB7918460837BD4680BDE3
:1028340080B485B000AF0346FB710023FB600A4BF4
:102844001B68FB60FB6823F0F803FB60FB79DB008B
:10285400FA681343FB60044AFB68136000BF143733
:10286400BD4680BC704700BF0010024080B483B0F6
:1028740000AF0346FB71044AFB79136000BF0C37B9
:10288400BD4680BC704700BF0000424280B485B0A2
:1028940000AF786039600023FB600A4B5B68FB6023
:1028A400FB6823F47C13FB607A683B681343FA6883
:1028B4001343FB60034AFB68536000BF1437BD46F3
:1028C40080BC70470010024080B483B000AF034660
:1028D400FB71044AFB79136000BF0C37BD4680BC12
:1028E400704700BF6000424280B485B000AF78609A
:1028F4000023FB60094B5B68FB60FB6823F0030368
:10290400FB60FA687B681343FB60044AFB6853600E
:1029140000BF1437BD4680BC704700BF00100240A2
:1029240080B400AF044B5B68DBB203F00C03DBB292
:102934001846BD4680BC70470010024080B485B084
:1029440000AF78600023FB60094B5B68FB60FB68A9
:1029540023F0F003FB60FA687B681343FB60044ACE
:10296400FB68536000BF1437BD4680BC704700BF8E
:102974000010024080B485B000AF78600023FB6093
:10298400094B5B68FB60FB6823F4E063FB60FA6857
:102994007B681343FB60044AFB68536000BF143731
:1029A400BD4680BC704700BF0010024080B485B0B3
:1029B40000AF78600023FB60094B5B68FB60FB6839
:1029C40023F46053FB607B68DB00FA681343FB600D
:1029D400034AFB68536000BF1437BD4680BC704790
:1029E4000010024080B483B000AF03460A46FB7176
:1029F4001346BB71BB79002B08D00C4B1B78DAB2A1
:102A04000A49FB791343DBB20B7009E0074B1B78CF
:102A1400DAB2FB79DB43DBB204491340DBB20B705F
:102A240000BF0C37BD4680BC704700BF0910024090
:102A340080B483B000AF7860034A7B68136000BF42
:102A44000C37BD4680BC7047D800424280B485B084
:102A540000AF78600023FB60094B5B68FB60FB6898
:102A640023F44043FB60FA687B681343FB60044A29
:102A7400FB68536000BF1437BD4680BC704700BF7D
:102A84000010024080B483B000AF0346FB710C4BCE
:102A940000221A700A4B00221A70FB79012B02D013
:102AA400042B04D007E0064B01221A7003E0044B08
:102AB40005221A7000BF00BF0C37BD4680BC7047AA
:102AC4002010024080B483B000AF0346FB71044A77
:102AD400FB79136000BF0C37BD4680BC704700BF54
:102AE4008004424280B483B000AF7860054B1A6A18
:102AF40004497B6813430B6200BF0C37BD4680BC9E
:102B0400704700BF0010024080B483B000AF03469A
:102B1400FB71044AFB79136000BF0C37BD4680BCCF
:102B2400704700BF3C04424280B487B000AF786075
:102B340000237B6100233B610023FB600023BB6017
:102B44004C4B5B6803F00C037B617B69042B07D05F
:102B5400082B09D0002B33D17B68474A1A6033E035
:102B64007B68454A1A602FE0424B5B6803F470139C
:102B74003B61404B5B6803F48033FB603B699B0C17
:102B840002333B61FB68002B06D13B693B4A02FBE5
:102B940003F27B681A6017E0364B5B6803F400337A
:102BA400002B06D03B69354A02FB03F27B681A60AE
:102BB4000AE03B69304A02FB03F27B681A6003E0D7
:102BC4007B682D4A1A6000BF2A4B5B6803F0F00350
:102BD4007B617B691B097B61294A7B6913441B78F0
:102BE400DBB2BB607B681A68BB68DA407B685A60FA
:102BF400204B5B6803F4E0637B617B691B0A7B61A8
:102C04001F4A7B6913441B78DBB2BB607B685A683C
:102C1400BB68DA407B689A60164B5B6803F46053C8
:102C24007B617B69DB0A7B61154A7B6913441B78F2
:102C3400DBB2BB607B685A68BB68DA407B68DA60E9
:102C44000C4B5B6803F440437B617B699B0B7B61AA
:102C54000C4A7B6913441B78DBB2BB607B68DA687F
:102C6400BB68B2FBF3F27B681A6100BF1C37BD4638
:102C740080BC70470010024000127A0000093D0039
:102C8400440100205401002080B483B000AF786078
:102C94000B46FB70FB78002B06D0094B5A69084998
:102CA4007B6813434B6106E0054B5A697B68DB4341
:102CB400034913404B6100BF0C37BD4680BC7047CD
:102CC4000010024080B483B000AF78600B46FB7004
:102CD400FB78002B06D0094B9A6908497B6813439B
:102CE4008B6106E0054B9A697B68DB43034913401B
:102CF4008B6100BF0C37BD4680BC7047001002409A
:102D040080B483B000AF78600B46FB70FB78002B77
:102D140006D0094BDA6908497B681343CB6106E0A6
:102D2400054BDA697B68DB4303491340CB6100BF81
:102D34000C37BD4680BC70470010024080B483B09D
:102D440000AF78600B46FB70FB78002B06D0094B74
:102D5400DA6808497B681343CB6006E0054BDA6800
:102D64007B68DB4303491340CB6000BF0C37BD468F
:102D740080BC70470010024080B483B000AF78601C
:102D84000B46FB70FB78002B06D0094B1A690849E7
:102D94007B6813430B6106E0054B1A697B68DB43D0
:102DA400034913400B6100BF0C37BD4680BC70471C
:102DB4000010024080B483B000AF0346FB71044AA4
:102DC400FB79136000BF0C37BD4680BC704700BF61
:102DD4004004424280B483B000AF0346FB71044A0E
:102DE400FB79136000BF0C37BD4680BC704700BF41
:102DF4004C00424280B483B000AF0346FB71044AE6
:102E0400FB79137000BF0C37BD4680BC704700BF10
:102E14000710024080B487B000AF0346FB71002363
:102E2400FB6000237B610023FB74FB795B09DBB24D
:102E3400FB60FB68012B03D1124B1B687B6109E02B
:102E4400FB68022B03D10F4B1B6A7B6102E00D4B25
:102E54005B6A7B61FB7903F01F03FB607A69FB68A3
:102E640022FA03F303F00103002B02D00123FB74C5
:102E740001E00023FB74FB7C18461C37BD4680BC74
:102E8400704700BF0010024080B400AF044B5B6A7F
:102E9400034A43F08073536200BFBD4680BC704751
:102EA4000010024080B485B000AF0346FB710023DC
:102EB400FB73084B9A68FB791340002B02D0012363
:102EC400FB7301E00023FB73FB7B18461437BD46FC
:102ED40080BC70470010024080B483B000AF03464A
:102EE400FB71044AFB79137000BF0C37BD4680BCEC
:102EF400704700BF0A10024080B582B000AF78600E
:102F04007B68264A93420AD101214FF48040FFF79F
:102F140015FF00214FF48040FFF710FF3AE07B6873
:102F24001F4A93420AD101214FF40030FFF724FFD6
:102F340000214FF40030FFF71FFF2BE07B68194A94
:102F440093420AD101214FF48020FFF715FF00219D
:102F54004FF48020FFF710FF1CE07B68124A934275
:102F64000AD101214FF40020FFF706FF00214FF49E
:102F74000020FFF701FF0DE07B680C4A934209D162
:102F840001214FF48010FFF7F7FE00214FF4801069
:102F9400FFF7F2FE00BF0837BD4680BD0038014090
:102FA4000044004000480040004C004000500040F5
:102FB40080B58CB000AF786039600023FB620023D9
:102FC400BB6200237B6200233B620023FB617B68BE
:102FD400FB617B681B8A9BB2FB62FA6A4CF6FF7347
:102FE4001340FB623B68DB881A46FB6A1343FB62AF
:102FF400FB6A9AB27B681A827B689B899BB2FB62EC
:10300400FA6A4EF6F3131340FB623B689A883B68F6
:103014001B8913439AB23B685B8913439BB21A46DC
:10302400FB6A1343FB62FB6A9AB27B689A817B68F2
:103034009B8A9BB2FB62FA6A4FF6FF431340FB6222
:103044003B689B891A46FB6A1343FB62FB6A9AB28C
:103054007B689A8207F108031846FFF765FDFB6950
:103064002E4A934202D17B69BB6201E03B69BB6299
:103074007B689B899BB21BB2002B0CDABA6A13469D
:103084009B0013449A001A443B681B685B00B2FB24
:10309400F3F37B620BE0BA6A13469B0013449A0075
:1030A4001A443B681B689B00B2FBF3F37B627B6AA8
:1030B4001B4AA2FB03235B091B01FB62FB6A1B097E
:1030C400642202FB03F37A6AD31A3B627B689B890E
:1030D4009BB21BB2002B0CDA3B6ADB003233104A82
:1030E400A2FB03235B0903F00703FA6A1343FB62A1
:1030F4000BE03B6A1B013233094AA2FB03235B0941
:1031040003F00F03FA6A1343FB62FB6A9AB27B680B
:103114001A8100BF3037BD4680BD00BF0038014072
:103124001F85EB5180B483B000AF78607B684FF4A7
:1031340016521A607B6800229A807B680022DA802B
:103144007B6800221A817B680C225A817B680022EA
:103154009A8100BF0C37BD4680BC704780B485B0EF
:1031640000AF786039600023FB607B681B8A9BB2E8
:10317400FB60FA684FF2FF031340FB603B681A8858
:103184003B685B8813439AB23B689B8813439AB2AB
:103194003B68DB8813439BB21A46FB681343FB600E
:1031A400FB689AB27B681A8200BF1437BD4680BCA4
:1031B400704780B483B000AF78607B6800221A80C7
:1031C4007B6800225A807B6800229A807B680022F8
:1031D400DA8000BF0C37BD4680BC704780B483B032
:1031E40000AF78600B46FB70FB78002B08D07B683F
:1031F4009B899BB243F400539AB27B689A8107E09F
:103204007B689B899BB223F400539AB27B689A81B2
:1032140000BF0C37BD4680BC704780B487B000AF98
:1032240078600B467B8013467B7000233B61002350
:10323400FB600023BB6000237B617B687B617B8830
:10324400DBB25B09DBB23B617B8803F01F03FB60ED
:103254000122FB6802FA03F3BB603B69012B03D133
:103264007B690C337B6109E03B69022B03D17B69E9
:1032740010337B6102E07B6914337B617B78002B24
:1032840006D07B6919687B69BA680A431A6006E04C
:103294007B691968BB68DA437B690A401A6000BF1E
:1032A4001C37BD4680BC704780B483B000AF7860E3
:1032B4000B467B8013467B707B78002B08D07B68A1
:1032C4009B8A9AB27B8813439AB27B689A8209E0FC
:1032D4007B689B8A9AB27B88DB439BB213409AB289
:1032E4007B689A8200BF0C37BD4680BC704780B4AF
:1032F40083B000AF78600B46FB707B681B8A9BB27F
:1033040023F00F039AB27B681A827B681B8A9AB2F5
:10331400FB789BB213439AB27B681A8200BF0C37C6
:10332400BD4680BC704780B483B000AF78600B4664
:103334007B807B689B899BB223F400639AB27B6891
:103344009A817B689B899AB27B8813439AB27B6883
:103354009A8100BF0C37BD4680BC704780B483B0EF
:1033640000AF78600B46FB70FB78002B08D07B68BD
:103374009B899BB243F002039AB27B689A8107E06F
:103384007B689B899BB223F002039AB27B689A8183
:1033940000BF0C37BD4680BC704780B483B000AF1B
:1033A40078600B467B807B681B8A9BB223F02003EA
:1033B4009AB27B681A827B681B8A9AB27B88134311
:1033C4009AB27B681A8200BF0C37BD4680BC704736
:1033D40080B483B000AF78600B46FB70FB78002BA1
:1033E40008D07B681B8A9BB243F480439AB27B6803
:1033F4001A8207E07B681B8A9BB223F480439AB24B
:103404007B681A8200BF0C37BD4680BC704780B40D
:1034140083B000AF78600B467B807B88C3F30803DE
:103424009AB27B689A8000BF0C37BD4680BC704757
:1034340080B483B000AF78607B689B889BB2C3F391
:1034440008039BB218460C37BD4680BC704780B455
:1034540083B000AF78607B689B899BB243F0010323
:103464009AB27B689A8100BF0C37BD4680BC704716
:1034740080B483B000AF78600B46FB707B681B8B15
:103484009BB2DBB29AB27B681A837B681B8B9AB2BD
:10349400FB789BB21B029BB213439AB27B681A83DC
:1034A40000BF0C37BD4680BC704780B483B000AF0A
:1034B40078600B46FB707B681B8B9BB223F0FF0389
:1034C4009AB27B681A837B681B8B9AB2FB789BB297
:1034D40013439AB27B681A8300BF0C37BD4680BC85
:1034E400704780B483B000AF78600B46FB70FB7804
:1034F400002B08D07B689B8A9BB243F020039AB2CE
:103504007B689A8207E07B689B8A9BB223F0200346
:103514009AB27B689A8200BF0C37BD4680BC704764
:1035240080B483B000AF78600B46FB70FB78002B4F
:1035340008D07B689B8A9BB243F010039AB27B68E5
:103544009A8207E07B689B8A9BB223F010039AB2AD
:103554007B689A8200BF0C37BD4680BC704780B43C
:1035640083B000AF78600B46FB70FB78002B08D06B
:103574007B689B8A9BB243F008039AB27B689A8269
:1035840007E07B689B8A9BB223F008039AB27B68AE
:103594009A8200BF0C37BD4680BC704780B483B0AC
:1035A40000AF78600B46FB70FB78002B0AD07B6879
:1035B4009B899BB26FEA43436FEA53439AB27B6899
:1035C4009A8107E07B689B899BB2C3F30E039AB28E
:1035D4007B689A8100BF0C37BD4680BC704780B4BD
:1035E40083B000AF78600B46FB70FB78002B08D0EB
:1035F4007B689B8A9BB243F400639AB27B689A828D
:1036040007E07B689B8A9BB223F400639AB27B68D1
:103614009A8200BF0C37BD4680BC704780B483B02B
:1036240000AF78600B467B807B689B8A9BB223F05B
:1036340004039AB27B689A827B689B8A9AB27B88DD
:1036440013439AB27B689A8200BF0C37BD4680BC94
:10365400704780B483B000AF78600B46FB70FB7892
:10366400002B08D07B689B8A9BB243F002039AB27A
:103674007B689A8207E07B689B8A9BB223F00203F3
:103684009AB27B689A8200BF0C37BD4680BC7047F3
:1036940080B485B000AF78600B467B800023FB7359
:1036A4007B681B889AB27B8813409BB2002B02D0A4
:1036B4000123FB7301E00023FB73FB7B18461437E3
:1036C400BD4680BC704780B483B000AF78600B46C1
:1036D4007B807B88DB439AB27B681A8000BF0C37FF
:1036E400BD4680BC704780B487B000AF78600B469D
:1036F4007B800023FB6000237B610023BB600023ED
:10370400FB747B88DBB25B09DBB2BB607B8803F0B4
:103714001F037B6101227B6902FA03F37B61BB68AF
:10372400012B07D17B689B899BB21A467B691340A6
:103734007B6111E0BB68022B07D17B681B8A9BB2BB
:103744001A467B6913407B6106E07B689B8A9BB2C7
:103754001A467B6913407B617B881B0A9BB2FB6022
:103764000122FB6802FA03F3FB607B681B889BB2AF
:103774001A46FB681340FB607B69002B05D0FB688D
:10378400002B02D00123FB7401E00023FB74FB7CBB
:1037940018461C37BD4680BC704780B485B000AF66
:1037A40078600B467B800023FB810023BB817B88F0
:1037B4001B0AFB81FB89012202FA03F3BB81BB894B
:1037C400DB439AB27B681A8000BF1437BD4680BCC5
:1037D400704700BF80B483B000AF78607B681A681C
:1037E4004FF6FE7313407A6813607B6800221A60F8
:1037F4007B6800225A607B6800229A607B68002202
:10380400DA607B68434A934206D1434B5B68424A81
:1038140043F00F03536077E07B68404A934206D13C
:103824003D4B5B683C4A43F0F00353606CE07B68BB
:103834003B4A934206D1384B5B68374A43F4706382
:10384400536061E07B68374A934206D1324B5B6830
:10385400314A43F47043536056E07B68324A9342E2
:1038640006D12D4B5B682C4A43F4702353604BE024
:103874007B682E4A934206D1274B5B68264A43F461
:103884007003536040E07B68294A934206D1224B7F
:103894005B68214A43F07063536035E07B68254AD6
:1038A400934206D1244B5B68234A43F00F035360D1
:1038B4002AE07B68214A934206D11F4B5B681E4A6B
:1038C40043F0F00353601FE07B681D4A934206D126
:1038D400194B5B68184A43F47063536014E07B68C7
:1038E400184A934206D1144B5B68134A43F470435D
:1038F400536009E07B68144A934205D10E4B5B6820
:103904000D4A43F47023536000BF0C37BD4680BC9E
:10391400704700BF08000240000002401C00024043
:103924003000024044000240580002406C00024053
:103934008000024008040240000402401C040240CB
:1039440030040240440402405804024080B485B06C
:1039540000AF786039600023FB607B681B68FB6004
:10396400FB6823F4FF4323F07003FB603B689A6811
:103974003B681B6A1A433B681B691A433B685B69D3
:103984001A433B689B691A433B68DB691A433B68EB
:103994005B6A1A433B689B6A1343FA681343FB60F0
:1039A4007B68FA681A603B68DA687B685A603B682F
:1039B4001A687B689A603B685A687B68DA6000BF63
:1039C4001437BD4680BC704780B483B000AF7860C4
:1039D4007B6800221A607B6800225A607B680022A0
:1039E4009A607B680022DA607B6800221A617B6837
:1039F40000225A617B6800229A617B680022DA61A6
:103A04007B6800221A627B6800225A627B6800226B
:103A14009A6200BF0C37BD4680BC704780B483B047
:103A240000AF78600B46FB70FB78002B06D07B68F8
:103A34001B6843F001027B681A6006E07B681A6821
:103A44004FF6FE7313407A68136000BF0C37BD460F
:103A540080BC704780B485B000AFF860B96013468D
:103A6400FB71FB79002B06D0FB681A68BB681A430C
:103A7400FB681A6006E0FB681A68BB68DB431A40FF
:103A8400FB681A6000BF1437BD4680BC704780B421
:103A940083B000AF78600B467B807A887B685A607D
:103AA40000BF0C37BD4680BC704780B483B000AF04
:103AB40078607B685B689BB218460C37BD4680BC57
:103AC400704780B485B000AF78600023FB73002397
:103AD400BB607B6803F08053002B03D00B4B1B6847
:103AE400BB6002E00A4B1B68BB60BA687B6813408A
:103AF400002B02D00123FB7301E00023FB73FB7B4B
:103B040018461437BD4680BC704700BF000402400D
:103B14000000024080B483B000AF78607B6803F09B
:103B24008053002B03D0064A7B68536002E0054AA9
:103B34007B68536000BF0C37BD4680BC704700BF34
:103B4400000402400000024080B485B000AF7860F9
:103B54000023FB730023BB607B6803F08053002BBE
:103B640003D00B4B1B68BB6002E00A4B1B68BB60B5
:103B7400BA687B681340002B02D00123FB7301E079
:103B84000023FB73FB7B18461437BD4680BC70478B
:103B9400000402400000024080B483B000AF7860AB
:103BA4007B6803F08053002B03D0064A7B68536084
:103BB40002E0054A7B68536000BF0C37BD4680BCF9
:103BC400704700BF000402400000024080B483B08C
:103BD40000AF7860054A7B6843F0BF6343F4003369
:103BE400D36000BF0C37BD4680BC704700ED00E0D9
:103BF40080B487B000AF786000237B6100233B6111
:103C04000F23FB607B68DB78002B3AD0274BDB6803
:103C1400DB431B0A03F007037B617B69C3F10403E5
:103C24003B61FA687B6922FA03F3FB607B685B788B
:103C34001A463B6902FA03F37B617B689B781A4658
:103C4400FB6813407A6913437B617B691B017B61C9
:103C5400174A7B681B787969C9B213440A4683F80A
:103C640000237B681B7803F01F0311497A681278DC
:103C74005209D2B21046012202FA03F341F820306D
:103C84000FE07B681B7803F01F0309497A681278F8
:103C94005209D2B2104601229A4000F1200341F8A1
:103CA400232000BF1C37BD4680BC704700ED00E0F8
:103CB40000E100E080B483B000AF786039603B6815
:103CC40023F0604323F07F0304497A6813438B6035
:103CD40000BF0C37BD4680BC704700BF00ED00E05C
:103CE40080B483B000AF03460A46FB711346BB7130
:103CF400BB79002B06D0094B1A69FB79074913439A
:103D04000B6106E0054B1A69FB79DB430349134059
:103D14000B6100BF0C37BD4680BC704700ED00E06E
:103D240080B483B000AF78607B68042B06D1094B64
:103D34001B68084A43F00403136005E0054B1B6845
:103D4400044A23F00403136000BF0C37BD4680BC53
:103D5400704700BF10E000E080B500AF154B1B6852
:103D6400144A43F001031360124B5A681149124B71
:103D740013404B600F4B1B680E4A23F0847323F4EB
:103D8400803313600B4B1B680A4A23F480231360AF
:103D9400084B5B68074A23F4FE035360054B4FF45A
:103DA4001F029A6000F078F8044B4FF000629A60AA
:103DB40000BF80BD001002400000FFF800ED00E0ED
:103DC40080B485B000AF0023FB600023BB600023F8
:103DD4007B602C4B5B6803F00C03FB60FB68042BDB
:103DE40007D0082B09D0002B33D1274B274A1A6060
:103DF40033E0254B254A1A602FE0224B5B6803F41D
:103E04007013BB601F4B5B6803F480337B60BB683B
:103E14009B0C0233BB607B68002B06D1BB681C4A39
:103E240002FB03F3184A136017E0164B5B6803F4B4
:103E34000033002B06D0BB68154A02FB03F3124A79
:103E440013600AE0BB68114A02FB03F30E4A1360D5
:103E540003E00D4B0D4A1A6000BF0A4B5B681B0957
:103E640003F00F030B4AD35CDBB2FB60064B1A680A
:103E7400FB6822FA03F3044A136000BF1437BD46FB
:103E840080BC7047001002405801002000127A00E4
:103E940000093D005C01002080B500AF00F002F88D
:103EA40000BF80BD80B483B000AF00237B600023DB
:103EB4003B603A4B1B68394A43F480331360374BF9
:103EC4001B6803F400333B607B6801337B603B6811
:103ED400002B03D17B68B3F5A06FF0D12F4B1B6887
:103EE40003F40033002B02D001233B6001E00023E4
:103EF4003B603B68012B4BD1294B1B68284A43F09C
:103F040010031360264B1B68254A23F00303136038
:103F1400234B1B68224A43F0020313601F4B1F4AC2
:103F24005B6853601D4B1D4A5B6853601B4B5B68A9
:103F34001A4A43F480635360184B5B68174A23F4AE
:103F44007C135360154B5B68144A43F4E8135360C5
:103F5400124B1B68114A43F08073136000BF0F4B70
:103F64001B6803F00073002BF9D00C4B5B680B4A01
:103F740023F003035360094B5B68084A43F00203D0
:103F8400536000BF054B5B6803F00C03082BF9D1A9
:103F940000BF0C37BD4680BC704700BF0010024014
:103FA4000020024080B582B000AF114B7B60114B02
:103FB4003B6007E07A68131D7B603B68191D39601C
:103FC40012681A603B680C4A9342F3D30D480E49B9
:103FD4004FF000028842B8BF40F8042BFADBFFF729
:103FE400BBFEFCF79DF800BF0837BD4680BD00BF8F
:103FF400BD4E0008000000200807002080B400AF78
:10400400FEE70000080B0020DC15002080EA010C0C
:104014001CF0030F37D110F0030C20F0030021F043
:10402400030150F8042B08BF51F8043B0ED08CF068
:10403400030C6FF07F434FEACC0C23FA0CFC51F8CD
:10404400043B42EA0C0243EA0C0300BFA2F1013C28
:104054009A4201BF2CEA020C1CF0803F50F8042B5A
:1040640051F8043BF2D04FEA02604FEA12220128D1
:1040740028BFB0EB036F08BF1B0AF4D003F0FF03A3
:10408400000EC01A704710F0030F0AD010F8012B6D
:1040940011F8013B012A28BF9A42F4D0A2EB030095
:1040A40070474DF8045D50F8042B01F0030521F02E
:1040B400030151F8043B022D26D04DD822F07F4550
:1040C400B5EB132FA2F1013C2CEA020C0DD11CF02C
:1040D400803C08BF51F8043B0AD185EA0205B5EBE0
:1040E400036F0CD150F8042BE8E74FEA13235BE08D
:1040F4003CF07F4C54D10B784FEA126554E04FEA00
:10410400126503F0FF034FE04FEA0245A2F1013CC0
:104114004FEA15452CEA020CB5EB134F18D11CF0ED
:10412400803C08BF51F8043B07D185EA0205B5EB92
:10413400034F09D150F8042BE6E75FEA0C4C2FD16A
:104144000B884FEA12452FE04FEA03434FEA12452A
:104154004FEA134328E000BF02F0FF05B5EB136FED
:10416400A2F1013C2CEA020C0DD11CF0803C08BFEA
:1041740051F8043B0AD185EA0205B5EB032F0AD1B5
:1041840050F8042BE8E74FEA13630DE012F0FF0F39
:1041940006D051F8043B4FEA122523F07F4303E095
:1041A4004FF0000020BC704705F0FF0203F0FF0051
:1041B400012828BF904204BF2D0A1B0AF4D0A2EBA9
:1041C400000020BC704700BF0A22002100F028BA7A
:1041D400D0F8EC00704700BF044B054A1B685B6BCA
:1041E400002B08BF1346D3F8EC007047D802002018
:1041F4006C01002082B049B15AB16BB113780B60E5
:104204001278101C18BF012002B0704701A9002ABF
:10421400F3D1104602B070476FF00100F4E700BF1D
:10422400830710B5044610D10268A2F1013323EAD2
:10423400020313F0803F08D150F8042FA2F1013398
:1042440023EA020313F0803FF6D003781BB110F881
:10425400013F002BFBD100F077F8204610BD00BFD2
:10426400C9B200F00303002943D07BB10378002BCB
:1042740067D099423CD0431C05E013F8012B002A77
:104284005DD08A4234D09A071846F6D170B40468D7
:1042940041EA012646EA064686EA0405A5F1013309
:1042A400A4F1013223EA050322EA0402134313F0C2
:1042B400803F0FD150F8044F84EA0605A5F101327E
:1042C400A4F1013322EA050223EA0403134313F0A1
:1042D400803FEFD0037843B1994202D106E08B428C
:1042E40004D010F8013F002BF9D1184670BC704778
:1042F40070475BB10378002BFAD0431C03E00278CB
:104304000133002AF4D099071846F8D10268A2F1C3
:10431400013323EA020313F0803F08D150F8042F3D
:10432400A2F1013323EA020313F0803FF6D00378AD
:10433400002BDDD010F8013F002BFBD17047104655
:1043440070471846704700BF80EA0102844612F0A5
:10435400030F4FD111F0030F32D14DF8044D11F07A
:10436400040F51F8043B0BD0A3F101329A4312F02D
:10437400803F04BF4CF8043B51F8043B16D100BF06
:1043840051F8044BA3F101329A4312F0803FA4F197
:1043940001320BD14CF8043BA24312F0803F04BF1E
:1043A40051F8043B4CF8044BEAD023460CF8013B8B
:1043B40013F0FF0F4FEA3323F8D15DF8044B704735
:1043C40011F0010F06D011F8012B0CF8012B002A73
:1043D40008BF704711F0020FBFD031F8022B12F062
:1043E400FF0F16BF2CF8022B8CF8002012F47F4F1D
:1043F400B3D1704711F8012B0CF8012B002AF9D125
:10440400704700BF002A3FD040EA010313F00303C2
:10441400F0B425D1032A23D904680D68AC421FD116
:10442400043A33D0A4F1013525EA040414F0803FA2
:104434002FD1071D0D1D0DE057F8043B0E68A3F1A5
:104444000134B34224EA03040AD1043A1ED014F01E
:10445400803F1BD1032A2946384605F10405EBD8D1
:1044640003780C78013A9C420BD17AB114B90DE06F
:1044740062B173B110F8013F11F8014F013AA34240
:10448400F6D0181BF0BC7047104670470020F0BCF3
:1044940070471846F6E700BF40EA01039B0770B473
:1044A4002AD1032A28D90C460346214654F8046B22
:1044B400A6F1013525EA060515F0803F06D1043A38
:1044C400032A43F8046B2146EFD89AB10C78013AD9
:1044D4001C7001333CB16AB111F8014F013A03F881
:1044E400014B002CF7D12AB100211A4403F8011B17
:1044F4009342FBD170BC70470346E6E72DE9F84FC1
:104504000E468046174699460D4600E025462C4641
:104514000A9814F801BBFFF75BFE5844417811F088
:104524000801F3D1BBF12D0F57D0BBF12B0F04BF02
:1045340095F801B0AC1CB9F1000F04D0B9F1100F1B
:1045440050D0CC4605E0BBF1300F55D04FF00A09EE
:10455400CC4600290CBF6FF0004E4FF0004E0025F2
:10456400BEFBFCF328460CFB13EA05E029D0012529
:104574000CFB002014F801BBABF13002092A05D969
:10458400ABF14102192A0BD8ABF1370291450FDD8B
:10459400B5F1FF3FEED08342E8D24FF0FF35E9E7B3
:1045A400ABF16102192A03D8ABF157029145EFDC54
:1045B4006B1C0BD001B140420FB14DBB3E60BDE856
:1045C400F88F9245D3DA4FF0FF35D3E72223C8F8AA
:1045D4000030FFB17046661EF0E7AC1C95F801B0E0
:1045E4000121A8E7BBF1300FABD1237803F0DF033F
:1045F400582B06D0CC46ACE7237803F0DF03582BC6
:104604000AD14FF0100C94F801B0E1460234A0E74F
:104614008646DFE77046D2E74FF00809CC4698E7B4
:10462400084B70B51D68084E6C6B82B0002C08BF37
:104634003446134600940A4601462846FFF75EFFB7
:1046440002B070BDD80200206C01002019B1FF2A0D
:1046540003D80A700121084670478A234FF0FF31BE
:104664000360F8E754657374000000000D0A4150BC
:10467400525320424F5820322E30202843294241A1
:1046840035414720323031370D0A0000424135416F
:10469400472D393E4150473230302C544350495015
:1046A4002A3A21257325632F257325633E2530334C
:1046B400642F253033642041505253426F782032A6
:1046C4002E302025630D0A0022617369612E61700A
:1046D4007273322E6E6574222C20313435383000DA
:1046E400757365722042413541472D3920706173DD
:1046F4007320313733373820766572732041505236
:1047040053426F7820322E302E310D0A0000000003
:104714000D0A0000413720496E6974696E672E2EB8
:104724002E000000415400004154453000000000B8
:10473400413720496E6974656400000041542B4779
:1047440050533D310000000041542B475053524414
:104754003D31000041542B4750533D3000000000D0
:1047640041542B47505352443D30000041542B4395
:104774005245473F0000000041542B435351000071
:1047840041542B43474154543D31000041542B4381
:104794004744434F4E543D312C224950222C22434E
:1047A4004D4E45542200000041542B43474143548D
:1047B4003D312C310000000041542B4349505354E7
:1047C400415455530000000041542B434950535465
:1047D4004152543D22544350222C000041542B4357
:1047E4004950434C4F53450041542B434950534582
:1047F4004E443A0041542B43495053454E44000023
:104804001A0000004F4B00002B434D4520455252E7
:104814004F520000434F4D4D414E44204E4F2052C5
:104824004553504F4E534521000000002B43535134
:104834003A0000002B4349505354415455533A30E5
:1048440000000000494E495449414C00475052531E
:1048540041435400434F4E4E454354494E47000094
:10486400434C4F5345000000244750524D43000031
:104874002B4349505243563A000000005E43494ED0
:10488400495400004750533A25642C25732C257352
:104894000000000025732D25643A25730D0A0000DD
:1048A40043000000504F534958000000000000002E
:1048B4002E00000000202020202020202020282856
:1048C40028282820202020202020202020202020CC
:1048D400202020202088101010101010101010100C
:1048E400101010101004040404040404040404103C
:1048F40010101010101041414141414101010101CA
:104904000101010101010101010101010101010193
:10491400101010101010424242424242020202029F
:104924000202020202020202020202020202020263
:104934001010101020000000000000000000000013
:104944000000000000000000000000000000000063
:104954000000000000000000000000000000000053
:104964000000000000000000000000000000000043
:104974000000000000000000000000000000000033
:104984000000000000000000000000000000000023
:104994000000000000000000000000000000000013
:1049A4000000000000000000000000000000000003
:0849B4000000000000000000FB
:104EBD0001000000000000000000000000000000E4
:104ECD0000000000000000000000000000000000D5
:104EDD0000000000000000000000000000000000C5
:104EED0000000000000000000000000000000000B5
:104EFD0000000000000000000000000000000000A5
:104F0D000000000000020000000400000038014015
:104F1D004400024058000240002000000000020042
:104F2D000E0F2500740B0020C40B00205000000054
:104F3D005000000000000000000000000100000013
:104F4D0000000000140C0020000200000000000012
:104F5D0000000000040000000800000000440040B4
:104F6D00800002406C0002400000000200002000A2
:104F7D0011102600140E0020940E00208000000059
:104F8D000002000000000000000000000100000011
:104F9D00000000009410002000040000000000003C
:104FAD0000000000000000000000000000000000F4
:104FBD0000000000000000000000000000000000E4
:104FCD0000000000000000000000000000000000D4
:104FDD0000000000000000000000000000000000C4
:104FED0000000000000000000000000000000000B4
:104FFD000000000000000000010203040102030490
:10500D00060708090204060800A24A040000000071
:10501D000000000001020304060708094300000018
:10502D000000000000000000000000000000000073
:10503D000000000000000000000000004300000020
:10504D000000000000000000000000000000000053
:10505D000000000000000000000000004300000000
:10506D000000000000000000000000000000000033
:10507D0000000000000000000000000043000000E0
:10508D000000000000000000000000000000000013
:10509D0000000000000000000000000043000000C0
:1050AD0000000000000000000000000000000000F3
:1050BD0000000000000000000000000043000000A0
:1050CD0000000000000000000000000000000000D3
:1050DD000000000000000000000000004300000080
:1050ED0000000000000000000000000000000000B3
:1050FD000000000000000000000000005146000804
:10510D00F941000800000000B8480008B448000844
:10511D00B0480008B0480008B0480008B048000882
:10512D00B0480008B0480008B0480008B048000872
:10513D00B0480008FFFFFFFFFFFFFFFFFFFFFFFF6E
:10514D00FFFF0000010041534349490000000000EA
:10515D000000000000000000000000000000000042
:10516D0000000000000041534349490000000000C9
:10517D000000000000000000000000000000000022
:10518D000000000000000000E00200200000000010
:10519D0000000000CC050020340600209C060020F5
:1051AD0000000000000000000000000000000000F2
:1051BD0000000000000000000000000000000000E2
:1051CD0000000000000000000000000000000000D2
:1051DD0000000000000000000000000000000000C2
:1051ED0000000000000000000000000000000000B2
:1051FD0000000000000000000000000000000000A2
:10520D000000000000000000000000000000000091
:10521D000000000000000000000000000000000081
:10522D000000000000000000000000000000000071
:10523D000000000000000000010000000000000060
:10524D000E33CDAB34126DE6ECDE05000B00000025
:10525D000000000000000000000000000000000041
:10526D000000000000000000000000000000000031
:10527D000000000000000000000000000000000021
:10528D000000000000000000000000000000000011
:0400000508003FA907
:00000001FF
