:020000040800F2
:100000008C040020CD0900082D0A00082D0A0008E4
:100010002D0A00082D0A00082D0A00080000000023
:100020000000000000000000000000002D0A000891
:100030002D0A0008000000002D0A0008ED0F00083E
:100040002D0A00082D0A00082D0A00082D0A0008B4
:100050002D0A00082D0A00082D0A00082D0A0008A4
:100060002D060008E50600082D0A00082D0A0008E4
:100070002D0A00082D0A00082D0A00082D0A000884
:100080002D0A00082D0A00082D0A000800000000B3
:100090000000000000000000000000002D0A000821
:1000A0002D0A00082D0A00082D0A00082D0A000854
:1000B000ED0400082D0A00082D0A00082D0A00088A
:1000C0002D0A00082D0A00082D0A00082D0A000834
:1000D0002D0A00082D0A00082D0A00082D0A000824
:1000E0002D0A00082D0A00082D0A00080000000053
:1000F0000000000000000000000000000000000000
:1001000000000000000000000000000000000000EF
:1001100000000000000000002D0A00082D0A000861
:040120005FF808F18B
:1001240010B5054C237833B9044B13B10448AFF32D
:1001340000800123237010BD900400200000000003
:100144006055000808B5034B1BB103490348AFF3DE
:10015400008008BD000000009404002060550008E1
:10016400154B002B08BF134B9D46A3F5803A002185
:100174008B460F461348144A121A04F081FC0F4BA5
:10018400002B00D098470E4B002B00D0984700203E
:10019400002104000D000D48002802D00C48AFF3E4
:1001A400008004F049FC2000290000F013F804F05A
:1001B4002FFC00BF00000800000000000000000049
:1001C40000000000900400206C05002000000000E6
:1001D4000000000080B58CB002AF07F118000123C5
:1001E400009300230222002100F021FC07F11803F0
:1001F400184600F067FC07F1080001230093002370
:100204000322002100F013FC07F10803184600F054
:1002140059FC0E4A07F1180313600D4A07F108034D
:1002240013603B1D184600F0ADFE0A4A3B1D1360E7
:1002340000F012F800F048F800F096F800F0D0F85A
:1002440000F0FAF800F01CF9FEE700BFAC0400204F
:10025400B0040020B404002080B400AF114B00228D
:100264001A60104B1B68104A13600F4B1B680F4A2F
:1002740013600E4B1B680E4A13600E4B00221A606B
:100284000C4B1B680C4A13600B4B1B680B4A136026
:100294000B4B03221A600B4B00221A7000BFBD46A1
:1002A40080BC7047C4040020C0040020BC040020AB
:1002B400B8040020D0040020CC040020C80400208E
:1002C400D4040020D804002080B582B000AF00F030
:1002D400B7FE4FF4803000F0E1FE00F00DFF03465E
:1002E400FB71FB79012B32D1002000F0BFFF00200D
:1002F40000F0F4FF4FF4806000F0D4FF022003F01C
:10030400A1FE102003F0D2FE4FF400214FF4803000
:1003140000F054FF012000F06FFF392001F018FABB
:100324000346002B0CBF01230023DBB2002B00D0BB
:10033400F3E7022000F070FF00F08AFF0346082B69
:1003440014BF01230023DBB2002B00D0F4E701210A
:1003540044F2050001F054F90121012001F06EF985
:1003640000BF0837BD4680BD80B582B000AF4FF4F2
:10037400C06003F02FF91C233B7100237B71012320
:10038400BB710123FB713B1D184603F035F925238E
:100394003B7101237B710123BB710123FB713B1D65
:1003A400184603F029F908233B7100237B710023CD
:1003B400BB710123FB713B1D184603F01DF9092392
:1003C4003B7101237B710023BB710123FB713B1D36
:1003D400184603F011F900BF0837BD4680BD000080
:1003E40080B500AF114B1B68184600F0F7FC104BAA
:1003F4001B680F4A43F0040313600D4BDB680C4A7F
:1004040043F00403D3600B4B1B68184600F0E6FC72
:10041400074B1B68064A43F008031360044BDB6870
:10042400034A43F00803D36000BF80BDAC0400203E
:1004340000040140B004002080B584B000AF4FF444
:1004440016533B600023BB800023FB8000233B81C9
:100454000023BB810C237B813B461946074803F0EC
:10046400D7F90121054803F0EFFA4021034803F0CE
:1004740064FD00BF1037BD4680BD00BF0038014099
:1004840080B584B000AF4FF0804001F0D7F94FF051
:10049400804001F05AFF43F67F63BB8000237B81D9
:1004A4000023FB8040F2CF733B813B1D19464FF084
:1004B400804001F0D9FA01214FF0804002F064FE3F
:1004C40000214FF0804002F011F9012201214FF088
:1004D400804001F0D2FE01214FF0804001F089FEFE
:1004E40000BF1037BD4680BD80B582B000AF01218A
:1004F4004FF0804002F058FE0346002B14BF012346
:100504000023DBB2002B75D001214FF0804002F0B4
:1005140074FE3A4B1B680133384A1360384B1B682E
:10052400013B374A1360364B1B68002B62D1354BB5
:100534001B685A00344B1B683449354804F0C4FA2C
:1005440000237B60324A7B6813441B78002B19D04C
:100554002F4A7B6813441B789BB219462D4803F03D
:100564008BFB40212B4803F0C8FC0346002B0CBF37
:1005740001230023DBB2002B00D0F2E77B680133B8
:100584007B60DFE7244B1B68002B07D11B4B1B68E8
:100594001A4622491E4804F097FA06E0204B1B68CD
:1005A4001A4620491A4804F08FFA00237B60184A3F
:1005B4007B6813441B78002B19D0154A7B681344BD
:1005C4001B789BB21946134803F056FB402111488F
:1005D40003F093FC0346002B0CBF01230023DBB282
:1005E400002B00D0F2E77B6801337B60DFE7044B2C
:1005F40003221A6000BF0837BD4680BDC80400202E
:10060400D4040020B8040020C0040020D054000802
:10061400D804002000380140BC040020EC54000839
:10062400C4040020FC54000880B500AF234B1B68B1
:100634000A21184600F072FC214B1B68184600F092
:1006440059FB0346002B0CBF01230023DBB2002B14
:100654002ED01C4B1B6801331A4A13601A4B1A68BC
:100664001A4B1B689A4216D9164B1A68184B1B680A
:10067400D31A5A00144B1968144B1B68CB1AB2FBDB
:10068400F3F3144A1360104B1B68104A13600D4BAC
:100694001B680F4A13600C4B1B68002B08D0094BD6
:1006A4001B685A00084B1B68B2FBF3F30A4A136039
:1006B4000A4B04225A6100BF80BD00BFB40400206D
:1006C400AC040020B8040020C8040020CC0400209E
:1006D400D0040020C0040020C40400200004014011
:1006E40080B500AF114B1B680A21184600F016FCB8
:1006F4000F4B1B68184600F0FDFA0346002B0CBF95
:1007040001230023DBB2002B0AD00A4B1B68013300
:10071400084A1360074B1B6803F00103054A136082
:10072400054B08225A6100BF80BD00BFB4040020FD
:10073400B0040020BC0400200004014080B500AFD8
:10074400154B1B68144A43F001031360124B5A689B
:100754001149124B13404B600F4B1B680E4A23F098
:10076400847323F4803313600B4B1B680A4A23F40D
:1007740080231360084B5B68074A23F4FE0353602D
:10078400054B4FF41F029A6000F07EF8044B4FF0C3
:1007940000629A6000BF80BD001002400000FFF8B4
:1007A40000ED00E080B485B000AF0023FB600023BF
:1007B400BB6000237B602F4B5B6803F00C03FB6082
:1007C400FB68042B07D0082B09D0002B38D12A4B07
:1007D4002A4A1A6038E0284B284A1A6034E0254B2C
:1007E4005B6803F47013BB60224B5B6803F48033D3
:1007F4007B60BB689B0C0233BB607B68002B06D11B
:10080400BB681F4A02FB03F31B4A13601CE0194B2D
:100814005B6803F40033002B14BF01230023DBB215
:10082400002B06D0BB68164A02FB03F3124A13607E
:100834000AE0BB68114A02FB03F30F4A136003E0AA
:100844000D4B0E4A1A6000BF0A4B5B681B0903F08C
:100854000F030C4AD35CDBB2FB60074B1A68FB68DE
:1008640022FA03F3044A136000BF1437BD4680BC68
:10087400704700BF001002400400002000127A00FC
:1008840000093D000800002080B500AF00F002F828
:1008940000BF80BD80B483B000AF00237B60002321
:1008A4003B60474B1B68464A43F480331360444B18
:1008B4001B6803F400333B607B6801337B603B6857
:1008C400002B05D17B68B3F5A06F01D0012300E0B4
:1008D4000023002B00D0EAE7394B1B6803F40033F4
:1008E400002B14BF01230023DBB2002B02D0012311
:1008F4003B6001E000233B603B68012B0CBF0123FC
:100904000023DBB2002B55D02E4B1B682D4A43F03D
:10091400100313602B4B1B682A4A23F00303136054
:10092400284B1B68274A43F002031360244B244AD4
:100934005B685360224B224A5B685360204B5B68C0
:100944001F4A43F4806353601D4B5B681C4A23F4C5
:100954007C1353601A4B5B68194A43F4E8135360E1
:10096400174B1B68164A43F080731360144B1B68C3
:1009740003F00073002B0CBF01230023DBB2002B18
:1009840000D0F3E70E4B5B680D4A23F0030353607A
:100994000B4B5B680A4A43F002035360084B5B68E5
:1009A40003F00C03082B14BF01230023DBB2002B3C
:1009B40000D0F3E700BF0C37BD4680BC704700BFD2
:1009C400001002400020024080B582B000AF114BFD
:1009D4007B60114B3B603B68104A934208D27A68B3
:1009E400131D7B603B68191D396012681A60F2E7B9
:1009F4000B480C494FF000028842B8BF40F8042B62
:100A0400FADBFFF79BFEFFF7E5FB00BF0837BD46A7
:100A140080BD00BF74550008000000209000002035
:100A2400900400206C05002080B400AFFEE780B481
:100A340085B000AFF860B9607A603B60FB68BA6863
:100A44001A60FB687A685A60FB683A689A60FB68C7
:100A5400BA69DA60FB6818461437BD4680BC704733
:100A640080B483B000AF78607B681B68134A32F8A7
:100A740013301AB27B685B68012101FA03F31BB2DD
:100A8400DB431BB213401AB27B681B6891B20B4A5A
:100A940022F813107B681B68084A32F81330002BC5
:100AA40005D17B681B68064A002142F823107B6845
:100AB40018460C37BD4680BC704700BF3C0500207B
:100AC4004405002080B489B000AF786001233B6105
:100AD4000023FB610023BB610023FB6000237B61D7
:100AE4007B681B68002B1BDB7B681B68032B17DCF4
:100AF4007B689B68002B03D07B689B68012B0FD11C
:100B04007B68DB68002B0BDB7B68DB68042B07DC72
:100B14007B685B68002B03DB7B685B680F2B01DD64
:100B24000023D7E07B681B686D4A32F813301A46FD
:100B34007B685B6842FA03F303F00103002B01D0E6
:100B44000023C7E07B681B68664A52F82330002BF9
:100B54001FD17B681B68002B06D17B681B68614A28
:100B6400614942F8231014E07B681B68012B06D10D
:100B74007B681B685B4A5D4942F8231009E07B6887
:100B84001B68022B05D17B681B68564A584942F8FA
:100B940023107B689B68002B16D17B68DB68012BD4
:100BA40002D14823BB6122E07B68DB68022B02D1BF
:100BB4002823BB611BE07B68DB68002B02D1002388
:100BC400BB6114E0002385E07B68DB68032B02D162
:100BD4001423BB6108E07B68DB68042B02D110237B
:100BE400BB6101E0002375E0BB690133BB617B6835
:100BF4005B68072B0ADC7B681B683A4A52F823308F
:100C04001B68FB617B685B687B610AE07B681B682F
:100C1400344A52F823305B68FB617B685B68083BAD
:100C24007B617B699B000F2202FA03F3FB60FB6884
:100C3400DB43FA691340FB617B699B00BA6902FAE2
:100C440003F3FA691343FB617B68DB68022B0BD166
:100C54007B685A687B681B68224951F8233001215C
:100C640001FA02F25A610EE07B68DB68012B0AD1BB
:100C74007B685A687B681B681A4951F82330012144
:100C840001FA02F21A617B685B68072B07DC7B6858
:100C94001B68144A52F82330FA691A6006E07B682C
:100CA4001B68104A52F82330FA695A607B681B6843
:100CB4000B4A32F813301AB27B685B68012101FADF
:100CC40003F31BB213431AB27B681B6891B2044A44
:100CD40022F8131018462437BD4680BC704700BF65
:100CE4003C0500204405002000080140000C0140A0
:100CF4000010014080B483B000AF78607B681B684B
:100D0400134A32F813301A467B685B6842FA03F3DD
:100D140003F00103002B14D07B681B680D4A52F8C2
:100D240023309A687B685B6822FA03F303F00103BB
:100D3400002B14BF01230023DBB2002B01D00123BD
:100D440000E0002318460C37BD4680BC704700BF46
:100D54003C0500204405002080B483B000AF7860D7
:100D640039603B68002B04D03B68012B01D0002381
:100D74002AE07B681B68174A32F813301A467B68EE
:100D84005B6842FA03F303F00103002B1BD03B68BA
:100D9400012B0BD17B685A687B681B680E4951F89C
:100DA4002330012101FA02F21A610AE07B685A68D1
:100DB4007B681B68084951F82330012101FA02F2CB
:100DC4005A61012300E0002318460C37BD4680BC5D
:100DD400704700BF3C0500204405002080B485B066
:100DE40000AF78600023FB607B685B6803F003035B
:100DF4009B000F2202FA03F3FB60174A7B685B68CF
:100E04009B10023352F82310FB68DA4312487B68C4
:100E14005B689B100A40023340F823200E4A7B682B
:100E24005B689B10023352F823107B681B681A46D8
:100E34007B685B6803F003039B009A4006487B6869
:100E44005B689B100A43023340F8232001231846B1
:100E54001437BD4680BC70470000014080B483B0A5
:100E640000AF78607B681B68134A32F813301A4667
:100E74007B685B6842FA03F303F00103002B14D090
:100E84007B681B680D4A52F82330DA687B685B681C
:100E940022FA03F303F00103002B14BF0123002300
:100EA400DBB2002B01D0012300E0002318460C37ED
:100EB400BD4680BC704700BF3C05002044050020AF
:100EC40080B483B000AF03463960FB7197F90730F3
:100ED400002B0DDA3B68DAB20E4997F90730DBB222
:100EE40003F00F03043B1201D2B20B441A760BE059
:100EF4003B68DBB2084A97F9071008461B01D9B2D0
:100F040013180A4683F8002300BF0C37BD4680BC83
:100F1400704700BF00ED00E000E100E080B487B05E
:100F240000AF78603960144B9B687B61134B1B687E
:100F3400134AA2FB03239B093A6802FB03F33B61B8
:100F44000D4B9B68FB60FA687B699A4206D93A6943
:100F54007B69D31A3B616FF07F437B617A69FB68DD
:100F6400D31A3A699A4200D9EAE700BF00BF1C3796
:100F7400BD4680BC704700BF10E000E004000020C4
:100F8400D34D621080B582B000AF78600D4B002263
:100F94001A600D4B00221A600B4B00229A600A4B18
:100FA4006FF07F425A600F214FF0FF30FFF788FF48
:100FB400054B1B68044A43F00703136000BF08375E
:100FC400BD4680BD5405002010E000E080B483B02D
:100FD40000AF7860034B1B6818460C37BD4680BCD5
:100FE400704700BF5405002080B400AF104B1B684D
:100FF400104A12681049A1FB02129209B3FBF2F1E4
:1010040002FB01F29B1A002B08D1094B00221A6043
:101014000A4B1B680133094A136004E0044B1B6844
:101024000133034A136000BFBD4680BC704700BF54
:101034005805002004000020D34D62105405002000
:1010440080B400AF134B1B68124A43F001031360D2
:10105400104B5A680F49104B13404B600D4B1B68E3
:101064000C4A23F0847323F480331360094B1B6808
:10107400084A23F480231360064B5B68054A23F473
:10108400FE035360034B4FF41F029A6000BFBD463A
:1010940080BC7047001002400000FFF880B483B0A9
:1010A40000AF7860134B1B68124A23F4803313603B
:1010B400104B1B680F4A23F4802313607B68B3F53D
:1010C400803F03D0B3F5802F07D00DE0094B1B6898
:1010D400084A43F48033136006E0064B1B68054A54
:1010E40043F4A023136000BF00BF0C37BD4680BC8F
:1010F400704700BF0010024080B584B000AF0023E9
:10110400BB600023FB710023FB73312000F020FB44
:101114000346FB73BB680133BB60BB68B3F5A06FC8
:1011240004D0FB7B002B01D1012300E00023002B22
:1011340000D0EAE7312000F00BFB0346002B14BF7C
:1011440001230023DBB2002B02D00123FB7101E059
:101154000023FB71FB7918461037BD4680BD0000A3
:1011640080B485B000AF0346FB710023FB600A4BDB
:101174001B68FB60FB6823F0F803FB60FB79DB0072
:10118400FA681343FB60044AFB68136000BF14371A
:10119400BD4680BC704700BF0010024080B483B0DD
:1011A40000AF0346FB71044AFB79136000BF0C37A0
:1011B400BD4680BC704700BF0000424280B485B089
:1011C40000AF786039600023FB600A4B5B68FB600A
:1011D400FB6823F47C13FB607A683B681343FA686A
:1011E4001343FB60034AFB68536000BF1437BD46DA
:1011F40080BC70470010024080B483B000AF034647
:10120400FB71044AFB79136000BF0C37BD4680BCF8
:10121400704700BF6000424280B485B000AF786080
:101224000023FB60094B5B68FB60FB6823F003034E
:10123400FB60FA687B681343FB60044AFB685360F5
:1012440000BF1437BD4680BC704700BF0010024089
:1012540080B400AF044B5B68DBB203F00C03DBB279
:101264001846BD4680BC70470010024080B485B06B
:1012740000AF78600023FB60094B5B68FB60FB6890
:1012840023F0F003FB60FA687B681343FB60044AB5
:10129400FB68536000BF1437BD4680BC704700BF75
:1012A4000010024080B485B000AF78600023FB607A
:1012B400094B5B68FB60FB6823F4E063FB60FA683E
:1012C4007B681343FB60044AFB68536000BF143718
:1012D400BD4680BC704700BF0010024080B485B09A
:1012E40000AF78600023FB60094B5B68FB60FB6820
:1012F40023F46053FB607B68DB00FA681343FB60F4
:10130400034AFB68536000BF1437BD4680BC704776
:101314000010024080B483B000AF03460A46FB715C
:101324001346BB71BB79002B08D00C4B1B78DAB287
:101334000A49FB791343DBB20B7009E0074B1B78B6
:10134400DAB2FB79DB43DBB204491340DBB20B7046
:1013540000BF0C37BD4680BC704700BF0910024077
:1013640080B483B000AF7860034A7B68136000BF29
:101374000C37BD4680BC7047D800424280B485B06B
:1013840000AF78600023FB60094B5B68FB60FB687F
:1013940023F44043FB60FA687B681343FB60044A10
:1013A400FB68536000BF1437BD4680BC704700BF64
:1013B4000010024080B483B000AF0346FB710C4BB5
:1013C40000221A700A4B00221A70FB79012B02D0FA
:1013D400042B04D007E0064B01221A7003E0044BEF
:1013E40005221A7000BF00BF0C37BD4680BC704791
:1013F4002010024080B483B000AF0346FB71044A5E
:10140400FB79136000BF0C37BD4680BC704700BF3A
:101414008004424280B483B000AF7860054B1A6AFE
:1014240004497B6813430B6200BF0C37BD4680BC84
:10143400704700BF0010024080B483B000AF034681
:10144400FB71044AFB79136000BF0C37BD4680BCB6
:10145400704700BF3C04424280B487B000AF78605C
:1014640000237B6100233B610023FB600023BB60FE
:101474004F4B5B6803F00C037B617B69042B07D043
:10148400082B09D0002B38D17B684A4A1A6038E00F
:101494007B68484A1A6034E0454B5B6803F4701378
:1014A4003B61434B5B6803F48033FB603B699B0CFB
:1014B40002333B61FB68002B06D13B693E4A02FBC9
:1014C40003F27B681A601CE0394B5B6803F4003359
:1014D400002B14BF01230023DBB2002B06D03B6991
:1014E400354A02FB03F27B681A600AE03B69314A21
:1014F40002FB03F27B681A6003E07B682D4A1A60E2
:1015040000BF2B4B5B6803F0F0037B617B691B0915
:101514007B612A4A7B6913441B78DBB2BB607B681E
:101524001A68BB68DA407B685A60214B5B6803F435
:10153400E0637B617B691B0A7B61204A7B691344FE
:101544001B78DBB2BB607B685A68BB68DA407B6897
:101554009A60174B5B6803F460537B617B69DB0A19
:101564007B61164A7B6913441B78DBB2BB607B68E2
:101574005A68BB68DA407B68DA600D4B5B6803F439
:1015840040437B617B699B0B7B610D4A7B69134400
:101594001B78DBB2BB607B68DA68BB68B2FBF3F232
:1015A4007B681A6100BF1C37BD4680BC704700BF12
:1015B4000010024000127A0000093D0018000020CB
:1015C4002800002080B483B000AF78600B46FB7025
:1015D400FB78002B06D0094B5A6908497B681343F2
:1015E4004B6106E0054B5A697B68DB4303491340B2
:1015F4004B6100BF0C37BD4680BC704700100240F1
:1016040080B483B000AF78600B46FB70FB78002B8E
:1016140006D0094B9A6908497B6813438B6106E03D
:10162400054B9A697B68DB43034913408B6100BF18
:101634000C37BD4680BC70470010024080B483B0B4
:1016440000AF78600B46FB70FB78002B06D0094B8B
:10165400DA6908497B681343CB6106E0054BDA6914
:101664007B68DB4303491340CB6100BF0C37BD46A5
:1016740080BC70470010024080B483B000AF786033
:101684000B46FB70FB78002B06D0094BDA6808493F
:101694007B681343CB6006E0054BDA687B68DB4369
:1016A40003491340CB6000BF0C37BD4680BC704774
:1016B4000010024080B483B000AF78600B46FB702A
:1016C400FB78002B06D0094B1A6908497B68134341
:1016D4000B6106E0054B1A697B68DB430349134041
:1016E4000B6100BF0C37BD4680BC70470010024040
:1016F40080B483B000AF0346FB71044AFB791360E6
:1017040000BF0C37BD4680BC704700BF4004424256
:1017140080B483B000AF0346FB71044AFB791360C5
:1017240000BF0C37BD4680BC704700BF4C0042422E
:1017340080B483B000AF0346FB71044AFB79137095
:1017440000BF0C37BD4680BC704700BF0710024085
:1017540080B487B000AF0346FB710023FB60002315
:101764007B610023FB74FB795B11FB60FB68012B3D
:1017740003D1124B1B687B6109E0FB68022B03D188
:101784000E4B1B6A7B6102E00C4B5B6A7B61FB794D
:1017940003F01F03FB607A69FB6822FA03F303F08A
:1017A4000103002B02D00123FB7401E00023FB742E
:1017B400FB7C18461C37BD4680BC704700100240B5
:1017C40080B400AF044B5B6A034A43F080735362F6
:1017D40000BFBD4680BC70470010024080B485B095
:1017E40000AF0346FB710023FB730B4B9A68FB7934
:1017F4001340002B14BF01230023DBB2002B02D0C3
:101804000123FB7301E00023FB73FB7B18461437B1
:10181400BD4680BC704700BF0010024080B483B056
:1018240000AF0346FB71044AFB79137000BF0C3709
:10183400BD4680BC704700BF0A10024080B582B02C
:1018440000AF78607B68784A93420AD101214FF453
:101854000060FFF711FF00214FF40060FFF70CFF59
:10186400DEE07B68B3F1804F08D101210120FFF74E
:1018740021FF00210120FFF71DFFD1E07B686B4AA7
:10188400934208D101210220FFF714FF0021022016
:10189400FFF710FFC4E07B68654A934208D1012139
:1018A4000420FFF707FF00210420FFF703FFB7E040
:1018B4007B68604A934208D101210820FFF7FAFEB1
:1018C40000210820FFF7F6FEAAE07B685A4A9342FB
:1018D40008D101211020FFF7EDFE00211020FFF7B1
:1018E400E9FE9DE07B68554A934208D101212020FE
:1018F400FFF7E0FE00212020FFF7DCFE90E07B688C
:101904004F4A93420AD101214FF40050FFF7B4FE2D
:1019140000214FF40050FFF7AFFE81E07B68494A95
:1019240093420AD101214FF40020FFF7A5FE0021C4
:101934004FF40020FFF7A0FE72E07B68424A934216
:101944000AD101214FF48010FFF796FE00214FF4D5
:101954008010FFF791FE63E07B683C4A93420AD112
:1019640001214FF40010FFF787FE00214FF400100F
:10197400FFF782FE54E07B68354A934208D1012187
:101984004020FFF797FE00214020FFF793FE47E039
:101994007B68304A934208D101218020FFF78AFEF8
:1019A40000218020FFF786FE3AE07B682A4A9342B2
:1019B4000AD101214FF48070FFF77CFE00214FF41F
:1019C4008070FFF777FE2BE07B68244A93420AD1AC
:1019D40001214FF48030FFF74FFE00214FF4803097
:1019E400FFF74AFE1CE07B681D4A93420AD101219D
:1019F4004FF40030FFF740FE00214FF40030FFF7B2
:101A04003BFE0DE07B68174A934209D101214FF454
:101A14008020FFF731FE00214FF48020FFF72CFED9
:101A240000BF0837BD4680BD002C014000040040C3
:101A340000080040000C004000100040001400406A
:101A440000340140004C014000500140005401406A
:101A540000180040001C00400020004000400140ED
:101A6400004401400048014080B485B000AF786074
:101A740039600023FB817B681B88FB817B682E4ACD
:101A8400934213D07B682D4A93420FD07B68B3F105
:101A9400804F0BD07B682A4A934207D07B68294A3F
:101AA400934203D07B68284A934208D1FB8923F0F0
:101AB4007003FB813B685A88FB891343FB817B6875
:101AC400224A93420CD07B68214A934208D0FB8976
:101AD40023F44073FB813B68DA88FB891343FB8161
:101AE4007B68FA891A803B689A887B689A853B6888
:101AF4001A887B681A857B680F4A93420FD07B68EB
:101B04000E4A93420BD07B68124A934207D07B68FB
:101B1400114A934203D07B68104A934204D13B6834
:101B24001B7A9AB27B681A867B6801229A8200BF6C
:101B34001437BD4680BC7047002C0140003401407E
:101B44000004004000080040000C00400010004069
:101B5400001400400040014000440140004801409E
:101B640080B485B000AF7860396000237B810023A6
:101B7400FB810023BB817B681B8C9BB223F0010398
:101B84009AB27B681A847B681B8CFB817B689B8878
:101B9400BB817B681B8B7B817B8923F070037B81FA
:101BA4007B8923F003037B813B681A887B89134379
:101BB4007B81FB8923F00203FB813B681A89FB8943
:101BC4001343FB813B685A88FB891343FB817B6881
:101BD400244A93420FD07B68234A93420BD07B68FC
:101BE400224A934207D07B68214A934203D07B6800
:101BF400204A934223D1FB8923F00803FB813B68ED
:101C04005A89FB891343FB81FB8923F00403FB817D
:101C14003B689A88FB891343FB81BB8923F4807357
:101C2400BB81BB8923F40073BB813B689A89BB8960
:101C34001343BB813B68DA89BB891343BB817B684F
:101C4400BA899A807B687A891A833B68DA887B68C8
:101C54009A867B68FA891A8400BF1437BD4680BC13
:101C6400704700BF002C0140003401400040014097
:101C7400004401400048014080B485B000AF786062
:101C8400396000237B810023FB810023BB817B68B7
:101C94001B8C9BB223F010039AB27B681A847B6876
:101CA4001B8CFB817B689B88BB817B681B8B7B8146
:101CB4007B8923F4E0437B817B8923F440737B811C
:101CC4003B681B881B029AB27B8913437B81FB8987
:101CD40023F02003FB813B681B891B019AB2FB891B
:101CE4001343FB813B685B881B019AB2FB89134356
:101CF400FB817B68224A934203D07B68214A93424A
:101D04002BD1FB8923F08003FB813B685B891B019A
:101D14009AB2FB891343FB81FB8923F04003FB81C7
:101D24003B689B881B019AB2FB891343FB81BB89E7
:101D340023F48063BB81BB8923F40063BB813B68CC
:101D44009B899B009AB2BB891343BB813B68DB89A7
:101D54009B009AB2BB891343BB817B68BA899A8082
:101D64007B687A891A833B68DA887B681A877B6880
:101D7400FA891A8400BF1437BD4680BC704700BF7F
:101D8400002C01400034014080B485B000AF78607D
:101D9400396000237B810023FB810023BB817B68A6
:101DA4001B8C9BB223F480739AB27B681A847B6881
:101DB4001B8CFB817B689B88BB817B689B8B7B81B5
:101DC4007B8923F070037B817B8923F003037B8170
:101DD4003B681A887B8913437B81FB8923F4007356
:101DE400FB813B681B891B029AB2FB891343FB816D
:101DF4003B685B881B029AB2FB891343FB817B68B7
:101E0400224A934203D07B68214A93422BD1FB8917
:101E140023F40063FB813B685B891B029AB2FB8954
:101E24001343FB81FB8923F48063FB813B689B881C
:101E34001B029AB2FB891343FB81BB8923F48053B1
:101E4400BB81BB8923F40053BB813B689B891B0185
:101E54009AB2BB891343BB813B68DB891B019AB2ED
:101E6400BB891343BB817B68BA899A807B687A8972
:101E74009A833B68DA887B689A877B68FA891A8434
:101E840000BF1437BD4680BC704700BF002C014022
:101E94000034014080B485B000AF7860396000231D
:101EA400BB8100237B810023FB817B681B8C9BB25D
:101EB40023F480539AB27B681A847B681B8C7B81E1
:101EC4007B689B88FB817B689B8BBB81BB8923F4EC
:101ED400E043BB81BB8923F44073BB813B681B880F
:101EE4001B029AB2BB891343BB817B8923F4005341
:101EF4007B813B681B891B039AB27B8913437B81DB
:101F04003B685B881B039AB27B8913437B817B68A4
:101F1400124A934203D07B68114A93420AD1FB8947
:101F240023F48043FB813B689B899B019AB2FB8924
:101F34001343FB817B68FA899A807B68BA899A8308
:101F44003B68DA887B68A3F840207B687A891A8426
:101F540000BF1437BD4680BC704700BF002C014051
:101F64000034014080B582B000AF786039603B68CE
:101F74001B88002B0FD13B6859883B689A883B68C3
:101F84001B89786801F04AF93B68DB881946786850
:101F940001F006F836E03B681B88042B0FD13B6840
:101FA40059883B689A883B681B89786801F0A6F9D0
:101FB4003B68DB881946786801F00DF822E03B683D
:101FC4001B88082B0FD13B6859883B689A883B686B
:101FD4001B89786801F00CFA3B68DB88194678683D
:101FE40001F016F80EE03B6859883B689A883B6814
:101FF4001B89786801F072FA3B68DB8819467868B7
:1020040001F021F800BF0837BD4680BD80B584B01B
:1020140000AF786039600023FB810123BB813B68FA
:102024005B88002B02D10223FB8101E00023FB81AA
:102034003B689B88012B02D10223BB8101E0012371
:10204400BB813B681B88002B1CD13B6859883B68CB
:102054009A883B681B89786801F0E0F83B68DB8864
:102064001946786800F09CFF3B681B89BA89F98996
:10207400786801F043F93B68DB881946786800F01A
:10208400AAFF1BE03B6859883B689A883B681B8918
:10209400786801F033F93B68DB881946786800F00A
:1020A4009AFF3B681B89BA89F989786801F0B6F808
:1020B4003B68DB881946786800F072FF00BF103770
:1020C400BD4680BD80B483B000AF786039603B68A2
:1020D4001A883B685B8813439AB23B689B88134316
:1020E4009AB23B68DB8813439AB23B681B8913435B
:1020F4009AB23B685B8913439AB23B689B8913434A
:102104009AB27B68A3F8442000BF0C37BD4680BC5C
:10211400704780B483B000AF78607B684FF6FF727D
:102124009A807B6800221A807B680022DA807B68B0
:1021340000225A807B6800221A7200BF0C37BD4609
:1021440080BC704780B483B000AF78607B680022A5
:102154001A807B6800225A807B6800229A807B6800
:102164000022DA807B6800221A817B6800225A816F
:102174007B6800229A817B680022DA8100BF0C37D9
:10218400BD4680BC704780B483B000AF78607B6884
:1021940000221A807B6800225A807B6801229A8080
:1021A4007B680022DA807B6800221A8100BF0C372A
:1021B400BD4680BC704780B483B000AF78607B6854
:1021C40000221A807B6800225A807B6800229A8051
:1021D4007B680022DA807B6800221A817B680022F7
:1021E4005A817B6800229A8100BF0C37BD4680BCAF
:1021F400704780B483B000AF78600B46FB70FB7807
:10220400002B08D07B681B889BB243F001039AB271
:102214007B681A8007E07B681B889BB223F001036C
:102224009AB27B681A8000BF0C37BD4680BC7047E9
:1022340080B483B000AF78600B46FB70FB78002B52
:102244000CD07B68B3F844309BB26FEA43436FEA27
:1022540053439AB27B68A3F8442009E07B68B3F83F
:1022640044309BB2C3F30E039AB27B68A3F84420B4
:1022740000BF0C37BD4680BC704780B483B000AF4C
:1022840078600B467B8013467B707B78002B08D0EC
:102294007B689B899AB27B8813439AB27B689A8144
:1022A40009E07B689B899AB27B88DB439BB213402D
:1022B4009AB27B689A8100BF0C37BD4680BC7047D8
:1022C40080B483B000AF78600B467B807B687A88EB
:1022D4009A8200BF0C37BD4680BC704780B483B07F
:1022E40000AF78600B467B8013463B807A883B883E
:1022F40013439AB27B68A3F8482000BF0C37BD464D
:1023040080BC704780B483B000AF78600B467B809C
:1023140013467B707B78002B08D07B689B899AB22C
:102324007B8813439AB27B689A8109E07B689B8916
:102334009AB27B88DB439BB213409AB27B689A8142
:1023440000BF0C37BD4680BC704780B483B000AF7B
:1023540078607B681B899BB223F007039AB27B6881
:102364001A8100BF0C37BD4680BC704780B582B06F
:1023740000AF78600B467B807B881946786800F054
:10238400DFF87B681B899BB243F007039AB27B6832
:102394001A8100BF0837BD4680BD80B584B000AF48
:1023A400F860084611461A4603467B810B463B817A
:1023B4001346FB807B89602B06D1FB883989012277
:1023C400F86800F09BFF05E0FB8839890122F86872
:1023D40000F024FF7B891946F86800F0B1F8FB6827
:1023E4001B899BB243F007039AB2FB681A8100BFB2
:1023F4001037BD4680BD80B586B000AFF860084692
:1024040011461A4603467B810B463B811346FB80EB
:102414000023FB82FB883A897989F86800F039F84F
:10242400FB681B89FB82FB8A23F00703FB82FB8A80
:1024340043F00703FB82FB8A23F07003FB82FB8AD1
:1024440043F07003FB82FB68FA8A1A8100BF1837D5
:10245400BD4680BD80B584B000AFF8600846114623
:102464001A4603467B810B463B811346FB80FB885F
:102474003A897989F86800F00CF8FB681B899BB2EB
:1024840043F480439AB2FB681A8100BF1037BD46FB
:1024940080BD80B487B000AFF860084611461A4684
:1024A40003467B810B463B811346FB800023FB8262
:1024B400FB681B89FB82FB8ADBB2FB82FB881B0265
:1024C4009AB23B8913439AB27B8913439AB2FB8A2B
:1024D4001343FB82FB68FA8A1A8100BF1C37BD468E
:1024E40080BC704780B483B000AF78600B467B80BB
:1024F40013463B807B687A881A857B683A889A827F
:1025040000BF0C37BD4680BC704780B485B000AFB7
:1025140078600B467B800023FB817B681B88FB81F2
:10252400FB8923F07003FB81FA897B881343FB81C9
:102534007B68FA891A8000BF1437BD4680BC704797
:1025440080B485B000AF78600B467B800023FB81AC
:102554007B681B89FB81FB8923F07003FB81FA896B
:102564007B881343FB817B68FA891A8100BF143787
:10257400BD4680BC704780B487B000AFF8600846A1
:1025840011461A4603467B810B463B811346FB806A
:102594000023FB820023BB8200237B82FB681B8910
:1025A400FB82FB681B8BBB82FB681B8C7B82FB8AD8
:1025B40023F00703FB82FA8A7B891343FB82BB8ADD
:1025C40023F4407323F00303BB82BB8A43F4807378
:1025D40043F00103BB827B8A23F022037B82FB88C6
:1025E4001B019AB23B8913439AB27B8A13437B82C1
:1025F400FB68FA8A1A81FB68BA8A1A83FB687A8AAA
:102604001A8400BF1C37BD4680BC704780B485B0B7
:1026140000AF78600B467B800023FB817B681B8BBB
:10262400FB81FB8923F07003FB81FA897B881343C8
:10263400FB817B68FA891A8300BF1437BD4680BCCE
:10264400704780B485B000AF78600B467B80002370
:10265400FB817B681B8BFB81FB8923F4E043FB81BB
:102664007B881B029AB2FB891343FB817B68FA893E
:102674001A8300BF1437BD4680BC704780B485B050
:1026840000AF78600B467B800023FB817B689B8BCB
:10269400FB81FB8923F07003FB81FA897B88134358
:1026A400FB817B68FA899A8300BF1437BD4680BCDE
:1026B400704780B485B000AF78600B467B80002300
:1026C400FB817B689B8BFB81FB8923F4E043FB81CB
:1026D4007B881B029AB2FB891343FB817B68FA89CE
:1026E4009A8300BF1437BD4680BC704780B483B062
:1026F40000AF78600B46FB70FB78002B08D07B683A
:102704001B889BB243F080039AB27B681A8007E06F
:102714007B681B889BB223F080039AB27B681A8083
:1027240000BF0C37BD4680BC704780B483B000AF97
:1027340078600B46FB70FB78002B08D07B689B8885
:102744009BB243F004039AB27B689A8007E07B68EB
:102754009B889BB223F004039AB27B689A8000BFE3
:102764000C37BD4680BC704780B483B000AF78603E
:102774000B46FB70FB78002B08D07B689B889BB2D0
:1027840043F008039AB27B689A8007E07B689B88D1
:102794009BB223F008039AB27B689A8000BF0C377F
:1027A400BD4680BC704780B483B000AF78600B46F0
:1027B400FB70FB78002B08D07B689B889BB243F0AE
:1027C40001039AB27B689A8007E07B689B889BB27E
:1027D40023F001039AB27B689A8000BF0C37BD4690
:1027E40080BC704780B485B000AF78600B467B80B6
:1027F4000023FB817B681B8BFB81FB8923F008038F
:10280400FB81FA897B881343FB817B68FA891A83ED
:1028140000BF1437BD4680BC704780B485B000AF9C
:1028240078600B467B800023FB817B681B8BFB81DC
:10283400FB8923F40063FB817B881B029AB2FB892A
:102844001343FB817B68FA891A8300BF1437BD46A2
:1028540080BC704780B485B000AF78600B467B8045
:102864000023FB817B689B8BFB81FB8923F008039E
:10287400FB81FA897B881343FB817B68FA899A83FD
:1028840000BF1437BD4680BC704780B485B000AF2C
:1028940078600B467B800023FB817B689B8BFB81EC
:1028A400FB8923F40063FB817B881B029AB2FB89BA
:1028B4001343FB817B68FA899A8300BF1437BD46B2
:1028C40080BC704780B485B000AF78600B467B80D5
:1028D4000023FB817B681B8BFB81FB8923F00403B2
:1028E400FB81FA897B881343FB817B68FA891A830D
:1028F40000BF1437BD4680BC704780B485B000AFBC
:1029040078600B467B800023FB817B681B8BFB81FB
:10291400FB8923F48063FB817B881B029AB2FB89C9
:102924001343FB817B68FA891A8300BF1437BD46C1
:1029340080BC704780B485B000AF78600B467B8064
:102944000023FB817B689B8BFB81FB8923F00403C1
:10295400FB81FA897B881343FB817B68FA899A831C
:1029640000BF1437BD4680BC704780B485B000AF4B
:1029740078600B467B800023FB817B689B8BFB810B
:10298400FB8923F48063FB817B881B029AB2FB8959
:102994001343FB817B68FA899A8300BF1437BD46D1
:1029A40080BC704780B485B000AF78600B467B80F4
:1029B4000023FB817B681B8BFB81FB8923F0800355
:1029C400FB81FA897B881343FB817B68FA891A832C
:1029D40000BF1437BD4680BC704780B485B000AFDB
:1029E40078600B467B800023FB817B681B8BFB811B
:1029F400FB89C3F30E03FB817B881B029AB2FB891C
:102A04001343FB817B68FA891A8300BF1437BD46E0
:102A140080BC704780B485B000AF78600B467B8083
:102A24000023FB817B689B8BFB81FB8923F0800364
:102A3400FB81FA897B881343FB817B68FA899A833B
:102A440000BF1437BD4680BC704780B485B000AF6A
:102A540078600B467B800023FB817B689B8BFB812A
:102A6400FB89C3F30E03FB817B881B029AB2FB89AB
:102A74001343FB817B68FA899A8300BF1437BD46F0
:102A840080BC704780B485B000AF78600B467B8013
:102A94000023FB817B681B8CFB81FB8923F00203F1
:102AA400FB81FA897B881343FB817B68FA891A844A
:102AB40000BF1437BD4680BC704780B485B000AFFA
:102AC40078600B467B800023FB817B681B8CFB8139
:102AD400FB8923F00803FB81FA897B881343FB817C
:102AE4007B68FA891A8400BF1437BD4680BC7047DE
:102AF40080B485B000AF78600B467B800023FB81F7
:102B04007B681B8CFB81FB8923F02003FB817B8882
:102B14001B019AB2FB891343FB817B68FA891A84EF
:102B240000BF1437BD4680BC704780B485B000AF89
:102B340078600B467B800023FB817B681B8CFB81C8
:102B4400FB8923F08003FB817B881B019AB2FB89FC
:102B54001343FB817B68FA891A8400BF1437BD468E
:102B640080BC704780B485B000AF78600B467B8032
:102B74000023FB817B681B8CFB81FB8923F400739E
:102B8400FB817B881B029AB2FB891343FB817B6820
:102B9400FA891A8400BF1437BD4680BC704780B4DC
:102BA40085B000AF78600B467B800023FB817B6897
:102BB4001B8CFB81FB8923F40063FB817B881B0254
:102BC4009AB2FB891343FB817B68FA891A8400BF9C
:102BD4001437BD4680BC704780B485B000AF7860C0
:102BE4000B467B800023FB817B681B8CFB81FB896C
:102BF40023F40053FB817B881B039AB2FB891343A4
:102C0400FB817B68FA891A8400BF1437BD4680BCF7
:102C1400704780B485B000AF78600B467B80134664
:102C24003B800023FB817B88012202FA03F3FB81B2
:102C34007B681B8C9AB2FB89DB439BB213409AB22C
:102C44007B681A847B681B8C9AB239887B8801FA6A
:102C540003F39BB213439AB27B681A8400BF143700
:102C6400BD4680BC704780B485B000AF78600B4629
:102C74007B8013463B800023FB817B88042202FA7D
:102C840003F3FB817B681B8C9AB2FB89DB439BB209
:102C940013409AB27B681A847B681B8C9AB2398879
:102CA4007B8801FA03F39BB213439AB27B681A84BC
:102CB40000BF1437BD4680BC704780B485B000AFF8
:102CC40078600B467B8013463B800023FB60002327
:102CD4007B817B68FB60FB681833FB607B88012287
:102CE40002FA03F37B817B681B8C9AB27B89DB43FA
:102CF4009BB213409AB27B681A847B88002B02D063
:102D04007B88082B12D17B885B101A46FB6813441E
:102D1400FB60FB681A68FB6822F070021A60FB68AB
:102D240019683A88FB680A431A6016E07B88043BFA
:102D34009BB25B101A46FB681344FB60FB681A687D
:102D4400FB6822F4E0421A60FB681A683B881B02A5
:102D54009BB21946FB680A431A6000BF1437BD468C
:102D640080BC704780B483B000AF78600B46FB70C2
:102D7400FB78002B08D07B681B889BB243F00203CE
:102D84009AB27B681A8007E07B681B889BB223F0A9
:102D940002039AB27B681A8000BF0C37BD4680BC20
:102DA400704780B483B000AF78600B467B807B882B
:102DB400002B08D07B681B889BB243F004039AB2B3
:102DC4007B681A8007E07B681B889BB223F00403AE
:102DD4009AB27B681A8000BF0C37BD4680BC70472E
:102DE40080B483B000AF78600B46FB70FB78002B97
:102DF40008D07B689B889BB243F080039AB27B68BF
:102E04009A8007E07B689B889BB223F080039AB288
:102E14007B689A8000BF0C37BD4680BC704780B485
:102E240083B000AF78600B467B807B681B889BB2C5
:102E340023F008039AB27B681A807B681B889AB2D5
:102E44007B8813439AB27B681A8000BF0C37BD4657
:102E540080BC704780B483B000AF78600B467B8041
:102E64007B689B889BB223F070039AB27B689A803C
:102E74007B689B889AB27B8813439AB27B689A805A
:102E840000BF0C37BD4680BC704780B483B000AF30
:102E940078600B467B807B681B899BB223F0070319
:102EA4009AB27B681A817B681B899AB27B88134328
:102EB4009AB27B681A8100BF0C37BD4680BC70474C
:102EC40080B483B000AF78600B467B807B681B893D
:102ED4009BB223F080039AB27B681A817B681B89BA
:102EE4009AB27B8813439AB27B681A8100BF0C376D
:102EF400BD4680BC704780B483B000AF78600B4699
:102F04007B807B687A889A8400BF0C37BD4680BC7E
:102F1400704780B483B000AF78600B467B807B68D9
:102F24007A889A8500BF0C37BD4680BC704780B450
:102F340083B000AF78600B467B807B687A889A8682
:102F440000BF0C37BD4680BC704780B483B000AF6F
:102F540078600B467B807B687A881A8700BF0C37C1
:102F6400BD4680BC704780B483B000AF78600B4628
:102F74007B807B687A889A8700BF0C37BD4680BC0B
:102F8400704780B483B000AF78600B467B807B6869
:102F94007A88A3F8402000BF0C37BD4680BC704738
:102FA40080B483B000AF78600B467B807B681B8B5A
:102FB4009BB223F00C039AB27B681A837B681B8B49
:102FC4009AB27B8813439AB27B681A8300BF0C378A
:102FD400BD4680BC704780B483B000AF78600B46B8
:102FE4007B807B681B8B9BB223F440639AB27B6823
:102FF4001A837B681B8B9AB27B881B029BB2134398
:103004009AB27B681A8300BF0C37BD4680BC7047F8
:1030140080B483B000AF78600B467B807B689B8B69
:103024009BB223F00C039AB27B689A837B689B8BD8
:103034009AB27B8813439AB27B689A8300BF0C3799
:10304400BD4680BC704780B483B000AF78600B4647
:103054007B807B689B8B9BB223F440639AB27B6832
:103064009A837B689B8B9AB27B881B029BB2134327
:103074009AB27B689A8300BF0C37BD4680BC704708
:1030840080B483B000AF78600B467B807B681B887C
:103094009BB223F440739AB27B681A807B681B88C6
:1030A4009AB27B8813439AB27B681A8000BF0C37AC
:1030B400BD4680BC704780B483B000AF78607B6845
:1030C4009B8E9BB218460C37BD4680BC704780B4BB
:1030D40083B000AF78607B681B8F9BB218460C37B7
:1030E400BD4680BC704780B483B000AF78607B6815
:1030F4009B8F9BB218460C37BD4680BC704780B48A
:1031040083B000AF78607B68B3F840309BB2184658
:103114000C37BD4680BC704780B483B000AF786084
:103124007B689B8C9BB218460C37BD4680BC7047AD
:1031340080B483B000AF78607B681B8D9BB2184667
:103144000C37BD4680BC704780B485B000AF786052
:103154000B467B800023FB737B681B8A9AB27B88B7
:1031640013409BB2002B14BF01230023DBB2002BBE
:1031740002D00123FB7301E00023FB73FB7B1846A1
:103184001437BD4680BC704780B483B000AF78600C
:103194000B467B807B88DB439AB27B681A8200BF34
:1031A4000C37BD4680BC704780B485B000AF7860F2
:1031B4000B467B800023FB730023BB8100237B81B0
:1031C4007B681B8A9AB27B881340BB817B689B898E
:1031D4009AB27B8813407B81BB89002B05D07B8905
:1031E400002B02D00123FB7301E00023FB73FB7B64
:1031F40018461437BD4680BC704780B483B000AF16
:1032040078600B467B807B88DB439AB27B681A82AA
:1032140000BF0C37BD4680BC7047000080B487B047
:1032240000AFF860084611461A4603467B810B46F8
:103234003B811346FB800023BB820023FB82FB6897
:103244001B8C9BB223F001039AB2FB681A84FB68BF
:103254001B8BBB82FB681B8CFB82BB8A23F0F303B2
:10326400BB82FB881B019AB23B8913439AB2BB8A87
:103274001343BB82FB681C4A934213D0FB681B4A6E
:1032840093420FD0FB68B3F1804F0BD0FB68184A10
:10329400934207D0FB68174A934203D0FB68164A4F
:1032A40093420BD1FB8A23F00203FB827A89FB8AC7
:1032B40013439BB243F00103FB820AE0FB8A23F031
:1032C4000A03FB827A89FB8A13439BB243F001030E
:1032D400FB82FB68BA8A1A83FB68FA8A1A8400BFE5
:1032E4001C37BD4680BC7047002C014000340140AF
:1032F4000004004000080040000C004080B487B087
:1033040000AFF860084611461A4603467B810B4617
:103314003B811346FB800023BB820023FB820023F6
:103324007B82FB681B8C9BB223F010039AB2FB6870
:103334001A84FB681B8BBB82FB681B8CFB827B891A
:103344001B017B82BB8A23F440731B051B0DBB82CC
:10335400FB881B039AB2BB8A1343BB823B891B02C3
:103364009AB2BB8A1343BB82FB681C4A934213D0B4
:10337400FB681B4A93420FD0FB68B3F1804F0BD01C
:10338400FB68184A934207D0FB68174A934203D05C
:10339400FB68164A93420BD1FB8A23F02003FB827D
:1033A4007A8AFB8A13439BB243F01003FB820AE040
:1033B400FB8A23F0A003FB827A89FB8A13439BB226
:1033C40043F01003FB82FB68BA8A1A83FB68FA8A0B
:1033D4001A8400BF1C37BD4680BC7047002C0140D6
:1033E400003401400004004000080040000C00408C
:1033F40080B487B000AFF860084611461A46034609
:103404007B810B463B811346FB800023BB82002358
:10341400FB8200237B82FB681B8C9BB223F48073AA
:103424009AB2FB681A84FB689B8BBB82FB681B8C7B
:10343400FB827B891B027B82BB8A23F0F303BB8262
:10344400FB881B019AB23B8913439AB2BB8A13438C
:10345400BB82FB681C4A934213D0FB681B4A93420D
:103464000FD0FB68B3F1804F0BD0FB68184A93422E
:1034740007D0FB68174A934203D0FB68164A93426D
:103484000BD1FB8A23F40073FB827A8AFB8A1343F1
:103494009BB243F48073FB820AE0FB8A23F420632B
:1034A400FB827A89FB8A13439BB243F48073FB82C9
:1034B400FB68BA8A9A83FB68FA8A1A8400BF1C37AD
:1034C400BD4680BC704700BF002C01400034014061
:1034D4000004004000080040000C004080B487B0A5
:1034E40000AFF860084611461A4603467B810B4636
:1034F4003B811346FB800023BB820023FB82002315
:103504007B82FB681B8C9BB223F480539AB2FB68CA
:103514001A84FB689B8BBB82FB681B8CFB827B89B8
:103524001B037B82BB8A23F440731B051B0DBB82E8
:103534003B891B029AB2BB8A1343BB82FB881B03E1
:103544009AB2BB8A1343BB82FB681D4A934213D0D1
:10355400FB681C4A93420FD0FB68B3F1804F0BD039
:10356400FB68194A934207D0FB68184A934203D078
:10357400FB68174A93420BD1FB8A23F40053FB8266
:103584007A8AFB8A13439BB243F48053FB820CE098
:10359400FB8A23F400735B045B0CFB827A89FB8A4D
:1035A40013439BB243F48053FB82FB68BA8A9A8329
:1035B400FB68FA8A1A8400BF1C37BD4680BC70477A
:1035C400002C014000340140000400400008004089
:1035D400000C004080B483B000AF7860054A7B687B
:1035E40043F0BF6343F40033D36000BF0C37BD46E0
:1035F40080BC704700ED00E080B487B000AF786015
:1036040000237B6100233B610F23FB607B68DB7835
:10361400002B38D0254BDB68DB431B0A03F0070380
:103624007B617B69C3F104033B61FA687B6922FA1D
:1036340003F3FB607B685B781A463B6902FA03F389
:103644007B617B689B781A46FB6813407A69134355
:103654007B617B691B017B61154A7B681B787969F7
:10366400C9B213440A4683F800237B681B7803F02D
:103674001F020F497B681B785B11012000FA02F2DC
:1036840041F823200DE07B681B7803F01F020849F2
:103694007B681B785B11012000FA02F2203341F8A9
:1036A400232000BF1C37BD4680BC704700ED00E0FE
:1036B40000E100E080B483B000AF786039603B681B
:1036C40023F0604323F07F0304497A6813438B603B
:1036D40000BF0C37BD4680BC704700BF00ED00E062
:1036E40080B483B000AF03460A46FB711346BB7136
:1036F400BB79002B06D0094B1A69FB7907491343A0
:103704000B6106E0054B1A69FB79DB43034913405F
:103714000B6100BF0C37BD4680BC704700ED00E074
:1037240080B483B000AF78607B68042B06D1094B6A
:103734001B68084A43F00403136005E0054B1B684B
:10374400044A23F00403136000BF0C37BD4680BC59
:10375400704700BF10E000E080B582B000AF786031
:103764007B68264A93420AD101214FF48040FDF739
:1037740083FF00214FF48040FDF77EFF3AE07B6831
:103784001F4A93420AD101214FF40030FDF792FF02
:1037940000214FF40030FDF78DFF2BE07B68194AC0
:1037A40093420AD101214FF48020FDF783FF0021C9
:1037B4004FF48020FDF77EFF1CE07B68124A9342A1
:1037C4000AD101214FF40020FDF774FF00214FF4CA
:1037D4000020FDF76FFF0DE07B680C4A934209D18E
:1037E40001214FF48010FDF765FF00214FF4801094
:1037F400FDF760FF00BF0837BD4680BD00380140BB
:103804000044004000480040004C0040005000408C
:1038140080B58CB000AF786039600023FB62002370
:10382400BB6200237B6200233B620023FB617B6855
:10383400FB617B681B8A9BB2FB62FA6A4CF6FF73DE
:103844001340FB623B68DB881A46FB6A1343FB6246
:10385400FB6A9AB27B681A827B689B899BB2FB6283
:10386400FA6A4EF6F3131340FB623B689A883B688E
:103874001B8913439AB23B685B8913439BB21A4674
:10388400FB6A1343FB62FB6A9AB27B689A817B688A
:103894009B8A9BB2FB62FA6A4FF6FF431340FB62BA
:1038A4003B689B891A46FB6A1343FB62FB6A9AB224
:1038B4007B689A8207F108031846FDF7CDFDFB6982
:1038C400314A934202D17B69BB6201E03B69BB622E
:1038D4007B689B899BB21BB29BB2DB0BDBB2002BD8
:1038E4000CD0BA6A13469B0013449A001A443B68EE
:1038F4001B685B00B2FBF3F37B620BE0BA6A13460E
:103904009B0013449A001A443B681B689B00B2FB5B
:10391400F3F37B627B6A1D4AA2FB03235B091B0151
:10392400FB62FB6A1B09642202FB03F37A6AD31A63
:103934003B627B689B899BB21BB29BB2DB0BDBB205
:10394400002B0CD03B6ADB003233104AA2FB03236A
:103954005B0903F00703FA6A1343FB620BE03B6A5B
:103964001B013233094AA2FB03235B0903F00F0353
:10397400FA6A1343FB62FB6A9AB27B681A8100BF3E
:103984003037BD4680BD00BF003801401F85EB5174
:1039940080B483B000AF78607B684FF416521A602D
:1039A4007B6800229A807B680022DA807B68002290
:1039B4001A817B680C225A817B6800229A8100BF9D
:1039C4000C37BD4680BC704780B485B000AF7860CA
:1039D40039600023FB607B681B8A9BB2FB60FA683A
:1039E4004FF2FF031340FB603B681A883B685B8817
:1039F40013439AB23B689B8813439AB23B68DB88B3
:103A040013439BB21A46FB681343FB60FB689AB2EC
:103A14007B681A8200BF1437BD4680BC704780B4EF
:103A240083B000AF78607B6800221A807B68002234
:103A34005A807B6800229A807B680022DA8000BF6B
:103A44000C37BD4680BC704780B483B000AF78604B
:103A54000B46FB70FB78002B08D07B689B899BB2DC
:103A640043F400539AB27B689A8107E07B689B8990
:103A74009BB223F400539AB27B689A8100BF0C373F
:103A8400BD4680BC704780B487B000AF78600B46F9
:103A94007B8013467B7000233B610023FB60002383
:103AA400BB6000237B617B687B617B88DBB25B113D
:103AB4003B617B8803F01F03FB600122FB6802FA71
:103AC40003F3BB603B69012B03D17B690C337B613E
:103AD40009E03B69022B03D17B6910337B6102E06F
:103AE4007B6914337B617B78002B06D07B69196872
:103AF4007B69BA680A431A6006E07B691968BB6887
:103B0400DA437B690A401A6000BF1C37BD4680BC9B
:103B1400704780B483B000AF78600B467B80134657
:103B24007B707B78002B08D07B689B8A9AB27B8859
:103B340013439AB27B689A8209E07B689B8A9AB2A3
:103B44007B88DB439BB213409AB27B689A8200BFA6
:103B54000C37BD4680BC704780B483B000AF78603A
:103B64000B46FB707B681B8A9BB223F00F039AB24F
:103B74007B681A827B681B8A9AB2FB789BB21343D8
:103B84009AB27B681A8200BF0C37BD4680BC70476E
:103B940080B483B000AF78600B467B807B689B89E0
:103BA4009BB223F400639AB27B689A817B689B89F9
:103BB4009AB27B8813439AB27B689A8100BF0C3710
:103BC400BD4680BC704780B483B000AF78600B46BC
:103BD400FB70FB78002B08D07B689B899BB243F079
:103BE40002039AB27B689A8107E07B689B899BB247
:103BF40023F002039AB27B689A8100BF0C37BD465A
:103C040080BC704780B483B000AF78600B467B8083
:103C14007B681B8A9BB223F020039AB27B681A82CA
:103C24007B681B8A9AB27B8813439AB27B681A8298
:103C340000BF0C37BD4680BC704780B483B000AF72
:103C440078600B46FB70FB78002B08D07B681B8ADE
:103C54009BB243F480439AB27B681A8207E07B6884
:103C64001B8A9BB223F480439AB27B681A8200BFFA
:103C74000C37BD4680BC704780B483B000AF786019
:103C84000B467B807B88C3F308039AB27B689A80D7
:103C940000BF0C37BD4680BC704780B483B000AF12
:103CA40078607B689B889BB2C3F308039BB2184679
:103CB4000C37BD4680BC704780B483B000AF7860D9
:103CC4007B689B899BB243F001039AB27B689A811B
:103CD40000BF0C37BD4680BC704780B483B000AFD2
:103CE40078600B46FB707B681B8B9BB2DBB29AB28D
:103CF4007B681A837B681B8B9AB2FB789BB21B028E
:103D04009BB213439AB27B681A8300BF0C37BD463B
:103D140080BC704780B483B000AF78600B46FB7002
:103D24007B681B8B9BB223F0FF039AB27B681A83D8
:103D34007B681B8B9AB2FB789BB213439AB27B6865
:103D44001A8300BF0C37BD4680BC704780B483B073
:103D540000AF78600B46FB70FB78002B08D07B68C3
:103D64009B8A9BB243F020039AB27B689A8207E055
:103D74007B689B8A9BB223F020039AB27B689A8269
:103D840000BF0C37BD4680BC704780B483B000AF21
:103D940078600B46FB70FB78002B08D07B689B8A0D
:103DA4009BB243F010039AB27B689A8207E07B6867
:103DB4009B8A9BB223F010039AB27B689A8200BF5D
:103DC4000C37BD4680BC704780B483B000AF7860C8
:103DD4000B46FB70FB78002B08D07B689B8A9BB258
:103DE40043F008039AB27B689A8207E07B689B8A57
:103DF4009BB223F008039AB27B689A8200BF0C3707
:103E0400BD4680BC704780B483B000AF78600B4679
:103E1400FB70FB78002B0AD07B689B899BB26FEA0E
:103E240043436FEA53439AB27B689A8107E07B6805
:103E34009B899BB2C3F30E039AB27B689A8100BF3D
:103E44000C37BD4680BC704780B483B000AF786047
:103E54000B46FB70FB78002B08D07B689B8A9BB2D7
:103E640043F400639AB27B689A8207E07B689B8A7A
:103E74009BB223F400639AB27B689A8200BF0C372A
:103E8400BD4680BC704780B483B000AF78600B46F9
:103E94007B807B689B8A9BB223F004039AB27B6885
:103EA4009A827B689B8A9AB27B8813439AB27B6816
:103EB4009A8200BF0C37BD4680BC704780B483B083
:103EC40000AF78600B46FB70FB78002B08D07B6852
:103ED4009B8A9BB243F002039AB27B689A8207E002
:103EE4007B689B8A9BB223F002039AB27B689A8216
:103EF40000BF0C37BD4680BC704780B485B000AFAE
:103F040078600B467B800023FB737B681B889AB226
:103F14007B8813409BB2002B14BF01230023DBB228
:103F2400002B02D00123FB7301E00023FB73FB7B16
:103F340018461437BD4680BC704780B483B000AFC8
:103F440078600B467B807B88DB439AB27B681A805F
:103F540000BF0C37BD4680BC704780B487B000AF4B
:103F640078600B467B800023FB6000237B61002389
:103F7400BB600023FB747B88DBB25B11BB607B8876
:103F840003F01F037B6101227B6902FA03F37B6167
:103F9400BB68012B07D17B689B899BB21A467B695E
:103FA40013407B6111E0BB68022B07D17B681B8A3D
:103FB4009BB21A467B6913407B6106E07B689B8A4F
:103FC4009BB21A467B6913407B617B881B12FB60A2
:103FD4000122FB6802FA03F3FB607B681B889BB237
:103FE4001A46FB681340FB607B69002B05D0FB6815
:103FF400002B02D00123FB7401E00023FB74FB7C43
:1040040018461C37BD4680BC704780B485B000AFED
:1040140078600B467B800023FB810023BB817B8877
:104024001B12FB81FB89012202FA03F3BB81BB89CA
:10403400DB439AB27B681A8000BF1437BD4680BC4C
:104044007047000080B485B000AF78600023FB6047
:10405400094B1B68FB60FB6803F03803FB60FA68DC
:104064007B681343FB60044AFB68136000BF14378A
:10407400BD4680BC704700BF0020024080B483B0BE
:1040840000AF7860084B1B68074A23F008031360ED
:10409400054B1A6804497B6813430B6000BF0C3757
:1040A400BD4680BC704700BF0020024080B483B08E
:1040B40000AF7860084B1B68074A23F010031360B5
:1040C400054B1A6804497B6813430B6000BF0C3727
:1040D400BD4680BC704700BF0020024080B400AFE2
:1040E400044B054A5A60034B044A5A6000BFBD465C
:1040F40080BC70470020024023016745AB89EFCDA7
:1041040080B400AF044B054A5A60034B044A5A601A
:1041140000BFBD4680BC70470020024023016745B4
:10412400AB89EFCD80B400AF044B1B69034A43F065
:104134008003136100BFBD4680BC7047002002406D
:1041440080B400AF044B1B69034A43F0800313613E
:1041540000BFBD4680BC70470020024080B584B0DB
:1041640000AF78600423FB734FF4302000F00CFCA4
:104174000346FB73FB7B042B1BD1104B1B690F4ABB
:1041840043F0020313610D4A7B6853610B4B1B69B7
:104194000A4A43F0400313614FF4302000F0F4FB6B
:1041A4000346FB73054B1A69044941F6FD7313403A
:1041B4000B61FB7B18461037BD4680BD00200240D2
:1041C40080B582B000AF0423FB714FF4302000F0BF
:1041D400DBFB0346FB71FB79042B18D10E4B1B69E7
:1041E4000D4A43F0040313610B4B1B690A4A43F065
:1041F400400313614FF4302000F0C6FB0346FB710B
:10420400054B1A69044941F6FB7313400B61FB79B2
:1042140018460837BD4680BD0020024080B582B0F4
:1042240000AF0423FB714FF4302000F0CFFB0346B2
:10423400FB71FB79042B18D10E4B1B690D4A43F01B
:10424400040313610B4B1B690A4A43F040031361D7
:104254004FF4302000F0BAFB0346FB71054B1A699A
:10426400044941F6FB7313400B61FB791846083788
:10427400BD4680BD0020024080B582B000AFA523BA
:10428400FB8004237B7100F071FA0346002B14BFFA
:1042940001230023DBB2002B01D00023FB804FF469
:1042A400302000F071FB03467B717B79042B45D1F0
:1042B400254B264A9A60244B254A9A60224B1B6957
:1042C400214A43F0200313611F4B1B691E4A43F02C
:1042D400400313614FF4302000F056FB03467B711A
:1042E4007B79042B20D1184B1A69174941F6DF73E7
:1042F40013400B61144B1B69134A43F01003136101
:10430400144AFB8813804FF4005000F03DFB034631
:104314007B717B79052B11D00B4B1A690A4941F645
:10432400EF7313400B6109E07B79052B06D0064B34
:104334001A69054941F6EF7313400B617B791846FE
:104344000837BD4680BD00BF0020024023016745F9
:10435400AB89EFCD00F8FF1F80B584B000AF786063
:1043640039600423FB730023BB604FF4005000F05A
:104374000BFB0346FB73FB7B042B2FD11A4B1B69EE
:10438400194A43F0010313617B683A6892B21A80B8
:104394004FF4005000F0F8FA0346FB73FB7B042B48
:1043A40015D17B680233BB603B681A0CBB6892B2C0
:1043B4001A804FF4005000F0E7FA0346FB730A4BEF
:1043C4001A69094941F6FE7313400B6106E0064B76
:1043D4001A69054941F6FE7313400B61FB7B1846CD
:1043E4001037BD4680BD00BF0020024080B584B0B8
:1043F40000AF78600B467B800423FB734FF40050BE
:1044040000F0C2FA0346FB73FB7B042B15D10D4B62
:104414001B690C4A43F0010313617B687A881A8094
:104424004FF4005000F0B0FA0346FB73054B1A69D1
:10443400044941F6FE7313400B61FB7B18461037A9
:10444400BD4680BD0020024080B584B000AF7860D6
:104454000B46FB700423FB734FF4005000F094FAF6
:104464000346FB73FB7B042B1FD1124B124A9A6049
:10447400104B124A9A600F4B1B690E4A43F010030B
:1044840013617B68FA7892B21A804FF4005000F0FE
:104494007BFA0346FB73FB7B052B06D0054B1A699D
:1044A400044941F6EF7313400B61FB7B1846103748
:1044B400BD4680BD0020024023016745AB89EFCD96
:1044C40080B586B000AF78604FF6FF73BB824FF6BD
:1044D400FF737B824FF6FF733B824FF6FF73FB81C2
:1044E4000423FB757B68DB437B607B689BB2DBB298
:1044F400BB827B681B0A9BB2DBB27B827B681B0C92
:104504009BB2DBB23B827B681B0EFB814FF40050F5
:1045140000F03AFA0346FB75FB7D042B4ED12A4B7F
:104524002A4A9A60284B2A4A9A60274B1B69264AD2
:1045340043F010031361BB8AFF2B08D0254ABB8AC2
:1045440013814FF4005000F01FFA0346FB75FB7D06
:10455400042B0BD17B8AFF2B08D01E4A7B8A538104
:104564004FF4005000F010FA0346FB75FB7D042B5A
:104574000BD13B8AFF2B08D0164A3B8A93814FF418
:10458400005000F001FA0346FB75FB7D042B0BD1B0
:10459400FB89FF2B08D00F4AFB89D3814FF40050CD
:1045A40000F0F2F90346FB75FB7D052B06D0064BA4
:1045B4001A69054941F6EF7313400B61FB7D1846F8
:1045C4001837BD4680BD00BF002002402301674567
:1045D400AB89EFCD00F8FF1F80B584B000AF034670
:1045E400FB710423FB734FF4302000F0CDF9034634
:1045F400FB73FB7B042B4CD1284B294A9A60274B35
:10460400284A9A60254B1B69244A43F0200313610E
:10461400224B1B69214A43F0400313614FF43020BD
:1046240000F0B2F90346FB73FB7B042B27D11B4B31
:104634001A691A4941F6DF7313400B61174B1B6962
:10464400164A43F010031361FB79002B03D0164B79
:1046540000221A8002E0144BA5221A804FF4302065
:1046640000F092F90346FB73FB7B052B11D00B4B37
:104674001A690A4941F6EF7313400B6109E0FB7BA9
:10468400052B06D0054B1A69044941F6DF73134024
:104694000B61FB7B18461037BD4680BD00200240ED
:1046A40023016745AB89EFCD00F8FF1F80B584B0C7
:1046B40000AF0346FB800B46BB8013467B8004237C
:1046C400FB731B4B1B4A9A60194B1B4A9A604FF4AD
:1046D400005000F059F90346FB73FB7B042B21D1F6
:1046E400134B1B69124A43F0100313617A88BB8889
:1046F40013439AB2FB8813439BB2104A43F0F80366
:104704009BB253804FF4005000F03EF90346FB7314
:10471400FB7B052B06D0064B1A69054941F6EF735E
:1047240013400B61FB7B18461037BD4680BD00BFAC
:104734000020024023016745AB89EFCD00F8FF1F3D
:1047440080B400AF034BDB699B081846BD4680BCB0
:10475400704700BF0020024080B400AF024B1B6AC8
:104764001846BD4680BC70470020024080B483B028
:1047740000AF0023FB710B4BDB6903F00203002B3A
:1047840014BF01230023DBB2002B02D00123FB71F1
:1047940001E00023FB71FB7918460C37BD4680BC51
:1047A400704700BF0020024080B483B000AF0023F4
:1047B400FB710B4B1B6803F02003002B14BF012378
:1047C4000023DBB2002B02D00123FB7101E00023A4
:1047D400FB71FB7918460C37BD4680BC704700BF9F
:1047E4000020024080B483B000AF78600B46FB70B9
:1047F400FB78002B06D0094B1A6908497B681343E0
:104804000B6106E0054B1A697B68DB4303491340DF
:104814000B6100BF0C37BD4680BC704700200240CE
:1048240080B485B000AF78600023FB737B68012BF4
:1048340010D1134BDB6903F00103002B14BF0123D8
:104844000023DBB2002B02D00123FB7312E0002310
:10485400FB730FE00A4BDA687B681340002B14BF2C
:1048640001230023DBB2002B02D00123FB7301E000
:104874000023FB73FB7B18461437BD4680BC70478E
:104884000020024080B483B000AF7860034A7B68A4
:10489400D36000BF0C37BD4680BC70470020024087
:1048A40080B483B000AF0423FB71194BDB6803F0C1
:1048B4000103012B0CBF01230023DBB2002B02D028
:1048C4000123FB711DE0124BDB6803F00403002B92
:1048D40014BF01230023DBB2002B02D00223FB719F
:1048E4000FE00B4BDB6803F01003002B14BF012314
:1048F4000023DBB2002B02D00323FB7101E004236D
:10490400FB71FB7918460C37BD4680BC704700BF6D
:104914000020024080B483B000AF0423FB71194B24
:10492400DB6803F00103012B0CBF01230023DBB27E
:10493400002B02D00123FB711DE0124BDB6803F056
:104944000403002B14BF01230023DBB2002B02D08D
:104954000223FB710FE00B4BDB6803F01003002B09
:1049640014BF01230023DBB2002B02D00323FB710D
:1049740001E00423FB71FB7918460C37BD4680BC6B
:10498400704700BF0020024080B584B000AF78605B
:104994000423FB73FFF7BEFF0346FB73FB7B012B72
:1049A4000AD17B68002B07D0FFF7B4FF0346FB73E3
:1049B4007B68013B7B60F1E77B68002B01D1052319
:1049C400FB73FB7B18461037BD4680BD80B584B0B1
:1049D40000AF78600423FB73FFF79CFF0346FB736F
:1049E400FB7B012B0AD17B68002B07D0FFF792FFDA
:1049F4000346FB737B68013B7B60F1E77B68002B1C
:104A040001D10523FB73FB7B18461037BD4680BDDF
:104A140008B5074B044613B10021AFF30080054BE2
:104A24001868836A03B19847204600F04DFD00BF23
:104A3400000000001055000870B500250C4E0D4C08
:104A4400A41BA410A54209D100F07CFD00250A4E48
:104A54000A4CA41BA410A54205D170BD56F82530FC
:104A640098470135EEE756F8253098470135F2E7C7
:104A74006C5500086C5500086C550008705500080A
:104A840003460244934200D1704703F8011BF9E73F
:104A94000CB400B59DB0029106916FF000411EABBD
:104AA40007910491074953F8042B059102A9019336
:104AB40000F0FCF80022029B1A701DB05DF804EBB4
:104AC40002B070470802FFFF0EB46FF0004100B55A
:104AD4009CB01DAB029006900791049108480949C7
:104AE40053F8042B0591006802A9019300F0DEF845
:104AF4000022029B1A701CB05DF804EB03B07047EF
:104B04002C0000200802FFFF2DE9F0478E68824642
:104B14009E420C469046994637D88A8912F4906F83
:104B240031D00223256809696F1A656905EB4505CB
:104B340095FBF3F509F101033B449D4238BF1D4643
:104B4400530530D5294600F0ADFB064650B90C2379
:104B54004FF0FF30CAF80030A38943F04003A3812B
:104B6400BDE8F0873A46216900F02CFBA38923F4C1
:104B7400906343F08003A38126613E4426604E4641
:104B84006561ED1BA5604E4500D94E46324641464F
:104B9400206800F022FBA36800209B1BA36023680D
:104BA4001E442660DCE72A4600F0D6FB06460028B1
:104BB400E2D12169504600F029FBC8E793682DE94A
:104BC400F74F81460C461646002B5ED04FF0000B83
:104BD4005F46D2F800A057B3A3689F4240D3A2898E
:104BE40012F4906F3CD0022325682169A5EB0108DB
:104BF400656905EB450595FBF3F508F101033B44B5
:104C04009D4238BF1D46530544D52946484600F009
:104C140049FB88B90C23C9F80030A3894FF0FF3051
:104C240043F04003A3810023C6E901332FE0DAE90E
:104C340000B70AF1080ACEE742462169019000F064
:104C4400C1FAA289019B22F4906242F08002A281FF
:104C54002361434423603B466561A5EB0805A560D9
:104C6400BB4228BF3B4659461A462068019300F0D0
:104C7400B4FAA268019BD21AA2602268134423608A
:104C8400B368DF1BB760002FD1D10020706003B080
:104C9400BDE8F08F2A46484600F05EFB0346002834
:104CA400D6D12169484600F0B1FAB3E72DE9F04FB7
:104CB4009DB003938B8980461D060C4616460FD57E
:104CC4000B696BB9402100F0EDFA2060206128B92E
:104CD4000C23C8F800304FF0FF30C7E04023636175
:104CE4000023099320238DF8293030234FF0010B42
:104CF4008DF82A3037463D4615F8013B0BB1252B7C
:104D04003ED1B7EB060A0BD0534632462146404605
:104D1400FFF7FAFE013000F0A480099B5344099385
:104D24003B78002B00F09D8000234FF0FF32CDE94B
:104D34000523049307938DF853301A932F460522C5
:104D440017F8011B4F4800F02FFA049BD0B9D9067D
:104D540044BF20228DF853201A0744BF2B228DF81C
:104D640053202A782A2A15D02F4600200A25079A8C
:104D7400394611F8013B303B092B4DD9B8B10FE04E
:104D84002F46B8E73F4A3D46801A0BFA00F0184315
:104D94000490D3E7039A111D12680391002A01DBE2
:104DA400079204E0524243F00203079204933B78D3
:104DB4002E2B0CD17B782A2B33D1039B02371A1D5F
:104DC4001B680392002BB8BF4FF0FF3305932E4DA1
:104DD40003223978284600F0E7F938B14023401B14
:104DE40003FA00F0049B0137034304933978062245
:104DF40026487E1C8DF8281000F0D6F9002838D0FB
:104E0400234B13BB039B073323F00703083303939C
:104E1400099B4B4409936DE705FB023201200F46C1
:104E2400A6E700230A25194601370593384610F8EA
:104E3400012B303A092A03D9002BC8D00591C6E7C3
:104E440005FB012101230746F0E703AB009322464B
:104E5400104B04A94046AFF30080B0F1FF3F8146F8
:104E6400D6D1A3895B063FF536AF09981DB0BDE8DE
:104E7400F08F03AB00932246064B04A9404600F092
:104E840081F8EAE7145500081A5500081E55000871
:104E9400000000000D4B00082DE9F04791461F4625
:104EA4008A680B6906469342B8BF1346C9F80030B6
:104EB40091F843200C46DDF8208012B10133C9F883
:104EC40000302368990642BFD9F800300233C9F88C
:104ED4000030256815F0060507D104F1190AE368C6
:104EE400D9F800209B1AAB4229DC94F8433022689D
:104EF400003318BF012392062ED404F1430239462D
:104F04003046C047013021D02368E56803F006032A
:104F1400042B18BF0025D9F800204FF0000908BF62
:104F2400AD1AA368226908BF25EAE5759342C4BF98
:104F34009B1AED181A344D451AD1002008E00123BC
:104F4400524639463046C047013003D14FF0FF3056
:104F5400BDE8F0870135C2E73020E11881F843004D
:104F64005A1C94F845102244023382F84310C4E7D3
:104F74000123224639463046C0470130E6D009F1C4
:104F84000109D8E72DE9F04301F1430C0C46097EF1
:104F940085B06E291746064698460C9A00F0B380F1
:104FA40022D8632936D00AD8002900F0B9805829BC
:104FB40000F0838004F1420584F8421032E0642951
:104FC40001D06929F6D120681368050603F10401AC
:104FD4002AD51B681160002B03DA2D225B4284F86A
:104FE40043206F480A2239E0732900F09D8008D8D5
:104FF4006F2920D07029DDD1236843F0200323607A
:1050040003E0752917D07829D4D17823654884F82A
:10501400453055E0136804F14205191D1B68116001
:1050240084F8423001238CE01B6810F0400F1160BB
:1050340018BF1BB2CFE713682568181D1060280637
:1050440001D51B6802E06806FBD51B886F2914BFD5
:105054000A2208225248002184F843106568002D72
:10506400A560C0F29580216821F004012160002B25
:105074003DD1002D40F08E806546082A0BD123686F
:10508400DB0708D5236962689A42DEBF302305F83E
:10509400013C05F1FF35ACEB05032361CDF800803D
:1050A4003B4603AA21463046FFF7F6FE01304DD1B8
:1050B4004FF0FF3005B0BDE8F083394884F845105F
:1050C400136821681D1D1B6815600A060BD5CA07E5
:1050D40044BF41F0200121601BB9226822F0200264
:1050E40022601022B7E74D0648BF9BB2EFE7654642
:1050F400B3FBF2F102FB1133C35C05F8013D0B462F
:105104000029F5D1B9E713682568181D6169106095
:1051140028061B6801D5196002E06A06FBD51980D0
:10512400002365462361B9E71368191D11601D68E2
:1051340062680021284600F037F808B1401B60601F
:1051440063682361002384F84330A7E723692A4670
:1051540039463046C0470130AAD023689B0713D490
:10516400E068039B9842B8BF1846A3E701234A4668
:1051740039463046C04701309AD00135E368039A76
:105184009B1AAB42F2DCEBE7002504F11909F5E7C1
:10519400002BACD1037804F1420584F842306CE76B
:1051A400255500083655000810B5C9B2024490428E
:1051B400034601D1002303E01C7801308C42F6D170
:1051C400184610BD10B5431E0A44914200D110BDCB
:1051D40011F8014B03F8014FF7E7884210B501EBD2
:1051E400020307D8421E99420AD011F8014B02F873
:1051F400014FF8E78342F5D98118D21AD34200D17E
:1052040010BD13F8014D01F8014DF7E738B5054617
:10521400002943D051F8043C0C1F002BB8BFE418FC
:1052240000F0D0F81E4A1368104633B96360146066
:105234002846BDE8384000F0C6B8A3420BD921681F
:105244006218934201BF1A685B6852182260636057
:105254000460EDE713465A680AB1A242FAD9196804
:105264005818A0420BD12068014458188242196092
:10527400DED110685268014419605A60D8E702D937
:105284000C232B60D4E7206821188A4201BF1168DF
:1052940052680918216062605C60C9E738BD00BFCC
:1052A4005C05002070B5CD1C25F0030508350C2DD8
:1052B40038BF0C25002D064601DBA94203D90C2377
:1052C4003360002070BD00F07DF8214A1468214647
:1052D40091B9204C23681BB9304600F063F8206074
:1052E4002946304600F05EF8431C24D10C23304696
:1052F400336000F068F8E4E70B685B1B18D40B2BF1
:105304000FD90B60CC18CD50304600F05CF804F196
:105314000B00231D20F00700C31AD3D05A42E250D9
:10532400D0E74B688C4216BF636013600C46EBE712
:105334000C464968CCE7C41C24F00304A04205D001
:10534400211A304600F02EF80130CFD02560DBE77B
:105354005C05002060050020F8B5074614460E469B
:1053640021B9BDE8F8401146FFF79CBF22B9FFF709
:105374004DFF25462846F8BD00F026F8A0420FD27E
:1053840021463846FFF78EFF05460028F2D0314605
:105394002246FFF717FF31463846FFF737FFE9E7A4
:1053A4003546E7E738B50023054C05460846236033
:1053B40000F07CF8431C02D1236803B12B6038BD94
:1053C400680500207047704751F8043C181F002BF3
:1053D400BCBF0B58C018704738B50C460968054661
:1053E40009B1FFF7F9FF21462846BDE83840FFF729
:1053F4000DBF00002C4B70B51B680446834251D08E
:10540400436A43B1DB68002B4AD1636A196811B15E
:105414002046FFF7FBFE616911B12046FFF7F6FE57
:10542400616A11B12046FFF7F1FEA16B11B120466C
:10543400FFF7ECFEE16B11B12046FFF7E7FE216CAC
:1054440011B12046FFF7E2FEE16D11B12046FFF7EE
:10545400DDFEA16D11B12046FFF7D8FE616B11B1DD
:105464002046FFF7D3FEA369E3B1A36A2046984719
:10547400A16CB9B12046BDE87040FFF7ADBF4959F2
:1054840041B90435636A802DD968F8D12046FFF705
:10549400BDFEBAE70E682046FFF7B8FE3146EFE7D7
:1054A4000025EFE770BD00BF2C000020044A054929
:1054B4001368002B08BF0B46184410601846704749
:1054C400640500206C050020FEE700BF6469737466
:1054D400616E63652025646D0973706565642025BC
:1054E400646D2F73090000007573696E6720746919
:1054F4006D65202564730A006176675F7370656566
:10550400642025646D2F730A000000003000002021
:10551400232D302B2000686C4C0065666745464798
:10552400003031323334353637383941424344451B
:10553400460030313233343536373839616263648A
:1055440065660000F8B500BFF8BC08BC9E4670470D
:0C555400F8B500BFF8BC08BC9E467047CC
:045560000000000047
:0855640000ACFF7F0100000014
:04556C0049010008E9
:045570002501000809
:105574000000000000A24A04000000000000000037
:1055840001020304060708090000000001020304E5
:10559400010203040607080902040608300000207B
:1055A40000000000000000000000000000000000F7
:1055B40000000000000000000000000000000000E7
:1055C40000000000000000000000000000000000D7
:1055D40000000000000000000000000000000000C7
:04000005080009CD19
:00000001FF
