:020000040800F2
:1000000000500020310D0008730500087505000838
:1000100077050008790500087B050008000000004E
:100020000000000000000000000000007D05000846
:100030007F05000800000000810500088305000816
:10004000790D0008790D0008790D0008790D000878
:10005000790D0008790D0008790D0008790D000868
:10006000790D0008790D0008790D0008790D000858
:10007000790D0008790D0008790D0008790D000848
:10008000790D0008790D0008790D0008790D000838
:10009000790D0008790D0008790D0008790D000828
:1000A000790D0008790D0008790D0008790D000818
:1000B000790D0008790D0008790D0008790D000808
:1000C000790D0008790D0008790D0008790D0008F8
:1000D000790D0008790D0008790D0008790D0008E8
:1000E000790D0008790D0008790D00080000000066
:1000F0000000000000000000000000000000000000
:0C01000000000000000000005FF808F1A3
:10010C0010B5054C237833B9044B13B10448AFF345
:10011C0000800123237010BD0C00002000000000A3
:10012C00C40D000808B5034B1BB103490348AFF3DA
:10013C00008008BD0000000010000020C40D000865
:10014C00F0B482B000263546A1E0002C59D0012C29
:10015C0000D1CE68FF2B68D88446FF2B68D8AC0042
:10016C00DCF800200F27A74022EA070206FA04F465
:10017C002243CCF800204A6812F0805F00F08680A1
:10018C005E4A946944F001049461926902F00102A0
:10019C000192019AAC08A71C594A52F8272005F085
:1001AC000307BF004FF00F0C0CFA07FC22EA0C0CF3
:1001BC00544A904242D002F5806290427FD002F5C0
:1001CC00806290427DD002F58062904234D004224D
:1001DC0035E04D4FBC4214D00BD94C4FBC4210D023
:1001EC0007F58037BC420CD0A7F58017BC42B1D1C3
:1001FC0007E0A7F58017BC4203D007F58037BC4257
:10020C00A8D18C687CB1012C08D042610826A1E7EA
:10021C00CE6808369EE7CE680C369BE7026108264E
:10022C0098E7002696E7042694E700F1040C94E77F
:10023C00A5F10804A40093E7032200E00022BA40D1
:10024C0042EA0C0202342E4F47F824204A6812F47A
:10025C00803F38D02E4C22681A4322604A6812F430
:10026C00003F36D02A4C62681A4362604A6812F426
:10027C00801F34D0264CA2681A43A2604A6812F43C
:10028C00001F32D0224CE2681343E36001350F2D7E
:10029C0031D80122AA400B6813409A42F6D14C681F
:1002AC00122CB8D095D8022CB2D07FF64EAF032CBE
:1002BC00B7D0112C7FF44EAFCE6804364AE701223A
:1002CC00BDE70222BBE7124C226822EA030222603D
:1002DC00C4E70F4C626822EA03026260C6E70C4C6A
:1002EC00A26822EA0302A260C8E7094CE26822EA8B
:1002FC000303E360CAE702B0F0BC70470010024091
:10030C0000000140000801400000211000003110E5
:10031C00000401408368194201D10020704701207C
:10032C00704712B909040161704701617047C368D5
:10033C005940C1607047000000B583B0204B9A69EA
:10034C0042F001029A619B6903F001030193019B46
:10035C00032000F097F8002211466FF00B0000F01C
:10036C00A3F8002211466FF00A0000F09DF800225D
:10037C0011466FF0090000F097F8002211466FF05B
:10038C00040000F091F8002211466FF0030000F019
:10039C008BF8002211466FF0010000F085F8002266
:1003AC0011464FF0FF3000F07FF8064A536823F0F7
:1003BC00E06343F08063536003B05DF804FB00BF5F
:1003CC00001002400000014010B504460E4B187896
:1003DC004FF47A73B3FBF0F30C4A1068B0FBF3F0F4
:1003EC0000F096F868B90F2C01D901200AE0002220
:1003FC0021464FF0FF3000F057F8054B1C600020F1
:10040C0000E0012010BD00BF00000020080000200B
:10041C000400002008B5074A136843F0100313606A
:10042C00032000F02FF80020FFF7CEFFFFF784FF2A
:10043C00002008BD00200240034A1168034B1B78C2
:10044C000B441360704700BF280000200000002000
:10045C00014B1868704700BF2800002038B50446CF
:10046C00FFF7F6FF0546B4F1FF3F02D0044B1B78B3
:10047C001C44FFF7EDFF401BA042FAD338BD00BF70
:10048C0000000020074AD36823F4E0631B041B0C14
:10049C00000200F4E060184340F0BF6040F400300C
:1004AC00D060704700ED00E030B4174BDB68C3F34D
:1004BC000223C3F10704042C28BF04241D1D062DA0
:1004CC0018D9033B4FF0FF3505FA04F421EA040177
:1004DC00994005FA03F322EA0303194300280BDBC6
:1004EC000901C9B200F1604000F5614080F80013C9
:1004FC0030BC70470023E5E700F00F000901C9B2DA
:10050C00024B1954F4E700BF00ED00E014ED00E0DD
:10051C000138B0F1807F0AD2064B5860064AF021B0
:10052C0082F823100020986007221A60704701207F
:10053C00704700BF10E000E000ED00E0042805D09B
:10054C00054A136823F0040313607047024A1368CA
:10055C0043F004031360704710E000E0704708B5E7
:10056C00FFF7FCFF08BD7047FEE7FEE7FEE7FEE77E
:10057C0070477047704708B5FFF75EFFFFF7EFFF56
:10058C0008BD000070B586B01E4B9A6942F004029B
:10059C009A619B6903F004030193019B4FF4007370
:1005AC0002930226039603230593174C02A92046B7
:1005BC00FFF7C6FD4FF48063029300250395049565
:1005CC0002A92046FFF7BCFD02960123039302A962
:1005DC002046FFF7B5FD0423029302A92046FFF73E
:1005EC00AFFD082302930DEB03012046FFF7A8FD96
:1005FC0010230293039502A92046FFF7A1FD06B034
:10060C0070BD00BF0010024000080140FEE7000072
:10061C0000B591B00223069301220A9210220B928C
:10062C000D9300230E934FF4C0130F9306A800F004
:10063C0091F8F8B90F23019302230293002103913F
:10064C000491059101A800F0ABFAB8B900F064FB75
:10065C000C4BA3FB00308009FFF75AFF0420FFF777
:10066C006DFF002211464FF0FF30FFF71DFF11B058
:10067C005DF804FB8A210448FFF7C8FF9821024863
:10068C00FFF7C4FFD34D6210F00D000808B5FFF75B
:10069C00C1FEFFF7BDFFFFF775FF0F4C00220221D3
:1006AC002046FFF73EFE04212046FFF740FE4FF4A4
:1006BC00FA70FFF7D3FE10212046FFF72BFE00281F
:1006CC00EBD108212046FFF732FE10210248FFF73C
:1006DC0021FE0028F9D0E0E7000801400F4B1A6812
:1006EC0042F001021A6059680D4A0A405A601A68B1
:1006FC0022F0847222F480321A601A6822F480226A
:10070C001A605A6822F4FE025A604FF41F029A6073
:10071C00044B4FF000629A60704700BF001002401B
:10072C000000FFF800ED00E082B0084B1B68084A9F
:10073C00A2FB03235B0A00FB03F0019000BF019BAB
:10074C005A1E0192002BF9D102B07047080000200C
:10075C00D34D621070B582B00446036813F0010FDC
:10076C002CD0AB4B5B6803F00C03042B1DD0A84BB7
:10077C005B6803F00C03082B12D06368B3F5803F61
:10078C0041D0002B55D103F1804303F504331A6893
:10079C0022F480321A601A6822F480221A6037E040
:1007AC009B4B5B6813F4803FE7D0994B1B6813F4A9
:1007BC00003F03D06368002B00F0AE81236813F078
:1007CC00020F76D0924B5B6813F00C0F5FD0904BFE
:1007DC005B6803F00C03082B54D02369002B00F04A
:1007EC008A808C4B01221A60FFF732FE0546884B3B
:1007FC001B6813F0020F75D1FFF72AFE401B02286D
:10080C00F5D903208BE1824A136843F480331360DB
:10081C00636843B3FFF71CFE05467D4B1B6813F45E
:10082C00003FCBD1FFF714FE401B6428F5D9032001
:10083C0075E1B3F5A02F09D0754B1A6822F48032FC
:10084C001A601A6822F480221A60E1E703F18043EF
:10085C00A3F53C331A6842F480221A601A6842F4F9
:10086C0080321A60D4E7FFF7F3FD0546684B1B682E
:10087C0013F4003FA2D0FFF7EBFD401B6428F5D921
:10088C0003204CE1624B5B6813F4803FA5D1604BB5
:10089C001B6813F0020F04D02369012B01D0012037
:1008AC003DE15B4A136823F0F803616943EAC10335
:1008BC001360236813F0080F32D0A369002B5BD0B0
:1008CC00554B01221A60FFF7C3FD0546504B5B6A7E
:1008DC0013F0020F21D1FFF7BBFD401B0228F5D905
:1008EC0003201CE14A4A136823F0F803616943EAC8
:1008FC00C1031360DDE7474B00221A60FFF7A8FD28
:10090C000546434B1B6813F0020FD2D0FFF7A0FD36
:10091C00401B0228F5D9032001E10120FFF704FF59
:10092C00236813F0040F00F09780394BDB6913F048
:10093C00805F33D1364BDA6942F08052DA61DB6981
:10094C0003F080530193019B0125344B1B6813F476
:10095C00807F25D0E368012B36D0002B4CD103F1DE
:10096C00804303F504331A6A22F001021A621A6AF0
:10097C0022F004021A622CE0274B00221A60FFF7C7
:10098C0067FD0546224B5B6A13F0020FC8D0FFF7D8
:10099C005FFD401B0228F5D90320C0E00025D4E7F9
:1009AC001E4A136843F480731360FFF751FD06462B
:1009BC001A4B1B6813F4807FCCD1FFF749FD801BC9
:1009CC006428F5D90320AAE0114A136A43F0010305
:1009DC001362E36873B3FFF73BFD06460C4B1B6ACF
:1009EC0013F0020F37D1FFF733FD801B41F2883330
:1009FC009842F3D9032092E0052B11D0044B1A6ACC
:100A0C0022F001021A621A6A22F004021A62E0E76A
:100A1C00001002400000424280044242007000403C
:100A2C00414B1A6A42F004021A621A6A42F001023D
:100A3C001A62CEE7FFF70CFD06463B4B1B6A13F020
:100A4C00020F08D0FFF704FD801B41F28833984257
:100A5C00F3D9032063E0E5B9E369002B5ED0324A99
:100A6C00526802F00C02082A5BD0022B17D02F4BD5
:100A7C0000221A60FFF7ECFC04462B4B1B6813F0AA
:100A8C00007F47D0FFF7E4FC001B0228F5D90320B8
:100A9C0045E0254AD36923F08053D361DCE7234B2F
:100AAC0000221A60FFF7D4FC05461F4B1B6813F09D
:100ABC00007F06D0FFF7CCFC401B0228F5D90320A1
:100ACC002DE0236AB3F5803F1AD017494B6823F405
:100ADC007413226A606A024313434B60134B012266
:100AEC001A60FFF7B5FC04460F4B1B6813F0007F30
:100AFC000ED1FFF7ADFC001B0228F5D903200EE048
:100B0C00094A536823F40033A1680B435360DCE7B4
:100B1C00002004E0002002E0012000E0002002B0F0
:100B2C0070BD0120FBE700BF001002406000424294
:100B3C0010B487B0164C94E80F000DF1180C0CE9AA
:100B4C000F00238AADF80430124B5B6803F00C02E3
:100B5C00082A1AD1C3F38342624412F8102C13F4FE
:100B6C00803F05D10C4800FB02F007B010BC704769
:100B7C00084B5B68C3F34043634413F8143C0748C9
:100B8C0000FB02F0B0FBF3F0EFE70448EDE700BF29
:100B9C00DC0D00080010024000093D0000127A0034
:100BAC00594B1B6803F007038B420CD2564A13684F
:100BBC0023F007030B431360136803F007038B4206
:100BCC0001D00120704770B5036813F0020F06D0F6
:100BDC004E4A536823F0F0038468234353600C4659
:100BEC000546036813F0010F52D04368012B23D044
:100BFC00022B28D0454A126812F0020F00F08280B6
:100C0C0042494A6822F0030213434B60FFF720FC71
:100C1C0006466B68012B1DD0022B2AD03B4B5B6820
:100C2C0013F00C0F34D0FFF713FC801B41F2883308
:100C3C009842F3D9032064E0344A126812F4003F5E
:100C4C00DED101205DE0314A126812F0007FD7D16D
:100C5C00012056E02D4B5B6803F00C03042B17D0DE
:100C6C00FFF7F6FB801B41F288339842F2D9032040
:100C7C0047E0264B5B6803F00C03082B08D0FFF70A
:100C8C00E7FB801B41F288339842F2D9032038E00D
:100C9C001D4B1B6803F00703A3420CD91A4A1368B7
:100CAC0023F0070323431360136803F00703A342E5
:100CBC0001D0012025E02B6813F0040F06D0134A55
:100CCC00536823F4E063E9680B4353602B6813F01B
:100CDC00080F07D00D4A536823F46053296943EA7F
:100CEC00C1035360FFF724FF084B5B68C3F3031386
:100CFC00074AD35CD840074B18600020FFF764FB11
:100D0C00002070BD0120FCE70020024000100240D2
:100D1C00FC0D000808000020014B1868704700BF4C
:100D2C0008000020002103E00B4B5B5843500431BA
:100D3C000A480B4B42189A42F6D30A4A02E00023A7
:100D4C0042F8043B084B9A42F9D3FFF7C7FC00F07A
:100D5C000FF8FFF79BFC7047140E000800000020F2
:100D6C000C0000200C0000202C000020FEE70000EE
:100D7C0070B500250C4E0D4CA41BA410A54209D136
:100D8C0000F01AF800250A4E0A4CA41BA410A54228
:100D9C0005D170BD56F8253098470135EEE756F869
:100DAC00253098470135F2E70C0E00080C0E0008B0
:100DBC000C0E0008100E0008F8B500BFF8BC08BCFB
:100DCC009E467047F8B500BFF8BC08BC9E467047FD
:100DDC0002030405060708090A0B0C0D0E0F101070
:100DEC00010200005372632F6D61696E2E63000067
:100DFC0000000000000000000102030406070809BF
:040E0C0031010008A8
:040E10000D010008C8
:0C0E1400010000001000000000A24A04D1
:0400000508000D31B1
:00000001FF
