:020000040800F2
:100000000050002085110008151100081711000884
:10001000191100081B1100081D1100080000000044
:100020000000000000000000000000001F11000898
:10003000211100080000000023110008251100080C
:10004000CD110008CD110008CD110008CD11000818
:10005000CD110008CD110008CD110008CD11000808
:10006000CD110008CD110008CD110008CD110008F8
:10007000CD110008CD110008CD110008CD110008E8
:10008000CD110008CD110008CD110008CD110008D8
:10009000CD110008CD110008CD110008CD110008C8
:1000A000CD110008CD110008CD110008CD110008B8
:1000B000CD110008CD110008CD110008CD110008A8
:1000C000CD110008CD110008CD110008CD11000898
:1000D000CD110008CD110008CD110008CD11000888
:1000E000CD110008CD110008CD110008000000005E
:1000F0000000000000000000000000000000000000
:0C01000000000000000000005FF808F1A3
:10010C0010B5054C237833B9044B13B10448AFF345
:10011C0000800123237010BD0400002000000000AB
:10012C001812000808B5034B1BB103490348AFF381
:10013C00008008BD00000000080000201812000814
:10014C00034613F8012B002AFBD1181A013870470B
:10015C0030B583B004460D460846FFF7F1FF4FF665
:10016C00FF7382B22946204600F0ECF9074B1B685E
:10017C00ADF804301B0C8DF806304FF6FF730222DD
:10018C0001A9204600F0DEF903B030BD441200088E
:10019C00FEE7000008B50B480B4B03604FF41653F9
:1001AC00436000238360C36003610C22426183615E
:1001BC00C36100F098F900B908BDC4210348FFF7EA
:1001CC00E7FF00BF20000020003801404812000863
:1001DC0000B591B0012106914FF4803207920023B3
:1001EC0008930A9102210D910E920F9306A800F02C
:1001FC0083FCF8B90F23019302230293002103918E
:10020C000491059101A800F09DFEB8B900F056FFCD
:10021C000C4BA3FB0030800900F02CFC042000F0F8
:10022C003FFC002211464FF0FF3000F0EFFB11B005
:10023C005DF804FB99210448FFF7AAFFA7210248A7
:10024C00FFF7A6FFD34D62104812000800B583B02B
:10025C0000F098FBFFF7BCFF1B4C214601A800F0F7
:10026C0061FF0323012204210DEB010000F05CFF70
:10027C00FFF790FF15491648FFF76AFF012204218A
:10028C00204600F062FB06E004210DEB010000F0BB
:10029C006EFF012811D04FF47A7000F093FB04210B
:1002AC000DEB010000F063FF0028EDD101220421C9
:1002BC000DEB010000F056FFEDE7002204210DEBE1
:1002CC00010000F04FFFE6E700080140541200085F
:1002DC00200000202DE9F84305460268136923F439
:1002EC004053C1680B43136183680269134342692D
:1002FC0013430168CA6822F4B05222F00C02134373
:10030C00CB600268536923F4407381690B435361DA
:10031C000268594B9A4257D000F0D6FE00EB800091
:10032C0000EB80006C68A400B0FBF4F4534FA7FB07
:10033C0004346409260100F0C7FE00EB800000EBDA
:10034C0080006C68A400B0FBF4F900F0BDFE00EB7B
:10035C00800000EB80006C68A400B0FBF4F4A7FBF9
:10036C00043464094FF0640808FB149424013234FB
:10037C00A7FB0434640904F0F004344400F0A4FE38
:10038C0000EB800000EB80006E68B600B0FBF6F668
:10039C0000F09AFE00EB800000EB80006B689B0085
:1003AC00B0FBF3F0A7FB0030400908FB10684FEAE4
:1003BC00081808F13208A7FB0837C7F343172B6856
:1003CC0027449F60BDE8F88300F08EFE00EB8000B0
:1003DC0000EB80006C68A400B0FBF4F4274FA7FB83
:1003EC0004346409260100F07FFE00EB800000EB72
:1003FC0080006C68A400B0FBF4F900F075FE00EB13
:10040C00800000EB80006C68A400B0FBF4F4A7FB48
:10041C00043464094FF0640808FB1494240132344A
:10042C00A7FB0434640904F0F004344400F05CFECF
:10043C0000EB800000EB80006E68B600B0FBF6F6B7
:10044C0000F052FE00EB800000EB80006B689B001C
:10045C00B0FBF3F0A7FB0030400908FB10684FEA33
:10046C00081808F13208A7FB0837C7F343172B68A5
:10047C0027449F60A6E700BF003801401F85EB5161
:10048C002DE9F04105460F4616469846069C05E0B8
:10049C0001239E4224D1B4F1FF3F06D12B681B6887
:1004AC0037EA0303F4D00023F3E72CB100F084FA0D
:1004BC00A0EB0800A042F1D92A68D36823F4D073CA
:1004CC00D3602A68536923F001035361202385F814
:1004DC00393085F83A30002385F83830032000E0B5
:1004EC000020BDE8F08158B310B5044690F83930BF
:1004FC000BB3242384F839302268D36823F40053D7
:10050C00D3602046FFF7E6FE2268136923F490437C
:10051C0013612268536923F02A0353612268D3685C
:10052C0043F40053D3600020E063202384F8393077
:10053C0084F83A3010BD80F8383000F0B9F8D8E7BC
:10054C00012070472DE9F04182B01E4690F83930F9
:10055C00DBB2202B53D104460D469046002952D0D5
:10056C00002A52D090F83830012B50D0012380F85B
:10057C0038300023C363212380F8393000F01CFA93
:10058C000746A4F82480A4F8268010E000963B4689
:10059C00002280212046FFF773FF002839D12B88D9
:1005AC002268C3F3080353602369C3B90235E38C93
:1005BC009BB2B3B1E38C013B9BB2E384A368B3F56C
:1005CC00805FE3D000963B46002280212046FFF757
:1005DC0057FF00BB2A7823685A600135E7E70135DD
:1005EC00E5E700963B46002240212046FFF748FFF6
:1005FC0098B9202384F8393084F8380000E00220C0
:10060C0002B0BDE8F0810120FAE70120F8E70220F2
:10061C00F6E70320F4E70320F2E70320F0E70000FD
:10062C0000B583B0204B9A6942F001029A619B6934
:10063C0003F001030193032000F0D6F900221146C8
:10064C006FF00B0000F0E2F9002211466FF00A0087
:10065C0000F0DCF9002211466FF0090000F0D6F929
:10066C00002211466FF0040000F0D0F90022114670
:10067C006FF0030000F0CAF9002211466FF0010080
:10068C0000F0C4F9002211464FF0FF3000F0BEF923
:10069C00064B5A6822F0E0625A605A6842F0806257
:1006AC005A6003B05DF804FB0010024000000140EA
:1006BC000268144B9A4200D0704710B586B003F50F
:1006CC0058439A6942F480429A619B6903F48043CF
:1006DC0001934FF4007302930223039303230593B6
:1006EC00094C02A9204600F037F84FF480630293BE
:1006FC0000230393049302A9204600F02DF806B0C2
:10070C0010BD00BF00380140000801400F4B1A68B3
:10071C0042F001021A6059680D4A0A405A601A6880
:10072C0022F0847222F480321A601A6822F4802239
:10073C001A605A6822F4FE025A604FF41F029A6043
:10074C00044B4FF000629A60704700BF00100240EB
:10075C000000FFF800ED00E0F0B482B00026354652
:10076C00A6E0002C5CD0012C00D1CE68FF2B6BD8FE
:10077C008446FF2B6BD8AC00DCF800200F27A74079
:10078C0022EA070206FA04F42243CCF800204A6855
:10079C0012F0805F00F08B80624A946944F001048F
:1007AC009461926902F001020192AC08A71C5E4AA6
:1007BC0052F8272005F00307BF004FF00F0C0CFA7E
:1007CC0007FC22EA0C02DFF870C1604546D00CF53C
:1007DC00806C604500F084800CF5806C604500F006
:1007EC0082800CF5806C604535D04FF0040C37E0FE
:1007FC004E4FBC4214D00BD94D4FBC4210D007F514
:10080C008037BC420CD0A7F58017BC42AED107E0B4
:10081C00A7F58017BC4203D007F58037BC42A5D1A1
:10082C008C687CB1012C08D0426108269EE7CE680A
:10083C0008369BE7CE680C3698E70261082695E7E8
:10084C00002693E7042691E700F1040C91E7A5F14B
:10085C000804A40090E74FF0030C01E04FF0000CEB
:10086C000CFA07F73A4302342F4F47F824204A6812
:10087C0012F4803F3AD02F4C22681A4322604A6807
:10088C0012F4003F38D02B4C62681A4362604A68FD
:10089C0012F4801F36D0274CA2681A43A2604A6813
:1008AC0012F4001F34D0234CE2681343E36001358B
:1008BC000F2D33D80122AA400B6813409342F6D176
:1008CC004C68122CB6D093D8022CB0D07FF649AF1E
:1008DC00032CB5D0112C7FF449AFCE68043645E714
:1008EC004FF0010CBCE74FF0020CB9E7114C226839
:1008FC0022EA03022260C2E70E4C626822EA03027B
:10090C006260C4E70B4CA26822EA0302A260C6E74D
:10091C00084CE26822EA0303E360C8E702B0F0BCCB
:10092C00704700BF00100240000001400000211081
:10093C000000311000040140000801408368194296
:10094C0001D1002070470120704712B909040161E0
:10095C00704701617047000010B50446074B1868DA
:10096C00074BA3FB0030800900F084F800222146DD
:10097C004FF0FF3000F04AF8002010BD00000020BE
:10098C00D34D621008B5074A136843F01003136087
:10099C00032000F029F80020FFF7DEFFFFF740FEF0
:1009AC00002008BD00200240024A13680133136086
:1009BC00704700BF60000020014B1868704700BFF3
:1009CC006000002030B583B00190FFF7F5FF0546BD
:1009DC00019CB4F1FF3F00D00134FFF7EDFF401B49
:1009EC00A042FAD303B030BD074AD36823F4E063C6
:1009FC001B041B0C000200F4E060184340F0BF60C5
:100A0C0040F40030D060704700ED00E030B4174B7C
:100A1C00DB68C3F30223C3F10704042C28BF0424AE
:100A2C001D1D062D18D9033B4FF0FF3505FA04F4B4
:100A3C0021EA0401994005FA03F322EA030319435E
:100A4C0000280BDB0901C9B200F1604000F56140E0
:100A5C0080F8001330BC70470023E5E700F00F006E
:100A6C000901C9B2024B1954F4E700BF00ED00E0D4
:100A7C0014ED00E00138B0F1807F0AD2064B5860CB
:100A8C00064AF02182F823100020986007221A6091
:100A9C0070470120704700BF10E000E000ED00E05F
:100AAC00042805D0054A136823F00403136070472B
:100ABC00024A136843F004031360704710E000E02F
:100ACC00704708B5FFF7FCFF08BD000082B0084B6B
:100ADC001B68084AA2FB03235B0A00FB03F001908E
:100AEC0000BF019B5A1E0192002BF9D102B0704736
:100AFC0000000020D34D621070B582B0044603682C
:100B0C0013F0010F2CD0AB4B5B6803F00C03042BE0
:100B1C001DD0A84B5B6803F00C03082B12D0636844
:100B2C00B3F5803F41D0002B55D103F1804303F541
:100B3C0004331A6822F480321A601A6822F4802274
:100B4C001A6037E09B4B5B6813F4803FE7D0994BFE
:100B5C001B6813F4003F03D06368002B00F0AA81DC
:100B6C00236813F0020F76D0924B5B6813F00C0FD6
:100B7C005FD0904B5B6803F00C03082B54D02369B7
:100B8C00002B40F081808C4B00221A60FFF714FF81
:100B9C000546884B1B6813F0020F5CD0FFF70CFF67
:100BAC00401B0228F5D9032087E1824A136843F4DD
:100BBC0080331360636843B3FFF7FEFE05467D4B3D
:100BCC001B6813F4003FCBD1FFF7F6FE401B6428E3
:100BDC00F5D9032071E1B3F5A02F09D0754B1A6834
:100BEC0022F480321A601A6822F480221A60E1E73B
:100BFC0003F18043A3F53C331A6842F480221A6057
:100C0C001A6842F480321A60D4E7FFF7D5FE054625
:100C1C00684B1B6813F4003FA2D0FFF7CDFE401BBE
:100C2C006428F5D9032048E1624B5B6813F4803FDC
:100C3C00A5D1604B1B6813F0020F04D02369012B64
:100C4C0001D0012039E15B4A136823F0F803616994
:100C5C0043EAC1031360236813F0080F32D0A36971
:100C6C00002B5AD0554B01221A60FFF7A5FE054602
:100C7C00504B5B6A13F0020F21D1FFF79DFE401B16
:100C8C000228F5D9032018E14B4B01221A60FFF71B
:100C9C0093FE0546474B1B6813F0020F06D1FFF776
:100CAC008BFE401B0228F5D9032006E1414A13684C
:100CBC0023F0F803616943EAC1031360CBE7012019
:100CCC00FFF704FF236813F0040F00F09780394BF3
:100CDC00DB6913F0805F32D1364BDA6942F0805217
:100CEC00DA61DB6903F0805301930125344B1B68F7
:100CFC0013F4807F25D0E368012B36D0002B4CD128
:100D0C0003F1804303F504331A6A22F001021A62DC
:100D1C001A6A22F004021A622CE0284B00221A6094
:100D2C00FFF74AFE0546234B5B6A13F0020FC9D04E
:100D3C00FFF742FE401B0228F5D90320BDE0002539
:100D4C00D4E71F4A136843F480731360FFF734FE33
:100D5C0006461B4B1B6813F4807FCCD1FFF72CFE8F
:100D6C00801B6428F5D90320A7E0124A136A43F0CC
:100D7C0001031362E3687BB3FFF71EFE06460D4BBF
:100D8C001B6A13F0020F38D1FFF716FE801B41F2DD
:100D9C0088339842F3D903208FE0052B12D0054BF2
:100DAC001A6A22F001021A621A6A22F004021A620A
:100DBC00E0E700BF001002400000424280044242C3
:100DCC0000700040414B1A6A42F004021A621A6A1F
:100DDC0042F001021A62CDE7FFF7EEFD06463B4BEF
:100DEC001B6A13F0020F08D0FFF7E6FD801B41F2DF
:100DFC0088339842F3D903205FE0E5B9E369002B0F
:100E0C005AD0324A526802F00C02082A57D0022BF0
:100E1C0017D02F4B00221A60FFF7CEFD04462B4B48
:100E2C001B6813F0007F4ED0FFF7C6FD001B022895
:100E3C00F5D9032041E0254AD36923F08053D361CF
:100E4C00DCE7234B00221A60FFF7B6FD05461F4B6B
:100E5C001B6813F0007F06D0FFF7AEFD401B022885
:100E6C00F5D9032029E0236AB3F5803F1AD017493E
:100E7C004B6823F47413226A606A024313434B6079
:100E8C00134B01221A60FFF797FD04460F4B1B68AA
:100E9C0013F0007F15D1FFF78FFD001B0228F5D949
:100EAC0003200AE0094A536823F40033A1680B437A
:100EBC005360DCE7012000E0002002B070BD01208F
:100ECC00FBE70020F9E70020F7E700BF0010024025
:100EDC006000424210B487B0164C94E80F000DF13C
:100EEC00180C0CE90F00238AADF80430124B5B6828
:100EFC0003F00C02082A1AD1C3F38342624412F89D
:100F0C00100C13F4803F05D10C4B03FB00F007B021
:100F1C0010BC7047084B5B68C3F34043634413F841
:100F2C00142C074BB3FBF2F300FB03F0EFE7044880
:100F3C00EDE700BF301200080010024000093D0030
:100F4C0000127A00594B1B6803F007038B420CD23A
:100F5C00564A136823F007030B431360136803F01E
:100F6C0007038B4201D00120704770B5036813F062
:100F7C00020F06D04E4A536823F0F00384682343D3
:100F8C0053600C460546036813F0010F52D04368BA
:100F9C00012B23D0022B28D0454A126812F0020FE5
:100FAC0000F0828042494A6822F0030213434B60EE
:100FBC00FFF702FD06466B68012B1DD0022B2AD0D1
:100FCC003B4B5B6813F00C0F34D0FFF7F5FC801B28
:100FDC0041F288339842F3D9032064E0344A126812
:100FEC0012F4003FDED101205DE0314A126812F0AC
:100FFC00007FD7D1012056E02D4B5B6803F00C032A
:10100C00042B17D0FFF7D8FC801B41F28833984291
:10101C00F2D9032047E0264B5B6803F00C03082B46
:10102C0008D0FFF7C9FC801B41F288339842F2D9F3
:10103C00032038E01D4B1B6803F00703A3420CD9B7
:10104C001A4A136823F0070323431360136803F051
:10105C000703A34201D0012025E02B6813F0040FF5
:10106C0006D0134A536823F4E063E9680B435360DA
:10107C002B6813F0080F07D00D4A536823F4605304
:10108C00296943EAC1035360FFF724FF084B5B68EF
:10109C00C3F30313074AD35CD840074B18600020F6
:1010AC00FFF75AFC002070BD0120FCE70020024035
:1010BC00001002406412000800000020014B186868
:1010CC00704700BF0000002008B5FFF7F7FF044B86
:1010DC005B68C3F30223034AD35CD84008BD00BF4E
:1010EC00001002407412000808B5FFF7E7FF044B2C
:1010FC005B68C3F3C223034AD35CD84008BD00BF6E
:10110C0000100240741200087047FEE7FEE7FEE78D
:10111C00FEE770477047704708B5FFF745FCFFF7CF
:10112C00D0FC08BD01607047F0B587B004460F468F
:10113C0016461D460A4B9A6942F004029A619B6955
:10114C0003F00403019300220068FFF7FEFB0297F3
:10115C000396059502A92068FFF7FEFA07B0F0BDCB
:10116C000010024008B50068FFF7EFFB08BD08B59A
:10117C000068FFF7E3FB08BD002103E00B4B5B5855
:10118C00435004310A480B4B42189A42F6D30A4A90
:10119C0002E0002342F8043B084B9A42F9D3FFF7D4
:1011AC00B5FA00F00FF8FFF751F8704784120008F9
:1011BC000000002004000020040000206400002037
:1011CC00FEE7000070B500250C4E0D4CA41BA410BE
:1011DC00A54209D100F01AF800250A4E0A4CA41BAE
:1011EC00A410A54205D170BD56F82530984701359D
:1011FC00EEE756F8253098470135F2E77C120008E7
:10120C007C1200087C12000880120008F8B500BFA0
:10121C00F8BC08BC9E467047F8B500BFF8BC08BCCB
:04122C009E46704723
:1012300002030405060708090A0B0C0D0E0F101017
:10124000010200000D0A00005372632F6D61696E88
:101250002E63000048656C6C6F20576F726C6421C0
:101260000000000000000000000000000102030474
:0C1270000607080900000000010203044A
:04127C003101000834
:041280000D01000854
:0412840000A24A0476
:040000050800118559
:00000001FF
