:020000040800F2
:1000000000500020F9190008AD190008B1190008C6
:10001000B5190008B9190008BD1900080000000052
:10002000000000000000000000000000C1190008EE
:10003000C519000800000000C9190008CD19000802
:10004000411A0008411A0008411A0008411A000824
:10005000411A0008411A0008411A0008411A000814
:10006000411A0008411A0008411A0008411A000804
:10007000411A0008411A0008411A0008411A0008F4
:10008000411A0008411A0008411A0008411A0008E4
:10009000411A0008411A0008411A0008411A0008D4
:1000A000411A0008411A0008411A0008411A0008C4
:1000B000D9190008411A0008411A0008411A00081D
:1000C000411A0008411A0008411A0008411A0008A4
:1000D000411A0008E9190008411A0008411A0008ED
:1000E000411A0008411A0008411A000800000000E7
:1000F0000000000000000000000000000000000000
:0C01000000000000000000005FF808F1A3
:10010C00044B05481B1A062B02D9044B03B11847A4
:10011C00704700BF07000020040000200000000012
:10012C0005490648091A891001EBD171491002D012
:10013C00034B03B118477047040000200400002053
:10014C000000000010B5064C237843B9FFF7D8FF28
:10015C00044B13B10448AFF300800123237010BD8E
:10016C000400002000000000901A000808B5084B9D
:10017C001BB108480849AFF300800848036813B95D
:10018C00BDE80840CCE7064B002BF9D09847F7E7C1
:10019C0000000000901A0008080000200400002055
:1001AC000000000010B586B0124B9A6942F0200294
:1001BC009A619A6902F020020092009A9A6942F0C0
:1001CC0004029A619B6903F004030193019B0A4C9E
:1001DC0020460421002200F091FD04230293012308
:1001EC00039303230593204602A900F095FC06B067
:1001FC0010BD00BF001002400008014002680D4B0A
:10020C001B689A4215D130B58BB001AC0A4D0FCD9D
:10021C000FC40FCD0FC42B6824F8023B1B0C2370AA
:10022C00064801A922224FF6FF7300F049FA0BB0E1
:10023C0030BD704784000020BC1A0008200000204C
:10024C00FEE700BF08B50B480B4B03604FF4165389
:10025C00436000238360C36003610C2242618361AD
:10026C00C36100F0FBF918B10448EA21FFF7E8FF7D
:10027C0008BD00BF2000002000380140E01A000833
:10028C0000B587B018484FF0804303604FF4C86343
:10029C0043600023836042F21072C2600361836189
:1002AC0000F000FF18B11148CA21FFF7C9FF06A9D9
:1002BC004FF4805341F8103D0B4800F06DFD18B120
:1002CC000A48D021FFF7BCFF002300930193064896
:1002DC00694600F085FF18B10448D721FFF7B0FF3D
:1002EC0007B05DF804FB00BF84000020E01A000892
:1002FC0000B591B0012106914FF480320792002392
:10030C0008930A9102210D910E920F9306A801F009
:10031C0027F818B113489E21FFF792FF0F23019382
:10032C0002230293002103910491059101A801F08D
:10033C004FFA18B10B48AC21FFF782FF01F00AFB12
:10034C00094BA3FB0030800900F0C8FF042000F02B
:10035C00DBFF4FF0FF3000210A4600F081FF11B0A7
:10036C005DF804FBE01A0008D34D621008B500F0EC
:10037C00CBFEFFF7BDFFFFF715FFFFF763FFFFF79E
:10038C007FFF002308E003F14101074AD1544121CA
:10039C00064AD1540133DBB21F2BF4D9044800F0C8
:1003AC00EFFC00B1FEE7FEE760000020C400002077
:1003BC00840000200268D36823F49073D360026831
:1003CC00536923F001035361202380F83A307047BE
:1003DC0090F83930DBB2212B2AD18368B3F5805FDA
:1003EC000FD1036A02681B88C3F3080353600369C7
:1003FC001BB9036A0233036209E0036A0133036227
:10040C0005E00268036A591C01621B785360C38CB7
:10041C00013B9BB2C3846BB90268D36823F08003A1
:10042C00D3600268D36843F04003D3600020704768
:10043C0002207047002070472DE9F843814601687F
:10044C000B6923F44052C36813430B618168036941
:10045C001943436919430068C26822F4B05323F06E
:10046C000C030B43C360D9F800104B6923F44072A2
:10047C00D9F8183013434B61D9F800505B4B9D42AF
:10048C0059D101F07DFA00EB800000EB8000D9F827
:10049C000440A400B0FBF4F4554EA6FB04346409EC
:1004AC00240101F06DFA00EB800000EB8000D9F81C
:1004BC0004309B00B0FBF3F701F062FA00EB800014
:1004CC0000EB8000D9F804309B00B0FBF3F3A6FBE3
:1004DC0003235B094FF0640808FB13731B013233D1
:1004EC00A6FB03235B0903F0F0031C4401F048FA5C
:1004FC0000EB800000EB8000D9F804309B00B0FBCF
:10050C00F3F701F03DFA00EB800000EB8000D9F826
:10051C0004309B00B0FBF3F3A6FB03235B0908FB41
:10052C0013731B013233A6FB0323C3F343131C4485
:10053C00AC60BDE8F88301F013FA00EB800000EB2F
:10054C008000D9F80440A400B0FBF4F4284EA6FBBC
:10055C0004346409240101F003FA00EB800000EB81
:10056C008000D9F804309B00B0FBF3F701F0F8F9E8
:10057C0000EB800000EB8000D9F804309B00B0FB4E
:10058C00F3F3A6FB03235B094FF0640808FB13731A
:10059C001B013233A6FB03235B0903F0F0031C445D
:1005AC0001F0DEF900EB800000EB8000D9F804309C
:1005BC009B00B0FBF3F701F0D3F900EB800000EBEC
:1005CC008000D9F804309B00B0FBF3F3A6FB0323A7
:1005DC005B0908FB13731B013233A6FB0323C3F324
:1005EC0043131C44AC60BDE8F88300BF00380140E5
:1005FC001F85EB512DE9F04106460C4617469846EF
:10060C00069D1EE0B5F1FF3F1BD02DB100F096FD0D
:10061C00C8EB0000A84214D93268D36823F4D07315
:10062C00D3603268536923F001035361202386F8A9
:10063C00393086F83A30002386F838300320BDE88C
:10064C00F08133681B682340A34214BF00230123AD
:10065C00BB42D7D00020BDE8F08100BF68B310B515
:10066C00044690F8393013F0FF0F04D1002380F8C2
:10067C00383000F0F5F9242384F839302268D36837
:10068C0023F40053D3602046FFF7D6FE226813698B
:10069C0023F4904313612268536923F02A035361B6
:1006AC002268D36843F40053D3600020E063202316
:1006BC0084F8393084F83A3010BD0120704700BFFF
:1006CC002DE9F04182B004461E4690F83930DBB279
:1006DC00202B54D10D469046002952D0002A52D0DE
:1006EC0090F83830012B50D0012380F8383000239B
:1006FC00C363212380F8393000F020FD0746A4F8AD
:10070C002480A4F8268026E0E38C013B9BB2E38492
:10071C00A368B3F5805F12D1009620468021002299
:10072C003B46FFF767FF90BB22682B88C3F3080397
:10073C00536023690BB902350DE001350BE00096CF
:10074C002046802100223B46FFF754FF08BB23685C
:10075C002A785A600135E38C9BB2002BD4D10096D9
:10076C002046402100223B46FFF744FF034690B948
:10077C00202284F83920002284F838200CE002234F
:10078C000AE0012308E0012306E0022304E003232E
:10079C0002E0032300E00323184602B0BDE8F08119
:1007AC00704700BF08B50168CB6823F04003CB60ED
:1007BC00202380F83930FFF7F3FF002008BD00BF7D
:1007CC00704700BF08B590F83A30DBB2222B43D10A
:1007DC008368B3F5805F13D1826A036943B90368F8
:1007EC005B68C3F308031380836A0233836218E0E7
:1007FC0003685B68DBB21380836A0133836210E0A9
:10080C00036933B9836A5A1C8262026852681A708F
:10081C0007E0826A531C836203685B6803F07F0302
:10082C001370C38D013B9BB2C385BBB90268D368FF
:10083C0023F02003D3600268D36823F48073D36061
:10084C000268536923F001035361202380F83A3086
:10085C00FFF7B6FF002008BD022008BD002008BD30
:10086C00704700BF10B5044602681368D16852691E
:10087C0013F00F0009D113F0200F06D011F0200F48
:10088C0003D02046FFF79EFF10BD002862D012F067
:10089C00010202D111F4907F5CD013F0010F06D04D
:1008AC0011F4807F03D0E06B40F00100E06313F0A3
:1008BC00040F04D01AB1E06B40F00200E06313F0B7
:1008CC00020F04D01AB1E06B40F00400E06313F0A7
:1008DC00080F04D01AB1E26B42F00802E263E26B3B
:1008EC00002A4AD013F0200F05D011F0200F02D0AF
:1008FC002046FFF767FF23685B6903F04003E26B58
:10090C0012F0080F00D1FBB12046FFF753FD23680E
:10091C005A6912F0400F13D05A6922F040025A6102
:10092C00636B4BB1154A5A63606B00F00DFC20B33E
:10093C00606B436B984710BD2046FFF791FF10BDCD
:10094C002046FFF78DFF10BD2046FFF789FF0023DF
:10095C00E36310BD13F0800F06D011F0800F03D0AD
:10096C002046FFF735FD10BD13F0400F05D011F0F8
:10097C00400F02D02046FFF715FF10BD8D0900086F
:10098C0008B5406A0023C385C384FFF769FF08BD1F
:10099C0000B583B0214B9A6942F001029A619B69C0
:1009AC0003F001030193019B032000F047FC6FF05F
:1009BC000B0000210A4600F053FC6FF00A000021E6
:1009CC000A4600F04DFC6FF0090000210A4600F0C9
:1009DC0047FC6FF0040000210A4600F041FC6FF068
:1009EC00030000210A4600F03BFC6FF001000021DF
:1009FC000A4600F035FC4FF0FF3000210A4600F0AB
:100A0C002FFC074B5A6822F0E0625A605A6842F099
:100A1C0080625A6003B05DF804FB00BF0010024016
:100A2C00000001400368B3F1804F17D100B583B0CB
:100A3C0003F50433DA6942F00102DA61DB6903F091
:100A4C0001030193019B1C2000210A4600F008FCC5
:100A5C001C2000F037FC03B05DF804FB704700BFAE
:100A6C000268184B9A422CD130B587B003F5584325
:100A7C009A6942F480429A619B6903F48043019322
:100A8C00019B4FF4007302930223039303230593FA
:100A9C000D4D284602A900F03FF84FF480630293F5
:100AAC00002403940494284602A900F035F825206C
:100ABC002146224600F0D4FB252000F003FC07B0B1
:100ACC0030BD704700380140000801400F4B1A68D8
:100ADC0042F001021A6059680D4A0A405A601A68BD
:100AEC0022F0847222F480321A601A6822F4802276
:100AFC001A605A6822F4FE025A604FF41F029A6080
:100B0C004FF00062034B9A60704700BF0010024028
:100B1C000000FFF800ED00E0F0B583B000273C4684
:100B2C00DAE00122A2400B681340934240F0D380DC
:100B3C004D68122D2DD00BD8022D27D003D85DB3C4
:100B4C00012D1ED035E0032D30D0112D1BD030E0FF
:100B5C00644EB54220D008D8A6F58016B5421BD0FD
:100B6C0006F58036B54224D116E05F4EB54213D05F
:100B7C0006F58036B5420FD0A6F58016B54218D1D1
:100B8C000AE0CF6815E0CF68043712E0CF68083769
:100B9C000FE0CF680C370CE08D684DB1012D02D100
:100BAC000261082705E04261082702E0002700E007
:100BBC000427FF2B01D8844601E000F1040CFF2B25
:100BCC0002D84FEA840E03E0A4F1080E4FEA8E0E11
:100BDC00DCF800600F2202FA0EF226EA020507FA90
:100BEC000EF22A43CCF800204A6812F0805F72D0D3
:100BFC003E4A956945F001059561926902F0010242
:100C0C000192019A4FEA940E0EF10205384A52F8FD
:100C1C00256004F0030C4FEA8C0C0F2202FA0CF244
:100C2C0026EA0205334A904213D002F580629042C4
:100C3C000DD002F58062904207D002F5806290429E
:100C4C0001D1032206E0042204E0022202E0012288
:100C5C0000E0002202FA0CF22A430EF1020E244D9F
:100C6C0045F82E204A6812F4803F05D005F58065C2
:100C7C002A681A432A6004E01F4D2A6822EA0302FC
:100C8C002A604A6812F4003F04D01B4D6A681A436C
:100C9C006A6004E0184D6A6822EA03026A604A68D6
:100CAC0012F4801F04D0144DAA681A43AA6004E001
:100CBC00114DAA6822EA0302AA604A6812F4001FC6
:100CCC0004D00D4DEA681343EB6004E00A4DEA686A
:100CDC0022EA0303EB6001340F2C7FF622AF03B042
:100CEC00F0BD00BF000021100000311000100240C8
:100CFC000000014000080140000401400AB10161FC
:100D0C00704709040161704710B4036A046A24F047
:100D1C0001040462846924F0F00444EA021223F012
:100D2C000A031943826101625DF8044B704700BFEE
:100D3C0010B4036A23F0100303628469036A24F479
:100D4C00704444EA023223F0A00343EA01118261A9
:100D5C0001625DF8044B7047836823F0700341F027
:100D6C0007010B438360704710B4846824F47F44FC
:100D7C0042EA032319430C4384605DF8044B70472B
:100D8C000268D36843F00103D3600268136843F030
:100D9C00010313600020704738B590F83C30012BEC
:100DAC0000F083800D460446012380F83C3002237A
:100DBC0080F83D300268936823F47F4323F0770377
:100DCC0093600B68402B4CD00AD8102B58D002D80B
:100DDC00002B50D062E0202B57D0302B5AD05DE046
:100DEC00702B12D004D8502B27D0602B2FD055E06D
:100DFC00B3F5805F03D0B3F5005F12D04EE002680C
:100E0C00936823F00703936048E0006889686A6878
:100E1C00EB68FFF7A9FF2268936843F077039360B0
:100E2C003CE0006889686A68EB68FFF79DFF226800
:100E3C00936843F48043936030E000684968EA6843
:100E4C00FFF762FF20685021FFF786FF26E000685D
:100E5C004968EA68FFF76CFF20686021FFF77CFFA8
:100E6C001CE000684968EA68FFF74EFF20684021E3
:100E7C00FFF772FF12E000680021FFF76DFF0DE035
:100E8C0000681021FFF768FF08E000682021FFF7D9
:100E9C0063FF03E000683021FFF75EFF012384F855
:100EAC003D30002084F83C0038BD022038BD00BF26
:100EBC00704700BF704700BF704700BF704700BF4E
:100ECC0010B5044603681A6912F0020F17D0DA68DD
:100EDC0012F0020F13D06FF002021A610123037794
:100EEC0003689B6913F0030F02D0FFF7E3FF04E0E4
:100EFC00FFF7DEFF2046FFF7DFFF00232377236891
:100F0C001A6912F0040F19D0DA6812F0040F15D018
:100F1C006FF004021A610223237723689B6913F490
:100F2C00407F03D02046FFF7C5FF05E02046FFF7C2
:100F3C00BFFF2046FFF7C0FF0023237723681A6901
:100F4C0012F0080F19D0DA6812F0080F15D06FF0F4
:100F5C0008021A61042323772368DB6913F0030F5B
:100F6C0003D02046FFF7A6FF05E02046FFF7A0FFC1
:100F7C002046FFF7A1FF0023237723681A6912F09C
:100F8C00100F19D0DA6812F0100F15D06FF0100294
:100F9C001A61082323772368DB6913F4407F03D09D
:100FAC002046FFF787FF05E02046FFF781FF20462C
:100FBC00FFF782FF0023237723681A6912F0010FD1
:100FCC0009D0DA6812F0010F05D06FF001021A6136
:100FDC002046FFF713F923681A6912F0800F09D025
:100FEC00DA6812F0800F05D06FF080021A6120468B
:100FFC0000F022F923681A6912F0400F09D0DA6860
:10100C0012F0400F05D06FF040021A612046FFF736
:10101C0055FF23681A6912F0200F09D0DA6812F014
:10102C00200F05D06FF020021A61204600F002F963
:10103C0010BD00BF03681A4A90420AD0B0F1804F2D
:10104C0007D0A2F59432904203D002F58062904210
:10105C0003D123F070034A681343114A90420AD01B
:10106C00B0F1804F07D0A2F59432904203D002F534
:10107C008062904203D123F44073CA68134323F077
:10108C0080034A69134303608B68C3620B688362F5
:10109C00034B984201D10B690363012343617047F1
:1010AC00002C0140C0B110B5044690F83D3013F04F
:1010BC00FF0F04D1002380F83C30FFF7B3FC022370
:1010CC0084F83D30214651F8040BFFF7B3FF0123A0
:1010DC0084F83D30002010BD0120704710B5044647
:1010EC00074B1B680748A0FB0330800900F0F6F89B
:1010FC004FF0FF302146002200F0B2F8002010BD66
:10110C0000000020D34D621008B5074A136843F065
:10111C0010031360032000F091F80020FFF7DEFFAE
:10112C00FFF736FC002008BD00200240024A13687D
:10113C0001331360704700BFE8000020014B1868B2
:10114C00704700BFE800002008B590F82130022B52
:10115C0003D004238363012008BD0268136823F0C5
:10116C000E0313600268136823F001031360036815
:10117C00194A93421FD0143293421AD0143293421C
:10118C0014D0143293420ED01432934208D014323D
:10119C00934202D14FF480120EE04FF080720BE0BC
:1011AC004FF4803208E04FF4805205E04FF4807227
:1011BC0002E0102200E00122084B5A60012380F863
:1011CC002130002380F82030436B13B19847002066
:1011DC0008BD002008BD00BF08000240000002400E
:1011EC0090F83C30012B21D030B4012280F83C2007
:1011FC00022380F83D300468636823F07003636059
:10120C00046865680B682B4363600468A36823F06B
:10121C008003A3600468A5684B682B43A36080F827
:10122C003D20002380F83C30184601E00220704736
:10123C0030BC7047704700BF704700BF00F007001C
:10124C00064AD36823F4E0631B041B0C43EA00201A
:10125C0040F0BF6040F40030D060704700ED00E01B
:10126C0030B4164BDC68C4F30224C4F10705042D1A
:10127C0028BF0425231D062B01D9033C00E00024C4
:10128C00012303FA05F5013D2940A140A340013B90
:10129C001A400A43002806DA00F00F001201D2B2FD
:1012AC00074B1A5407E01201D2B200F1604000F56E
:1012BC00614080F8002330BC704700BF00ED00E0B7
:1012CC0014ED00E0410900F01F0001238340024AA5
:1012DC0042F82130704700BF00E100E00138B0F166
:1012EC00807F0AD2064B5860F021064A82F8231000
:1012FC000020986007221A6070470120704700BFD9
:10130C0010E000E000ED00E0042805D1054A136868
:10131C0043F0040313607047024A136823F004037C
:10132C001360704710E000E0704700BF08B5FFF78E
:10133C00FBFF08BD82B0084B1B68084AA2FB0323C5
:10134C005B0A00FB03F0019000BF019B5A1E019247
:10135C00002BF9D102B0704700000020D34D621071
:10136C0070B582B00446036813F0010F6BD0A84B24
:10137C005B6803F00C03042B0AD0A54B5B6803F0ED
:10138C000C03082B0DD1A24B5B6813F4803F08D0E3
:10139C009F4B1B6813F4003F55D06368002B52D150
:1013AC00B8E16368B3F5803F05D1994A136843F4FB
:1013BC008033136026E063B903F1804303F50433F3
:1013CC001A6822F480321A601A6822F480221A6099
:1013DC0018E0B3F5A02F0CD103F18043A3F53C33F7
:1013EC001A6842F480221A601A6842F480321A6039
:1013FC0008E0874B1A6822F480321A601A6822F4CB
:10140C0080221A6063687BB1FFF798FE054605E001
:10141C00FFF794FE401B642800F27E817C4B1B6816
:10142C0013F4003FF4D00EE0FFF788FE054605E00C
:10143C00FFF784FE401B642800F27081744B1B681C
:10144C0013F4003FF4D1236813F0020F50D0704B0B
:10145C005B6813F00C0F0AD06D4B5B6803F00C0348
:10146C00082B16D16A4B5B6813F4803F11D1684B83
:10147C001B6813F0020F03D02369012B40F050813D
:10148C00634A136823F0F803616943EAC1031360EC
:10149C002EE02369D3B101225E4B1A60FFF74EFE9A
:1014AC00054605E0FFF74AFE401B022800F23A8190
:1014BC00574B1B6813F0020FF4D0554A136823F0F6
:1014CC00F803616943EAC103136011E00022514B38
:1014DC001A60FFF733FE054605E0FFF72FFE401BB1
:1014EC00022800F221814A4B1B6813F0020FF4D141
:1014FC00236813F0080F29D0A369ABB10122464B26
:10150C001A60FFF71BFE054605E0FFF717FE401BB0
:10151C00022800F20B813E4B5B6A13F0020FF4D0F1
:10152C000120FFF707FF11E000223B4B1A60FFF789
:10153C0005FE054605E0FFF701FE401B022800F200
:10154C00F780334B5B6A13F0020FF4D1236813F06E
:10155C00040F00F089802E4BDB6913F0805F0BD1F8
:10156C002B4BDA6942F08052DA61DB6903F080536D
:10157C000193019B012500E00025284B1B6813F407
:10158C00807F13D1254A136843F480731360FFF7EF
:10159C00D5FD064605E0FFF7D1FD801B642800F25F
:1015AC00C9801E4B1B6813F4807FF4D0E368012BB9
:1015BC0005D1174A136A43F00103136222E063B9A1
:1015CC0003F1804303F504331A6A22F001021A6214
:1015DC001A6A22F004021A6214E0052B09D10C4B92
:1015EC001A6A42F004021A621A6A42F001021A6282
:1015FC0008E0074B1A6A22F001021A621A6A22F0FA
:10160C0004021A62E368CBB1FFF798FD06460FE0BF
:10161C000010024000004242800442420070004030
:10162C00FFF78CFD801B41F28833984200F28480D6
:10163C00494B1B6A13F0020FF2D00FE0FFF77EFD4F
:10164C00064606E0FFF77AFD801B41F2883398428C
:10165C0074D8414B1B6A13F0020FF3D125B13E4AEB
:10166C00D36923F08053D361E369002B68D03A4AE5
:10167C00526802F00C02082A64D0022B37D10022E7
:10168C00364B1A60FFF75AFD054604E0FFF756FD8E
:10169C00401B022858D8304B1B6813F0007FF5D143
:1016AC00236AB3F5803F06D12B494B6823F40032F3
:1016BC00A36813434B602848436823F47411236ACE
:1016CC00626A13430B4343600122244B1A60FFF7F9
:1016DC0035FD044604E0FFF731FD001B022835D828
:1016EC001D4B1B6813F0007FF5D0002031E0002269
:1016FC001A4B1A60FFF722FD044604E0FFF71EFDAB
:10170C00001B022824D8144B1B6813F0007FF5D162
:10171C0000201EE001201CE003201AE0032018E04A
:10172C00012016E0032014E0032012E0032010E057
:10173C0003200EE003200CE003200AE0032008E065
:10174C00002006E0012004E0032002E0032000E07A
:10175C00032002B070BD00BF001002406000424286
:10176C0030B486B0164D02AC28686968AA68EB687C
:10177C000FC42B8AADF80430124B5A6802F00C03DC
:10178C00082B19D1C2F3834306A90B4413F8103C60
:10179C0012F4803F0CD00B4A5268C2F340420A4408
:1017AC0012F8140C084AB2FBF0F003FB00F004E052
:1017BC00064800FB03F000E0034806B030BC70475D
:1017CC00A81A00080010024000127A0000093D001F
:1017DC0070B55C4B1B6803F007038B420BD2594A64
:1017EC00136823F007030B431360136803F007031C
:1017FC008B4240F09780036813F0020F06D0524CD6
:10180C00636823F0F0028368134363600D4604465B
:10181C00036813F0010F4DD04268012A05D14A4BE1
:10182C001B6813F4003F0DD17EE0022A05D1464B14
:10183C001B6813F0007F05D178E0434B1B6813F055
:10184C00020F75D040494B6823F0030313434B60E0
:10185C00FFF774FC06466368012B0ED106E0FFF718
:10186C006DFC801B41F28833984263D8364B5B6821
:10187C0003F00C03042BF2D11CE0022B15D106E073
:10188C00FFF75CFC801B41F28833984254D82E4BF6
:10189C005B6803F00C03082BF2D10BE0FFF74EFC56
:1018AC00801B41F28833984248D8274B5B6813F071
:1018BC000C0FF3D1234B1B6803F00703AB420AD97F
:1018CC00204A136823F007032B431360136803F0BB
:1018DC000703AB4234D1236813F0040F06D01A4926
:1018EC004B6823F4E062E36813434B60236813F006
:1018FC00080F07D0144A536823F46053216943EA54
:10190C00C1035360FFF72CFF0F4B5B68C3F303134A
:10191C000E4AD35CD8400E4B18600020FFF7DEFB5C
:10192C00002070BD012070BD012070BD012070BD74
:10193C00012070BD032070BD032070BD032070BD5D
:10194C00012070BD0020024000100240EC1A00087B
:10195C0000000020014B1868704700BF00000020F9
:10196C0008B5FFF7F7FF044B5B68C3F30223034A88
:10197C00D35CD84008BD00BF00100240FC1A000820
:10198C0008B5FFF7E7FF044B5B68C3F3C223034AB8
:10199C00D35CD84008BD00BF00100240FC1A000800
:1019AC00704700BFFEE700BFFEE700BFFEE700BFC9
:1019BC00FEE700BF704700BF704700BF704700BF15
:1019CC0008B5FFF7B3FBFFF7B1FC08BD08B502483B
:1019DC00FFF776FA08BD00BF8400002008B5024866
:1019EC00FEF740FF08BD00BF20000020002103E0EF
:1019FC000B4B5B58435004310A480B4B42189A422C
:101A0C00F6D30A4A02E0002342F8043B084B9A4200
:101A1C00F9D3FFF75BF800F00FF8FEF7A7FC70475F
:101A2C000C1B000800000020040000200400002013
:101A3C00EC000020FEE700000E4B70B51E460E4C6D
:101A4C000025E41AA410A54204D056F82530984776
:101A5C000135F8E700F016F8084B094C1E46E41A5D
:101A6C00A4100025A54204D056F82530984701351E
:101A7C00F8E770BD041B0008041B0008041B0008D9
:101A8C00081B0008F8B500BFF8BC08BC9E467047A0
:0C1A9C00F8B500BFF8BC08BC9E467047BF
:101AA80002030405060708090A0B0C0D0E0F101097
:101AB80001020000696E2048414C5F54494D5F5057
:101AC8006572696F64456C617073656443616C6CC1
:101AD8006261636B0D0A00005372632F6D61696E5A
:101AE8002E63000000000000000000000102030453
:0C1AF800060708090000000001020304BA
:041B0400790100085B
:041B0800510100087F
:041B0C0000A24A04E5
:04000005080019F9DD
:00000001FF
