:020000040800F2
:1000000088040020291100088911000889110008BE
:1000100089110008891100088911000800000000FA
:10002000000000000000000000000000891100082E
:100030008911000800000000891100082D16000831
:100040008911000889110008891100088911000828
:100050008911000889110008891100088911000818
:10006000310E00082D0F00088911000889110008C1
:1000700089110008891100088911000889110008F8
:10008000891100088911000889110008000000008A
:1000900000000000000000000000000089110008BE
:1000A00089110008891100088911000889110008C8
:1000B000610C0008891100088911000889110008E5
:1000C00089110008891100088911000889110008A8
:1000D0008911000889110008891100088911000898
:1000E000891100088911000889110008000000002A
:1000F0000000000000000000000000000000000000
:1001000000000000000000000000000000000000EF
:10011000000000000000000089110008891100089B
:040120005FF808F18B
:1001240010B5054C237833B9044B13B10448AFF32D
:1001340000800123237010BD900400200000000003
:100144002401000808B5034B1BB103490348AFF36E
:10015400008008BD00000000940400202401000871
:1001640081F0004102E000BF83F0004330B54FEA64
:1001740041044FEA430594EA050F08BF90EA020FD1
:100184001FBF54EA000C55EA020C7FEA645C7FEA64
:10019400655C00F0E2804FEA5454D4EB5555B8BF87
:1001A4006D420CDD2C4480EA020281EA030382EAF8
:1001B400000083EA010180EA020281EA0303362D8A
:1001C40088BF30BD11F0004F4FEA01314FF4801C5D
:1001D4004CEA113102D0404261EB410113F0004F6F
:1001E4004FEA03334CEA133302D0524263EB430326
:1001F40094EA050F00F0A780A4F10104D5F1200EC4
:100204000DDB02FA0EFC22FA05F2801841F100011E
:1002140003FA0EF2801843FA05F359410EE0A5F1F2
:1002240020050EF1200E012A03FA0EFC28BF4CF023
:10023400020C43FA05F3C01851EBE37101F00045D9
:1002440007D54FF0000EDCF1000C7EEB00006EEBE6
:100254000101B1F5801F1BD3B1F5001F0CD3490870
:100264005FEA30004FEA3C0C04F101044FEA4452C7
:1002740012F5800F80F09A80BCF1004F08BF5FEA4E
:10028400500C50F1000041EB045141EA050130BD2E
:100294005FEA4C0C404141EB010111F4801FA4F1D1
:1002A4000104E9D191F0000F04BF01460020B1FA26
:1002B40081F308BF2033A3F10B03B3F120020CDA5E
:1002C4000C3208DD02F1140CC2F10C0201FA0CF03C
:1002D40021FA02F10CE002F11402D8BFC2F1200CA1
:1002E40001FA02F120FA0CFCDCBF41EA0C01904057
:1002F400E41AA2BF01EB0451294330BD6FEA0404A0
:100304001F3C1CDA0C340EDC04F11404C4F120028A
:1003140020FA04F001FA02F340EA030021FA04F39C
:1003240045EA030130BDC4F10C04C4F1200220FAF3
:1003340002F001FA04F340EA0300294630BD21FA31
:1003440004F0294630BD94F0000F83F4801306BFF7
:1003540081F480110134013D4EE77FEA645C18BFEB
:100364007FEA655C29D094EA050F08BF90EA020F82
:1003740005D054EA000C04BF1946104630BD91EA7A
:10038400030F1EBF0021002030BD5FEA545C05D17D
:100394004000494128BF41F0004130BD14F58004BC
:1003A4003CBF01F5801130BD01F0004545F0FE4130
:1003B40041F470014FF0000030BD7FEA645C1ABF65
:1003C400194610467FEA655C1CBF0B46024650EA9C
:1003D400013406BF52EA033591EA030F41F40021C8
:1003E40030BD00BF90F0000F04BF0021704730B54E
:1003F4004FF4806404F132044FF000054FF0000123
:1004040050E700BF90F0000F04BF0021704730B5E3
:100414004FF4806404F1320410F0004548BF4042B8
:100424004FF000013EE700BF42004FEAE2014FEA0D
:1004340031014FEA02701FBF12F07F4393F07F4FE8
:1004440081F06051704732F07F4208BF704793F0EB
:100454007F4F04BF41F40021704730B54FF46074FE
:1004640001F0004521F000411CE700BF50EA010201
:1004740008BF704730B54FF000050AE050EA0102AA
:1004840008BF704730B511F0004502D5404261EB1A
:1004940041014FF4806404F132045FEA915C3FF45B
:1004A400D8AE4FF003025FEADC0C18BF03325FEAF8
:1004B400DC0C18BF033202EBDC02C2F1200300FAA9
:1004C40003FC20FA02F001FA03FE40EA0E0021FACE
:1004D40002F11444BDE600BF70B54FF0FF0C4CF4BC
:1004E400E06C1CEA11541DBF1CEA135594EA0C0F6E
:1004F40095EA0C0F00F0DEF82C4481EA030621EAA9
:100504004C5123EA4C5350EA013518BF52EA0335E3
:1005140041F4801143F4801338D0A0FB02CE4FF095
:100524000005E1FB02E506F00042E0FB03E54FF0C5
:100534000006E1FB03569CF0000F18BF4EF0010EBD
:10054400A4F1FF04B6F5007F64F5407404D25FEAB9
:100554004E0E6D4146EB060642EAC62141EA55516C
:100564004FEAC52040EA5E504FEACE2EB4F1FD0CAE
:1005740088BFBCF5E06F1ED8BEF1004F08BF5FEA2C
:10058400500E50F1000041EB045170BD06F00046DE
:1005940046EA010140EA020081EA0301B4EB5C048B
:1005A400C2BFD4EB0C0541EA045170BD41F4801183
:1005B4004FF0000E013C00F3AB8014F1360FDEBFA8
:1005C400002001F0004170BDC4F10004203C35DA84
:1005D4000C341BDC04F11404C4F1200500FA05F307
:1005E40020FA04F001FA05F240EA020001F00042A8
:1005F40021F0004110EBD37021FA04F642EB06011E
:100604005EEA430E08BF20EAD37070BDC4F10C0447
:10061400C4F1200500FA04F320FA05F001FA04F20B
:1006240040EA020001F0004110EBD37041F10001F7
:100634005EEA430E08BF20EAD37070BDC4F1200502
:1006440000FA05F24EEA020E20FA04F301FA05F26A
:1006540043EA020321FA04F001F0004121FA04F212
:1006640020EA020000EBD3705EEA430E08BF20EAE2
:10067400D37070BD94F0000F0FD101F0004640001C
:1006840041EB010111F4801F08BF013CF7D041EA9E
:10069400060195F0000F18BF704703F000465200A2
:1006A40043EB030313F4801F08BF013DF7D043EA73
:1006B4000603704794EA0C0F0CEA135518BF95EA29
:1006C4000C0F0CD050EA410618BF52EA4306D1D1B0
:1006D40081EA030101F000414FF0000070BD50EACF
:1006E400410606BF1046194652EA430619D094EA59
:1006F4000C0F02D150EA013613D195EA0C0F05D143
:1007040052EA03361CBF104619460AD181EA030196
:1007140001F0004141F0FE4141F470014FF000004E
:1007240070BD41F0FE4141F4780170BD70B54FF0E9
:10073400FF0C4CF4E06C1CEA11541DBF1CEA135569
:1007440094EA0C0F95EA0C0F00F0A7F8A4EB05044B
:1007540081EA030E52EA03354FEA013100F0888042
:100764004FEA03334FF0805545EA131343EA12630B
:100774004FEA022245EA111545EA10654FEA0026C0
:100784000EF000419D4208BF964244F1FD0404F579
:10079400407402D25B084FEA3202B61A65EB0305D5
:1007A4005B084FEA32024FF480104FF4002CB6EB92
:1007B400020E75EB030E22BFB61A754640EA0C0012
:1007C4005B084FEA3202B6EB020E75EB030E22BF52
:1007D400B61A754640EA5C005B084FEA3202B6EB93
:1007E400020E75EB030E22BFB61A754640EA9C0052
:1007F4005B084FEA3202B6EB020E75EB030E22BF22
:10080400B61A754640EADC0055EA060E18D04FEADF
:10081400051545EA16754FEA06164FEAC30343EA7F
:1008240052734FEAC2025FEA1C1CC0D111F4801F4C
:100834000BD141EA00014FF000004FF0004CB6E745
:1008440011F4801F04BF01430020B4F1FD0C88BFE4
:10085400BCF5E06F3FF6AFAEB5EB030C04BFB6EBEF
:10086400020C5FEA500C50F1000041EB045170BDE2
:100874000EF0004E4EEA113114EB5C04C2BFD4EB0F
:100884000C0541EA045170BD41F480114FF0000E93
:10089400013C90E645EA060E8DE60CEA135594EA0F
:1008A4000C0F08BF95EA0C0F3FF43BAF94EA0C0F12
:1008B4000AD150EA01347FF434AF95EA0C0F7FF487
:1008C40025AF104619462CE795EA0C0F06D152EADB
:1008D40003353FF4FDAE1046194622E750EA4106BF
:1008E40018BF52EA43067FF4C5AE50EA41047FF4D0
:1008F4000DAF52EA43057FF4EBAE12E74FEA410233
:1009040012F5001215D211D56FF47873B3EB62525D
:1009140012D94FEAC12343F0004343EA505311F084
:10092400004F23FA02F018BF404270474FF0000016
:10093400704750EA013005D111F0004008BF6FF054
:10094400004070474FF00000704700BF80B58CB086
:1009540002AF07F1180001230093002302220021B3
:1009640000F013FC07F10800012300930023032285
:10097400002100F00AFC07F11803184600F01EFCE1
:1009840007F10803184600F019FC3B1D184600F057
:1009940027FE0C4A07F1180313600B4A07F10803FA
:1009A40013600A4A3B1D136000F012F800F060F86F
:1009B40000F092F800F0BCF800F0DEF800F018F94E
:1009C400FEE700BFDC040020E0040020D80400207F
:1009D40080B582B000AF00F0C3FE4FF4803000F069
:1009E400EDFE00F019FF0346FB71FB79012B32D1B8
:1009F400002000F09DFF002000F0D2FF4FF4806043
:100A040000F0B2FF022001F04DF9102001F066F968
:100A14004FF400214FF4803000F032FF012000F049
:100A24004DFF392001F006F90346002B0CBF0123CA
:100A34000023DBB2002B00D0F3E7022000F04EFFCE
:100A440000F068FF0346082B14BF01230023DBB228
:100A5400002B00D0F4E7012144F2050001F072F804
:100A64000121012001F08CF800BF0837BD4680BD8C
:100A740080B584B000AF4FF0804001F047F94FF0EB
:100A8400804001F017FB43F67F63BB8000237B812A
:100A94000023FB8040F2CF733B813B1D19464FF08E
:100AA400804001F049FA01214FF0804001F032FB0F
:100AB40000214FF0804001F00EFB012201214FF094
:100AC400804001F0D4FA01214FF0804001F0B0FAE7
:100AD40000BF1037BD4680BD80B500AF114B1B6809
:100AE400184600F0D3FC104B1B680F4A43F0040374
:100AF40013600D4BDB680C4A43F00403D3600B4BCB
:100B04001B68184600F0C2FC074B1B68064A43F0FA
:100B140008031360044BDB68034A43F00803D36003
:100B240000BF80BDDC04002000040140E00400207C
:100B340080B584B000AF4FF4E1333B600023BB8049
:100B44000023FB8000233B810023BB810C237B819A
:100B54003B461946074801F027FB0121054801F0EF
:100B6400E3FB4021034801F02FFC00BF1037BD46D2
:100B740080BD00BF0038014080B582B000AF4FF4A3
:100B8400C06000F07DFD08233B7100237B710023CE
:100B9400BB710123FB713B1D184600F083FD1C2330
:100BA4003B7100237B710123BB710123FB713B1D4E
:100BB400184600F077FD09233B7101237B71002364
:100BC400BB710123FB713B1D184600F06BFD25230F
:100BD4003B7101237B710123BB710123FB713B1D1D
:100BE400184600F05FFD00BF0837BD4680BD000019
:100BF40090B400AF114B00221A60114B00221A600E
:100C0400104B00221A60104A4FF000034FF000040A
:100C1400C2E900340D4A4FF000034FF00004C2E96A
:100C240000340B4B00221A600A4B00221A600A4B54
:100C340000221A6000BFBD4690BC7047BC0400206F
:100C4400C0040020C4040020C8040020D0040020F4
:100C5400B8040020B0040020B4040020F0B5ADF5C1
:100C6400037D00AF3B1D00221A7001214FF080402C
:100C740001F060FA0346002B14BF01230023DBB20A
:100C8400002B00F0B58001214FF0804001F07BFA89
:100C94005A4B1B680133594A1360584B1968584B17
:100CA400A3FB01235A0813465B001344CA1A002A03
:100CB40040F09E80534B1B68012B0CD0012B02D3B8
:100CC400022B10D040E04D4B1A683B1D4E4918468C
:100CD40001F08AFB69E04D4B1A683B1D4C491846EC
:100CE40001F082FB61E04B4B18CB18462146FFF71D
:100CF40005FE0646474BD3E90045464BD3E900239E
:100D040010461946FFF7FAFD03461846FFF77AFB2B
:100D140002460B4620462946FFF726FA03460C46B0
:100D2400184621464FF000023B4BFFF7D5FB034624
:100D34000C4618462146FFF7E1FD0346381D3246AE
:100D4400364901F051FB30E0354B18CB18462146AB
:100D5400FFF7D4FD0646324BD3E90045304BD3E9C7
:100D6400002310461946FFF7C9FD03461846FFF74E
:100D740049FB02460B4620462946FFF7F5F9034690
:100D84000C46184621464FF00002234BFFF7A4FB04
:100D940003460C4618462146FFF7B0FD0346381DAE
:100DA4003246204901F020FB00BF0023C7F804327B
:100DB4003A1DD7F8043213441B78002B18D0D7F807
:100DC40004325A1CC7F804223A1DD35C9BB219465C
:100DD400154801F0C8FA4021134801F0D5FA03463A
:100DE400002B0CBF01230023DBB2002BE0D0F2E781
:100DF40000BF07F50377BD46F0BD00BFB004002077
:100E0400ABAAAAAAB8040020282C0008C004002019
:100E1400382C0008C8040020000059404C2C00085D
:100E2400D0040020682C000800380140B0B500AFA1
:100E3400334B1B680A21184600F09EFB314B1B689C
:100E4400184600F0F1FA0346002B0CBF01230023DF
:100E5400DBB2002B4FD02C4B1B6801332A4A1360A2
:100E6400294B1B685B00294A1360294B1A68294BDC
:100E74001B689A4237D9264B1B68002B33D0234B6F
:100E84001A68254B1B68D31A1846FFF7ABFA0446B9
:100E94000D461F4B1A681F4B1B68D31A1846FFF7E1
:100EA400A1FA02460B4620462946FFF73FFC0346BB
:100EB4000C461A4AC2E90034144B1B681846FFF763
:100EC40091FA04460D46124B1B681846FFF78AFA3E
:100ED40002460B4620462946FFF728FC03460C46EB
:100EE4000F4AC2E900340A4B1B680A4A1360074BD5
:100EF4001B68094A13600B4B04225A6100BFB0BD42
:100F0400D8040020DC040020BC040020C00400201D
:100F1400B0040020B4040020C4040020C80400204D
:100F2400D00400200004014080B500AF0F4B1B68C3
:100F34000A21184600F020FB0D4B1B68184600F0F0
:100F440073FA0346002B0CBF01230023DBB2002BF2
:100F540006D0084B1B68013303F00303054A1360F2
:100F6400054B08225A6100BF80BD00BFD804002091
:100F7400E0040020B80400200004014080B500AF64
:100F8400154B1B68144A43F001031360124B5A6853
:100F94001149124B13404B600F4B1B680E4A23F050
:100FA400847323F4803313600B4B1B680A4A23F4C5
:100FB40080231360084B5B68074A23F4FE035360E5
:100FC400054B4FF41F029A6000F00CF8044B4FF0ED
:100FD40000629A6000BF80BD001002400000FFF86C
:100FE40000ED00E080B500AF00F002F800BF80BD66
:100FF40080B483B000AF00237B6000233B60474B89
:101004001B68464A43F480331360444B1B6803F463
:1010140000333B607B6801337B603B68002B05D168
:101024007B68B3F5A06F01D0012300E00023002BFF
:1010340000D0EAE7394B1B6803F40033002B14BFDC
:1010440001230023DBB2002B02D001233B6001E02B
:1010540000233B603B68012B0CBF01230023DBB260
:10106400002B55D02E4B1B682D4A43F01003136000
:101074002B4B1B682A4A23F003031360284B1B687D
:10108400274A43F002031360244B244A5B685360ED
:10109400224B224A5B685360204B5B681F4A43F42F
:1010A400806353601D4B5B681C4A23F47C135360BC
:1010B4001A4B5B68194A43F4E8135360174B1B68D7
:1010C400164A43F080731360144B1B6803F00073DB
:1010D400002B0CBF01230023DBB2002B00D0F3E76D
:1010E4000E4B5B680D4A23F0030353600B4B5B68A4
:1010F4000A4A43F002035360084B5B6803F00C0395
:10110400082B14BF01230023DBB2002B00D0F3E72C
:1011140000BF0C37BD4680BC704700BF00100240C2
:101124000020024080B582B000AF114B7B60114BB0
:101134003B603B68104A934208D27A68131D7B6077
:101144003B68191D396012681A60F2E70B480C49B4
:101154004FF000028842B8BF40F8042BFADBFFF7D7
:101164000DFFFFF7F3FB00BF0837BD4680BD00BF8E
:10117400D82C0008000000208C00002090040020DF
:101184001405002080B400AFFEE780B485B000AF42
:10119400F860B9607A603B60FB68BA681A60FB6803
:1011A4007A685A60FB683A689A60FB68BA69DA60E0
:1011B400FB6818461437BD4680BC704780B489B0BC
:1011C40000AF786001233B610023FB610023BB6116
:1011D4000023FB6000237B617B681B68002B1BDB07
:1011E4007B681B68032B17DC7B689B68002B03D090
:1011F4007B689B68012B0FD17B68DB68002B0BDBC2
:101204007B68DB68042B07DC7B685B68002B03DBF3
:101214007B685B680F2B01DD0023F4E07B681B68AF
:101224007B4A32F813301A467B685B6842FA03F350
:1012340003F00103002B01D00023E4E07B681B686A
:10124400744A52F82330002B3CD17B681B68002B76
:101254000CD17B681B686F4A6F4942F823106F4BAF
:101264009B696E4A43F0040393612BE07B681B681F
:10127400012B0CD17B681B68664A694942F823102C
:10128400664B9B69654A43F0080393611AE07B68E7
:101294001B68022B0CD17B681B685E4A614942F8CB
:1012A40023105E4B9B695D4A43F01003936109E090
:1012B4007B681B68032B05D1584B9B69574A43F045
:1012C400200393617B689B68002B16D17B68DB68E5
:1012D400012B02D14823BB6122E07B68DB68022B2F
:1012E40002D12823BB611BE07B68DB68002B02D1A1
:1012F4000023BB6114E0002385E07B68DB68032BDB
:1013040002D11423BB6108E07B68DB68042B02D1A3
:101314001023BB6101E0002375E0BB690133BB61AD
:101324007B685B68072B0ADC7B681B68394A52F8C8
:1013340023301B68FB617B685B687B610AE07B6828
:101344001B68344A52F823305B68FB617B685B6836
:10135400083B7B617B699B000F2202FA03F3FB606D
:10136400FB68DB43FA691340FB617B699B00BA6944
:1013740002FA03F3FA691343FB617B68DB68022B0F
:101384000BD17B685A687B681B68224951F823306B
:10139400012101FA02F25A610EE07B68DB68012B3D
:1013A4000AD17B685A687B681B681A4951F8233054
:1013B400012101FA02F21A617B685B68072B07DCE2
:1013C4007B681B68134A52F82330FA691A6006E0F6
:1013D4007B681B680F4A52F82330FA695A607B68AD
:1013E4001B680B4A32F813301AB27B685B68012120
:1013F40001FA03F31BB213431AB27B681B6891B260
:10140400034A22F8131018462437BD4680BC70479F
:10141400E4040020EC040020000801400010024015
:10142400000C01400010014080B483B000AF78602C
:101434007B681B68134A32F813301A467B685B6872
:1014440042FA03F303F00103002B14D07B681B68FA
:101454000D4A52F823309A687B685B6822FA03F3DA
:1014640003F00103002B14BF01230023DBB2002B84
:1014740001D0012300E0002318460C37BD4680BC90
:10148400704700BFE4040020EC04002080B485B061
:1014940000AF78601F4B9B691E4A43F001039361C0
:1014A4000023FB607B685B6803F003039B000F224F
:1014B40002FA03F3FB60184A7B685B689B100233F3
:1014C40052F82310FB68DA4313487B685B689B106F
:1014D4000A40023340F823200F4A7B685B689B1064
:1014E400023352F823107B681B681A467B685B68DA
:1014F40003F003039B009A4007487B685B689B10DA
:101504000A43023340F82320012318461437BD460A
:1015140080BC7047001002400000014080B483B0DA
:1015240000AF03463960FB7197F90730002B0DDAE1
:101534003B68DAB20E4997F90730DBB203F00F03C8
:10154400043B1201D2B20B441A760BE03B68DBB2C7
:10155400084A97F9071008461B01D9B213180A461E
:1015640083F8002300BF0C37BD4680BC704700BF22
:1015740000ED00E000E100E080B487B000AF7860E7
:101584003960144B9B687B61134B1B68134AA2FBA5
:1015940003239B093A6802FB03F33B610D4B9B68F1
:1015A400FB60FA687B699A4206D93A697B69D31A67
:1015B4003B616FF07F437B617A69FB68D31A3A69B8
:1015C4009A4200D9EAE700BF00BF1C37BD4680BC81
:1015D400704700BF10E000E000000020D34D62100F
:1015E40080B582B000AF78600D4B00221A600D4BBD
:1015F40000221A600B4B00229A600A4B6FF07F4264
:101604005A600F214FF0FF30FFF788FF054B1B682E
:10161400044A43F00703136000BF0837BD4680BD8A
:10162400FC04002010E000E080B400AF104B1B6805
:10163400104A12681049A1FB02129209B3FBF2F19D
:1016440002FB01F29B1A002B08D1094B00221A60FD
:101654000A4B1B680133094A136004E0044B1B68FE
:101664000133034A136000BFBD4680BC704700BF0E
:101674000005002000000020D34D6210FC0400206F
:1016840080B483B000AF7860054A7B6843F0BF63E1
:1016940043F40033D36000BF0C37BD4680BC7047B1
:1016A40000ED00E080B487B000AF786000237B6178
:1016B40000233B610F23FB607B68DB78002B38D071
:1016C400254BDB68DB431B0A03F007037B617B6963
:1016D400C3F104033B61FA687B6922FA03F3FB60FC
:1016E4007B685B781A463B6902FA03F37B617B688B
:1016F4009B781A46FB6813407A6913437B617B69C4
:101704001B017B61154A7B681B787969C9B2134454
:101714000A4683F800237B681B7803F01F020F49F5
:101724007B681B785B11012000FA02F241F8232048
:101734000DE07B681B7803F01F0208497B681B7867
:101744005B11012000FA02F2203341F8232000BF8C
:101754001C37BD4680BC704700ED00E000E100E0AE
:1017640080B400AF134B1B68124A43F001031360AB
:10177400104B5A680F49104B13404B600D4B1B68BC
:101784000C4A23F0847323F480331360094B1B68E1
:10179400084A23F480231360064B5B68054A23F44C
:1017A400FE035360034B4FF41F029A6000BFBD4613
:1017B40080BC7047001002400000FFF880B483B082
:1017C40000AF7860134B1B68124A23F48033136014
:1017D400104B1B680F4A23F4802313607B68B3F516
:1017E400803F03D0B3F5802F07D00DE0094B1B6871
:1017F400084A43F48033136006E0064B1B68054A2D
:1018040043F4A023136000BF00BF0C37BD4680BC67
:10181400704700BF0010024080B584B000AF0023C1
:10182400BB600023FB710023FB73312000F002FA3C
:101834000346FB73BB680133BB60BB68B3F5A06FA1
:1018440004D0FB7B002B01D1012300E00023002BFB
:1018540000D0EAE7312000F0EDF90346002B14BF75
:1018640001230023DBB2002B02D00123FB7101E032
:101874000023FB71FB7918461037BD4680BD00007C
:1018840080B485B000AF786039600023FB600A4BF8
:101894005B68FB60FB6823F47C13FB607A683B683D
:1018A4001343FA681343FB60034AFB68536000BFA9
:1018B4001437BD4680BC70470010024080B483B02A
:1018C40000AF0346FB71044AFB79136000BF0C3779
:1018D400BD4680BC704700BF6000424280B485B002
:1018E40000AF78600023FB60094B5B68FB60FB681A
:1018F40023F00303FB60FA687B681343FB60044A2C
:10190400FB68536000BF1437BD4680BC704700BFFE
:101914000010024080B400AF044B5B68DBB203F0FC
:101924000C03DBB21846BD4680BC70470010024071
:1019340080B485B000AF78600023FB60094B5B681E
:10194400FB60FB6823F0F003FB60FA687B681343D9
:10195400FB60044AFB68536000BF1437BD4680BC7B
:10196400704700BF0010024080B485B000AF7860BB
:101974000023FB60094B5B68FB60FB6823F4E063B6
:10198400FB60FA687B681343FB60044AFB6853609E
:1019940000BF1437BD4680BC704700BF0010024032
:1019A40080B485B000AF78600023FB60094B5B68AE
:1019B400FB60FB6823F46053FB607B68DB00FA6820
:1019C4001343FB60034AFB68536000BF1437BD46F2
:1019D40080BC70470010024080B487B000AF7860CC
:1019E40000237B6100233B610023FB600023BB6079
:1019F4004F4B5B6803F00C037B617B69042B07D0BE
:101A0400082B09D0002B38D17B684A4A1A6038E089
:101A14007B68484A1A6034E0454B5B6803F47013F2
:101A24003B61434B5B6803F48033FB603B699B0C75
:101A340002333B61FB68002B06D13B693E4A02FB43
:101A440003F27B681A601CE0394B5B6803F40033D3
:101A5400002B14BF01230023DBB2002B06D03B690B
:101A6400354A02FB03F27B681A600AE03B69314A9B
:101A740002FB03F27B681A6003E07B682D4A1A605C
:101A840000BF2B4B5B6803F0F0037B617B691B0990
:101A94007B612A4A7B6913441B78DBB2BB607B6899
:101AA4001A68BB68DA407B685A60214B5B6803F4B0
:101AB400E0637B617B691B0A7B61204A7B69134479
:101AC4001B78DBB2BB607B685A68BB68DA407B6812
:101AD4009A60174B5B6803F460537B617B69DB0A94
:101AE4007B61164A7B6913441B78DBB2BB607B685D
:101AF4005A68BB68DA407B68DA600D4B5B6803F4B4
:101B040040437B617B699B0B7B610D4A7B6913447A
:101B14001B78DBB2BB607B68DA68BB68B2FBF3F2AC
:101B24007B681A6100BF1C37BD4680BC704700BF8C
:101B34000010024000127A0000093D001400002049
:101B44002400002080B483B000AF78600B46FB70A3
:101B5400FB78002B06D0094B9A6908497B6813432C
:101B64008B6106E0054B9A697B68DB4303491340AC
:101B74008B6100BF0C37BD4680BC7047001002402B
:101B840080B483B000AF78600B46FB70FB78002B09
:101B940006D0094BDA6908497B681343CB6106E038
:101BA400054BDA697B68DB4303491340CB6100BF13
:101BB4000C37BD4680BC70470010024080B483B02F
:101BC40000AF78600B46FB70FB78002B06D0094B06
:101BD400DA6808497B681343CB6006E0054BDA6892
:101BE4007B68DB4303491340CB6000BF0C37BD4621
:101BF40080BC70470010024080B483B000AF7860AE
:101C04000B46FB70FB78002B06D0094B1A69084978
:101C14007B6813430B6106E0054B1A697B68DB4361
:101C2400034913400B6100BF0C37BD4680BC7047AD
:101C34000010024080B487B000AF0346FB7100235C
:101C4400FB6000237B610023FB74FB795B11FB6069
:101C5400FB68012B03D1124B1B687B6109E0FB6815
:101C6400022B03D10E4B1B6A7B6102E00C4B5B6AB7
:101C74007B61FB7903F01F03FB607A69FB6822FA3E
:101C840003F303F00103002B02D00123FB7401E0F2
:101C94000023FB74FB7C18461C37BD4680BC704790
:101CA4000010024080B485B000AF78600023FB6070
:101CB400094B1B68FB60FB6803F03803FB60FA68A0
:101CC4007B681343FB60044AFB68136000BF14374E
:101CD400BD4680BC704700BF0020024080B483B082
:101CE40000AF7860084B1B68074A23F010031360A9
:101CF400054B1A6804497B6813430B6000BF0C371B
:101D0400BD4680BC704700BF0020024080B582B051
:101D140000AF78607B68784A93420AD101214FF47E
:101D24000060FFF74BFF00214FF40060FFF746FF10
:101D3400DEE07B68B3F1804F08D101210120FFF779
:101D44005BFF00210120FFF757FFD1E07B686B4A5E
:101D5400934208D101210220FFF74EFF0021022007
:101D6400FFF74AFFC4E07B68654A934208D101212A
:101D74000420FFF741FF00210420FFF73DFFB7E0F7
:101D84007B68604A934208D101210820FFF734FFA1
:101D940000210820FFF730FFAAE07B685A4A9342EB
:101DA40008D101211020FFF727FF00211020FFF7A1
:101DB40023FF9DE07B68554A934208D101212020EE
:101DC400FFF71AFF00212020FFF716FF90E07B6841
:101DD4004F4A93420AD101214FF40050FFF7EEFE1F
:101DE40000214FF40050FFF7E9FE81E07B68494A87
:101DF40093420AD101214FF40020FFF7DFFE0021B6
:101E04004FF40020FFF7DAFE72E07B68424A934207
:101E14000AD101214FF48010FFF7D0FE00214FF4C6
:101E24008010FFF7CBFE63E07B683C4A93420AD103
:101E340001214FF40010FFF7C1FE00214FF4001000
:101E4400FFF7BCFE54E07B68354A934208D1012178
:101E54004020FFF7D1FE00214020FFF7CDFE47E0F0
:101E64007B68304A934208D101218020FFF7C4FEE9
:101E740000218020FFF7C0FE3AE07B682A4A9342A3
:101E84000AD101214FF48070FFF7B6FE00214FF410
:101E94008070FFF7B1FE2BE07B68244A93420AD19D
:101EA40001214FF48030FFF789FE00214FF4803088
:101EB400FFF784FE1CE07B681D4A93420AD101218E
:101EC4004FF40030FFF77AFE00214FF40030FFF7A3
:101ED40075FE0DE07B68174A934209D101214FF446
:101EE4008020FFF76BFE00214FF48020FFF766FE91
:101EF40000BF0837BD4680BD002C014000040040EF
:101F040000080040000C0040001000400014004095
:101F140000340140004C0140005001400054014095
:101F240000180040001C0040002000400040014018
:101F3400004401400048014080B485B000AF78609F
:101F440039600023FB817B681B88FB817B682E4AF8
:101F5400934213D07B682D4A93420FD07B68B3F130
:101F6400804F0BD07B682A4A934207D07B68294A6A
:101F7400934203D07B68284A934208D1FB8923F01B
:101F84007003FB813B685A88FB891343FB817B68A0
:101F9400224A93420CD07B68214A934208D0FB89A1
:101FA40023F44073FB813B68DA88FB891343FB818C
:101FB4007B68FA891A803B689A887B689A853B68B3
:101FC4001A887B681A857B680F4A93420FD07B6816
:101FD4000E4A93420BD07B68124A934207D07B6827
:101FE400114A934203D07B68104A934204D13B6860
:101FF4001B7A9AB27B681A867B6801229A8200BF98
:102004001437BD4680BC7047002C014000340140A9
:102014000004004000080040000C00400010004094
:1020240000140040004001400044014000480140C9
:1020340080B483B000AF78600B46FB70FB78002B54
:1020440008D07B681B889BB243F001039AB27B687B
:102054001A8007E07B681B889BB223F001039AB2C5
:102064007B681A8000BF0C37BD4680BC704780B4C3
:1020740083B000AF78600B467B8013467B707B781F
:10208400002B08D07B689B899AB27B8813439AB251
:102094007B689A8109E07B689B899AB27B88DB43E1
:1020A4009BB213409AB27B689A8100BF0C37BD463D
:1020B40080BC704780B483B000AF78607B681B89B4
:1020C4009BB223F007039AB27B681A8100BF0C37D6
:1020D400BD4680BC704780B483B000AF78600B46C7
:1020E400FB70FB78002B08D07B681B889BB243F005
:1020F40080039AB27B681A8007E07B681B889BB2D6
:1021040023F080039AB27B681A8000BF0C37BD4667
:1021140080BC704780B483B000AF78600B467B808E
:102124007B88DB439AB27B681A8200BF0C37BD46BA
:1021340080BC704780B485B000AF78600B467B806C
:102144000023FB730023BB8100237B817B681B8AF4
:102154009AB27B881340BB817B689B899AB27B8847
:1021640013407B81BB89002B05D07B89002B02D0D7
:102174000123FB7301E00023FB73FB7B1846143738
:10218400BD4680BC704780B483B000AF78600B4616
:102194007B807B88DB439AB27B681A8200BF0C3752
:1021A400BD4680BC7047000080B58CB000AF78603D
:1021B40039600023FB620023BB6200237B6200239F
:1021C4003B620023FB617B68FB617B681B8A9BB2DB
:1021D400FB62FA6A4CF6FF731340FB623B68DB88D0
:1021E4001A46FB6A1343FB62FB6A9AB27B681A8243
:1021F4007B689B899BB2FB62FA6A4EF6F313134029
:10220400FB623B689A883B681B8913439AB23B681C
:102214005B8913439BB21A46FB6A1343FB62FB6A56
:102224009AB27B689A817B689B8A9BB2FB62FA6A4A
:102234004FF6FF431340FB623B689B891A46FB6AD7
:102244001343FB62FB6A9AB27B689A8207F1080324
:102254001846FFF7C1FBFB69314A934202D17B69FF
:10226400BB6201E03B69BB627B689B899BB21BB28A
:102274009BB2DB0BDBB2002B0CD0BA6A13469B007B
:1022840013449A001A443B681B685B00B2FBF3F3E7
:102294007B620BE0BA6A13469B0013449A001A440B
:1022A4003B681B689B00B2FBF3F37B627B6A1D4AAD
:1022B400A2FB03235B091B01FB62FB6A1B0964226B
:1022C40002FB03F37A6AD31A3B627B689B899BB255
:1022D4001BB29BB2DB0BDBB2002B0CD03B6ADB00E6
:1022E4003233104AA2FB03235B0903F00703FA6AA3
:1022F4001343FB620BE03B6A1B013233094AA2FB26
:1023040003235B0903F00F03FA6A1343FB62FB6ABE
:102314009AB27B681A8100BF3037BD4680BD00BFCA
:10232400003801401F85EB5180B483B000AF786062
:102334000B46FB70FB78002B08D07B689B899BB213
:1023440043F400539AB27B689A8107E07B689B89C7
:102354009BB223F400539AB27B689A8100BF0C3776
:10236400BD4680BC704780B483B000AF78600B4634
:102374007B807B88C3F308039AB27B689A8000BF92
:102384000C37BD4680BC704780B485B000AF786020
:102394000B467B800023FB737B681B889AB27B8887
:1023A40013409BB2002B14BF01230023DBB2002B8C
:1023B40002D00123FB7301E00023FB73FB7B18466F
:1023C4001437BD4680BC704780B483B000AF7860DA
:1023D4000B467B807B88DB439AB27B681A8000BF04
:1023E4000C37BD4680BC70470EB46FF0004100B599
:1023F4009CB01DAB029006900791049108480949CE
:1024040053F8042B0591006802A9019300F066F8C3
:102414000022029B1A701CB05DF804EB03B07047F5
:10242400280000200802FFFF2DE9F0478E6882464D
:102434009E420C469046994637D88A8912F4906F8A
:1024440031D00223256809696F1A656905EB4505D2
:1024540095FBF3F509F101033B449D4238BF1D464A
:10246400530530D5294600F035FB064650B90C23F8
:102474004FF0FF30CAF80030A38943F04003A38132
:10248400BDE8F0873A46216900F0B4FAA38923F441
:10249400906343F08003A38126613E4426604E4648
:1024A4006561ED1BA5604E4500D94E463246414656
:1024B400206800F0AAFAA36800209B1BA36023688D
:1024C4001E442660DCE72A4600F05EFB0646002830
:1024D400E2D12169504600F0B1FAC8E72DE9F04F86
:1024E4009DB003938B8980461D060C4616460FD576
:1024F4000B696BB9402100F0EDFA2060206128B926
:102504000C23C8F800304FF0FF30C7E0402363616C
:102514000023099320238DF8293030234FF0010B39
:102524008DF82A3037463D4615F8013B0BB1252B73
:102534003ED1B7EB060A0BD05346324621464046FD
:10254400FFF772FF013000F0A480099B5344099304
:102554003B78002B00F09D8000234FF0FF32CDE943
:102564000523049307938DF853301A932F460522BD
:1025740017F8011B4F4800F02FFA049BD0B9D90675
:1025840044BF20228DF853201A0744BF2B228DF814
:1025940053202A782A2A15D02F4600200A25079A84
:1025A400394611F8013B303B092B4DD9B8B10FE046
:1025B4002F46B8E73F4A3D46801A0BFA00F018430D
:1025C4000490D3E7039A111D12680391002A01DBDA
:1025D400079204E0524243F00203079204933B78CB
:1025E4002E2B0CD17B782A2B33D1039B02371A1D57
:1025F4001B680392002BB8BF4FF0FF3305932E4D99
:1026040003223978284600F0E7F938B14023401B0B
:1026140003FA00F0049B013703430493397806223C
:1026240026487E1C8DF8281000F0D6F9002838D0F2
:10263400234B13BB039B073323F007030833039394
:10264400099B4B4409936DE705FB023201200F46B9
:10265400A6E700230A25194601370593384610F8E2
:10266400012B303A092A03D9002BC8D00591C6E7BB
:1026740005FB012101230746F0E703AB0093224643
:10268400104B04A94046AFF30080B0F1FF3F8146F0
:10269400D6D1A3895B063FF536AF09981DB0BDE8D6
:1026A400F08F03AB00932246064B04A9404600F08A
:1026B40081F8EAE7842C00088A2C00088E2C000894
:1026C400000000002D2400082DE9F04791461F4624
:1026D4008A680B6906469342B8BF1346C9F80030AE
:1026E40091F843200C46DDF8208012B10133C9F87B
:1026F40000302368990642BFD9F800300233C9F884
:102704000030256815F0060507D104F1190AE368BD
:10271400D9F800209B1AAB4229DC94F84330226894
:10272400003318BF012392062ED404F14302394624
:102734003046C047013021D02368E56803F0060322
:10274400042B18BF0025D9F800204FF0000908BF5A
:10275400AD1AA368226908BF25EAE5759342C4BF90
:102764009B1AED181A344D451AD1002008E00123B4
:10277400524639463046C047013003D14FF0FF304E
:10278400BDE8F0870135C2E73020E11881F8430045
:102794005A1C94F845102244023382F84310C4E7CB
:1027A4000123224639463046C0470130E6D009F1BC
:1027B4000109D8E72DE9F04301F1430C0C46097EE9
:1027C40085B06E291746064698460C9A00F0B380E9
:1027D40022D8632936D00AD8002900F0B9805829B4
:1027E40000F0838004F1420584F8421032E0642949
:1027F40001D06929F6D120681368050603F10401A4
:102804002AD51B681160002B03DA2D225B4284F861
:1028140043206F480A2239E0732900F09D8008D8CC
:102824006F2920D07029DDD1236843F02003236071
:1028340003E0752917D07829D4D17823654884F822
:10284400453055E0136804F14205191D1B681160F9
:1028540084F8423001238CE01B6810F0400F1160B3
:1028640018BF1BB2CFE713682568181D106028062F
:1028740001D51B6802E06806FBD51B886F2914BFCD
:102884000A2208225248002184F843106568002D6A
:10289400A560C0F29580216821F004012160002B1D
:1028A4003DD1002D40F08E806546082A0BD1236867
:1028B400DB0708D5236962689A42DEBF302305F836
:1028C400013C05F1FF35ACEB05032361CDF8008035
:1028D4003B4603AA21463046FFF7F6FE01304DD1B0
:1028E4004FF0FF3005B0BDE8F083394884F8451057
:1028F400136821681D1D1B6815600A060BD5CA07DD
:1029040044BF41F0200121601BB9226822F020025B
:1029140022601022B7E74D0648BF9BB2EFE7654639
:10292400B3FBF2F102FB1133C35C05F8013D0B4626
:102934000029F5D1B9E713682568181D616910608D
:1029440028061B6801D5196002E06A06FBD51980C8
:10295400002365462361B9E71368191D11601D68DA
:1029640062680021284600F037F808B1401B606017
:1029740063682361002384F84330A7E723692A4668
:1029840039463046C0470130AAD023689B0713D488
:10299400E068039B9842B8BF1846A3E701234A4660
:1029A40039463046C04701309AD00135E368039A6E
:1029B4009B1AAB42F2DCEBE7002504F11909F5E7B9
:1029C400002BACD1037804F1420584F842306CE763
:1029D400952C0008A62C000810B5C9B202449042F8
:1029E400034601D1002303E01C7801308C42F6D168
:1029F400184610BD10B5431E0A44914200D110BDC3
:102A040011F8014B03F8014FF7E7884210B501EBC9
:102A1400020307D8421E99420AD011F8014B02F86A
:102A2400014FF8E78342F5D98118D21AD34200D175
:102A340010BD13F8014D01F8014DF7E738B505460F
:102A4400002943D051F8043C0C1F002BB8BFE418F4
:102A540000F0D0F81E4A1368104633B9636014605E
:102A64002846BDE8384000F0C6B8A3420BD9216817
:102A74006218934201BF1A685B685218226063604F
:102A84000460EDE713465A680AB1A242FAD91968FC
:102A94005818A0420BD1206801445818824219608A
:102AA400DED110685268014419605A60D8E702D92F
:102AB4000C232B60D4E7206821188A4201BF1168D7
:102AC40052680918216062605C60C9E738BD00BFC4
:102AD4000405002070B5CD1C25F0030508350C2D28
:102AE40038BF0C25002D064601DBA94203D90C236F
:102AF4003360002070BD00F07DF8214A146821463F
:102B040091B9204C23681BB9304600F063F820606B
:102B14002946304600F05EF8431C24D10C2330468D
:102B2400336000F068F8E4E70B685B1B18D40B2BE8
:102B34000FD90B60CC18CD50304600F05CF804F18E
:102B44000B00231D20F00700C31AD3D05A42E250D1
:102B5400D0E74B688C4216BF636013600C46EBE70A
:102B64000C464968CCE7C41C24F00304A04205D0F9
:102B7400211A304600F02EF80130CFD02560DBE773
:102B84000405002008050020F8B5074614460E4643
:102B940021B9BDE8F8401146FFF79CBF22B9FFF701
:102BA4004DFF25462846F8BD00F026F8A0420FD276
:102BB40021463846FFF78EFF05460028F2D03146FD
:102BC4002246FFF717FF31463846FFF737FFE9E79C
:102BD4003546E7E738B50023054C0546084623602B
:102BE40000F012F8431C02D1236803B12B6038BDF6
:102BF400100500207047704751F8043C181F002B43
:102C0400BCBF0B58C0187047044A05491368002B11
:102C140008BF0B4618441060184670470C05002086
:102C24001405002054696D6528736563293A2025CD
:102C3400640A000044697374616E6365286D293AFF
:102C44002025640A0000000043757272656E7420CA
:102C54007370656564286B6D2F68293A2025642E8E
:102C640025640A0041766572616765207370656545
:102C740064286B6D2F68293A2025642E25640A0088
:102C8400232D302B2000686C4C0065666745464751
:102C940000303132333435363738394142434445D4
:102CA4004600303132333435363738396162636443
:102CB40065660000F8B500BFF8BC08BC9E467047C6
:0C2CC400F8B500BFF8BC08BC9E46704785
:042CD00049010008AE
:042CD40025010008CE
:102CD80000A24A04000000000000000001020304F2
:102CE80006070809000000000102030401020304AA
:102CF80006070809020406082C000020000000004E
:102D080000000000000000000000000000000000BB
:102D180000000000000000000000000000000000AB
:102D2800000000000000000000000000000000009B
:102D3800000000000000000000000000000000008B
:0400000508001129B5
:00000001FF
