:020000040800F2
:1000000000500020C91C0008851B0008911B000837
:10001000991B0008A11B0008A91B00080000000094
:10002000000000000000000000000000B11B0008FC
:10003000BD1B000800000000C91B0008D51B0008FC
:100040000D1D00080D1D00080D1D00080D1D0008E8
:100050000D1D00080D1D00080D1D00080D1D0008D8
:100060000D1D00080D1D00080D1D00080D1D0008C8
:100070000D1D00080D1D00080D1D00080D1D0008B8
:100080000D1D00080D1D00080D1D00080D1D0008A8
:100090000D1D00080D1D00080D1D00080D1D000898
:1000A0000D1D00080D1D00080D1D00080D1D000888
:1000B0000D1D00080D1D00080D1D00080D1D000878
:1000C0000D1D00080D1D00080D1D00080D1D000868
:1000D0000D1D0008E91900080D1D00080D1D000880
:1000E0000D1D00080D1D00080D1D0008000000007A
:1000F0000000000000000000000000000000000000
:0C01000000000000000000005FF808F1A3
:10010C0010B5054C237833B9044B13B10448AFF345
:10011C0000800123237010BD40040020000000006B
:10012C000C010008084B10B51BB108490848AFF387
:10013C0000800848036803B910BD074B002BFBD0A7
:10014C00BDE81040184700BF000000004404002028
:10015C000C010008400400200000000080B483B0B3
:10016C0000AF7860054A7B6843F0BF6343F400330B
:10017C00D36000BF0C37BD4680BC704700ED00E07B
:10018C0080B487B000AF786000237B6100233B61B3
:10019C000F23FB607B68DB78002B3AD0274BDB68A6
:1001AC00DB4303F4E0631B0A7B617B69C3F104034B
:1001BC003B61FA687B6922FA03F3FB607B685B782E
:1001CC001A463B6902FA03F37B617B689B781A46FB
:1001DC00FB6813407A6913437B617B691B017B616C
:1001EC00174A7B681B787969C9B213440A4683F8AD
:1001FC000023134A7B681B785B09DBB218467B68CB
:10020C001B7803F01F03012101FA03F342F820309D
:10021C000FE00B497B681B785B09DBB218467B68E7
:10022C001B7803F01F0301229A4000F1200341F8D0
:10023C00232000BF1C37BD4680BC704700ED00E09A
:10024C0000E100E080B483B000AF7860396007490A
:10025C003B6823F0604323F07F037A6813438B6081
:10026C0000BF0C37BD4680BC704700BF00ED00E0FE
:10027C0080B483B000AF03460A46FB711346BB71D2
:10028C00BB79002B06D00949084B1A69FB7913433B
:10029C000B6106E00549054B1A69FB79DB431340FA
:1002AC000B6100BF0C37BD4680BC704700ED00E011
:1002BC0080B483B000AF78607B68042B06D1094A08
:1002CC00084B1B6843F00403136005E0054A054B1B
:1002DC001B6823F00403136000BF0C37BD4680BCC1
:1002EC00704700BF10E000E080B582B000AF7860CE
:1002FC007B682F4A934208D10121042000F0F2FDC3
:10030C000021042000F0EEFD4EE07B68294A934268
:10031C0008D10121082000F0E5FD0021082000F0A3
:10032C00E1FD41E07B68244A934208D10121102071
:10033C0000F0D8FD0021102000F0D4FD34E07B68E3
:10034C001E4A934208D10121202000F0CBFD002150
:10035C00202000F0C7FD27E07B68194A934208D1A2
:10036C000121402000F0BEFD0021402000F0BAFD2C
:10037C001AE07B68134A934208D10121802000F0D7
:10038C00B1FD0021802000F0ADFD0DE07B680E4A30
:10039C00934209D101214FF4807000F0A3FD00219C
:1003AC004FF4807000F09EFD00BF0837BD4680BD45
:1003BC0000080140000C01400010014000140140F5
:1003CC0000180140001C01400020014080B500AF26
:1003DC000121012000F086FD0021012000F082FDAA
:1003EC0000BF80BD80B489B000AF78603960002355
:1003FC00FB6100233B610023BB610023FB600023F6
:10040C007B610023BB603B68DB7803F00F03FB616F
:10041C003B68DB7803F01003002B05D03B689B781E
:10042C001A46FB691343FB613B681B88DBB2002B4C
:10043C0044D07B681B687B610023BB6138E00122E0
:10044C00BB6902FA03F3FB603B681B881A46FB6826
:10045C0013403B613A69FB689A4226D1BB699B0009
:10046C00FB600F22FB6802FA03F3BB60BB68DB4343
:10047C007A6913407B61FA69FB6802FA03F37A69C3
:10048C0013437B613B68DB78282B05D10122BB69C8
:10049C009A407B685A6108E03B68DB78482B04D1B2
:1004AC000122BB699A407B681A61BB690133BB614D
:1004BC00BB69072BC3D97B687A691A603B681B88B8
:1004CC00FF2B46D97B685B687B610023BB613AE0FC
:1004DC00BB690833012202FA03F3FB603B681B88FB
:1004EC001A46FB6813403B613A69FB689A4227D174
:1004FC00BB699B00FB600F22FB6802FA03F3BB6035
:10050C00BB68DB437A6913407B61FA69FB6802FACA
:10051C0003F37A6913437B613B68DB78282B05D1A5
:10052C00BB69083301229A407B685A613B68DB78CF
:10053C00482B05D1BB69083301229A407B681A61AC
:10054C00BB690133BB61BB69072BC1D97B687A6975
:10055C005A6000BF2437BD4680BC704780B483B05E
:10056C0000AF78607B684FF6FF721A807B680222BE
:10057C009A707B680422DA7000BF0C37BD4680BCD1
:10058C00704700BF80B485B000AF78600B467B80AD
:10059C000023FB737B689A687B881340002B02D086
:1005AC000123FB7301E00023FB73FB7B184614371C
:1005BC00BD4680BC704700BF80B483B000AF78608C
:1005CC007B689B689BB218460C37BD4680BC704755
:1005DC0080B485B000AF78600B467B800023FB7342
:1005EC007B68DA687B881340002B02D00123FB73F5
:1005FC0001E00023FB73FB7B18461437BD4680BC1F
:10060C00704700BF80B483B000AF78607B68DB6854
:10061C009BB218460C37BD4680BC704780B483B083
:10062C0000AF78600B467B807A887B681A6100BFCC
:10063C000C37BD4680BC704780B483B000AF786087
:10064C000B467B807A887B685A6100BF0C37BD46AD
:10065C0080BC704780B483B000AF78600B467B8061
:10066C0013467B707B78002B03D07A887B681A61E9
:10067C0002E07A887B685A6100BF0C37BD4680BCAB
:10068C00704700BF80B483B000AF78600B467B80AE
:10069C007A887B68DA6000BF0C37BD4680BC704737
:1006AC0080B485B000AF78600B467B804FF480330C
:1006BC00FB607B88FA681343FB607B68FA689A617D
:1006CC007A887B689A617B68FA689A617B689B6917
:1006DC00FB607B689B69FB6000BF1437BD4680BC28
:1006EC00704700BF80B485B000AF03460A46FB716B
:1006FC001346BB710023FB600C4B1B68FB60FA6854
:10070C004FF680731340FB60FB791B01FA681343AF
:10071C00FB60BB79FA681343FB60044AFB68136007
:10072C0000BF1437BD4680BC704700BF00000140BD
:10073C0080B483B000AF0346FB71044AFB791360AD
:10074C0000BF0C37BD4680BC704700BF1C00204268
:10075C0080B487B000AF78600B46FB7000233B6120
:10076C000023FB6000237B610023BB607B68002BB4
:10077C0003DA2E4BDB697B6102E02C4B5B687B61FF
:10078C007B681B0C03F00F03BB607B689BB23B6167
:10079C007B6803F44013B3F5401F0AD17B6923F047
:1007AC0070637B61214A214B5B6823F0706353605B
:1007BC0021E07B6803F48013002B0ED00322BB686E
:1007CC0002FA03F3FB60FB68DB437A6913407B613D
:1007DC007B6943F070637B610DE07B685B0D1B01F3
:1007EC003A6902FA03F3DB437A6913407B617B6954
:1007FC0043F070637B61FB78002B08D07B685B0D4A
:10080C001B013A6902FA03F37A6913437B617B6833
:10081C00002B03DA054A7B69D36102E0034A7B694A
:10082C00536000BF1C37BD4680BC704700000140C0
:10083C0090B484B000AF03460A46FB711346BB71FB
:10084C000023FB60BB7903F003039B000F2202FA29
:10085C0003F3FB601649BB799B08DBB21846144ABC
:10086C00BB799B08DBB2023352F82320FB68DB43D5
:10087C001A40831C41F823200D48BB799B08DBB23E
:10088C001C460B4ABB799B08DBB2023352F823207F
:10089C00F979BB7903F003039B0001FA03F31A43C4
:1008AC00A31C40F8232000BF1037BD4690BC7047F6
:1008BC000000014080B483B000AF7860034A7B68CD
:1008CC00136000BF0C37BD4680BC7047DC00204273
:1008DC0080B400AF134A134B1B6843F00103136041
:1008EC001049104B5A68104B13404B600D4A0D4B7E
:1008FC001B6823F0847323F480331360094A094B7B
:10090C001B6823F480231360064A064B5B6823F4B0
:10091C00FE035360034B4FF41F029A6000BFBD46A9
:10092C0080BC7047001002400000FFF880B483B018
:10093C0000AF7860134A134B1B6823F480331360A9
:10094C00104A104B1B6823F4802313607B68B3F5AB
:10095C00803F03D0B3F5802F07D00DE0094A094B37
:10096C001B6843F48033136006E0064A054B1B6892
:10097C0043F4A023136000BF00BF0C37BD4680BCFE
:10098C00704700BF0010024080B582B000AF00235A
:10099C003B600023FB710023BB71312000F00EFB88
:1009AC000346BB713B6801333B603B68B3F5A06FFA
:1009BC0002D0BB79002BF0D0312000F0FFFA0346B7
:1009CC00002B02D00123FB7101E00023FB71FB79AA
:1009DC0018460837BD4680BD80B485B000AF0346CD
:1009EC00FB710023FB600A4B1B68FB60FB6823F068
:1009FC00F803FB60FB79DB00FA681343FB60044AE5
:100A0C00FB68136000BF1437BD4680BC704700BF45
:100A1C000010024080B483B000AF0346FB71044A5F
:100A2C00FB79136000BF0C37BD4680BC704700BF1C
:100A3C000000424280B485B000AF7860396000237A
:100A4C00FB600A4B5B68FB60FB6823F47C13FB6068
:100A5C007A683B681343FA681343FB60034AFB68EC
:100A6C00536000BF1437BD4680BC70470010024075
:100A7C0080B483B000AF0346FB71044AFB7913606A
:100A8C0000BF0C37BD4680BC704700BF60004242BF
:100A9C0080B485B000AF78600023FB60094B5B68C5
:100AAC00FB60FB6823F00303FB60FA687B6813436D
:100ABC00FB60044AFB68536000BF1437BD4680BC22
:100ACC00704700BF0010024080B400AF044B5B685D
:100ADC00DBB203F00C03DBB21846BD4680BC70479A
:100AEC000010024080B485B000AF78600023FB603A
:100AFC00094B5B68FB60FB6823F0F003FB60FA6852
:100B0C007B681343FB60044AFB68536000BF1437D7
:100B1C00BD4680BC704700BF0010024080B485B059
:100B2C0000AF78600023FB60094B5B68FB60FB68DF
:100B3C0023F4E063FB60FA687B681343FB60044AB0
:100B4C00FB68536000BF1437BD4680BC704700BFC4
:100B5C000010024080B485B000AF78600023FB60C9
:100B6C00094B5B68FB60FB6823F46053FB607B689C
:100B7C00DB00FA681343FB60034AFB68536000BF59
:100B8C001437BD4680BC70470010024080B483B05F
:100B9C0000AF03460A46FB711346BB71BB79002BB1
:100BAC0008D00C490B4B1B78DAB2FB791343DBB240
:100BBC000B7009E00749074B1B78DAB2FB79DB4372
:100BCC00DBB21340DBB20B7000BF0C37BD4680BCF0
:100BDC00704700BF0910024080B483B000AF78604A
:100BEC00034A7B68136000BF0C37BD4680BC70475E
:100BFC00D800424280B485B000AF78600023FB601F
:100C0C00094B5B68FB60FB6823F44043FB60FA68AC
:100C1C007B681343FB60044AFB68536000BF1437C6
:100C2C00BD4680BC704700BF0010024080B483B04A
:100C3C0000AF0346FB710C4B00221A700A4B0022CA
:100C4C001A70FB79012B02D0042B04D007E0064B61
:100C5C0001221A7003E0044B05221A7000BF00BF7A
:100C6C000C37BD4680BC70472010024080B483B066
:100C7C0000AF0346FB71044AFB79136000BF0C37CD
:100C8C00BD4680BC704700BF8004424280B483B034
:100C9C0000AF78600549054B1A6A7B6813430B62F9
:100CAC0000BF0C37BD4680BC704700BF001002402F
:100CBC0080B483B000AF0346FB71044AFB79136028
:100CCC0000BF0C37BD4680BC704700BF3C0442429D
:100CDC0080B487B000AF786000237B6100233B6158
:100CEC000023FB600023BB604C4B5B6803F00C03E0
:100CFC007B617B69042B07D0082B09D0002B33D1E7
:100D0C007B68474A1A6033E07B68454A1A602FE0DB
:100D1C00424B5B6803F470133B61404B5B6803F41C
:100D2C008033FB603B699B0C02333B61FB68002BFF
:100D3C0006D13B693B4A02FB03F27B681A6017E061
:100D4C00364B5B6803F40033002B06D03B69354A05
:100D5C0002FB03F27B681A600AE03B69304A02FB33
:100D6C0003F27B681A6003E07B682D4A1A6000BFAF
:100D7C002A4B5B6803F0F0037B617B691B097B6189
:100D8C00294A7B6913441B78DBB2BB607B681A6809
:100D9C00BB68DA407B685A60204B5B6803F4E06305
:100DAC007B617B691B0A7B611F4A7B6913441B783F
:100DBC00DBB2BB607B685A68BB68DA407B689A60C0
:100DCC00164B5B6803F460537B617B69DB0A7B61C8
:100DDC00154A7B6913441B78DBB2BB607B685A688D
:100DEC00BB68DA407B68DA600C4B5B6803F4404309
:100DFC007B617B699B0B7B610C4A7B6913441B7881
:100E0C00DBB2BB607B68DA68BB68B2FBF3F27B6871
:100E1C001A6100BF1C37BD4680BC704700100240F1
:100E2C0000127A0000093D00000000201000002094
:100E3C0080B483B000AF78600B46FB70FB78002B5E
:100E4C0006D00949084B5A697B6813434B6106E08D
:100E5C000549054B5A697B68DB4313404B6100BF66
:100E6C000C37BD4680BC70470010024080B483B084
:100E7C0000AF78600B46FB70FB78002B06D009495D
:100E8C00084B9A697B6813438B6106E00549054B57
:100E9C009A697B68DB4313408B6100BF0C37BD46FE
:100EAC0080BC70470010024080B483B000AF786003
:100EBC000B46FB70FB78002B06D00949084BDA690E
:100ECC007B681343CB6106E00549054BDA697B6807
:100EDC00DB431340CB6100BF0C37BD4680BC704771
:100EEC000010024080B483B000AF78600B46FB70FA
:100EFC00FB78002B06D00949084BDA687B68134352
:100F0C00CB6006E00549054BDA687B68DB43134090
:100F1C00CB6000BF0C37BD4680BC70470010024050
:100F2C0080B483B000AF78600B46FB70FB78002B6D
:100F3C0006D00949084B1A697B6813430B6106E01C
:100F4C000549054B1A697B68DB4313400B6100BFF5
:100F5C000C37BD4680BC70470010024080B483B093
:100F6C0000AF0346FB71044AFB79136000BF0C37DA
:100F7C00BD4680BC704700BF4004424280B483B081
:100F8C0000AF0346FB71044AFB79136000BF0C37BA
:100F9C00BD4680BC704700BF4C00424280B483B059
:100FAC0000AF0346FB71044AFB79137000BF0C378A
:100FBC00BD4680BC704700BF0710024080B487B0AC
:100FCC0000AF0346FB710023FB6000237B61002311
:100FDC00FB74FB795B09DBB2FB60FB68012B03D173
:100FEC00124B1B687B6109E0FB68022B03D10F4B92
:100FFC001B6A7B6102E00D4B5B6A7B61FB7903F042
:10100C001F03FB607A69FB6822FA03F303F0010308
:10101C00002B02D00123FB7401E00023FB74FB7C4A
:10102C0018461C37BD4680BC704700BF00100240FC
:10103C0080B400AF044A044B5B6A43F08073536284
:10104C0000BFBD4680BC70470010024080B485B024
:10105C0000AF0346FB710023FB73084B9A68FB79C6
:10106C001340002B02D00123FB7301E00023FB7320
:10107C00FB7B18461437BD4680BC704700100240FD
:10108C0080B483B000AF0346FB71044AFB79137044
:10109C0000BF0C37BD4680BC704700BF0A10024031
:1010AC0080B582B000AF78607B68264A93420AD143
:1010BC0001214FF48040FFF715FF00214FF48040D1
:1010CC00FFF710FF3AE07B681F4A93420AD10121D7
:1010DC004FF40030FFF724FF00214FF40030FFF7EE
:1010EC001FFF2BE07B68194A93420AD101214FF470
:1010FC008020FFF715FF00214FF48020FFF710FF31
:10110C001CE07B68124A93420AD101214FF4002063
:10111C00FFF706FF00214FF40020FFF701FF0DE061
:10112C007B680C4A934209D101214FF48010FFF7E0
:10113C00F7FE00214FF48010FFF7F2FE00BF0837D6
:10114C00BD4680BD003801400044004000480040CE
:10115C00004C00400050004080B58CB000AF78606F
:10116C0039600023FB620023BB6200237B620023F7
:10117C003B620023FB617B68FB617B681B8A9BB233
:10118C00FB62FA6A4CF6FF731340FB623B68DB8828
:10119C001A46FB6A1343FB62FB6A9AB27B681A829B
:1011AC007B689B899BB2FB62FA6A4EF6F313134081
:1011BC00FB623B689A883B681B8913439AB23B6875
:1011CC005B8913439BB21A46FB6A1343FB62FB6AAF
:1011DC009AB27B689A817B689B8A9BB2FB62FA6AA3
:1011EC004FF6FF431340FB623B689B891A46FB6A30
:1011FC001343FB62FB6A9AB27B689A8207F108037D
:10120C001846FFF765FDFB692E4A934202D17B69B4
:10121C00BB6201E03B69BB627B689B899BB21BB2E2
:10122C00002B0CDABA6A13469B0013449A001A443A
:10123C003B681B685B00B2FBF3F37B620BE0BA6AA2
:10124C0013469B0013449A001A443B681B689B008E
:10125C00B2FBF3F37B627B6A1B4AA2FB03235B09A1
:10126C001B01FB62FB6A1B09642202FB03F37A6A13
:10127C00D31A3B627B689B899BB21BB2002B0CDAA6
:10128C003B6ADB003233104AA2FB03235B0903F0F9
:10129C000703FA6A1343FB620BE03B6A1B01323310
:1012AC00094AA2FB03235B0903F00F03FA6A1343F9
:1012BC00FB62FB6A9AB27B681A8100BF3037BD466D
:1012CC0080BD00BF003801401F85EB5180B483B056
:1012DC0000AF78607B684FF416521A607B6800226E
:1012EC009A807B680022DA807B6800221A817B68F6
:1012FC000C225A817B6800229A8100BF0C37BD46B4
:10130C0080BC704780B485B000AF78603960002332
:10131C00FB607B681B8A9BB2FB60FA684FF2FF0391
:10132C001340FB603B681A883B685B8813439AB296
:10133C003B689B8813439AB23B68DB8813439BB290
:10134C001A46FB681343FB60FB689AB27B681A82EF
:10135C0000BF1437BD4680BC704700BF80B483B05B
:10136C0000AF78607B6800221A807B6800225A806C
:10137C007B6800229A807B680022DA8000BF0C37E1
:10138C00BD4680BC704700BF80B483B000AF7860AE
:10139C000B46FB70FB78002B08D07B689B899BB2BB
:1013AC0043F400539AB27B689A8107E07B689B896F
:1013BC009BB223F400539AB27B689A8100BF0C371E
:1013CC00BD4680BC704700BF80B487B000AF78606A
:1013DC000B467B8013467B7000233B610023FB6034
:1013EC000023BB6000237B617B687B617B88DBB265
:1013FC005B09DBB23B617B8803F01F03FB600122BE
:10140C00FB6802FA03F3BB603B69012B03D17B69D8
:10141C000C337B6109E03B69022B03D17B691033F0
:10142C007B6102E07B6914337B617B78002B06D0F7
:10143C007B697A691168BA680A431A6006E07B69AD
:10144C007A691168BA68D2430A401A6000BF1C3727
:10145C00BD4680BC704700BF80B483B000AF7860DD
:10146C000B467B8013467B707B78002B08D07B6807
:10147C009B8A9AB27B8813439AB27B689A8209E062
:10148C007B689B8A9AB27B88DB439BB213409AB2EF
:10149C007B689A8200BF0C37BD4680BC704700BF8A
:1014AC0080B483B000AF78600B46FB707B681B8AFE
:1014BC009BB223F00F039AB27B681A827B681B8A5B
:1014CC009AB2FB789BB213439AB27B681A8200BF24
:1014DC000C37BD4680BC704780B483B000AF7860D9
:1014EC000B467B807B689B899BB223F400639AB28A
:1014FC007B689A817B689B899AB27B8813439AB2EA
:10150C007B689A8100BF0C37BD4680BC704700BF1A
:10151C0080B483B000AF78600B46FB70FB78002B77
:10152C0008D07B689B899BB243F002039AB27B681C
:10153C009A8107E07B689B899BB223F002039AB2E5
:10154C007B689A8100BF0C37BD4680BC704700BFDA
:10155C0080B483B000AF78600B467B807B681B8ABD
:10156C009BB223F020039AB27B681A827B681B8A99
:10157C009AB27B8813439AB27B681A8200BF0C37ED
:10158C00BD4680BC704700BF80B483B000AF7860AC
:10159C000B46FB70FB78002B08D07B681B8A9BB238
:1015AC0043F480439AB27B681A8207E07B681B8AFB
:1015BC009BB223F480439AB27B681A8200BF0C372B
:1015CC00BD4680BC704700BF80B483B000AF78606C
:1015DC000B467B807B88C3F308039AB27B689A80A6
:1015EC0000BF0C37BD4680BC704700BF80B483B0D1
:1015FC0000AF78607B689B889BB2C3F308039BB2F7
:10160C0018460C37BD4680BC704700BF80B483B011
:10161C0000AF78607B689B899BB243F001039AB260
:10162C007B689A8100BF0C37BD4680BC704700BFF9
:10163C0080B483B000AF78600B46FB707B681B8B6B
:10164C009BB2DBB29AB27B681A837B681B8B9AB213
:10165C00FB789BB21B029BB213439AB27B681A8332
:10166C0000BF0C37BD4680BC704700BF80B483B050
:10167C0000AF78600B46FB707B681B8B9BB223F032
:10168C00FF039AB27B681A837B681B8B9AB2FB7838
:10169C009BB213439AB27B681A8300BF0C37BD46CA
:1016AC0080BC704780B483B000AF78600B46FB7091
:1016BC00FB78002B08D07B689B8A9BB243F02003FD
:1016CC009AB27B689A8207E07B689B8A9BB223F074
:1016DC0020039AB27B689A8200BF0C37BD4680BC4F
:1016EC00704700BF80B483B000AF78600B46FB70CE
:1016FC00FB78002B08D07B689B8A9BB243F01003CD
:10170C009AB27B689A8207E07B689B8A9BB223F033
:10171C0010039AB27B689A8200BF0C37BD4680BC1E
:10172C00704700BF80B483B000AF78600B46FB708D
:10173C00FB78002B08D07B689B8A9BB243F0080394
:10174C009AB27B689A8207E07B689B8A9BB223F0F3
:10175C0008039AB27B689A8200BF0C37BD4680BCE6
:10176C00704700BF80B483B000AF78600B46FB704D
:10177C00FB78002B0AD07B689B899BB26FEA4343B2
:10178C006FEA53439AB27B689A8107E07B689B8926
:10179C009BB2C3F30E039AB27B689A8100BF0C37DD
:1017AC00BD4680BC704700BF80B483B000AF78608A
:1017BC000B46FB70FB78002B08D07B689B8A9BB296
:1017CC0043F400639AB27B689A8207E07B689B8A39
:1017DC009BB223F400639AB27B689A8200BF0C37E9
:1017EC00BD4680BC704700BF80B483B000AF78604A
:1017FC000B467B807B689B8A9BB223F004039AB2D6
:10180C007B689A827B689B8A9AB27B8813439AB2D4
:10181C007B689A8200BF0C37BD4680BC704700BF06
:10182C0080B483B000AF78600B46FB70FB78002B64
:10183C0008D07B689B8A9BB243F002039AB27B6808
:10184C009A8207E07B689B8A9BB223F002039AB2D0
:10185C007B689A8200BF0C37BD4680BC704700BFC6
:10186C0080B485B000AF78600B467B800023FB739F
:10187C007B681B889AB27B8813409BB2002B02D0EA
:10188C000123FB7301E00023FB73FB7B1846143729
:10189C00BD4680BC704700BF80B483B000AF786099
:1018AC000B467B807B88DB439AB27B681A8000BF37
:1018BC000C37BD4680BC704780B487B000AF7860F1
:1018CC000B467B800023FB6000237B610023BB6005
:1018DC000023FB747B88DBB25B09DBB2BB607B88CB
:1018EC0003F01F037B6101227B6902FA03F37B6126
:1018FC00BB68012B07D17B689B899BB21A467B691D
:10190C0013407B6111E0BB68022B07D17B681B8AFB
:10191C009BB21A467B6913407B6106E07B689B8A0D
:10192C009BB21A467B6913407B617B881B0A9BB276
:10193C00FB600122FB6802FA03F3FB607B681B88E7
:10194C009BB21A46FB681340FB607B69002B05D0E9
:10195C00FB68002B02D00123FB7401E00023FB7415
:10196C00FB7C18461C37BD4680BC704780B485B0E4
:10197C0000AF78600B467B800023FB810023BB818A
:10198C007B881B0AFB81FB89012202FA03F3BB81D2
:10199C00BB89DB439AB27B681A8000BF1437BD4603
:1019AC0080BC704780B485B000AF0346FB80002339
:1019BC00FB8108E042F6E063FB8100BFFB895A1E05
:1019CC00FA81002BFAD1FB885A1EFA80002BF1D138
:1019DC0000BF1437BD4680BC704700BF80B582B0D5
:1019EC0000AF01212E48FFF73BFF0346002B06D02A
:1019FC002B48FFF7FBFD01212948FFF74DFF08217C
:101A0C002748FFF72DFF0346002B06D02448FFF78D
:101A1C00EDFD08212248FFF73FFF02212048FFF788
:101A2C001FFF0346002B06D01D48FFF7DFFD0221E8
:101A3C001B48FFF731FF40F225511948FFF73CFFD7
:101A4C000346012B27D120211548FFF725FF40F233
:101A5C0025511348FFF78AFF1148FFF7C7FD0346CE
:101A6C00FB71012240F227710D48FFF7ADFCFB79A9
:101A7C009BB219460A48FFF7A7FD00BF8021084812
:101A8C00FFF7EEFE0346002BF8D0002240F2277140
:101A9C000348FFF799FC00BF0837BD4680BD00BF67
:101AAC000038014080B582B000AF0346FB71FB7972
:101ABC009BB219460748FFF787FD00BF4021054838
:101ACC00FFF7CEFE0346002BF8D000BF0837BD460B
:101ADC0080BD00BF0038014080B582B000AF786097
:101AEC0012E07B681B780A2B06D10D20FFF7DAFF7A
:101AFC000A20FFF7D7FF04E07B681B781846FFF736
:101B0C00D1FF7B6801337B607B681B78002BE8D1AD
:101B1C0000BF0837BD4680BD80B582B000AF00F075
:101B2C0059F800F061F800F087F800F0AFF81048B1
:101B3C00FFF7D2FF00237B607B68002B0BD10122C7
:101B4C0004210C48FEF786FD4FF4FA70FFF72AFFCC
:101B5C0001237B60F0E7002204210648FEF77AFDA2
:101B6C004FF4FA70FFF71EFF00237B60E4E700BF21
:101B7C004C1E00080008014080B400AF00BFBD46F9
:101B8C0080BC704780B400AFFEE700BF80B400AFEC
:101B9C00FEE700BF80B400AFFEE700BF80B400AF2B
:101BAC00FEE700BF80B400AF00BFBD4680BC7047ED
:101BBC0080B400AF00BFBD4680BC704780B400AF9E
:101BCC0000BFBD4680BC704780B400AF00BFBD46AF
:101BDC0080BC704780B500AF012144F20500FFF7CF
:101BEC0045F900BF80BD00BF80B582B000AF0323B4
:101BFC00BB714FF40073BB801823FB713B1D19465E
:101C0C000C48FEF7EFFB4FF48063BB800423FB71A1
:101C1C003B1D19460748FEF7E5FB0C23BB80102340
:101C2C00FB713B1D19460348FEF7DCFB00BF083770
:101C3C00BD4680BD0008014080B584B000AF4FF4B4
:101C4C0016533B600023BB800023FB8000233B81A9
:101C5C000023BB810C237B813B4619460A48FFF7C6
:101C6C007BFA012240F225510748FFF7ADFB012119
:101C7C000548FFF789FB40210348FFF70DFE00BF25
:101C8C001037BD4680BD00BF0038014080B582B022
:101C9C0000AF4FF4C060FEF761FA25233B710023BF
:101CAC007B710123BB710123FB713B1D1846FEF7B1
:101CBC0067FA00BF0837BD4680BD00BF002103E0B6
:101CCC000A4B5B584350043109480A4B42189A425C
:101CDC00F6D3094A02E0002342F8043B074B9A4230
:101CEC00F9D300F00FF8FFF717FF7047881E0008B4
:101CFC000000002040040020400400205C04002070
:101D0C00FEE7000070B50F4E0F4D761BB61018BFD6
:101D1C00002405D0013455F8043B9847A642F9D16C
:101D2C000A4E0B4D00F098F8761BB61018BF002425
:101D3C0006D0013455F8043B9847A642F9D170BD42
:101D4C0070BD00BF7C1E00087C1E0008841E0008AD
:101D5C007C1E0008024B13B1024800F005B8704716
:101D6C0000000000811D0008002301461A46184699
:101D7C0000F014B838B5074D074C2C1BA41005D037
:101D8C00013C55F8043D9847002CF9D1BDE838408A
:101D9C0000F068B8881E0008841E00082DE9F04782
:101DAC00254C064625688846D5F848419246994602
:101DBC00C4B360681F2817DC411C76B104EB8003A8
:101DCC00C3F888A0D4F88851012282401543022E12
:101DDC00C4F88851C3F808911ED0831C61600020A0
:101DEC0044F82380BDE8F087144B03B34FF4C8705C
:101DFC00AFF300800446D0B1D5F84831002784E811
:101E0C0088003846C5F848410121C4F88871C4F8E7
:101E1C008C71002EE1D0D1E7D4F88C311A43C4F880
:101E2C008C21DAE705F5A674C5F84841C1E74FF0F7
:101E3C00FF30BDE8F08700BF601E00080000000006
:101E4C0048656C6C6F20576F726C640A0000000060
:101E5C004300000018000020F8B500BFF8BC08BC17
:101E6C009E467047F8B500BFF8BC08BC9E4670474C
:081E7C00611D0008310100089E
:041E84000D01000844
:101E88000000000001020304010203040607080918
:101E980002040608000000000000000004030020FF
:101EA8006C030020D40300200000000000000000A4
:101EB800000000000000000000000000000000001A
:101EC8000000000000000000000000005C1E000888
:101ED80000000000000000000000000000000000FA
:101EE80000000000000000000000000000000000EA
:101EF80000000000000000000000000000000000DA
:101F080000000000000000000000000000000000C9
:101F180000000000000000000000000000000000B9
:101F280000000000000000000000000000000000A9
:101F38000000000000000000000000000000000099
:101F480001000000000000000E33CDAB34126DE636
:101F5800ECDE05000B00000000000000000000009F
:101F68000000000000000000000000000000000069
:101F78000000000000000000000000000000000059
:101F88000000000000000000000000000000000049
:101F98000000000000000000000000000000000039
:0400000508001CC90A
:00000001FF
