:020000040800F2
:1000000078040020190500087D0500087D0500081A
:100010007D0500087D0500087D0500080000000042
:100020000000000000000000000000007D05000846
:100030007D050008000000007D0500087D05000822
:100040007D0500087D0500087D0500087D05000888
:100050007D0500087D0500087D0500087D05000878
:100060007D0500087D0500087D0500087D05000868
:100070007D0500087D0500087D0500087D05000858
:100080007D0500087D0500087D05000800000000D2
:100090000000000000000000000000007D050008D6
:1000A0007D0500087D0500087D0500087D05000828
:1000B0007D0500087D0500087D0500087D05000818
:1000C0007D0500087D0500087D0500087D05000808
:1000D0007D0500087D0500087D0500087D050008F8
:1000E0007D0500087D0500087D0500080000000072
:1000F0000000000000000000000000000000000000
:1001000000000000000000000000000000000000EF
:1001100000000000000000007D0500087D050008CB
:040120005FF808F18B
:1001240010B5054C237833B9044B13B10448AFF32D
:1001340000800123237010BD7C0400200000000017
:100144004C0B000808B5034B1BB103490348AFF33C
:10015400008008BD00000000800400204C0B000853
:10016400154B002B08BF134B9D46A3F5803A002185
:100174008B460F461348144A121A00F0C9FC0F4B61
:10018400002B00D098470E4B002B00D0984700203E
:10019400002104000D000D48002802D00C48AFF3E4
:1001A400008000F091FC2000290000F013F800F01A
:1001B40077FC00BF00000800000000000000000001
:1001C400000000007C040020C8050020000000009E
:1001D4000000000080B582B000AF134800F028FA98
:1001E400124B7B607B68013B7B607B68002B14BFF8
:1001F40001230023DBB2002B00D0F3E70A4800F010
:1002040009FC0346002B0CBF01230023DBB2002BA7
:1002140004D00121044800F073FBE1E70021024807
:1002240000F06EFBDCE700BF98040020F6FF090035
:1002340080B584B002AF786039607B68012B11D13E
:100244003B684FF6FF7293420CD1042300930123C1
:100254000D220221054800F092F9054A0549034898
:1002640000F00AFC00BF0837BD4680BD980400209A
:1002740000000020B505000880B500AF4FF6FF71FF
:100284000120FFF7D5FF80BD80B500AF154B1B687B
:10029400144A43F001031360124B5A681149124B7C
:1002A40013404B600F4B1B680E4A23F0847323F4F6
:1002B400803313600B4B1B680A4A23F480231360BA
:1002C400084B5B68074A23F4FE035360054B4FF465
:1002D4001F029A6000F07EF8044B4FF000629A60AF
:1002E40000BF80BD001002400000FFF800ED00E0F8
:1002F40080B485B000AF0023FB600023BB60002303
:100304007B602F4B5B6803F00C03FB60FB68042BE2
:1003140007D0082B09D0002B38D12A4B2A4A1A605F
:1003240038E0284B284A1A6034E0254B5B6803F414
:100334007013BB60224B5B6803F480337B60BB6843
:100344009B0C0233BB607B68002B06D1BB681F4A41
:1003540002FB03F31B4A13601CE0194B5B6803F4B4
:100364000033002B14BF01230023DBB2002B06D083
:10037400BB68164A02FB03F3124A13600AE0BB6827
:10038400114A02FB03F30F4A136003E00D4B0E4ABC
:100394001A6000BF0A4B5B681B0903F00F030C4A89
:1003A400D35CDBB2FB60074B1A68FB6822FA03F3E9
:1003B400044A136000BF1437BD4680BC704700BFB9
:1003C400001002400400002000127A0000093D00E1
:1003D4000800002080B500AF00F002F800BF80BD27
:1003E40080B483B000AF00237B6000233B60474BA5
:1003F4001B68464A43F480331360444B1B6803F480
:1004040000333B607B6801337B603B68002B05D184
:100414007B68B3F5A06F01D0012300E00023002B1B
:1004240000D0EAE7394B1B6803F40033002B14BFF8
:1004340001230023DBB2002B02D001233B6001E047
:1004440000233B603B68012B0CBF01230023DBB27C
:10045400002B55D02E4B1B682D4A43F0100313601C
:100464002B4B1B682A4A23F003031360284B1B6899
:10047400274A43F002031360244B244A5B68536009
:10048400224B224A5B685360204B5B681F4A43F44B
:10049400806353601D4B5B681C4A23F47C135360D8
:1004A4001A4B5B68194A43F4E8135360174B1B68F3
:1004B400164A43F080731360144B1B6803F00073F7
:1004C400002B0CBF01230023DBB2002B00D0F3E789
:1004D4000E4B5B680D4A23F0030353600B4B5B68C0
:1004E4000A4A43F002035360084B5B6803F00C03B1
:1004F400082B14BF01230023DBB2002B00D0F3E749
:1005040000BF0C37BD4680BC704700BF00100240DE
:100514000020024080B582B000AF124B7B60124BCA
:100524003B603B68114A934208D27A68131D7B6092
:100534003B68191D396012681A60F2E70C480D49CE
:100544004FF000028842B8BF40F8042BFADBFFF7F3
:100554009BFE00F0B9FAFFF73DFE00BF0837BD4629
:1005640080BD00BF640B0008000000207C00002058
:100574007C040020C805002080B400AFFEE780B4EE
:1005840085B000AFF860B9607A603B60FB68BA6818
:100594001A60FB687A685A60FB683A689A60FB687C
:1005A400BA69DA60FB6818461437BD4680BC7047E8
:1005B40080B483B000AF78607B681B68194A32F856
:1005C40013301AB27B685B68012101FA03F31BB292
:1005D400DB431BB213401AB27B681B6891B2114A09
:1005E40022F813107B681B680E4A32F81330002B74
:1005F40011D10D4B9A697B681B680233012101FA02
:1006040003F3DB43084913408B617B681B68074A8B
:10061400002142F823107B6818460C37BD4680BC85
:10062400704700BFA804002000100240B00400205E
:1006340080B489B000AF786001233B610023FB6183
:100644000023BB610023FB6000237B617B681B6884
:10065400002B1BDB7B681B68032B17DC7B689B6808
:10066400002B03D07B689B68012B0FD17B68DB6870
:10067400002B0BDB7B68DB68042B07DC7B685B6887
:10068400002B03DB7B685B680F2B01DD0023F4E0A8
:100694007B681B687B4A32F813301A467B685B68B8
:1006A40042FA03F303F00103002B01D00023E4E03A
:1006B4007B681B68744A52F82330002B3CD17B685A
:1006C4001B68002B0CD17B681B686F4A6F4942F88A
:1006D40023106F4B9B696E4A43F0040393612BE034
:1006E4007B681B68012B0CD17B681B68664A6949CF
:1006F40042F82310664B9B69654A43F008039361F3
:100704001AE07B681B68022B0CD17B681B685E4A6D
:10071400614942F823105E4B9B695D4A43F0100324
:10072400936109E07B681B68032B05D1584B9B69D7
:10073400574A43F0200393617B689B68002B16D1D2
:100744007B68DB68012B02D14823BB6122E07B6814
:10075400DB68022B02D12823BB611BE07B68DB68CA
:10076400002B02D10023BB6114E0002385E07B68E9
:10077400DB68032B02D11423BB6108E07B68DB68D0
:10078400042B02D11023BB6101E0002375E0BB6997
:100794000133BB617B685B68072B0ADC7B681B68E1
:1007A400394A52F823301B68FB617B685B687B61C4
:1007B4000AE07B681B68344A52F823305B68FB61AB
:1007C4007B685B68083B7B617B699B000F2202FAB4
:1007D40003F3FB60FB68DB43FA691340FB617B694D
:1007E4009B00BA6902FA03F3FA691343FB617B685D
:1007F400DB68022B0BD17B685A687B681B68224933
:1008040051F82330012101FA02F25A610EE07B68AB
:10081400DB68012B0AD17B685A687B681B681A491C
:1008240051F82330012101FA02F21A617B685B68F6
:10083400072B07DC7B681B68134A52F82330FA69DC
:100844001A6006E07B681B680F4A52F82330FA6985
:100854005A607B681B680B4A32F813301AB27B6803
:100864005B68012101FA03F31BB213431AB27B68DC
:100874001B6891B2034A22F8131018462437BD4668
:1008840080BC7047A8040020B00400200008014088
:1008940000100240000C01400010014080B483B0FD
:1008A40000AF78607B681B68134A32F813301A462D
:1008B4007B685B6842FA03F303F00103002B14D056
:1008C4007B681B680D4A52F823309A687B685B6822
:1008D40022FA03F303F00103002B14BF01230023C6
:1008E400DBB2002B01D0012300E0002318460C37B3
:1008F400BD4680BC704700BFA8040020B00400209F
:1009040080B483B000AF786039603B68002B04D0BA
:100914003B68012B01D000232AE07B681B68174A3F
:1009240032F813301A467B685B6842FA03F303F02B
:100934000103002B1BD03B68012B0BD17B685A6849
:100944007B681B680E4951F82330012101FA02F239
:100954001A610AE07B685A687B681B68084951F889
:100964002330012101FA02F25A61012300E000233D
:1009740018460C37BD4680BC704700BFA804002051
:10098400B004002080B485B000AF78601F4B9B6931
:100994001E4A43F0010393610023FB607B685B689C
:1009A40003F003039B000F2202FA03F3FB60184ACF
:1009B4007B685B689B10023352F82310FB68DA43B0
:1009C40013487B685B689B100A40023340F823207D
:1009D4000F4A7B685B689B10023352F823107B68D4
:1009E4001B681A467B685B6803F003039B009A400C
:1009F40007487B685B689B100A43023340F8232056
:100A0400012318461437BD4680BC704700100240CD
:100A14000000014080B483B000AF78607B681B683D
:100A2400134A32F813301A467B685B6842FA03F3C0
:100A340003F00103002B14D07B681B680D4A52F8A5
:100A44002330DA687B685B6822FA03F303F001035E
:100A5400002B14BF01230023DBB2002B01D00123A0
:100A640000E0002318460C37BD4680BC704700BF29
:100A7400A8040020B00400200B460146184600F0EC
:100A840001B8000010B5054C13462CB10A460146C6
:100A94000220AFF3008010BD2046FCE700000000F8
:100AA40008B5074B044613B10021AFF30080054B92
:100AB4001868836A03B19847204600F031F800BFF4
:100AC400000000002C0B000870B500250C4E0D4CE6
:100AD400A41BA410A54209D100F02AF800250A4E4F
:100AE4000A4CA41BA410A54205D170BD56F82530AC
:100AF40098470135EEE756F8253098470135F2E777
:100B0400580B0008580B0008580B0008600B00082D
:100B140003460244934200D1704703F8011BF9E7EE
:100B2400FEE700BF300B00081C000020C0040020BA
:100B3400F8B500BFF8BC08BC9E467047F8B500BFC6
:080B4400F8BC08BC9E46704796
:040B4C0000000000A5
:080B500014F6FF7F0100000014
:080B5800490100087D020008BC
:040B60002501000863
:100B64000000000000A24A04000000000000000091
:100B740001020304060708091C000020000000000D
:100B84000000000000000000000000000000000061
:100B94000000000000000000000000000000000051
:100BA4000000000000000000000000000000000041
:100BB4000000000000000000000000000000000031
:0400000508000519D1
:00000001FF
