:020000040800F2
:10000000540C002065040008BD040008BD0400086D
:10001000BD040008BD040008BD0400080000000085
:10002000000000000000000000000000BD04000807
:10003000BD04000800000000BD040008BD04000865
:10004000BD040008BD040008BD040008BD0400088C
:10005000BD040008BD040008BD040008BD0400087C
:10006000BD040008BD040008BD040008BD0400086C
:10007000BD040008BD040008BD040008BD0400085C
:10008000BD040008BD040008BD0400080000000015
:10009000000000000000000000000000BD04000897
:1000A000BD040008BD040008BD040008BD0400082C
:1000B000BD040008BD040008BD040008BD0400081C
:1000C000BD040008BD040008BD040008BD0400080C
:1000D000BD040008BD040008BD040008BD040008FC
:1000E000BD040008BD040008BD04000800000000B5
:1000F0000000000000000000000000000000000000
:1001000000000000000000000000000000000000EF
:100110000000000000000000BD040008BD0400084D
:040120005FF808F18B
:10012400044B05481B1A062B02D9044B03B118478C
:10013400704700BF5B080020580800200000000042
:1001440005490648091A891001EBD171491002D0FA
:10015400034B03B118477047580800205808002083
:100164000000000010B5064C237843B9FFF7D8FF10
:10017400044B13B10448AFF300800123237010BD76
:10018400580C0020000000008C1F000808B5084B24
:100194001BB108490848AFF300800848036813B945
:1001A400BDE80840CCE7064B002BF9D09847F7E7A9
:1001B400000000005C0C00208C1F00085808002080
:1001C4000000000080B400AF00231846BD4680BC88
:1001D400704700BF80B500AF154A154B1B6843F04C
:1001E400010313601249124B5A68124B13404B60BF
:1001F4000F4A0F4B1B6823F0847323F4803313607E
:100204000B4A0B4B1B6823F480231360084A084BEA
:100214005B6823F4FE035360054B4FF41F029A609E
:1002240000F07EF8044B4FF000629A6000BF80BD7E
:10023400001002400000FFF800ED00E080B485B03B
:1002440000AF0023FB600023BB6000237B602F4BC7
:100254005B6803F00C03FB60FB68042B07D0082BDE
:1002640009D0002B38D12A4B2A4A1A6038E0284B8F
:10027400284A1A6034E0254B5B6803F47013BB60B2
:10028400224B5B6803F480337B60BB689B0C0233B6
:10029400BB607B68002B06D1BB681F4A02FB03F3DB
:1002A4001B4A13601CE0194B5B6803F40033002BFA
:1002B40014BF01230023DBB2002B06D0BB68164A0F
:1002C40002FB03F3124A13600AE0BB68114A02FB03
:1002D40003F30F4A136003E00D4B0E4A1A6000BF8C
:1002E4000A4B5B6803F0F0031B090C4AD35CDBB2D6
:1002F400FB60074B1A68FB6822FA03F3044A136095
:1003040000BF1437BD4680BC704700BF00100240D8
:100314000000002000127A0000093D0004000020C3
:1003240080B500AF00F002F800BF80BD80B483B098
:1003340000AF00237B6000233B60474A464B1B68A9
:1003440043F480331360444B1B6803F400333B6075
:100354007B6801337B603B68002B05D17B68B3F578
:10036400A06F01D0012300E00023002B00D0EAE7B6
:10037400394B1B6803F40033002B14BF0123002303
:10038400DBB2002B02D001233B6001E000233B6081
:100394003B68012B0CBF01230023DBB2002B55D09B
:1003A4002E4A2E4B1B6843F0100313602B4A2B4B31
:1003B4001B6823F003031360284A284B1B6843F08F
:1003C40002031360244A244B5B685360224A224B85
:1003D4005B685360204A204B5B6843F4806353603E
:1003E4001D4A1D4B5B6823F47C1353601A4A1A4B55
:1003F4005B6843F4E8135360174A174B1B6843F0D8
:1004040080731360144B1B6803F00073002B0CBF44
:1004140001230023DBB2002B00D0F3E70E4A0E4B7E
:100424005B6823F0030353600B4A0B4B5B6843F098
:1004340002035360084B5B6803F00C03082B14BFE2
:1004440001230023DBB2002B00D0F3E700BF0C37FD
:10045400BD4680BC704700BF00100240002002402F
:1004640080B582B000AF114B7B60114B3B603B68A1
:10047400104A934208D23B681A1D3A607A68111DEB
:10048400796012681A60F2E70D480E494FF00002D5
:100494008842B8BF40F8042BFADBFFF79BFEFFF756
:1004A40091FE00BF0837BD4680BD00BF7020000824
:1004B400000000205808002080B400AFFEE70000D0
:1004C400580C0020B00C002003685A004CBF43F0C5
:1004D400004323F000431844704700BF61B32DE983
:1004E400F84F01F1FF3A90460646D146002707EB44
:1004F400090404EBD4746410E50071190846FFF78D
:10050400E3FFA245834605F10800304409D0FFF714
:10051400DBFFC34500F1FF3005D8404509D2671C15
:10052400E5E7C34505D9A74202D004F1FF39DEE768
:1005340000210846BDE8F88F08467047012807D017
:10054400022807D0044B00280CBF1846002070472F
:100554000248704702487047550C0008590C0008BF
:100564005D0C000830B5254B83B004468D1E7BB36B
:1005740001A92846AFF3008020B301992A46FFF76A
:10058400ADFF0146F0B1FFF79FFF4B68A064012B5C
:1005940012D0002B01F1040021DBFFF795FF0023AB
:1005A400E06423650368002B1DDBFFF78DFF002348
:1005B4002061184603B030BD00232361052318468B
:1005C40003B030BD002323610923184603B030BDB6
:1005D4000B490C4B0846591AC9100191CEE7012367
:1005E400E0642365DEE7C3F30360FFF7A7FF002899
:1005F400206114BF00230923DBE700BF00000000D3
:100604008C1F000864200008036810B5DA0704464C
:1006140006D49B0700F1480009D500F05BFC236871
:10062400590709D51A070ED5DB0613D510BD00F0FE
:1006340049FC23685907F5D404F1D00000F052FCBA
:1006440023681A07F0D404F5A87000F053FC23685B
:10065400DB06EBD404F5E870BDE8104000F08EBC76
:1006640003680BB118447047184670470920704757
:10067400704700BF70B504460D4608E02A6C236934
:10068400626121462A4601209847082808D1296C2E
:100694002046FFF767FF06460028EFD000F086FEED
:1006A4000728FBD13046296CFFF7E2FF281D00F034
:1006B400FDFB00BF2DE9F0470646ADF5727D03ADA5
:1006C4000C1D17460FCC0FC50FCC0FC50FCC0FC593
:1006D40094E80F0002ACD6F80C80D6F8189085E8A0
:1006E4000F0000233046216C2360FFF73BFF0546D3
:1006F400002F14BF0A2709277DB1A36B47F010010F
:100704008DE810023246636401203346C04778BB4B
:1007140028460DF5727DBDE8F087236C4FF4F07226
:10072400736121467AA800F063FE33697AAA3146E0
:1007340038469847889B82468DE8100239466364A0
:10074400324633460120C04790B94FF4F0727AA97B
:10075400204600F04DFEBAF1080F06D1216C304658
:10076400FFF700FF09270546C6E7BAF1070F04D0D3
:1007740009200DF5727DBDE8F0872846216CFFF74E
:1007840077FF03A800F092FB406C7047F0B5CB6B89
:10079400F9B00B640E1D01AD0F4604460FCE0FC514
:1007A4000FCE0FC50FCE0FC596E80F004FF0FF36E2
:1007B40085E80F00009606E023696A4621469847BB
:1007C4000828054608D110992046FFF7CBFE0028DB
:1007D400F2D0092079B0F0BD6846FFF715FF062D69
:1007E400F7D139462046FFF745FF00BF30B4DD6B33
:1007F400C160826119461D64002230BC5AE700BF03
:1008040070B54369C6680B6426B10122FFF752FF35
:1008140000F0CCFD03690A4604460D460146022059
:100824009847072807D0082803D129462046FFF710
:1008340021FF00F0BBFD3046296CFFF719FF281D8E
:1008440000F034FBC2682AB110B4CC6B00220C64F3
:1008540010BC2FE79AE700BF704700BF836813B14D
:10086400014601201847704700B5042907D8DFE87E
:1008740001F00309060909000BB90F2A05D9022062
:100884005DF804FB01205DF804FB00EB8202526872
:100894001846019B1A605DF804FB00BF10B584B0D4
:1008A400002303AC0A4600941946FFF7DDFF0398C2
:1008B40004B010BD00B5042907D8DFE801F003092E
:1008C400060909000BB90F2A05D902205DF804FBBB
:1008D40001205DF804FB019900EB820209681846C7
:1008E40051605DF804FB00BF10B584B004AC44F85B
:1008F400042D00230A4600941946FFF7DBFF04B0D9
:1009040010BD00BFF0B5D36BADF50F7D1364151D9D
:1009140017AC07460E460FCD0FC40FCD0FC40FCD35
:100924000FC495E80F004FF0FF3584E80F001695CB
:1009340011E016A86A46FFF7D7FF314616A8B84754
:1009440080B9049B16AA69460820984705280446DE
:1009540009D0092806D026996846FFF703FE0C2122
:100964000028E6D0092416A8FFF74EFE20460DF510
:100974000F7DF0BD2DE9F04FCC6C914622688BB011
:1009840004340D460792089400F0030B1E46002B16
:1009940064D11202032307928DF825608DF8243068
:1009A4002B6DBBF1020F08BFAC6B13F0010343D1F5
:1009B40000F00800C2B2039201932768002F3DD0D3
:1009C400022E47D02788B4F802800434AB6C28F098
:1009D400010A0F2148469A44FFF760FF824537D841
:1009E40027F001039A4450452CBF002001204FEA10
:1009F400480808F0020807F0010748EA0708B8F1B8
:100A0400010F41D038D3B8F1020F1DD1236823F070
:100A140000420292BBF1000F79D130B10399002951
:100A240000F08180002A00F0A880002B79DB029B73
:100A3400013304EB8304C0E700230193022E40DD5D
:100A4400FFF714FE002842D009200BB0BDE8F08F58
:100A54000020CCE7D4F804800834B7E7022B9FDCED
:100A6400130CD9B212048DF82530022304EB81044F
:100A740007928DF8243093E7BBF1000F02D00028D1
:100A840040F0B080043498E7BBF1000F26D1B0B138
:100A940094E80C00991C4FEAD272D5D005F15801A4
:100AA4000133069100F09480201DFFF7D9FD06ABB9
:100AB40001462846AFF30080002840F0B88008348F
:100AC4007BE707A9484600F0F3FA0028BCD1019B54
:100AD400002B5CD108200BB0BDE8F08F0D214846F7
:100AE4002F6AFFF7DBFE8742E9D1AB6A9C42E6D16D
:100AF4002046FFF7E9FC0F2102464846FFF7F4FEC3
:100B040048462A460021FFF7EFFE07209DE70D2106
:100B140048462F6AFFF7C2FE874248D02368002B5D
:100B240085DA043483E7029B3BB305F15803271DA0
:100B3400CDF810B0DDF80C80A346DDF808A01C4603
:100B4400059602E0B245B04616D038460694FFF743
:100B540087FD06AB014600222846AFF3008008F16A
:100B6400010604370028EDD0029B5C464345DDF8BE
:100B740010B0059ED2D100E05C4648460D21FFF737
:100B84008DFE069B2862AC626B6206205DE70F2136
:100B94004846FFF783FE0E2102464846FFF7A4FEAF
:100BA40048462A4A0F21FFF79FFE07204DE7AB6A0C
:100BB4009C42B3D1042202990027A318A962EF62D0
:100BC4002A636B632368BB421FDB012301932EE777
:100BD40048460D21FFF762FE2862069B6B62AC62F9
:100BE400062032E72046FFF76FFC04340646AC6368
:100BF4002846AFF3008000283FF426AF484632462B
:100C04000F21FFF771FE07201FE70846013004EBB0
:100C14008000FFF759FC0F2102464846FFF764FEA7
:100C240048462A463946FFF75FFE07200DE7074688
:100C34000D214846FFF732FE022F2862CDD12B4604
:100C4400069A43F82C2F6B62C9E700BF000000002E
:100C540000238FE601238DE602238BE6F0B50446DC
:100C6400C5B004290DD8DFE801F057030C310F009B
:100C7400012B4FEA124695B266D17219102A40F23E
:100C84009F80022045B0F0BD002BFAD1102AF8D87D
:100C94002368D80600F1C98022AE3046019200F0E4
:100CA40077F9A06B019A0023012505FA03F111429B
:100CB40003D00168043046F823100133042BF4D127
:100CC400A063304600F05AF90020DBE7032BD8D1AB
:100CD400150C97B2EB19102BD3D823681E0700F11B
:100CE400B88022AE30467F0000F026F906EBC5023C
:100CF4007B1EA56B57B12946043A51F8040B013BFE
:100D040042F8040F581CF8D105EB87053046A5635B
:100D140000F0F0F80020B5E7002BB2D1A56B97B234
:100D2400201D012606FA03F1394203F1010302D022
:100D3400296804350160102B00F10400F2D112F48B
:100D440000503BD1A5639DE7052B9AD17719202F3D
:100D540097D80F2E65D92F46002D48D12A46002753
:100D6400002AA06B71DD00EBC202014644A800EB2F
:100D7400C6008C3851F8045B914240F8045FF9D105
:100D8400084697B13246102E44A938BF102201EB11
:100D9400C202A2F5C4727900043A00EB810150F852
:100DA400045B814242F8045FF9D1012B47D00F2E36
:100DB400A16332D917B102A800F094F8002061E7CA
:100DC4000F2E3FF65EAF00272268D1070DD522F023
:100DD4000101052B21600193204652D022F0030229
:100DE40040F8482B00F072F8019B002F51D0226884
:100DF400510736D4012B3ED00F2E06D822A80193DA
:100E040000F06CF8019B002FA8D002A8019300F019
:100E14006DF8019BC6F11002A2E722A800F05AF86F
:100E2400C8E7102FCFD9103FCEE723F0100323607B
:100E340004F5E870019200F0ABF8019A2CE7043154
:100E4400A16322A800F03EF8B8E7002F9AD101462A
:100E5400ABE723F00803236004F5A87000F06CF8F6
:100E64003FE7204622F0040240F8D02B019300F023
:100E74003DF8019BBEE722A8019300F027F8019BEF
:100E8400C8E741F0020140F8481B00F027F8019B35
:100E9400ABE7012B03D00F2E3FF660AFAEE722A8DD
:100EA400019300F013F8019B58E700BF00F13401EF
:100EB40091E838009C46A6464CF8045D90E8FF0F84
:100EC400E54600BD90EC210B704700BF80EC210B80
:100ED400704700BF90EC200B704700BF80EC200BE4
:100EE400704700BFD0EC200B704700BFC0EC200B54
:100EF400704700BFF0EC0201F0EC0211F0EC0221AB
:100F0400F0EC0231F0EC0241F0EC0251F0EC026141
:100F1400F0EC0271F0EC0281F0EC0291F0EC02A131
:100F2400F0EC02B1F0EC02C1F0EC02D1F0EC02E121
:100F3400F0EC02F1704700BFE0EC0201E0EC0211BA
:100F4400E0EC0221E0EC0231E0EC0241E0EC025181
:100F5400E0EC0261E0EC0271E0EC0281E0EC029171
:100F6400E0EC02A1E0EC02B1E0EC02C1E0EC02D161
:100F7400E0EC02E1E0EC02F1704700BFB0FC01815B
:100F8400B0FC0191B0FC01A1B0FC01B1704700BFFD
:100F9400A0FC0181A0FC0191A0FC01A1A0FC01B175
:100FA400704700BFEC4600B52DE900502DE9FF1F46
:100FB4004FF000032DE90C0001A9FFF7E7FBDDF872
:100FC40040E012B0704700BFEC4600B52DE9005078
:100FD4002DE9FF1F4FF000032DE90C0001A9FFF7D5
:100FE4000FFCDDF840E012B0704700BFEC4600B5DE
:100FF4002DE900502DE9FF1F4FF000032DE90C00EF
:1010040001A9FFF71FFCDDF840E012B0704700BFF4
:10101400EC4600B52DE900502DE9FF1F4FF0000309
:101024002DE90C0001ABFFF7E1FBDDF840E012B065
:10103400704700BFEC4600B52DE900502DE9FF1FB5
:101044004FF000032DE90C0001AAFFF75BFCDDF86B
:1010540040E012B0704700BF037A1BB9437A43B92A
:10106400B02070475A1E036802721A020260180EFA
:1010740070474268013B10B4437213680321141D86
:1010840001721A024460026010BC180E704700BF5F
:1010940000B585B003AA0023009219460C22FFF77D
:1010A400E3FB039805B05DF804FB00BFF0E700BF65
:1010B4002DE9F04306460D4685B04FF0000828465A
:1010C400FFF7CAFFB028044600F0B48020F07F0385
:1010D40013F0FF0320D000F0F003802B7AD0902B84
:1010E40035D0A02B48D0B02B5CD0C02B00F0898029
:1010F40000F0F803D02B0BD100F00702013242F4C8
:101104000022052301213046FFF7A8FD0028D6D090
:10111400092005B0BDE8F0830DF10C0919468700DC
:10112400CDF800900D223046FFF79EFBFFB2039BE3
:10113400043760064CBFDF1BFF180023CDF8009076
:1011440019460D2230460397FFF7B4FBB7E700F0CA
:101154000D030D2BDCD003AF002300F00F02194662
:1011640000973046FFF780FB0023009719460D22B5
:101174003046FFF79FFBA2E7C2434FF47F6302F0C0
:10118400070243FA02F2010702EA03024FF00003E6
:1011940048BF42F4804219463046FFF75FFD0028FD
:1011A400B6D18CE7B1284AD0B22853D0B32800F086
:1011B400818000F0FC03B42BAAD000F007020132B6
:1011C400012342F4002219463046FFF747FD002868
:1011D4009ED174E72846FFF73FFF24022043B0F571
:1011E400004F95D004010023A2B219463046FFF700
:1011F40035FD00288CD114F4004F18BF4FF00108BE
:101204005DE7C62862D0C7286CD000F0F803C02B75
:101214007BD0C82800F09180C9287FF479AF284694
:10122400FFF71AFF020300F00F0002F470220130EE
:10123400024366E7B8F1000F6ED0002069E7284644
:10124400FFF70AFF024600283FF462AF10F0F003F4
:10125400B9D05DE700230DF10C090D221946CDF834
:1012640000903046FFF700FB2846FFF7F5FE020624
:101274004FF002040CD5039B00F07F00A040034410
:1012840028460393FFF7E8FE030604F10704F2D4AB
:10129400039B00F07F0000FA04F203F501740023BD
:1012A4001444CDF8009019460D2230460394FFF7FC
:1012B40001FB04E72846FFF7CFFE010300F00F000F
:1012C40001F47021421C01230A437CE72846FFF7FE
:1012D400C3FE010300F00F0001F47021421C03233C
:1012E4000A4370E72846FFF7B7FE024600283FF49A
:1012F4000FAF10F0F0037FF40BAF04213046FFF77B
:10130400ADFC00287FF404AFD9E600F00F020132EF
:10131400032342F4202256E703AC43460E224146FF
:1013240000943046FFF7A0FA0094304643460F225B
:101334004146FFF7BFFA4046EBE62846FFF78CFE2E
:1013440000F0F00200F00F031032013343EA0232DE
:10135400D7E600BF10B5C36C84B003205A688DF87B
:101364000C00DC7912020833084601A901928DF8B9
:101374000D400293FFF79CFE04B010BD08B5FFF7C3
:1013840095FE806C08BD00BF08B5FFF78FFEC36CE7
:10139400D87903EB8000083008BD00BF08B500F021
:1013A40005F800BF08B5FFF7F9FF00BF08B5062030
:1013B40000F022F9012000F0B9FD00BF002301462E
:1013C4001A46184600F04CB938B5074D074C2C1B8B
:1013D400A41005D0013C55F8043D9847002CF9D1E0
:1013E400BDE8384000F0B8BD702000086C2000084B
:1013F400844641EA000313F0030349D1403A23D35E
:101404000B6803604B6843608B688360CB68C36080
:101414000B6903614B6943618B698361CB69C36168
:101424000B6A03624B6A43628B6A8362CB6AC36250
:101434000B6B03634B6B43638B6B8363CB6BC36338
:1014440040304031403ADBD230320BD30B6803607A
:101454004B6843608B688360CB68C3601030103185
:10146400103AF3D20C3205D351F8043B40F8043B54
:10147400043AF9D2043208D0D2071CBF11F8013B58
:1014840000F8013B01D30B8803806046704700BF1E
:10149400082A13D38B07B1D010F00303AED0C3F1E5
:1014A4000403D21ADB071CBF11F8013B00F8013B0F
:1014B400A4D331F8023B20F8023B9FE7043AD9D386
:1014C400013A11F8013B00F8013BF9D20B780370A3
:1014D4004B7843708B7883706046704738B5D0F88A
:1014E400DC420CB1002038BD8021054600F00AF929
:1014F400C5F8DC0250B12346224601E0D5F8DC02EF
:10150400C2500433802BF9D1002038BD4FF0FF3096
:1015140038BD00BF1F29F8B50AD8D0F8DC42074609
:1015240016460D464CB154F8250044F82560F8BD24
:10153400162202604FF0FF30F8BDFFF7CFFF10B95D
:10154400D7F8DC42EFE74FF0FF30F8BD1F2938B57C
:1015540022D8D0F8DC2205460C469AB152F8213044
:1015640083B1012B0CD0591C06D00025204642F82B
:1015740024509847284638BD16230360012038BDFF
:10158400002038BD284600F069F822460146284666
:10159400BDE8384000F04EB8162303604FF0FF302A
:1015A40038BD00BF1F2920D838B5D0F8DC32054635
:1015B4000C46A3B153F8242003EB84036AB1511CF5
:1015C40009D0012A05D0002520461D6090472846F1
:1015D40038BD032038BD022038BD012038BDFFF7D7
:1015E4007DFF28B9D5F8DC32E4E74FF0FF307047CF
:1015F4004FF0FF3038BD00BF024B01461868FFF7BB
:10160400A5BF00BF18000020024B0A460146186817
:10161400FFF780BF18000020014B1868FFF75EBF7A
:1016240018000020024B01461868FFF7BBBF00BF3B
:101634001800002038B50B46074C054611461846DD
:101644000023236000F05CFC431C00D038BD2368F9
:10165400002BFBD02B6038BDAC0C002000F048BC44
:101664002DE9F047254C064625688846D5F84841BB
:1016740092469946C4B360681F2817DC411C76B1B2
:1016840004EB8003C3F888A0D4F888510122824077
:101694001543022EC4F88851C3F808911ED0831C48
:1016A4006160002044F82380BDE8F087144B03B345
:1016B4004FF4C870AFF300800446D0B1D5F8483178
:1016C400002784E888003846C5F848410121C4F859
:1016D4008871C4F88C71002EE1D0D1E7D4F88C3134
:1016E4001A43C4F88C21DAE705F5A674C5F8484115
:1016F400C1E74FF0FF30BDE8F08700BF481F000886
:10170400000000002DE9F04F01F10B05162D83B008
:10171400064640F2A08035F0070500F1C080A942DA
:1017240000F2BD8000F098FAB5F5FC7FC0F08D8220
:101734006B0A00F0BB80042B00F27B81A80900F146
:10174400390E4FEA4E013830C04F07EB81014C6827
:101754000839A14207D1AEE0002A80F2AE80E468E5
:10176400A14200F0A880636823F003035A1B0F2AE8
:10177400F2DDB6493C6901F1080E744500F0A4811C
:10178400636823F003035A1B0F2A00F38A81002A9B
:10179400C1F814E0C1F810E080F29380B3F5007F43
:1017A40080F05881DB084A684FEAA3094FF0010C26
:1017B400013351F833800CFA09F901EBC30C49EAFF
:1017C4000202ACF1080CC4F80CC0C4F808804A60EA
:1017D40041F83340C8F80C40831001249C409442E3
:1017E4007CD8144206D120F003006400144200F1B6
:1017F4000400FAD007EBC009CC468046DCF80C1094
:101804008C4507D162E1002A80F27081C9688C4559
:1018140000F05C814B6823F003035A1B0F2AF2DDAE
:101824000C46CB6854F808CF45F00108C1F8048091
:101834000D4442F00101CCF80C303046C3F808C026
:101844007D613D61C5F80CE0C5F808E06960AA5007
:1018540000F004FA1FE0102921D800F0FDF910254A
:1018640006230220794F07EB83035C68A3F1080287
:10187400944200F034816368E16823F00303234455
:101884005A68A56842F00102E96030468D605A60EA
:1018940000F0E4F90834204603B0BDE8F08F0024DA
:1018A40020460C23336003B0BDE8F08F80214FF055
:1018B400400E3F2048E770465BE723445A68E168DE
:1018C400DFE723445A68304642F001025A60083484
:1018D40000F0C4F9204603B0BDE8F08FBC6863682B
:1018E40023F00309A94504D3C5EB09030F2B00F327
:1018F4009080DFF85C81D7F80834D8F800200133F1
:1019040004EB090A2A4400F05C8102F580520F328C
:1019140022F47F6222F00F0211463046019200F059
:101924009FF9B0F1FF3F8346019A00F0548182454C
:1019340000F2F880D8F80410DA451144C8F804100D
:1019440000F04E81D7F80834404801331BBFCAEB7E
:101954000B0A5144C0F808B4C8F804101BF007017E
:1019640000F01281C1F10803C1F580519B44083194
:101974000BEB0203C3F30B03C3EB010A51463046DE
:1019840000F06EF9431C00F03C81CBEB00035344A0
:1019940043F00103D8F80410BC425144C7F808B01E
:1019A400C8F80410CBF80430DFF8A4A016D0B9F1BD
:1019B4000F0F40F2F7806268A9F10C0323F00703CC
:1019C40002F00102E0184FF0050E1A430F2B62607B
:1019D400C0F804E0C0F808E000F21781D8F82C3011
:1019E4001B4A9942D8F8303088BFD162BC68184A83
:1019F400994288BF1163626822F003029542A2EB08
:101A0400050301D80F2B04DC304600F027F900242D
:101A140041E745F0010243F001032544626030468A
:101A2400BD6008346B6000F019F9204603B0BDE8CE
:101A3400F08F142B69D9542B00F29C80280B00F1F1
:101A44006F0E4FEA4E016E307EE600BF4804002060
:101A5400740C00205A0A042A5ED9142A00F2B380B6
:101A640002F15C0149005B3207EB810C57F821104D
:101A7400ACF1080C8C45DFF8DC8100F088804A6802
:101A840022F00302934202D289688C45F7D1D1F83F
:101A94000CC07A68C4F80CC0A160CCF80840CC60D3
:101AA4009AE645F0010742F0010325446760304699
:101AB4004D610D61C5F80CE0C5F808E06B60AA50F3
:101AC400083400F0CBF8E6E64A6885E608F1010838
:101AD40018F0030F0CF1080C7FF490AE30E0DC68D2
:101AE400A34208BF02303FF444AEC4E60C460B44A4
:101AF4005A68C96854F8085F42F001025A603046D7
:101B0400E9608D6000F0AAF8C5E603F15C0E03F10C
:101B14005B004FEA4E0117E69A0902F139014900C8
:101B24003832A1E7BC424B4B3FF404AF9C68626877
:101B340022F0030262E759F80839994540F083809E
:101B440010F0030F00F1FF30F5D17B6823EA0403A2
:101B54007B6064009C423FF6C1AE002C3FF4BEAEF5
:101B64001C4240467FF446AE64001C4200F104006F
:101B7400FAD03FE6B3F5AA7F18D8E80B00F1780E47
:101B84004FEA4E017730DFE54FF48051F0E6012152
:101B9400D8F80430921001FA02F21A43C8F804206B
:101BA400614677E70123CBF804302DE740F2545225
:101BB400934221D8A80C00F17D0E4FEA4E017C30EF
:101BC400C2E51032A8E6542A27D81A0B02F16F0195
:101BD40049006E3248E7BC68626822F003020DE7F0
:101BE400CAF30B03002B7FF4ADAE09EB0203BA6812
:101BF40043F001035360F1E6FE214FF07F0E7E2097
:101C0400A2E501234FF0000AC4E604F108013046BE
:101C140000F086F8DAF80410E0E6B2F5AA7F05D8F9
:101C2400DA0B02F17801490077321DE740F2545192
:101C34008A4205D89A0C02F17D0149007C3213E7EF
:101C4400FE217E2210E77B6883E7E808431C5B00E3
:101C540008E600BF48040020704700BF704700BF7B
:101C640038B5074C002305460846236000F050F9B8
:101C7400431C00D038BD2368002BFBD02B6038BD3B
:101C8400AC0C0020F8B50C46224F0646FFF7E4FFE3
:101C9400BB685D6825F00305291B01F6EF7121F48B
:101CA4007F6121F00F01A1F58054B4F5805F07DB5B
:101CB40000213046FFF7D4FFBB682B44984204D080
:101CC4003046FFF7CBFF0020F8BD61423046FFF7F6
:101CD400C7FF01300DD0104BBA6819682D1B45F0B1
:101CE40001053046091B55601960FFF7B7FF012055
:101CF400F8BD00213046FFF7B3FFBA68831A0F2BF3
:101D0400DEDD064C0449246843F00103001B5360E4
:101D14000860D5E748040020780C00205008002013
:101D2400002945D02DE9F0410D468046FFF794FF88
:101D340055F8047C6A49A5F1080427F00103E21868
:101D44008E685068B24220F0030062D0FE075060F3
:101D54000BD455F8087C01F1080EE41BA5683B443C
:101D640075456FD0E768EF60BD6015186D68ED07C5
:101D740042D543F001026260E350B3F5007F18D20C
:101D8400DB0848689D100122013351F8337002FAD0
:101D940005F501EBC3022843083AE260A7604860F6
:101DA40041F83340FC604046BDE8F041FFF756BFC0
:101DB40070475A0A042A53D89A0902F139077F0056
:101DC40002F1380501EB870051F8272008389042CA
:101DD40043494DD0516821F003018B4202D29268ED
:101DE4009042F7D1D068E060A2608460D46040463D
:101DF400BDE8F041FFF732BF95683A4F0344BD4256
:101E04003FD0D06843F00102E86085606260E3502F
:101E1400B3E7FF07034407D455F8085C641BE26882
:101E2400A0682B44C26090602F4A43F001001268FE
:101E3400606093428C60B6D32C4B40461968FFF720
:101E440021FFB0E711184968C90744D491680344D5
:101E5400D26843F00100CA6091606060E350A2E779
:101E6400142A17D802F15C077F0002F15B05A9E789
:101E7400AA104B68012505FA02F213434B6002468F
:101E8400B1E743F001024C610C61E560A56062605A
:101E9400E35088E7542A06D81A0B02F16F077F0033
:101EA40002F16E058EE7B2F5AA7F06D8DA0B02F1CD
:101EB40078077F0002F1770584E740F254508242AC
:101EC40006D89A0C02F17D077F0002F17C0579E7C0
:101ED400FE277E2576E743F001026260E35062E765
:101EE400480400205004002054080020740C0020F2
:101EF400024B58221A604FF0FF307047AC0C0020A0
:101F0400024B58221A604FF0FF307047AC0C00208F
:101F1400044A05491368002B08BF0B461844106097
:101F240018467047A80C0020B00C0020FEE700BF44
:101F3400024B13B10248FFF741BA7047000000009A
:101F4400CD1300082000002043000000F8B500BFB6
:101F5400F8BC08BC9E467047F8B500BFF8BC08BC86
:041F64009E467047DE
:101F680001970181B0B008840000000008B1018128
:101F7800B0B000840000000008B10181B0B0008456
:041F88000000000055
:101F8C003CE2FF7F0100000044E2FF7F0884978061
:101F9C00A4E2FF7F01000000C0E4FF7FC0FFFF7FD1
:101FAC0010E5FF7F01000000B4E5FF7FB0A90280BF
:101FBC0050E6FF7FB0B0A880A0E6FF7F01000000D4
:101FCC00ACE6FF7FB0B0AA80E4E6FF7FAE71B280D2
:101FDC00B0E7FF7F01000000ACE7FF7FAB3F38802C
:101FEC0004E8FF7F0100000010E8FF7FB0B0AA807A
:101FFC004CE8FF7F0100000004E9FF7FAB0EB280CC
:10200C006CE9FF7FB0AF0A8040ECFF7F010000005D
:10201C0044ECFF7FAB3F04808CEEFF7F010000009F
:10202C0068F0FF7F008404807CF0FF7F01000000DB
:10203C0078F0FF7FB0AD048014F3FF7FB0A803806D
:10204C0034F3FF7F24FFFF7F38F3FF7F28FFFF7FF0
:08205C0044F3FF7F01000000C6
:08206400351F0008910100087E
:04206C0069010008FE
:1020700000A24A0400000000000000000102030466
:1020800006070809000000002000002000000000F2
:10209000000000000C03002074030020DC0300207B
:1020A0000000000000000000000000000000000030
:1020B0000000000000000000000000000000000020
:1020C000000000004C1F000800000000000000009D
:1020D0000000000000000000000000000000000000
:1020E00000000000000000000000000000000000F0
:1020F00000000000000000000000000000000000E0
:1021000000000000000000000000000000000000CF
:1021100000000000000000000000000000000000BF
:1021200000000000000000000000000000000000AF
:10213000000000000000000001000000000000009E
:102140000E33CDAB34126DE6ECDE05000B00000063
:10215000000000000000000000000000000000007F
:10216000000000000000000000000000000000006F
:10217000000000000000000000000000000000005F
:10218000000000000000000000000000000000004F
:1024C000480400204804002050040020500400204C
:1024D00058040020580400206004002060040020FC
:1024E00068040020680400207004002070040020AC
:1024F000780400207804002080040020800400205C
:10250000880400208804002090040020900400200B
:102510009804002098040020A0040020A0040020BB
:10252000A8040020A8040020B0040020B00400206B
:10253000B8040020B8040020C0040020C00400201B
:10254000C8040020C8040020D0040020D0040020CB
:10255000D8040020D8040020E0040020E00400207B
:10256000E8040020E8040020F0040020F00400202B
:10257000F8040020F80400200005002000050020D9
:102580000805002008050020100500201005002087
:102590001805002018050020200500202005002037
:1025A00028050020280500203005002030050020E7
:1025B0003805002038050020400500204005002097
:1025C0004805002048050020500500205005002047
:1025D00058050020580500206005002060050020F7
:1025E00068050020680500207005002070050020A7
:1025F0007805002078050020800500208005002057
:102600008805002088050020900500209005002006
:102610009805002098050020A0050020A0050020B6
:10262000A8050020A8050020B0050020B005002066
:10263000B8050020B8050020C0050020C005002016
:10264000C8050020C8050020D0050020D0050020C6
:10265000D8050020D8050020E0050020E005002076
:10266000E8050020E8050020F0050020F005002026
:10267000F8050020F80500200006002000060020D4
:102680000806002008060020100600201006002082
:102690001806002018060020200600202006002032
:1026A00028060020280600203006002030060020E2
:1026B0003806002038060020400600204006002092
:1026C0004806002048060020500600205006002042
:1026D00058060020580600206006002060060020F2
:1026E00068060020680600207006002070060020A2
:1026F0007806002078060020800600208006002052
:102700008806002088060020900600209006002001
:102710009806002098060020A0060020A0060020B1
:10272000A8060020A8060020B0060020B006002061
:10273000B8060020B8060020C0060020C006002011
:10274000C8060020C8060020D0060020D0060020C1
:10275000D8060020D8060020E0060020E006002071
:10276000E8060020E8060020F0060020F006002021
:10277000F8060020F80600200007002000070020CF
:10278000080700200807002010070020100700207D
:10279000180700201807002020070020200700202D
:1027A00028070020280700203007002030070020DD
:1027B000380700203807002040070020400700208D
:1027C000480700204807002050070020500700203D
:1027D00058070020580700206007002060070020ED
:1027E000680700206807002070070020700700209D
:1027F000780700207807002080070020800700204D
:1028000088070020880700209007002090070020FC
:102810009807002098070020A0070020A0070020AC
:10282000A8070020A8070020B0070020B00700205C
:10283000B8070020B8070020C0070020C00700200C
:10284000C8070020C8070020D0070020D0070020BC
:10285000D8070020D8070020E0070020E00700206C
:10286000E8070020E8070020F0070020F00700201C
:10287000F8070020F80700200008002000080020CA
:102880000808002008080020100800201008002078
:102890001808002018080020200800202008002028
:1028A00028080020280800203008002030080020D8
:1028B0003808002038080020400800204008002088
:0828C000FFFFFFFF0000020012
:1028C8000000000000000000000000000000000000
:1028D80000000000000000000000000000000000F0
:1028E80000000000000000000000000000000000E0
:1028F80000000000000000000000000000000000D0
:040000050800046586
:00000001FF
